{
  "_format": "hh-sol-artifact-1",
  "contractName": "Owners",
  "sourceName": "blockchain/contracts/Owners.sol",
  "abi": [
    {
      "anonymous": false,
      "inputs": [
        {
          "indexed": false,
          "internalType": "string",
          "name": "vin",
          "type": "string"
        },
        {
          "indexed": false,
          "internalType": "string",
          "name": "regNum",
          "type": "string"
        },
        {
          "indexed": false,
          "internalType": "string",
          "name": "owner",
          "type": "string"
        },
        {
          "indexed": false,
          "internalType": "string",
          "name": "co_owner",
          "type": "string"
        },
        {
          "indexed": false,
          "internalType": "string",
          "name": "regProvince",
          "type": "string"
        }
      ],
      "name": "OwnerChanged",
      "type": "event"
    },
    {
      "inputs": [
        {
          "internalType": "string",
          "name": "_vin",
          "type": "string"
        }
      ],
      "name": "getBlocksNums",
      "outputs": [
        {
          "internalType": "uint256[]",
          "name": "_blocksNums",
          "type": "uint256[]"
        }
      ],
      "stateMutability": "view",
      "type": "function"
    },
    {
      "inputs": [
        {
          "internalType": "string",
          "name": "_vin",
          "type": "string"
        }
      ],
      "name": "getOwnerInfo",
      "outputs": [
        {
          "internalType": "string",
          "name": "_regNum",
          "type": "string"
        },
        {
          "internalType": "string",
          "name": "_owner",
          "type": "string"
        },
        {
          "internalType": "string",
          "name": "_co_owner",
          "type": "string"
        },
        {
          "internalType": "string",
          "name": "_regProvince",
          "type": "string"
        }
      ],
      "stateMutability": "view",
      "type": "function"
    },
    {
      "inputs": [
        {
          "internalType": "string",
          "name": "_vin",
          "type": "string"
        },
        {
          "internalType": "string",
          "name": "_regNum",
          "type": "string"
        },
        {
          "internalType": "string",
          "name": "_owner",
          "type": "string"
        },
        {
          "internalType": "string",
          "name": "_co_owner",
          "type": "string"
        },
        {
          "internalType": "string",
          "name": "_regProvince",
          "type": "string"
        },
        {
          "internalType": "address",
          "name": "_vehiclesContract",
          "type": "address"
        }
      ],
      "name": "setOwnerInfo",
      "outputs": [],
      "stateMutability": "nonpayable",
      "type": "function"
    }
  ],
  "bytecode": "0x608060405234801561001057600080fd5b506111e8806100206000396000f3fe608060405234801561001057600080fd5b50600436106100415760003560e01c80630963182214610046578063c9fda37314610076578063ccea176714610092575b600080fd5b610060600480360381019061005b9190610935565b6100c5565b60405161006d9190610a46565b60405180910390f35b610090600480360381019061008b9190610ac6565b61013e565b005b6100ac60048036038101906100a79190610935565b6103e9565b6040516100bc9493929190610c5e565b60405180910390f35b60606000826040516100d79190610cfb565b908152602001604051809103902060050180548060200260200160405190810160405280929190818152602001828054801561013257602002820191906000526020600020905b81548152602001906001019080831161011e575b50505050509050919050565b6000819050600115158173ffffffffffffffffffffffffffffffffffffffff166330f2c560896040518263ffffffff1660e01b81526004016101809190610d12565b602060405180830381865afa15801561019d573d6000803e3d6000fd5b505050506040513d601f19601f820116820180604052508101906101c19190610d6c565b151514876040516020016101d59190610e31565b60405160208183030381529060405290610225576040517f08c379a000000000000000000000000000000000000000000000000000000000815260040161021c9190610d12565b60405180910390fd5b50600080886040516102379190610cfb565b908152602001604051809103902060050190508043908060018154018082558091505060019003906000526020600020016000909190919091505560006040518060c001604052808a8152602001898152602001888152602001878152602001868152602001838054806020026020016040519081016040528092919081815260200182805480156102e857602002820191906000526020600020905b8154815260200190600101908083116102d4575b505050505081525090508060008a6040516103039190610cfb565b90815260200160405180910390206000820151816000019081610326919061106a565b50602082015181600101908161033c919061106a565b506040820151816002019081610352919061106a565b506060820151816003019081610368919061106a565b50608082015181600401908161037e919061106a565b5060a082015181600501908051906020019061039b929190610771565b509050507f17807fdc5350d77824b5b363fc60d758a617d249e12cbe7e57f694c21a2fbf1b89898989896040516103d695949392919061113c565b60405180910390a1505050505050505050565b606080606080600080866040516104009190610cfb565b90815260200160405180910390206040518060c001604052908160008201805461042990610e8d565b80601f016020809104026020016040519081016040528092919081815260200182805461045590610e8d565b80156104a25780601f10610477576101008083540402835291602001916104a2565b820191906000526020600020905b81548152906001019060200180831161048557829003601f168201915b505050505081526020016001820180546104bb90610e8d565b80601f01602080910402602001604051908101604052809291908181526020018280546104e790610e8d565b80156105345780601f1061050957610100808354040283529160200191610534565b820191906000526020600020905b81548152906001019060200180831161051757829003601f168201915b5050505050815260200160028201805461054d90610e8d565b80601f016020809104026020016040519081016040528092919081815260200182805461057990610e8d565b80156105c65780601f1061059b576101008083540402835291602001916105c6565b820191906000526020600020905b8154815290600101906020018083116105a957829003601f168201915b505050505081526020016003820180546105df90610e8d565b80601f016020809104026020016040519081016040528092919081815260200182805461060b90610e8d565b80156106585780601f1061062d57610100808354040283529160200191610658565b820191906000526020600020905b81548152906001019060200180831161063b57829003601f168201915b5050505050815260200160048201805461067190610e8d565b80601f016020809104026020016040519081016040528092919081815260200182805461069d90610e8d565b80156106ea5780601f106106bf576101008083540402835291602001916106ea565b820191906000526020600020905b8154815290600101906020018083116106cd57829003601f168201915b505050505081526020016005820180548060200260200160405190810160405280929190818152602001828054801561074257602002820191906000526020600020905b81548152602001906001019080831161072e575b505050505081525050905080602001518160400151826060015183608001519450945094509450509193509193565b8280548282559060005260206000209081019282156107ad579160200282015b828111156107ac578251825591602001919060010190610791565b5b5090506107ba91906107be565b5090565b5b808211156107d75760008160009055506001016107bf565b5090565b6000604051905090565b600080fd5b600080fd5b600080fd5b600080fd5b6000601f19601f8301169050919050565b7f4e487b7100000000000000000000000000000000000000000000000000000000600052604160045260246000fd5b610842826107f9565b810181811067ffffffffffffffff821117156108615761086061080a565b5b80604052505050565b60006108746107db565b90506108808282610839565b919050565b600067ffffffffffffffff8211156108a05761089f61080a565b5b6108a9826107f9565b9050602081019050919050565b82818337600083830152505050565b60006108d86108d384610885565b61086a565b9050828152602081018484840111156108f4576108f36107f4565b5b6108ff8482856108b6565b509392505050565b600082601f83011261091c5761091b6107ef565b5b813561092c8482602086016108c5565b91505092915050565b60006020828403121561094b5761094a6107e5565b5b600082013567ffffffffffffffff811115610969576109686107ea565b5b61097584828501610907565b91505092915050565b600081519050919050565b600082825260208201905092915050565b6000819050602082019050919050565b6000819050919050565b6109bd816109aa565b82525050565b60006109cf83836109b4565b60208301905092915050565b6000602082019050919050565b60006109f38261097e565b6109fd8185610989565b9350610a088361099a565b8060005b83811015610a39578151610a2088826109c3565b9750610a2b836109db565b925050600181019050610a0c565b5085935050505092915050565b60006020820190508181036000830152610a6081846109e8565b905092915050565b600073ffffffffffffffffffffffffffffffffffffffff82169050919050565b6000610a9382610a68565b9050919050565b610aa381610a88565b8114610aae57600080fd5b50565b600081359050610ac081610a9a565b92915050565b60008060008060008060c08789031215610ae357610ae26107e5565b5b600087013567ffffffffffffffff811115610b0157610b006107ea565b5b610b0d89828a01610907565b965050602087013567ffffffffffffffff811115610b2e57610b2d6107ea565b5b610b3a89828a01610907565b955050604087013567ffffffffffffffff811115610b5b57610b5a6107ea565b5b610b6789828a01610907565b945050606087013567ffffffffffffffff811115610b8857610b876107ea565b5b610b9489828a01610907565b935050608087013567ffffffffffffffff811115610bb557610bb46107ea565b5b610bc189828a01610907565b92505060a0610bd289828a01610ab1565b9150509295509295509295565b600081519050919050565b600082825260208201905092915050565b60005b83811015610c19578082015181840152602081019050610bfe565b60008484015250505050565b6000610c3082610bdf565b610c3a8185610bea565b9350610c4a818560208601610bfb565b610c53816107f9565b840191505092915050565b60006080820190508181036000830152610c788187610c25565b90508181036020830152610c8c8186610c25565b90508181036040830152610ca08185610c25565b90508181036060830152610cb48184610c25565b905095945050505050565b600081905092915050565b6000610cd582610bdf565b610cdf8185610cbf565b9350610cef818560208601610bfb565b80840191505092915050565b6000610d078284610cca565b915081905092915050565b60006020820190508181036000830152610d2c8184610c25565b905092915050565b60008115159050919050565b610d4981610d34565b8114610d5457600080fd5b50565b600081519050610d6681610d40565b92915050565b600060208284031215610d8257610d816107e5565b5b6000610d9084828501610d57565b91505092915050565b7f56656869636c6520000000000000000000000000000000000000000000000000600082015250565b6000610dcf600883610cbf565b9150610dda82610d99565b600882019050919050565b7f206e6f7420666f756e6421000000000000000000000000000000000000000000600082015250565b6000610e1b600b83610cbf565b9150610e2682610de5565b600b82019050919050565b6000610e3c82610dc2565b9150610e488284610cca565b9150610e5382610e0e565b915081905092915050565b7f4e487b7100000000000000000000000000000000000000000000000000000000600052602260045260246000fd5b60006002820490506001821680610ea557607f821691505b602082108103610eb857610eb7610e5e565b5b50919050565b60008190508160005260206000209050919050565b60006020601f8301049050919050565b600082821b905092915050565b600060088302610f207fffffffffffffffffffffffffffffffffffffffffffffffffffffffffffffffff82610ee3565b610f2a8683610ee3565b95508019841693508086168417925050509392505050565b6000819050919050565b6000610f67610f62610f5d846109aa565b610f42565b6109aa565b9050919050565b6000819050919050565b610f8183610f4c565b610f95610f8d82610f6e565b848454610ef0565b825550505050565b600090565b610faa610f9d565b610fb5818484610f78565b505050565b5b81811015610fd957610fce600082610fa2565b600181019050610fbb565b5050565b601f82111561101e57610fef81610ebe565b610ff884610ed3565b81016020851015611007578190505b61101b61101385610ed3565b830182610fba565b50505b505050565b600082821c905092915050565b600061104160001984600802611023565b1980831691505092915050565b600061105a8383611030565b9150826002028217905092915050565b61107382610bdf565b67ffffffffffffffff81111561108c5761108b61080a565b5b6110968254610e8d565b6110a1828285610fdd565b600060209050601f8311600181146110d457600084156110c2578287015190505b6110cc858261104e565b865550611134565b601f1984166110e286610ebe565b60005b8281101561110a578489015182556001820191506020850194506020810190506110e5565b868310156111275784890151611123601f891682611030565b8355505b6001600288020188555050505b505050505050565b600060a08201905081810360008301526111568188610c25565b9050818103602083015261116a8187610c25565b9050818103604083015261117e8186610c25565b905081810360608301526111928185610c25565b905081810360808301526111a68184610c25565b9050969550505050505056fea26469706673582212206b0da151146f9cf8849c0fee01c5d19f50bef116e2439263733290ac7b275d5564736f6c63430008110033",
  "linkReferences": {},
  "deployedLinkReferences": {}
}