{
  "_format": "hh-sol-artifact-1",
  "contractName": "Vehicles",
  "sourceName": "blockchain/contracts/Vehicles.sol",
  "abi": [
    {
      "anonymous": false,
      "inputs": [
        {
          "indexed": false,
          "internalType": "string",
          "name": "vin",
          "type": "string"
        },
        {
          "indexed": false,
          "internalType": "string",
          "name": "model",
          "type": "string"
        },
        {
          "indexed": false,
          "internalType": "string",
          "name": "brand",
          "type": "string"
        }
      ],
      "name": "VehicleAdded",
      "type": "event"
    },
    {
      "inputs": [
        {
          "internalType": "string",
          "name": "_vin",
          "type": "string"
        },
        {
          "internalType": "string[]",
          "name": "_vehicleDetails",
          "type": "string[]"
        },
        {
          "internalType": "string[]",
          "name": "_ownerDetails",
          "type": "string[]"
        },
        {
          "internalType": "address",
          "name": "_ownersContract",
          "type": "address"
        }
      ],
      "name": "addVehicle",
      "outputs": [],
      "stateMutability": "nonpayable",
      "type": "function"
    },
    {
      "inputs": [
        {
          "internalType": "string",
          "name": "_vin",
          "type": "string"
        }
      ],
      "name": "checkVehicleExists",
      "outputs": [
        {
          "internalType": "bool",
          "name": "",
          "type": "bool"
        }
      ],
      "stateMutability": "view",
      "type": "function"
    },
    {
      "inputs": [
        {
          "internalType": "string",
          "name": "_vin",
          "type": "string"
        }
      ],
      "name": "getBasicVehicleInfo",
      "outputs": [
        {
          "internalType": "string",
          "name": "_brand",
          "type": "string"
        },
        {
          "internalType": "string",
          "name": "_model",
          "type": "string"
        },
        {
          "internalType": "string",
          "name": "_regCertStatus",
          "type": "string"
        }
      ],
      "stateMutability": "view",
      "type": "function"
    },
    {
      "inputs": [],
      "name": "getVinNumbers",
      "outputs": [
        {
          "internalType": "string[]",
          "name": "",
          "type": "string[]"
        }
      ],
      "stateMutability": "view",
      "type": "function"
    },
    {
      "inputs": [
        {
          "internalType": "string",
          "name": "_vin",
          "type": "string"
        },
        {
          "internalType": "string",
          "name": "_status",
          "type": "string"
        }
      ],
      "name": "setRegCertStatus",
      "outputs": [],
      "stateMutability": "nonpayable",
      "type": "function"
    }
  ],
  "bytecode": "0x608060405234801561001057600080fd5b506112c5806100206000396000f3fe608060405234801561001057600080fd5b50600436106100575760003560e01c806330f2c5601461005c5780633b7314791461008c5780634d4b0804146100a8578063c0af028b146100c6578063d6d69175146100f8575b600080fd5b61007660048036038101906100719190610937565b610114565b604051610083919061099b565b60405180910390f35b6100a660048036038101906100a191906109b6565b61014d565b005b6100b0610180565b6040516100bd9190610b6f565b60405180910390f35b6100e060048036038101906100db9190610937565b610259565b6040516100ef93929190610bdb565b60405180910390f35b610112600480360381019061010d9190610d6b565b6104f0565b005b6000806001836040516101279190610e62565b9081526020016040518091039020600001805461014390610ea8565b9050119050919050565b8060018360405161015e9190610e62565b9081526020016040518091039020600301908161017b919061108f565b505050565b60606000805480602002602001604051908101604052809291908181526020016000905b828210156102505783829060005260206000200180546101c390610ea8565b80601f01602080910402602001604051908101604052809291908181526020018280546101ef90610ea8565b801561023c5780601f106102115761010080835404028352916020019161023c565b820191906000526020600020905b81548152906001019060200180831161021f57829003601f168201915b5050505050815260200190600101906101a4565b50505050905090565b606080606060006001856040516102709190610e62565b908152602001604051809103902060405180608001604052908160008201805461029990610ea8565b80601f01602080910402602001604051908101604052809291908181526020018280546102c590610ea8565b80156103125780601f106102e757610100808354040283529160200191610312565b820191906000526020600020905b8154815290600101906020018083116102f557829003601f168201915b5050505050815260200160018201805461032b90610ea8565b80601f016020809104026020016040519081016040528092919081815260200182805461035790610ea8565b80156103a45780601f10610379576101008083540402835291602001916103a4565b820191906000526020600020905b81548152906001019060200180831161038757829003601f168201915b505050505081526020016002820180546103bd90610ea8565b80601f01602080910402602001604051908101604052809291908181526020018280546103e990610ea8565b80156104365780601f1061040b57610100808354040283529160200191610436565b820191906000526020600020905b81548152906001019060200180831161041957829003601f168201915b5050505050815260200160038201805461044f90610ea8565b80601f016020809104026020016040519081016040528092919081815260200182805461047b90610ea8565b80156104c85780601f1061049d576101008083540402835291602001916104c8565b820191906000526020600020905b8154815290600101906020018083116104ab57829003601f168201915b5050505050815250509050806020015181604001518260600151935093509350509193909250565b600015156104fd85610114565b15151461053f576040517f08c379a0000000000000000000000000000000000000000000000000000000008152600401610536906111ad565b60405180910390fd5b600084908060018154018082558091505060019003906000526020600020016000909190919091509081610573919061108f565b50600060405180608001604052808681526020018560008151811061059b5761059a6111cd565b5b60200260200101518152602001856001815181106105bc576105bb6111cd565b5b602002602001015181526020016040518060400160405280600181526020017f56000000000000000000000000000000000000000000000000000000000000008152508152509050806001866040516106159190610e62565b90815260200160405180910390206000820151816000019081610638919061108f565b50602082015181600101908161064e919061108f565b506040820151816002019081610664919061108f565b50606082015181600301908161067a919061108f565b509050507f8def9940d77a8e51f8362cef4fb58fd09d03a86885cb56f6f867b77df0600fbe85856000815181106106b4576106b36111cd565b5b6020026020010151866001815181106106d0576106cf6111cd565b5b60200260200101516040516106e793929190610bdb565b60405180910390a160008290508073ffffffffffffffffffffffffffffffffffffffff1663c9fda3738786600081518110610725576107246111cd565b5b602002602001015187600181518110610741576107406111cd565b5b60200260200101518860028151811061075d5761075c6111cd565b5b602002602001015189600381518110610779576107786111cd565b5b6020026020010151306040518763ffffffff1660e01b81526004016107a39695949392919061120b565b600060405180830381600087803b1580156107bd57600080fd5b505af11580156107d1573d6000803e3d6000fd5b50505050505050505050565b6000604051905090565b600080fd5b600080fd5b600080fd5b600080fd5b6000601f19601f8301169050919050565b7f4e487b7100000000000000000000000000000000000000000000000000000000600052604160045260246000fd5b610844826107fb565b810181811067ffffffffffffffff821117156108635761086261080c565b5b80604052505050565b60006108766107dd565b9050610882828261083b565b919050565b600067ffffffffffffffff8211156108a2576108a161080c565b5b6108ab826107fb565b9050602081019050919050565b82818337600083830152505050565b60006108da6108d584610887565b61086c565b9050828152602081018484840111156108f6576108f56107f6565b5b6109018482856108b8565b509392505050565b600082601f83011261091e5761091d6107f1565b5b813561092e8482602086016108c7565b91505092915050565b60006020828403121561094d5761094c6107e7565b5b600082013567ffffffffffffffff81111561096b5761096a6107ec565b5b61097784828501610909565b91505092915050565b60008115159050919050565b61099581610980565b82525050565b60006020820190506109b0600083018461098c565b92915050565b600080604083850312156109cd576109cc6107e7565b5b600083013567ffffffffffffffff8111156109eb576109ea6107ec565b5b6109f785828601610909565b925050602083013567ffffffffffffffff811115610a1857610a176107ec565b5b610a2485828601610909565b9150509250929050565b600081519050919050565b600082825260208201905092915050565b6000819050602082019050919050565b600081519050919050565b600082825260208201905092915050565b60005b83811015610a94578082015181840152602081019050610a79565b60008484015250505050565b6000610aab82610a5a565b610ab58185610a65565b9350610ac5818560208601610a76565b610ace816107fb565b840191505092915050565b6000610ae58383610aa0565b905092915050565b6000602082019050919050565b6000610b0582610a2e565b610b0f8185610a39565b935083602082028501610b2185610a4a565b8060005b85811015610b5d5784840389528151610b3e8582610ad9565b9450610b4983610aed565b925060208a01995050600181019050610b25565b50829750879550505050505092915050565b60006020820190508181036000830152610b898184610afa565b905092915050565b600082825260208201905092915050565b6000610bad82610a5a565b610bb78185610b91565b9350610bc7818560208601610a76565b610bd0816107fb565b840191505092915050565b60006060820190508181036000830152610bf58186610ba2565b90508181036020830152610c098185610ba2565b90508181036040830152610c1d8184610ba2565b9050949350505050565b600067ffffffffffffffff821115610c4257610c4161080c565b5b602082029050602081019050919050565b600080fd5b6000610c6b610c6684610c27565b61086c565b90508083825260208201905060208402830185811115610c8e57610c8d610c53565b5b835b81811015610cd557803567ffffffffffffffff811115610cb357610cb26107f1565b5b808601610cc08982610909565b85526020850194505050602081019050610c90565b5050509392505050565b600082601f830112610cf457610cf36107f1565b5b8135610d04848260208601610c58565b91505092915050565b600073ffffffffffffffffffffffffffffffffffffffff82169050919050565b6000610d3882610d0d565b9050919050565b610d4881610d2d565b8114610d5357600080fd5b50565b600081359050610d6581610d3f565b92915050565b60008060008060808587031215610d8557610d846107e7565b5b600085013567ffffffffffffffff811115610da357610da26107ec565b5b610daf87828801610909565b945050602085013567ffffffffffffffff811115610dd057610dcf6107ec565b5b610ddc87828801610cdf565b935050604085013567ffffffffffffffff811115610dfd57610dfc6107ec565b5b610e0987828801610cdf565b9250506060610e1a87828801610d56565b91505092959194509250565b600081905092915050565b6000610e3c82610a5a565b610e468185610e26565b9350610e56818560208601610a76565b80840191505092915050565b6000610e6e8284610e31565b915081905092915050565b7f4e487b7100000000000000000000000000000000000000000000000000000000600052602260045260246000fd5b60006002820490506001821680610ec057607f821691505b602082108103610ed357610ed2610e79565b5b50919050565b60008190508160005260206000209050919050565b60006020601f8301049050919050565b600082821b905092915050565b600060088302610f3b7fffffffffffffffffffffffffffffffffffffffffffffffffffffffffffffffff82610efe565b610f458683610efe565b95508019841693508086168417925050509392505050565b6000819050919050565b6000819050919050565b6000610f8c610f87610f8284610f5d565b610f67565b610f5d565b9050919050565b6000819050919050565b610fa683610f71565b610fba610fb282610f93565b848454610f0b565b825550505050565b600090565b610fcf610fc2565b610fda818484610f9d565b505050565b5b81811015610ffe57610ff3600082610fc7565b600181019050610fe0565b5050565b601f8211156110435761101481610ed9565b61101d84610eee565b8101602085101561102c578190505b61104061103885610eee565b830182610fdf565b50505b505050565b600082821c905092915050565b600061106660001984600802611048565b1980831691505092915050565b600061107f8383611055565b9150826002028217905092915050565b61109882610a5a565b67ffffffffffffffff8111156110b1576110b061080c565b5b6110bb8254610ea8565b6110c6828285611002565b600060209050601f8311600181146110f957600084156110e7578287015190505b6110f18582611073565b865550611159565b601f19841661110786610ed9565b60005b8281101561112f5784890151825560018201915060208501945060208101905061110a565b8683101561114c5784890151611148601f891682611055565b8355505b6001600288020188555050505b505050505050565b7f56656869636c6520616c72656164792065786973747321000000000000000000600082015250565b6000611197601783610b91565b91506111a282611161565b602082019050919050565b600060208201905081810360008301526111c68161118a565b9050919050565b7f4e487b7100000000000000000000000000000000000000000000000000000000600052603260045260246000fd5b61120581610d2d565b82525050565b600060c08201905081810360008301526112258189610ba2565b905081810360208301526112398188610ba2565b9050818103604083015261124d8187610ba2565b905081810360608301526112618186610ba2565b905081810360808301526112758185610ba2565b905061128460a08301846111fc565b97965050505050505056fea26469706673582212204843a00ab81724051c2ff118dd5ba26e821177d51d0013daab2313fcbc40abf564736f6c63430008110033",
  "linkReferences": {},
  "deployedLinkReferences": {}
}