{
  "_format": "hh-sol-artifact-1",
  "contractName": "Inspections",
  "sourceName": "blockchain/contracts/Inspections.sol",
  "abi": [
    {
      "anonymous": false,
      "inputs": [
        {
          "indexed": false,
          "internalType": "string",
          "name": "vin",
          "type": "string"
        },
        {
          "indexed": false,
          "internalType": "string",
          "name": "insResult",
          "type": "string"
        }
      ],
      "name": "InspectionDone",
      "type": "event"
    },
    {
      "inputs": [
        {
          "internalType": "string",
          "name": "_vin",
          "type": "string"
        }
      ],
      "name": "getBlocksNums",
      "outputs": [
        {
          "internalType": "uint256[]",
          "name": "_blocksNums",
          "type": "uint256[]"
        }
      ],
      "stateMutability": "view",
      "type": "function"
    },
    {
      "inputs": [
        {
          "internalType": "string",
          "name": "_vin",
          "type": "string"
        }
      ],
      "name": "getInspectionInfo",
      "outputs": [
        {
          "internalType": "string",
          "name": "_insResult",
          "type": "string"
        },
        {
          "internalType": "uint256",
          "name": "_validity",
          "type": "uint256"
        }
      ],
      "stateMutability": "view",
      "type": "function"
    },
    {
      "inputs": [
        {
          "internalType": "string",
          "name": "_vin",
          "type": "string"
        },
        {
          "internalType": "string",
          "name": "_insResult",
          "type": "string"
        },
        {
          "internalType": "uint256",
          "name": "_mileage",
          "type": "uint256"
        },
        {
          "internalType": "address",
          "name": "_vehiclesContract",
          "type": "address"
        },
        {
          "internalType": "address",
          "name": "_mileagesContract",
          "type": "address"
        }
      ],
      "name": "regInspection",
      "outputs": [],
      "stateMutability": "nonpayable",
      "type": "function"
    }
  ],
  "bytecode": "0x608060405234801561001057600080fd5b506114df806100206000396000f3fe608060405234801561001057600080fd5b50600436106100415760003560e01c806309631822146100465780634a2e630b14610076578063779bdb7314610092575b600080fd5b610060600480360381019061005b91906109c1565b6100c3565b60405161006d9190610ad2565b60405180910390f35b610090600480360381019061008b9190610b7e565b61013c565b005b6100ac60048036038101906100a791906109c1565b610633565b6040516100ba929190610cbf565b60405180910390f35b60606000826040516100d59190610d2b565b908152602001604051809103902060030180548060200260200160405190810160405280929190818152602001828054801561013057602002820191906000526020600020905b81548152602001906001019080831161011c575b50505050509050919050565b6000829050600115158173ffffffffffffffffffffffffffffffffffffffff166330f2c560886040518263ffffffff1660e01b815260040161017e9190610d42565b602060405180830381865afa15801561019b573d6000803e3d6000fd5b505050506040513d601f19601f820116820180604052508101906101bf9190610d9c565b151514866040516020016101d39190610e61565b60405160208183030381529060405290610223576040517f08c379a000000000000000000000000000000000000000000000000000000000815260040161021a9190610d42565b60405180910390fd5b5060405160200161023390610eda565b604051602081830303815290604052805190602001208560405160200161025a9190610d2b565b6040516020818303038152906040528051906020012014806102c5575060405160200161028690610f3b565b60405160208183030381529060405280519060200120856040516020016102ad9190610d2b565b60405160208183030381529060405280519060200120145b610304576040517f08c379a00000000000000000000000000000000000000000000000000000000081526004016102fb90610fc2565b60405180910390fd5b6000806000886040516103179190610d2b565b908152602001604051809103902060030190508043908060018154018082558091505060019003906000526020600020016000909190919091505560405160200161036190610eda565b60405160208183030381529060405280519060200120876040516020016103889190610d2b565b6040516020818303038152906040528051906020012003610425576301e13380426103b39190611011565b91508273ffffffffffffffffffffffffffffffffffffffff16633b731479896040518263ffffffff1660e01b81526004016103ee9190611091565b600060405180830381600087803b15801561040857600080fd5b505af115801561041c573d6000803e3d6000fd5b50505050610491565b8273ffffffffffffffffffffffffffffffffffffffff16633b731479896040518263ffffffff1660e01b815260040161045e9190611112565b600060405180830381600087803b15801561047857600080fd5b505af115801561048c573d6000803e3d6000fd5b505050505b600060405180608001604052808a8152602001898152602001848152602001838054806020026020016040519081016040528092919081815260200182805480156104fb57602002820191906000526020600020905b8154815260200190600101908083116104e7575b505050505081525090508060008a6040516105169190610d2b565b908152602001604051809103902060008201518160000190816105399190611353565b50602082015181600101908161054f9190611353565b506040820151816002015560608201518160030190805190602001906105769291906107fd565b5090505060008590508073ffffffffffffffffffffffffffffffffffffffff1663e85a74ba8b8a8a6040518463ffffffff1660e01b81526004016105bc93929190611434565b600060405180830381600087803b1580156105d657600080fd5b505af11580156105ea573d6000803e3d6000fd5b505050507fb9ad030c97d8bb0fbca6c3a09442800d3f02af4c46eb7d34419da533a2aa697f8a8a60405161061f929190611472565b60405180910390a150505050505050505050565b60606000806000846040516106489190610d2b565b908152602001604051809103902060405180608001604052908160008201805461067190611176565b80601f016020809104026020016040519081016040528092919081815260200182805461069d90611176565b80156106ea5780601f106106bf576101008083540402835291602001916106ea565b820191906000526020600020905b8154815290600101906020018083116106cd57829003601f168201915b5050505050815260200160018201805461070390611176565b80601f016020809104026020016040519081016040528092919081815260200182805461072f90611176565b801561077c5780601f106107515761010080835404028352916020019161077c565b820191906000526020600020905b81548152906001019060200180831161075f57829003601f168201915b5050505050815260200160028201548152602001600382018054806020026020016040519081016040528092919081815260200182805480156107de57602002820191906000526020600020905b8154815260200190600101908083116107ca575b5050505050815250509050806020015181604001519250925050915091565b828054828255906000526020600020908101928215610839579160200282015b8281111561083857825182559160200191906001019061081d565b5b509050610846919061084a565b5090565b5b8082111561086357600081600090555060010161084b565b5090565b6000604051905090565b600080fd5b600080fd5b600080fd5b600080fd5b6000601f19601f8301169050919050565b7f4e487b7100000000000000000000000000000000000000000000000000000000600052604160045260246000fd5b6108ce82610885565b810181811067ffffffffffffffff821117156108ed576108ec610896565b5b80604052505050565b6000610900610867565b905061090c82826108c5565b919050565b600067ffffffffffffffff82111561092c5761092b610896565b5b61093582610885565b9050602081019050919050565b82818337600083830152505050565b600061096461095f84610911565b6108f6565b9050828152602081018484840111156109805761097f610880565b5b61098b848285610942565b509392505050565b600082601f8301126109a8576109a761087b565b5b81356109b8848260208601610951565b91505092915050565b6000602082840312156109d7576109d6610871565b5b600082013567ffffffffffffffff8111156109f5576109f4610876565b5b610a0184828501610993565b91505092915050565b600081519050919050565b600082825260208201905092915050565b6000819050602082019050919050565b6000819050919050565b610a4981610a36565b82525050565b6000610a5b8383610a40565b60208301905092915050565b6000602082019050919050565b6000610a7f82610a0a565b610a898185610a15565b9350610a9483610a26565b8060005b83811015610ac5578151610aac8882610a4f565b9750610ab783610a67565b925050600181019050610a98565b5085935050505092915050565b60006020820190508181036000830152610aec8184610a74565b905092915050565b610afd81610a36565b8114610b0857600080fd5b50565b600081359050610b1a81610af4565b92915050565b600073ffffffffffffffffffffffffffffffffffffffff82169050919050565b6000610b4b82610b20565b9050919050565b610b5b81610b40565b8114610b6657600080fd5b50565b600081359050610b7881610b52565b92915050565b600080600080600060a08688031215610b9a57610b99610871565b5b600086013567ffffffffffffffff811115610bb857610bb7610876565b5b610bc488828901610993565b955050602086013567ffffffffffffffff811115610be557610be4610876565b5b610bf188828901610993565b9450506040610c0288828901610b0b565b9350506060610c1388828901610b69565b9250506080610c2488828901610b69565b9150509295509295909350565b600081519050919050565b600082825260208201905092915050565b60005b83811015610c6b578082015181840152602081019050610c50565b60008484015250505050565b6000610c8282610c31565b610c8c8185610c3c565b9350610c9c818560208601610c4d565b610ca581610885565b840191505092915050565b610cb981610a36565b82525050565b60006040820190508181036000830152610cd98185610c77565b9050610ce86020830184610cb0565b9392505050565b600081905092915050565b6000610d0582610c31565b610d0f8185610cef565b9350610d1f818560208601610c4d565b80840191505092915050565b6000610d378284610cfa565b915081905092915050565b60006020820190508181036000830152610d5c8184610c77565b905092915050565b60008115159050919050565b610d7981610d64565b8114610d8457600080fd5b50565b600081519050610d9681610d70565b92915050565b600060208284031215610db257610db1610871565b5b6000610dc084828501610d87565b91505092915050565b7f56656869636c6520000000000000000000000000000000000000000000000000600082015250565b6000610dff600883610cef565b9150610e0a82610dc9565b600882019050919050565b7f206e6f7420666f756e6421000000000000000000000000000000000000000000600082015250565b6000610e4b600b83610cef565b9150610e5682610e15565b600b82019050919050565b6000610e6c82610df2565b9150610e788284610cfa565b9150610e8382610e3e565b915081905092915050565b7f5000000000000000000000000000000000000000000000000000000000000000600082015250565b6000610ec4600183610cef565b9150610ecf82610e8e565b600182019050919050565b6000610ee582610eb7565b9150819050919050565b7f4e00000000000000000000000000000000000000000000000000000000000000600082015250565b6000610f25600183610cef565b9150610f3082610eef565b600182019050919050565b6000610f4682610f18565b9150819050919050565b7f496e7370656374696f6e20726573756c742073686f756c64206265205020285060008201527f6f73697469766529206f72204e20284e65676174697665292100000000000000602082015250565b6000610fac603983610c3c565b9150610fb782610f50565b604082019050919050565b60006020820190508181036000830152610fdb81610f9f565b9050919050565b7f4e487b7100000000000000000000000000000000000000000000000000000000600052601160045260246000fd5b600061101c82610a36565b915061102783610a36565b925082820190508082111561103f5761103e610fe2565b5b92915050565b7f5600000000000000000000000000000000000000000000000000000000000000600082015250565b600061107b600183610c3c565b915061108682611045565b602082019050919050565b600060408201905081810360008301526110ab8184610c77565b905081810360208301526110be8161106e565b905092915050565b7f4900000000000000000000000000000000000000000000000000000000000000600082015250565b60006110fc600183610c3c565b9150611107826110c6565b602082019050919050565b6000604082019050818103600083015261112c8184610c77565b9050818103602083015261113f816110ef565b905092915050565b7f4e487b7100000000000000000000000000000000000000000000000000000000600052602260045260246000fd5b6000600282049050600182168061118e57607f821691505b6020821081036111a1576111a0611147565b5b50919050565b60008190508160005260206000209050919050565b60006020601f8301049050919050565b600082821b905092915050565b6000600883026112097fffffffffffffffffffffffffffffffffffffffffffffffffffffffffffffffff826111cc565b61121386836111cc565b95508019841693508086168417925050509392505050565b6000819050919050565b600061125061124b61124684610a36565b61122b565b610a36565b9050919050565b6000819050919050565b61126a83611235565b61127e61127682611257565b8484546111d9565b825550505050565b600090565b611293611286565b61129e818484611261565b505050565b5b818110156112c2576112b760008261128b565b6001810190506112a4565b5050565b601f821115611307576112d8816111a7565b6112e1846111bc565b810160208510156112f0578190505b6113046112fc856111bc565b8301826112a3565b50505b505050565b600082821c905092915050565b600061132a6000198460080261130c565b1980831691505092915050565b60006113438383611319565b9150826002028217905092915050565b61135c82610c31565b67ffffffffffffffff81111561137557611374610896565b5b61137f8254611176565b61138a8282856112c6565b600060209050601f8311600181146113bd57600084156113ab578287015190505b6113b58582611337565b86555061141d565b601f1984166113cb866111a7565b60005b828110156113f3578489015182556001820191506020850194506020810190506113ce565b86831015611410578489015161140c601f891682611319565b8355505b6001600288020188555050505b505050505050565b61142e81610b40565b82525050565b6000606082019050818103600083015261144e8186610c77565b905061145d6020830185610cb0565b61146a6040830184611425565b949350505050565b6000604082019050818103600083015261148c8185610c77565b905081810360208301526114a08184610c77565b9050939250505056fea26469706673582212209ab3f1f5b30dbb812ed0b9c78ae13bda0a106f95b8c707ddc88c055a0a03565d64736f6c63430008110033",
  "linkReferences": {},
  "deployedLinkReferences": {}
}