{
  "_format": "hh-sol-artifact-1",
  "contractName": "Damages",
  "sourceName": "blockchain/contracts/Damages.sol",
  "abi": [
    {
      "anonymous": false,
      "inputs": [
        {
          "indexed": false,
          "internalType": "string",
          "name": "vin",
          "type": "string"
        },
        {
          "indexed": false,
          "internalType": "uint256",
          "name": "date",
          "type": "uint256"
        },
        {
          "indexed": false,
          "internalType": "string",
          "name": "place",
          "type": "string"
        },
        {
          "indexed": false,
          "internalType": "string",
          "name": "desc",
          "type": "string"
        },
        {
          "indexed": false,
          "internalType": "uint256",
          "name": "damageVal",
          "type": "uint256"
        },
        {
          "indexed": false,
          "internalType": "uint256",
          "name": "mileage",
          "type": "uint256"
        },
        {
          "indexed": false,
          "internalType": "string[]",
          "name": "photosHashes",
          "type": "string[]"
        }
      ],
      "name": "DamageRegistered",
      "type": "event"
    },
    {
      "inputs": [
        {
          "internalType": "string",
          "name": "_vin",
          "type": "string"
        }
      ],
      "name": "getBlocksNums",
      "outputs": [
        {
          "internalType": "uint256[]",
          "name": "_blocksNums",
          "type": "uint256[]"
        }
      ],
      "stateMutability": "view",
      "type": "function"
    },
    {
      "inputs": [
        {
          "internalType": "string",
          "name": "_vin",
          "type": "string"
        }
      ],
      "name": "getPhotosHashes",
      "outputs": [
        {
          "internalType": "string[]",
          "name": "_blocksNums",
          "type": "string[]"
        }
      ],
      "stateMutability": "view",
      "type": "function"
    },
    {
      "inputs": [
        {
          "internalType": "string",
          "name": "_vin",
          "type": "string"
        },
        {
          "internalType": "uint256",
          "name": "_date",
          "type": "uint256"
        },
        {
          "internalType": "string",
          "name": "_place",
          "type": "string"
        },
        {
          "internalType": "string",
          "name": "_desc",
          "type": "string"
        },
        {
          "internalType": "uint256",
          "name": "_damageVal",
          "type": "uint256"
        },
        {
          "internalType": "uint256",
          "name": "_mileage",
          "type": "uint256"
        },
        {
          "internalType": "string[]",
          "name": "_photosHashes",
          "type": "string[]"
        },
        {
          "internalType": "address",
          "name": "_vehiclesContract",
          "type": "address"
        },
        {
          "internalType": "address",
          "name": "_mileagesContract",
          "type": "address"
        }
      ],
      "name": "regDamage",
      "outputs": [],
      "stateMutability": "nonpayable",
      "type": "function"
    }
  ],
  "bytecode": "0x608060405234801561001057600080fd5b50611515806100206000396000f3fe608060405234801561001057600080fd5b50600436106100415760003560e01c806309631822146100465780638581ee3914610076578063f33402c814610092575b600080fd5b610060600480360381019061005b919061094b565b6100c2565b60405161006d9190610a5c565b60405180910390f35b610090600480360381019061008b9190610bee565b61013b565b005b6100ac60048036038101906100a7919061094b565b6105d0565b6040516100b99190610e69565b60405180910390f35b60606000826040516100d49190610ec7565b908152602001604051809103902060060180548060200260200160405190810160405280929190818152602001828054801561012f57602002820191906000526020600020905b81548152602001906001019080831161011b575b50505050509050919050565b6000829050600115158173ffffffffffffffffffffffffffffffffffffffff166330f2c5608c6040518263ffffffff1660e01b815260040161017d9190610f28565b602060405180830381865afa15801561019a573d6000803e3d6000fd5b505050506040513d601f19601f820116820180604052508101906101be9190610f82565b1515148a6040516020016101d29190611047565b60405160208183030381529060405290610222576040517f08c379a00000000000000000000000000000000000000000000000000000000081526004016102199190610f28565b60405180910390fd5b506000808b6040516102349190610ec7565b9081526020016040518091039020600501905060005b85518110156102b4578186828151811061026757610266611074565b5b60200260200101519080600181540180825580915050600190039060005260206000200160009091909190915090816102a091906112af565b5080806102ac906113b0565b91505061024a565b506000808c6040516102c69190610ec7565b908152602001604051809103902060060190508043908060018154018082558091505060019003906000526020600020016000909190919091505560006040518060e001604052808e81526020018d81526020018c81526020018b81526020018a815260200184805480602002602001604051908101604052809291908181526020016000905b828210156103f957838290600052602060002001805461036c906110d2565b80601f0160208091040260200160405190810160405280929190818152602001828054610398906110d2565b80156103e55780601f106103ba576101008083540402835291602001916103e5565b820191906000526020600020905b8154815290600101906020018083116103c857829003601f168201915b50505050508152602001906001019061034d565b5050505081526020018380548060200260200160405190810160405280929190818152602001828054801561044d57602002820191906000526020600020905b815481526020019060010190808311610439575b505050505081525090508060008e6040516104689190610ec7565b9081526020016040518091039020600082015181600001908161048b91906112af565b506020820151816001015560408201518160020190816104ab91906112af565b5060608201518160030190816104c191906112af565b506080820151816004015560a08201518160050190805190602001906104e89291906106ca565b5060c0820151816006019080519060200190610505929190610723565b5090505060008590508073ffffffffffffffffffffffffffffffffffffffff1663e85a74ba8f8b8a6040518463ffffffff1660e01b815260040161054b93929190611416565b600060405180830381600087803b15801561056557600080fd5b505af1158015610579573d6000803e3d6000fd5b505050507f57b74023e87935cf5c3f19385ef2fdb9a0fb5c9a95ad01afb116cb7dd9ab9ab88e8e8e8e8e8e8e6040516105b89796959493929190611454565b60405180910390a15050505050505050505050505050565b60606000826040516105e29190610ec7565b9081526020016040518091039020600501805480602002602001604051908101604052809291908181526020016000905b828210156106bf578382906000526020600020018054610632906110d2565b80601f016020809104026020016040519081016040528092919081815260200182805461065e906110d2565b80156106ab5780601f10610680576101008083540402835291602001916106ab565b820191906000526020600020905b81548152906001019060200180831161068e57829003601f168201915b505050505081526020019060010190610613565b505050509050919050565b828054828255906000526020600020908101928215610712579160200282015b8281111561071157825182908161070191906112af565b50916020019190600101906106ea565b5b50905061071f9190610770565b5090565b82805482825590600052602060002090810192821561075f579160200282015b8281111561075e578251825591602001919060010190610743565b5b50905061076c9190610794565b5090565b5b80821115610790576000818161078791906107b1565b50600101610771565b5090565b5b808211156107ad576000816000905550600101610795565b5090565b5080546107bd906110d2565b6000825580601f106107cf57506107ee565b601f0160209004906000526020600020908101906107ed9190610794565b5b50565b6000604051905090565b600080fd5b600080fd5b600080fd5b600080fd5b6000601f19601f8301169050919050565b7f4e487b7100000000000000000000000000000000000000000000000000000000600052604160045260246000fd5b6108588261080f565b810181811067ffffffffffffffff8211171561087757610876610820565b5b80604052505050565b600061088a6107f1565b9050610896828261084f565b919050565b600067ffffffffffffffff8211156108b6576108b5610820565b5b6108bf8261080f565b9050602081019050919050565b82818337600083830152505050565b60006108ee6108e98461089b565b610880565b90508281526020810184848401111561090a5761090961080a565b5b6109158482856108cc565b509392505050565b600082601f83011261093257610931610805565b5b81356109428482602086016108db565b91505092915050565b600060208284031215610961576109606107fb565b5b600082013567ffffffffffffffff81111561097f5761097e610800565b5b61098b8482850161091d565b91505092915050565b600081519050919050565b600082825260208201905092915050565b6000819050602082019050919050565b6000819050919050565b6109d3816109c0565b82525050565b60006109e583836109ca565b60208301905092915050565b6000602082019050919050565b6000610a0982610994565b610a13818561099f565b9350610a1e836109b0565b8060005b83811015610a4f578151610a3688826109d9565b9750610a41836109f1565b925050600181019050610a22565b5085935050505092915050565b60006020820190508181036000830152610a7681846109fe565b905092915050565b610a87816109c0565b8114610a9257600080fd5b50565b600081359050610aa481610a7e565b92915050565b600067ffffffffffffffff821115610ac557610ac4610820565b5b602082029050602081019050919050565b600080fd5b6000610aee610ae984610aaa565b610880565b90508083825260208201905060208402830185811115610b1157610b10610ad6565b5b835b81811015610b5857803567ffffffffffffffff811115610b3657610b35610805565b5b808601610b43898261091d565b85526020850194505050602081019050610b13565b5050509392505050565b600082601f830112610b7757610b76610805565b5b8135610b87848260208601610adb565b91505092915050565b600073ffffffffffffffffffffffffffffffffffffffff82169050919050565b6000610bbb82610b90565b9050919050565b610bcb81610bb0565b8114610bd657600080fd5b50565b600081359050610be881610bc2565b92915050565b60008060008060008060008060006101208a8c031215610c1157610c106107fb565b5b60008a013567ffffffffffffffff811115610c2f57610c2e610800565b5b610c3b8c828d0161091d565b9950506020610c4c8c828d01610a95565b98505060408a013567ffffffffffffffff811115610c6d57610c6c610800565b5b610c798c828d0161091d565b97505060608a013567ffffffffffffffff811115610c9a57610c99610800565b5b610ca68c828d0161091d565b9650506080610cb78c828d01610a95565b95505060a0610cc88c828d01610a95565b94505060c08a013567ffffffffffffffff811115610ce957610ce8610800565b5b610cf58c828d01610b62565b93505060e0610d068c828d01610bd9565b925050610100610d188c828d01610bd9565b9150509295985092959850929598565b600081519050919050565b600082825260208201905092915050565b6000819050602082019050919050565b600081519050919050565b600082825260208201905092915050565b60005b83811015610d8e578082015181840152602081019050610d73565b60008484015250505050565b6000610da582610d54565b610daf8185610d5f565b9350610dbf818560208601610d70565b610dc88161080f565b840191505092915050565b6000610ddf8383610d9a565b905092915050565b6000602082019050919050565b6000610dff82610d28565b610e098185610d33565b935083602082028501610e1b85610d44565b8060005b85811015610e575784840389528151610e388582610dd3565b9450610e4383610de7565b925060208a01995050600181019050610e1f565b50829750879550505050505092915050565b60006020820190508181036000830152610e838184610df4565b905092915050565b600081905092915050565b6000610ea182610d54565b610eab8185610e8b565b9350610ebb818560208601610d70565b80840191505092915050565b6000610ed38284610e96565b915081905092915050565b600082825260208201905092915050565b6000610efa82610d54565b610f048185610ede565b9350610f14818560208601610d70565b610f1d8161080f565b840191505092915050565b60006020820190508181036000830152610f428184610eef565b905092915050565b60008115159050919050565b610f5f81610f4a565b8114610f6a57600080fd5b50565b600081519050610f7c81610f56565b92915050565b600060208284031215610f9857610f976107fb565b5b6000610fa684828501610f6d565b91505092915050565b7f56656869636c6520000000000000000000000000000000000000000000000000600082015250565b6000610fe5600883610e8b565b9150610ff082610faf565b600882019050919050565b7f206e6f7420666f756e6421000000000000000000000000000000000000000000600082015250565b6000611031600b83610e8b565b915061103c82610ffb565b600b82019050919050565b600061105282610fd8565b915061105e8284610e96565b915061106982611024565b915081905092915050565b7f4e487b7100000000000000000000000000000000000000000000000000000000600052603260045260246000fd5b7f4e487b7100000000000000000000000000000000000000000000000000000000600052602260045260246000fd5b600060028204905060018216806110ea57607f821691505b6020821081036110fd576110fc6110a3565b5b50919050565b60008190508160005260206000209050919050565b60006020601f8301049050919050565b600082821b905092915050565b6000600883026111657fffffffffffffffffffffffffffffffffffffffffffffffffffffffffffffffff82611128565b61116f8683611128565b95508019841693508086168417925050509392505050565b6000819050919050565b60006111ac6111a76111a2846109c0565b611187565b6109c0565b9050919050565b6000819050919050565b6111c683611191565b6111da6111d2826111b3565b848454611135565b825550505050565b600090565b6111ef6111e2565b6111fa8184846111bd565b505050565b5b8181101561121e576112136000826111e7565b600181019050611200565b5050565b601f8211156112635761123481611103565b61123d84611118565b8101602085101561124c578190505b61126061125885611118565b8301826111ff565b50505b505050565b600082821c905092915050565b600061128660001984600802611268565b1980831691505092915050565b600061129f8383611275565b9150826002028217905092915050565b6112b882610d54565b67ffffffffffffffff8111156112d1576112d0610820565b5b6112db82546110d2565b6112e6828285611222565b600060209050601f8311600181146113195760008415611307578287015190505b6113118582611293565b865550611379565b601f19841661132786611103565b60005b8281101561134f5784890151825560018201915060208501945060208101905061132a565b8683101561136c5784890151611368601f891682611275565b8355505b6001600288020188555050505b505050505050565b7f4e487b7100000000000000000000000000000000000000000000000000000000600052601160045260246000fd5b60006113bb826109c0565b91507fffffffffffffffffffffffffffffffffffffffffffffffffffffffffffffffff82036113ed576113ec611381565b5b600182019050919050565b611401816109c0565b82525050565b61141081610bb0565b82525050565b600060608201905081810360008301526114308186610eef565b905061143f60208301856113f8565b61144c6040830184611407565b949350505050565b600060e082019050818103600083015261146e818a610eef565b905061147d60208301896113f8565b818103604083015261148f8188610eef565b905081810360608301526114a38187610eef565b90506114b260808301866113f8565b6114bf60a08301856113f8565b81810360c08301526114d18184610df4565b90509897505050505050505056fea26469706673582212208e90d0e1bbd004f6f61d2fc2754b34df69757fc798b61d6634ab162a391a5abf64736f6c63430008110033",
  "linkReferences": {},
  "deployedLinkReferences": {}
}