{
  "_format": "hh-sol-artifact-1",
  "contractName": "Policies",
  "sourceName": "blockchain/contracts/Policies.sol",
  "abi": [
    {
      "anonymous": false,
      "inputs": [
        {
          "indexed": false,
          "internalType": "string",
          "name": "vin",
          "type": "string"
        },
        {
          "indexed": false,
          "internalType": "uint256",
          "name": "policyNum",
          "type": "uint256"
        },
        {
          "indexed": false,
          "internalType": "uint256",
          "name": "validTo",
          "type": "uint256"
        }
      ],
      "name": "PolicyEntered",
      "type": "event"
    },
    {
      "inputs": [
        {
          "internalType": "string",
          "name": "_vin",
          "type": "string"
        },
        {
          "internalType": "uint256",
          "name": "_policyNum",
          "type": "uint256"
        },
        {
          "internalType": "bool",
          "name": "_oc",
          "type": "bool"
        },
        {
          "internalType": "bool",
          "name": "_ac",
          "type": "bool"
        },
        {
          "internalType": "bool",
          "name": "_nnw",
          "type": "bool"
        },
        {
          "internalType": "bool",
          "name": "_assistance",
          "type": "bool"
        },
        {
          "internalType": "uint256",
          "name": "_validFrom",
          "type": "uint256"
        },
        {
          "internalType": "uint256",
          "name": "_validTo",
          "type": "uint256"
        },
        {
          "internalType": "address",
          "name": "_vehiclesContract",
          "type": "address"
        }
      ],
      "name": "enterPolicy",
      "outputs": [],
      "stateMutability": "nonpayable",
      "type": "function"
    },
    {
      "inputs": [
        {
          "internalType": "string",
          "name": "_vin",
          "type": "string"
        }
      ],
      "name": "getPolicyInfo",
      "outputs": [
        {
          "internalType": "uint256",
          "name": "_policyNum",
          "type": "uint256"
        },
        {
          "internalType": "bool",
          "name": "_oc",
          "type": "bool"
        },
        {
          "internalType": "bool",
          "name": "_ac",
          "type": "bool"
        },
        {
          "internalType": "bool",
          "name": "_nnw",
          "type": "bool"
        },
        {
          "internalType": "bool",
          "name": "_assistance",
          "type": "bool"
        },
        {
          "internalType": "uint256",
          "name": "_validFrom",
          "type": "uint256"
        },
        {
          "internalType": "uint256",
          "name": "_validTo",
          "type": "uint256"
        }
      ],
      "stateMutability": "view",
      "type": "function"
    }
  ],
  "bytecode": "0x608060405234801561001057600080fd5b50610d99806100206000396000f3fe608060405234801561001057600080fd5b50600436106100365760003560e01c8063eb063b3c1461003b578063fadf02d414610057575b600080fd5b61005560048036038101906100509190610690565b61008d565b005b610071600480360381019061006c9190610776565b6102d9565b60405161008497969594939291906107dd565b60405180910390f35b6000819050600115158173ffffffffffffffffffffffffffffffffffffffff166330f2c5608c6040518263ffffffff1660e01b81526004016100cf91906108cb565b602060405180830381865afa1580156100ec573d6000803e3d6000fd5b505050506040513d601f19601f820116820180604052508101906101109190610902565b1515148a6040516020016101249190610a03565b60405160208183030381529060405290610174576040517f08c379a000000000000000000000000000000000000000000000000000000000815260040161016b91906108cb565b60405180910390fd5b5060006040518061010001604052808c81526020018b81526020018a151581526020018915158152602001881515815260200187151581526020018681526020018581525090508060008c6040516101cc9190610a30565b908152602001604051809103902060008201518160000190816101ef9190610c53565b506020820151816001015560408201518160020160006101000a81548160ff02191690831515021790555060608201518160020160016101000a81548160ff02191690831515021790555060808201518160020160026101000a81548160ff02191690831515021790555060a08201518160020160036101000a81548160ff02191690831515021790555060c0820151816003015560e082015181600401559050507f7b367152fec181427bfd912d802a2d94a0389f68d3356c403d5c4fcdff133d338b8b866040516102c493929190610d25565b60405180910390a15050505050505050505050565b6000806000806000806000806000896040516102f59190610a30565b90815260200160405180910390206040518061010001604052908160008201805461031f90610a76565b80601f016020809104026020016040519081016040528092919081815260200182805461034b90610a76565b80156103985780601f1061036d57610100808354040283529160200191610398565b820191906000526020600020905b81548152906001019060200180831161037b57829003601f168201915b50505050508152602001600182015481526020016002820160009054906101000a900460ff161515151581526020016002820160019054906101000a900460ff161515151581526020016002820160029054906101000a900460ff161515151581526020016002820160039054906101000a900460ff1615151515815260200160038201548152602001600482015481525050905080602001518160400151826060015183608001518460a001518560c001518660e00151975097509750975097509750975050919395979092949650565b6000604051905090565b600080fd5b600080fd5b600080fd5b600080fd5b6000601f19601f8301169050919050565b7f4e487b7100000000000000000000000000000000000000000000000000000000600052604160045260246000fd5b6104d182610488565b810181811067ffffffffffffffff821117156104f0576104ef610499565b5b80604052505050565b600061050361046a565b905061050f82826104c8565b919050565b600067ffffffffffffffff82111561052f5761052e610499565b5b61053882610488565b9050602081019050919050565b82818337600083830152505050565b600061056761056284610514565b6104f9565b90508281526020810184848401111561058357610582610483565b5b61058e848285610545565b509392505050565b600082601f8301126105ab576105aa61047e565b5b81356105bb848260208601610554565b91505092915050565b6000819050919050565b6105d7816105c4565b81146105e257600080fd5b50565b6000813590506105f4816105ce565b92915050565b60008115159050919050565b61060f816105fa565b811461061a57600080fd5b50565b60008135905061062c81610606565b92915050565b600073ffffffffffffffffffffffffffffffffffffffff82169050919050565b600061065d82610632565b9050919050565b61066d81610652565b811461067857600080fd5b50565b60008135905061068a81610664565b92915050565b60008060008060008060008060006101208a8c0312156106b3576106b2610474565b5b60008a013567ffffffffffffffff8111156106d1576106d0610479565b5b6106dd8c828d01610596565b99505060206106ee8c828d016105e5565b98505060406106ff8c828d0161061d565b97505060606107108c828d0161061d565b96505060806107218c828d0161061d565b95505060a06107328c828d0161061d565b94505060c06107438c828d016105e5565b93505060e06107548c828d016105e5565b9250506101006107668c828d0161067b565b9150509295985092959850929598565b60006020828403121561078c5761078b610474565b5b600082013567ffffffffffffffff8111156107aa576107a9610479565b5b6107b684828501610596565b91505092915050565b6107c8816105c4565b82525050565b6107d7816105fa565b82525050565b600060e0820190506107f2600083018a6107bf565b6107ff60208301896107ce565b61080c60408301886107ce565b61081960608301876107ce565b61082660808301866107ce565b61083360a08301856107bf565b61084060c08301846107bf565b98975050505050505050565b600081519050919050565b600082825260208201905092915050565b60005b8381101561088657808201518184015260208101905061086b565b60008484015250505050565b600061089d8261084c565b6108a78185610857565b93506108b7818560208601610868565b6108c081610488565b840191505092915050565b600060208201905081810360008301526108e58184610892565b905092915050565b6000815190506108fc81610606565b92915050565b60006020828403121561091857610917610474565b5b6000610926848285016108ed565b91505092915050565b600081905092915050565b7f56656869636c6520000000000000000000000000000000000000000000000000600082015250565b600061097060088361092f565b915061097b8261093a565b600882019050919050565b60006109918261084c565b61099b818561092f565b93506109ab818560208601610868565b80840191505092915050565b7f206e6f7420666f756e6421000000000000000000000000000000000000000000600082015250565b60006109ed600b8361092f565b91506109f8826109b7565b600b82019050919050565b6000610a0e82610963565b9150610a1a8284610986565b9150610a25826109e0565b915081905092915050565b6000610a3c8284610986565b915081905092915050565b7f4e487b7100000000000000000000000000000000000000000000000000000000600052602260045260246000fd5b60006002820490506001821680610a8e57607f821691505b602082108103610aa157610aa0610a47565b5b50919050565b60008190508160005260206000209050919050565b60006020601f8301049050919050565b600082821b905092915050565b600060088302610b097fffffffffffffffffffffffffffffffffffffffffffffffffffffffffffffffff82610acc565b610b138683610acc565b95508019841693508086168417925050509392505050565b6000819050919050565b6000610b50610b4b610b46846105c4565b610b2b565b6105c4565b9050919050565b6000819050919050565b610b6a83610b35565b610b7e610b7682610b57565b848454610ad9565b825550505050565b600090565b610b93610b86565b610b9e818484610b61565b505050565b5b81811015610bc257610bb7600082610b8b565b600181019050610ba4565b5050565b601f821115610c0757610bd881610aa7565b610be184610abc565b81016020851015610bf0578190505b610c04610bfc85610abc565b830182610ba3565b50505b505050565b600082821c905092915050565b6000610c2a60001984600802610c0c565b1980831691505092915050565b6000610c438383610c19565b9150826002028217905092915050565b610c5c8261084c565b67ffffffffffffffff811115610c7557610c74610499565b5b610c7f8254610a76565b610c8a828285610bc6565b600060209050601f831160018114610cbd5760008415610cab578287015190505b610cb58582610c37565b865550610d1d565b601f198416610ccb86610aa7565b60005b82811015610cf357848901518255600182019150602085019450602081019050610cce565b86831015610d105784890151610d0c601f891682610c19565b8355505b6001600288020188555050505b505050505050565b60006060820190508181036000830152610d3f8186610892565b9050610d4e60208301856107bf565b610d5b60408301846107bf565b94935050505056fea26469706673582212204719a4a82900793d5d606f53bb275c7f23d2de7fb5db0a6635d48eb9f65a07dd64736f6c63430008110033",
  "linkReferences": {},
  "deployedLinkReferences": {}
}