{"blockchain/contracts/Controls.sol":{"Controls":{"abi":[{"anonymous":false,"inputs":[{"indexed":false,"internalType":"string","name":"vin","type":"string"},{"indexed":false,"internalType":"string","name":"regCertStatus","type":"string"}],"name":"ControlDone","type":"event"},{"inputs":[{"internalType":"string","name":"_vin","type":"string"}],"name":"getBlocksNums","outputs":[{"internalType":"uint256[]","name":"_blocksNums","type":"uint256[]"}],"stateMutability":"view","type":"function"},{"inputs":[{"internalType":"string","name":"_vin","type":"string"},{"internalType":"string","name":"_regCertStatus","type":"string"},{"internalType":"uint256","name":"_mileage","type":"uint256"},{"internalType":"address","name":"_vehiclesContract","type":"address"},{"internalType":"address","name":"_mileagesContract","type":"address"}],"name":"regControl","outputs":[],"stateMutability":"nonpayable","type":"function"}],"evm":{"bytecode":{"linkReferences":{},"object":"608060405234801561001057600080fd5b50611069806100206000396000f3fe608060405234801561001057600080fd5b50600436106100365760003560e01c8063096318221461003b5780638a1468e61461006b575b600080fd5b610055600480360381019061005091906106ba565b610087565b60405161006291906107cb565b60405180910390f35b61008560048036038101906100809190610877565b610100565b005b6060600082604051610099919061099b565b90815260200160405180910390206001018054806020026020016040519081016040528092919081815260200182805480156100f457602002820191906000526020600020905b8154815260200190600101908083116100e0575b50505050509050919050565b6000829050600115158173ffffffffffffffffffffffffffffffffffffffff166330f2c560886040518263ffffffff1660e01b815260040161014291906109fc565b602060405180830381865afa15801561015f573d6000803e3d6000fd5b505050506040513d601f19601f820116820180604052508101906101839190610a56565b151514866040516020016101979190610b1b565b604051602081830303815290604052906101e7576040517f08c379a00000000000000000000000000000000000000000000000000000000081526004016101de91906109fc565b60405180910390fd5b506040516020016101f790610b94565b604051602081830303815290604052805190602001208560405160200161021e919061099b565b604051602081830303815290604052805190602001201480610289575060405160200161024a90610bf5565b6040516020818303038152906040528051906020012085604051602001610271919061099b565b60405160208183030381529060405280519060200120145b6102c8576040517f08c379a00000000000000000000000000000000000000000000000000000000081526004016102bf90610ca2565b60405180910390fd5b600080876040516102d9919061099b565b9081526020016040518091039020600101905080439080600181540180825580915050600190039060005260206000200160009091909190915055600060405180604001604052808981526020018380548060200260200160405190810160405280929190818152602001828054801561037257602002820191906000526020600020905b81548152602001906001019080831161035e575b505050505081525090508060008960405161038d919061099b565b908152602001604051809103902060008201518160000190816103b09190610ece565b5060208201518160010190805190602001906103cd9291906104f6565b509050508273ffffffffffffffffffffffffffffffffffffffff16633b73147989896040518363ffffffff1660e01b815260040161040c929190610fa0565b600060405180830381600087803b15801561042657600080fd5b505af115801561043a573d6000803e3d6000fd5b5050505060008490508073ffffffffffffffffffffffffffffffffffffffff1663e85a74ba8a89896040518463ffffffff1660e01b815260040161048093929190610ff5565b600060405180830381600087803b15801561049a57600080fd5b505af11580156104ae573d6000803e3d6000fd5b505050507f71b265fdd2b2a11e11d15b92e3eb1f3d44fb281029cd4e5bce3cbb7ec487cb8689896040516104e3929190610fa0565b60405180910390a1505050505050505050565b828054828255906000526020600020908101928215610532579160200282015b82811115610531578251825591602001919060010190610516565b5b50905061053f9190610543565b5090565b5b8082111561055c576000816000905550600101610544565b5090565b6000604051905090565b600080fd5b600080fd5b600080fd5b600080fd5b6000601f19601f8301169050919050565b7f4e487b7100000000000000000000000000000000000000000000000000000000600052604160045260246000fd5b6105c78261057e565b810181811067ffffffffffffffff821117156105e6576105e561058f565b5b80604052505050565b60006105f9610560565b905061060582826105be565b919050565b600067ffffffffffffffff8211156106255761062461058f565b5b61062e8261057e565b9050602081019050919050565b82818337600083830152505050565b600061065d6106588461060a565b6105ef565b90508281526020810184848401111561067957610678610579565b5b61068484828561063b565b509392505050565b600082601f8301126106a1576106a0610574565b5b81356106b184826020860161064a565b91505092915050565b6000602082840312156106d0576106cf61056a565b5b600082013567ffffffffffffffff8111156106ee576106ed61056f565b5b6106fa8482850161068c565b91505092915050565b600081519050919050565b600082825260208201905092915050565b6000819050602082019050919050565b6000819050919050565b6107428161072f565b82525050565b60006107548383610739565b60208301905092915050565b6000602082019050919050565b600061077882610703565b610782818561070e565b935061078d8361071f565b8060005b838110156107be5781516107a58882610748565b97506107b083610760565b925050600181019050610791565b5085935050505092915050565b600060208201905081810360008301526107e5818461076d565b905092915050565b6107f68161072f565b811461080157600080fd5b50565b600081359050610813816107ed565b92915050565b600073ffffffffffffffffffffffffffffffffffffffff82169050919050565b600061084482610819565b9050919050565b61085481610839565b811461085f57600080fd5b50565b6000813590506108718161084b565b92915050565b600080600080600060a086880312156108935761089261056a565b5b600086013567ffffffffffffffff8111156108b1576108b061056f565b5b6108bd8882890161068c565b955050602086013567ffffffffffffffff8111156108de576108dd61056f565b5b6108ea8882890161068c565b94505060406108fb88828901610804565b935050606061090c88828901610862565b925050608061091d88828901610862565b9150509295509295909350565b600081519050919050565b600081905092915050565b60005b8381101561095e578082015181840152602081019050610943565b60008484015250505050565b60006109758261092a565b61097f8185610935565b935061098f818560208601610940565b80840191505092915050565b60006109a7828461096a565b915081905092915050565b600082825260208201905092915050565b60006109ce8261092a565b6109d881856109b2565b93506109e8818560208601610940565b6109f18161057e565b840191505092915050565b60006020820190508181036000830152610a1681846109c3565b905092915050565b60008115159050919050565b610a3381610a1e565b8114610a3e57600080fd5b50565b600081519050610a5081610a2a565b92915050565b600060208284031215610a6c57610a6b61056a565b5b6000610a7a84828501610a41565b91505092915050565b7f56656869636c6520000000000000000000000000000000000000000000000000600082015250565b6000610ab9600883610935565b9150610ac482610a83565b600882019050919050565b7f206e6f7420666f756e6421000000000000000000000000000000000000000000600082015250565b6000610b05600b83610935565b9150610b1082610acf565b600b82019050919050565b6000610b2682610aac565b9150610b32828461096a565b9150610b3d82610af8565b915081905092915050565b7f5600000000000000000000000000000000000000000000000000000000000000600082015250565b6000610b7e600183610935565b9150610b8982610b48565b600182019050919050565b6000610b9f82610b71565b9150819050919050565b7f4900000000000000000000000000000000000000000000000000000000000000600082015250565b6000610bdf600183610935565b9150610bea82610ba9565b600182019050919050565b6000610c0082610bd2565b9150819050919050565b7f526567697374726174696f6e206365727469666963617465207374617475732060008201527f73686f756c642062652056202856616c696429206f7220492028496e76616c6960208201527f6429210000000000000000000000000000000000000000000000000000000000604082015250565b6000610c8c6043836109b2565b9150610c9782610c0a565b606082019050919050565b60006020820190508181036000830152610cbb81610c7f565b9050919050565b7f4e487b7100000000000000000000000000000000000000000000000000000000600052602260045260246000fd5b60006002820490506001821680610d0957607f821691505b602082108103610d1c57610d1b610cc2565b5b50919050565b60008190508160005260206000209050919050565b60006020601f8301049050919050565b600082821b905092915050565b600060088302610d847fffffffffffffffffffffffffffffffffffffffffffffffffffffffffffffffff82610d47565b610d8e8683610d47565b95508019841693508086168417925050509392505050565b6000819050919050565b6000610dcb610dc6610dc18461072f565b610da6565b61072f565b9050919050565b6000819050919050565b610de583610db0565b610df9610df182610dd2565b848454610d54565b825550505050565b600090565b610e0e610e01565b610e19818484610ddc565b505050565b5b81811015610e3d57610e32600082610e06565b600181019050610e1f565b5050565b601f821115610e8257610e5381610d22565b610e5c84610d37565b81016020851015610e6b578190505b610e7f610e7785610d37565b830182610e1e565b50505b505050565b600082821c905092915050565b6000610ea560001984600802610e87565b1980831691505092915050565b6000610ebe8383610e94565b9150826002028217905092915050565b610ed78261092a565b67ffffffffffffffff811115610ef057610eef61058f565b5b610efa8254610cf1565b610f05828285610e41565b600060209050601f831160018114610f385760008415610f26578287015190505b610f308582610eb2565b865550610f98565b601f198416610f4686610d22565b60005b82811015610f6e57848901518255600182019150602085019450602081019050610f49565b86831015610f8b5784890151610f87601f891682610e94565b8355505b6001600288020188555050505b505050505050565b60006040820190508181036000830152610fba81856109c3565b90508181036020830152610fce81846109c3565b90509392505050565b610fe08161072f565b82525050565b610fef81610839565b82525050565b6000606082019050818103600083015261100f81866109c3565b905061101e6020830185610fd7565b61102b6040830184610fe6565b94935050505056fea26469706673582212204f2ec0c05e7464686f9d4d6083c64f3139aae80de85235deeba9bbb72131017564736f6c63430008110033","opcodes":"PUSH1 0x80 PUSH1 0x40 MSTORE CALLVALUE DUP1 ISZERO PUSH2 0x10 JUMPI PUSH1 0x0 DUP1 REVERT JUMPDEST POP PUSH2 0x1069 DUP1 PUSH2 0x20 PUSH1 0x0 CODECOPY PUSH1 0x0 RETURN INVALID PUSH1 0x80 PUSH1 0x40 MSTORE CALLVALUE DUP1 ISZERO PUSH2 0x10 JUMPI PUSH1 0x0 DUP1 REVERT JUMPDEST POP PUSH1 0x4 CALLDATASIZE LT PUSH2 0x36 JUMPI PUSH1 0x0 CALLDATALOAD PUSH1 0xE0 SHR DUP1 PUSH4 0x9631822 EQ PUSH2 0x3B JUMPI DUP1 PUSH4 0x8A1468E6 EQ PUSH2 0x6B JUMPI JUMPDEST PUSH1 0x0 DUP1 REVERT JUMPDEST PUSH2 0x55 PUSH1 0x4 DUP1 CALLDATASIZE SUB DUP2 ADD SWAP1 PUSH2 0x50 SWAP2 SWAP1 PUSH2 0x6BA JUMP JUMPDEST PUSH2 0x87 JUMP JUMPDEST PUSH1 0x40 MLOAD PUSH2 0x62 SWAP2 SWAP1 PUSH2 0x7CB JUMP JUMPDEST PUSH1 0x40 MLOAD DUP1 SWAP2 SUB SWAP1 RETURN JUMPDEST PUSH2 0x85 PUSH1 0x4 DUP1 CALLDATASIZE SUB DUP2 ADD SWAP1 PUSH2 0x80 SWAP2 SWAP1 PUSH2 0x877 JUMP JUMPDEST PUSH2 0x100 JUMP JUMPDEST STOP JUMPDEST PUSH1 0x60 PUSH1 0x0 DUP3 PUSH1 0x40 MLOAD PUSH2 0x99 SWAP2 SWAP1 PUSH2 0x99B JUMP JUMPDEST SWAP1 DUP2 MSTORE PUSH1 0x20 ADD PUSH1 0x40 MLOAD DUP1 SWAP2 SUB SWAP1 KECCAK256 PUSH1 0x1 ADD DUP1 SLOAD DUP1 PUSH1 0x20 MUL PUSH1 0x20 ADD PUSH1 0x40 MLOAD SWAP1 DUP2 ADD PUSH1 0x40 MSTORE DUP1 SWAP3 SWAP2 SWAP1 DUP2 DUP2 MSTORE PUSH1 0x20 ADD DUP3 DUP1 SLOAD DUP1 ISZERO PUSH2 0xF4 JUMPI PUSH1 0x20 MUL DUP3 ADD SWAP2 SWAP1 PUSH1 0x0 MSTORE PUSH1 0x20 PUSH1 0x0 KECCAK256 SWAP1 JUMPDEST DUP2 SLOAD DUP2 MSTORE PUSH1 0x20 ADD SWAP1 PUSH1 0x1 ADD SWAP1 DUP1 DUP4 GT PUSH2 0xE0 JUMPI JUMPDEST POP POP POP POP POP SWAP1 POP SWAP2 SWAP1 POP JUMP JUMPDEST PUSH1 0x0 DUP3 SWAP1 POP PUSH1 0x1 ISZERO ISZERO DUP2 PUSH20 0xFFFFFFFFFFFFFFFFFFFFFFFFFFFFFFFFFFFFFFFF AND PUSH4 0x30F2C560 DUP9 PUSH1 0x40 MLOAD DUP3 PUSH4 0xFFFFFFFF AND PUSH1 0xE0 SHL DUP2 MSTORE PUSH1 0x4 ADD PUSH2 0x142 SWAP2 SWAP1 PUSH2 0x9FC JUMP JUMPDEST PUSH1 0x20 PUSH1 0x40 MLOAD DUP1 DUP4 SUB DUP2 DUP7 GAS STATICCALL ISZERO DUP1 ISZERO PUSH2 0x15F JUMPI RETURNDATASIZE PUSH1 0x0 DUP1 RETURNDATACOPY RETURNDATASIZE PUSH1 0x0 REVERT JUMPDEST POP POP POP POP PUSH1 0x40 MLOAD RETURNDATASIZE PUSH1 0x1F NOT PUSH1 0x1F DUP3 ADD AND DUP3 ADD DUP1 PUSH1 0x40 MSTORE POP DUP2 ADD SWAP1 PUSH2 0x183 SWAP2 SWAP1 PUSH2 0xA56 JUMP JUMPDEST ISZERO ISZERO EQ DUP7 PUSH1 0x40 MLOAD PUSH1 0x20 ADD PUSH2 0x197 SWAP2 SWAP1 PUSH2 0xB1B JUMP JUMPDEST PUSH1 0x40 MLOAD PUSH1 0x20 DUP2 DUP4 SUB SUB DUP2 MSTORE SWAP1 PUSH1 0x40 MSTORE SWAP1 PUSH2 0x1E7 JUMPI PUSH1 0x40 MLOAD PUSH32 0x8C379A000000000000000000000000000000000000000000000000000000000 DUP2 MSTORE PUSH1 0x4 ADD PUSH2 0x1DE SWAP2 SWAP1 PUSH2 0x9FC JUMP JUMPDEST PUSH1 0x40 MLOAD DUP1 SWAP2 SUB SWAP1 REVERT JUMPDEST POP PUSH1 0x40 MLOAD PUSH1 0x20 ADD PUSH2 0x1F7 SWAP1 PUSH2 0xB94 JUMP JUMPDEST PUSH1 0x40 MLOAD PUSH1 0x20 DUP2 DUP4 SUB SUB DUP2 MSTORE SWAP1 PUSH1 0x40 MSTORE DUP1 MLOAD SWAP1 PUSH1 0x20 ADD KECCAK256 DUP6 PUSH1 0x40 MLOAD PUSH1 0x20 ADD PUSH2 0x21E SWAP2 SWAP1 PUSH2 0x99B JUMP JUMPDEST PUSH1 0x40 MLOAD PUSH1 0x20 DUP2 DUP4 SUB SUB DUP2 MSTORE SWAP1 PUSH1 0x40 MSTORE DUP1 MLOAD SWAP1 PUSH1 0x20 ADD KECCAK256 EQ DUP1 PUSH2 0x289 JUMPI POP PUSH1 0x40 MLOAD PUSH1 0x20 ADD PUSH2 0x24A SWAP1 PUSH2 0xBF5 JUMP JUMPDEST PUSH1 0x40 MLOAD PUSH1 0x20 DUP2 DUP4 SUB SUB DUP2 MSTORE SWAP1 PUSH1 0x40 MSTORE DUP1 MLOAD SWAP1 PUSH1 0x20 ADD KECCAK256 DUP6 PUSH1 0x40 MLOAD PUSH1 0x20 ADD PUSH2 0x271 SWAP2 SWAP1 PUSH2 0x99B JUMP JUMPDEST PUSH1 0x40 MLOAD PUSH1 0x20 DUP2 DUP4 SUB SUB DUP2 MSTORE SWAP1 PUSH1 0x40 MSTORE DUP1 MLOAD SWAP1 PUSH1 0x20 ADD KECCAK256 EQ JUMPDEST PUSH2 0x2C8 JUMPI PUSH1 0x40 MLOAD PUSH32 0x8C379A000000000000000000000000000000000000000000000000000000000 DUP2 MSTORE PUSH1 0x4 ADD PUSH2 0x2BF SWAP1 PUSH2 0xCA2 JUMP JUMPDEST PUSH1 0x40 MLOAD DUP1 SWAP2 SUB SWAP1 REVERT JUMPDEST PUSH1 0x0 DUP1 DUP8 PUSH1 0x40 MLOAD PUSH2 0x2D9 SWAP2 SWAP1 PUSH2 0x99B JUMP JUMPDEST SWAP1 DUP2 MSTORE PUSH1 0x20 ADD PUSH1 0x40 MLOAD DUP1 SWAP2 SUB SWAP1 KECCAK256 PUSH1 0x1 ADD SWAP1 POP DUP1 NUMBER SWAP1 DUP1 PUSH1 0x1 DUP2 SLOAD ADD DUP1 DUP3 SSTORE DUP1 SWAP2 POP POP PUSH1 0x1 SWAP1 SUB SWAP1 PUSH1 0x0 MSTORE PUSH1 0x20 PUSH1 0x0 KECCAK256 ADD PUSH1 0x0 SWAP1 SWAP2 SWAP1 SWAP2 SWAP1 SWAP2 POP SSTORE PUSH1 0x0 PUSH1 0x40 MLOAD DUP1 PUSH1 0x40 ADD PUSH1 0x40 MSTORE DUP1 DUP10 DUP2 MSTORE PUSH1 0x20 ADD DUP4 DUP1 SLOAD DUP1 PUSH1 0x20 MUL PUSH1 0x20 ADD PUSH1 0x40 MLOAD SWAP1 DUP2 ADD PUSH1 0x40 MSTORE DUP1 SWAP3 SWAP2 SWAP1 DUP2 DUP2 MSTORE PUSH1 0x20 ADD DUP3 DUP1 SLOAD DUP1 ISZERO PUSH2 0x372 JUMPI PUSH1 0x20 MUL DUP3 ADD SWAP2 SWAP1 PUSH1 0x0 MSTORE PUSH1 0x20 PUSH1 0x0 KECCAK256 SWAP1 JUMPDEST DUP2 SLOAD DUP2 MSTORE PUSH1 0x20 ADD SWAP1 PUSH1 0x1 ADD SWAP1 DUP1 DUP4 GT PUSH2 0x35E JUMPI JUMPDEST POP POP POP POP POP DUP2 MSTORE POP SWAP1 POP DUP1 PUSH1 0x0 DUP10 PUSH1 0x40 MLOAD PUSH2 0x38D SWAP2 SWAP1 PUSH2 0x99B JUMP JUMPDEST SWAP1 DUP2 MSTORE PUSH1 0x20 ADD PUSH1 0x40 MLOAD DUP1 SWAP2 SUB SWAP1 KECCAK256 PUSH1 0x0 DUP3 ADD MLOAD DUP2 PUSH1 0x0 ADD SWAP1 DUP2 PUSH2 0x3B0 SWAP2 SWAP1 PUSH2 0xECE JUMP JUMPDEST POP PUSH1 0x20 DUP3 ADD MLOAD DUP2 PUSH1 0x1 ADD SWAP1 DUP1 MLOAD SWAP1 PUSH1 0x20 ADD SWAP1 PUSH2 0x3CD SWAP3 SWAP2 SWAP1 PUSH2 0x4F6 JUMP JUMPDEST POP SWAP1 POP POP DUP3 PUSH20 0xFFFFFFFFFFFFFFFFFFFFFFFFFFFFFFFFFFFFFFFF AND PUSH4 0x3B731479 DUP10 DUP10 PUSH1 0x40 MLOAD DUP4 PUSH4 0xFFFFFFFF AND PUSH1 0xE0 SHL DUP2 MSTORE PUSH1 0x4 ADD PUSH2 0x40C SWAP3 SWAP2 SWAP1 PUSH2 0xFA0 JUMP JUMPDEST PUSH1 0x0 PUSH1 0x40 MLOAD DUP1 DUP4 SUB DUP2 PUSH1 0x0 DUP8 DUP1 EXTCODESIZE ISZERO DUP1 ISZERO PUSH2 0x426 JUMPI PUSH1 0x0 DUP1 REVERT JUMPDEST POP GAS CALL ISZERO DUP1 ISZERO PUSH2 0x43A JUMPI RETURNDATASIZE PUSH1 0x0 DUP1 RETURNDATACOPY RETURNDATASIZE PUSH1 0x0 REVERT JUMPDEST POP POP POP POP PUSH1 0x0 DUP5 SWAP1 POP DUP1 PUSH20 0xFFFFFFFFFFFFFFFFFFFFFFFFFFFFFFFFFFFFFFFF AND PUSH4 0xE85A74BA DUP11 DUP10 DUP10 PUSH1 0x40 MLOAD DUP5 PUSH4 0xFFFFFFFF AND PUSH1 0xE0 SHL DUP2 MSTORE PUSH1 0x4 ADD PUSH2 0x480 SWAP4 SWAP3 SWAP2 SWAP1 PUSH2 0xFF5 JUMP JUMPDEST PUSH1 0x0 PUSH1 0x40 MLOAD DUP1 DUP4 SUB DUP2 PUSH1 0x0 DUP8 DUP1 EXTCODESIZE ISZERO DUP1 ISZERO PUSH2 0x49A JUMPI PUSH1 0x0 DUP1 REVERT JUMPDEST POP GAS CALL ISZERO DUP1 ISZERO PUSH2 0x4AE JUMPI RETURNDATASIZE PUSH1 0x0 DUP1 RETURNDATACOPY RETURNDATASIZE PUSH1 0x0 REVERT JUMPDEST POP POP POP POP PUSH32 0x71B265FDD2B2A11E11D15B92E3EB1F3D44FB281029CD4E5BCE3CBB7EC487CB86 DUP10 DUP10 PUSH1 0x40 MLOAD PUSH2 0x4E3 SWAP3 SWAP2 SWAP1 PUSH2 0xFA0 JUMP JUMPDEST PUSH1 0x40 MLOAD DUP1 SWAP2 SUB SWAP1 LOG1 POP POP POP POP POP POP POP POP POP JUMP JUMPDEST DUP3 DUP1 SLOAD DUP3 DUP3 SSTORE SWAP1 PUSH1 0x0 MSTORE PUSH1 0x20 PUSH1 0x0 KECCAK256 SWAP1 DUP2 ADD SWAP3 DUP3 ISZERO PUSH2 0x532 JUMPI SWAP2 PUSH1 0x20 MUL DUP3 ADD JUMPDEST DUP3 DUP2 GT ISZERO PUSH2 0x531 JUMPI DUP3 MLOAD DUP3 SSTORE SWAP2 PUSH1 0x20 ADD SWAP2 SWAP1 PUSH1 0x1 ADD SWAP1 PUSH2 0x516 JUMP JUMPDEST JUMPDEST POP SWAP1 POP PUSH2 0x53F SWAP2 SWAP1 PUSH2 0x543 JUMP JUMPDEST POP SWAP1 JUMP JUMPDEST JUMPDEST DUP1 DUP3 GT ISZERO PUSH2 0x55C JUMPI PUSH1 0x0 DUP2 PUSH1 0x0 SWAP1 SSTORE POP PUSH1 0x1 ADD PUSH2 0x544 JUMP JUMPDEST POP SWAP1 JUMP JUMPDEST PUSH1 0x0 PUSH1 0x40 MLOAD SWAP1 POP SWAP1 JUMP JUMPDEST PUSH1 0x0 DUP1 REVERT JUMPDEST PUSH1 0x0 DUP1 REVERT JUMPDEST PUSH1 0x0 DUP1 REVERT JUMPDEST PUSH1 0x0 DUP1 REVERT JUMPDEST PUSH1 0x0 PUSH1 0x1F NOT PUSH1 0x1F DUP4 ADD AND SWAP1 POP SWAP2 SWAP1 POP JUMP JUMPDEST PUSH32 0x4E487B7100000000000000000000000000000000000000000000000000000000 PUSH1 0x0 MSTORE PUSH1 0x41 PUSH1 0x4 MSTORE PUSH1 0x24 PUSH1 0x0 REVERT JUMPDEST PUSH2 0x5C7 DUP3 PUSH2 0x57E JUMP JUMPDEST DUP2 ADD DUP2 DUP2 LT PUSH8 0xFFFFFFFFFFFFFFFF DUP3 GT OR ISZERO PUSH2 0x5E6 JUMPI PUSH2 0x5E5 PUSH2 0x58F JUMP JUMPDEST JUMPDEST DUP1 PUSH1 0x40 MSTORE POP POP POP JUMP JUMPDEST PUSH1 0x0 PUSH2 0x5F9 PUSH2 0x560 JUMP JUMPDEST SWAP1 POP PUSH2 0x605 DUP3 DUP3 PUSH2 0x5BE JUMP JUMPDEST SWAP2 SWAP1 POP JUMP JUMPDEST PUSH1 0x0 PUSH8 0xFFFFFFFFFFFFFFFF DUP3 GT ISZERO PUSH2 0x625 JUMPI PUSH2 0x624 PUSH2 0x58F JUMP JUMPDEST JUMPDEST PUSH2 0x62E DUP3 PUSH2 0x57E JUMP JUMPDEST SWAP1 POP PUSH1 0x20 DUP2 ADD SWAP1 POP SWAP2 SWAP1 POP JUMP JUMPDEST DUP3 DUP2 DUP4 CALLDATACOPY PUSH1 0x0 DUP4 DUP4 ADD MSTORE POP POP POP JUMP JUMPDEST PUSH1 0x0 PUSH2 0x65D PUSH2 0x658 DUP5 PUSH2 0x60A JUMP JUMPDEST PUSH2 0x5EF JUMP JUMPDEST SWAP1 POP DUP3 DUP2 MSTORE PUSH1 0x20 DUP2 ADD DUP5 DUP5 DUP5 ADD GT ISZERO PUSH2 0x679 JUMPI PUSH2 0x678 PUSH2 0x579 JUMP JUMPDEST JUMPDEST PUSH2 0x684 DUP5 DUP3 DUP6 PUSH2 0x63B JUMP JUMPDEST POP SWAP4 SWAP3 POP POP POP JUMP JUMPDEST PUSH1 0x0 DUP3 PUSH1 0x1F DUP4 ADD SLT PUSH2 0x6A1 JUMPI PUSH2 0x6A0 PUSH2 0x574 JUMP JUMPDEST JUMPDEST DUP2 CALLDATALOAD PUSH2 0x6B1 DUP5 DUP3 PUSH1 0x20 DUP7 ADD PUSH2 0x64A JUMP JUMPDEST SWAP2 POP POP SWAP3 SWAP2 POP POP JUMP JUMPDEST PUSH1 0x0 PUSH1 0x20 DUP3 DUP5 SUB SLT ISZERO PUSH2 0x6D0 JUMPI PUSH2 0x6CF PUSH2 0x56A JUMP JUMPDEST JUMPDEST PUSH1 0x0 DUP3 ADD CALLDATALOAD PUSH8 0xFFFFFFFFFFFFFFFF DUP2 GT ISZERO PUSH2 0x6EE JUMPI PUSH2 0x6ED PUSH2 0x56F JUMP JUMPDEST JUMPDEST PUSH2 0x6FA DUP5 DUP3 DUP6 ADD PUSH2 0x68C JUMP JUMPDEST SWAP2 POP POP SWAP3 SWAP2 POP POP JUMP JUMPDEST PUSH1 0x0 DUP2 MLOAD SWAP1 POP SWAP2 SWAP1 POP JUMP JUMPDEST PUSH1 0x0 DUP3 DUP3 MSTORE PUSH1 0x20 DUP3 ADD SWAP1 POP SWAP3 SWAP2 POP POP JUMP JUMPDEST PUSH1 0x0 DUP2 SWAP1 POP PUSH1 0x20 DUP3 ADD SWAP1 POP SWAP2 SWAP1 POP JUMP JUMPDEST PUSH1 0x0 DUP2 SWAP1 POP SWAP2 SWAP1 POP JUMP JUMPDEST PUSH2 0x742 DUP2 PUSH2 0x72F JUMP JUMPDEST DUP3 MSTORE POP POP JUMP JUMPDEST PUSH1 0x0 PUSH2 0x754 DUP4 DUP4 PUSH2 0x739 JUMP JUMPDEST PUSH1 0x20 DUP4 ADD SWAP1 POP SWAP3 SWAP2 POP POP JUMP JUMPDEST PUSH1 0x0 PUSH1 0x20 DUP3 ADD SWAP1 POP SWAP2 SWAP1 POP JUMP JUMPDEST PUSH1 0x0 PUSH2 0x778 DUP3 PUSH2 0x703 JUMP JUMPDEST PUSH2 0x782 DUP2 DUP6 PUSH2 0x70E JUMP JUMPDEST SWAP4 POP PUSH2 0x78D DUP4 PUSH2 0x71F JUMP JUMPDEST DUP1 PUSH1 0x0 JUMPDEST DUP4 DUP2 LT ISZERO PUSH2 0x7BE JUMPI DUP2 MLOAD PUSH2 0x7A5 DUP9 DUP3 PUSH2 0x748 JUMP JUMPDEST SWAP8 POP PUSH2 0x7B0 DUP4 PUSH2 0x760 JUMP JUMPDEST SWAP3 POP POP PUSH1 0x1 DUP2 ADD SWAP1 POP PUSH2 0x791 JUMP JUMPDEST POP DUP6 SWAP4 POP POP POP POP SWAP3 SWAP2 POP POP JUMP JUMPDEST PUSH1 0x0 PUSH1 0x20 DUP3 ADD SWAP1 POP DUP2 DUP2 SUB PUSH1 0x0 DUP4 ADD MSTORE PUSH2 0x7E5 DUP2 DUP5 PUSH2 0x76D JUMP JUMPDEST SWAP1 POP SWAP3 SWAP2 POP POP JUMP JUMPDEST PUSH2 0x7F6 DUP2 PUSH2 0x72F JUMP JUMPDEST DUP2 EQ PUSH2 0x801 JUMPI PUSH1 0x0 DUP1 REVERT JUMPDEST POP JUMP JUMPDEST PUSH1 0x0 DUP2 CALLDATALOAD SWAP1 POP PUSH2 0x813 DUP2 PUSH2 0x7ED JUMP JUMPDEST SWAP3 SWAP2 POP POP JUMP JUMPDEST PUSH1 0x0 PUSH20 0xFFFFFFFFFFFFFFFFFFFFFFFFFFFFFFFFFFFFFFFF DUP3 AND SWAP1 POP SWAP2 SWAP1 POP JUMP JUMPDEST PUSH1 0x0 PUSH2 0x844 DUP3 PUSH2 0x819 JUMP JUMPDEST SWAP1 POP SWAP2 SWAP1 POP JUMP JUMPDEST PUSH2 0x854 DUP2 PUSH2 0x839 JUMP JUMPDEST DUP2 EQ PUSH2 0x85F JUMPI PUSH1 0x0 DUP1 REVERT JUMPDEST POP JUMP JUMPDEST PUSH1 0x0 DUP2 CALLDATALOAD SWAP1 POP PUSH2 0x871 DUP2 PUSH2 0x84B JUMP JUMPDEST SWAP3 SWAP2 POP POP JUMP JUMPDEST PUSH1 0x0 DUP1 PUSH1 0x0 DUP1 PUSH1 0x0 PUSH1 0xA0 DUP7 DUP9 SUB SLT ISZERO PUSH2 0x893 JUMPI PUSH2 0x892 PUSH2 0x56A JUMP JUMPDEST JUMPDEST PUSH1 0x0 DUP7 ADD CALLDATALOAD PUSH8 0xFFFFFFFFFFFFFFFF DUP2 GT ISZERO PUSH2 0x8B1 JUMPI PUSH2 0x8B0 PUSH2 0x56F JUMP JUMPDEST JUMPDEST PUSH2 0x8BD DUP9 DUP3 DUP10 ADD PUSH2 0x68C JUMP JUMPDEST SWAP6 POP POP PUSH1 0x20 DUP7 ADD CALLDATALOAD PUSH8 0xFFFFFFFFFFFFFFFF DUP2 GT ISZERO PUSH2 0x8DE JUMPI PUSH2 0x8DD PUSH2 0x56F JUMP JUMPDEST JUMPDEST PUSH2 0x8EA DUP9 DUP3 DUP10 ADD PUSH2 0x68C JUMP JUMPDEST SWAP5 POP POP PUSH1 0x40 PUSH2 0x8FB DUP9 DUP3 DUP10 ADD PUSH2 0x804 JUMP JUMPDEST SWAP4 POP POP PUSH1 0x60 PUSH2 0x90C DUP9 DUP3 DUP10 ADD PUSH2 0x862 JUMP JUMPDEST SWAP3 POP POP PUSH1 0x80 PUSH2 0x91D DUP9 DUP3 DUP10 ADD PUSH2 0x862 JUMP JUMPDEST SWAP2 POP POP SWAP3 SWAP6 POP SWAP3 SWAP6 SWAP1 SWAP4 POP JUMP JUMPDEST PUSH1 0x0 DUP2 MLOAD SWAP1 POP SWAP2 SWAP1 POP JUMP JUMPDEST PUSH1 0x0 DUP2 SWAP1 POP SWAP3 SWAP2 POP POP JUMP JUMPDEST PUSH1 0x0 JUMPDEST DUP4 DUP2 LT ISZERO PUSH2 0x95E JUMPI DUP1 DUP3 ADD MLOAD DUP2 DUP5 ADD MSTORE PUSH1 0x20 DUP2 ADD SWAP1 POP PUSH2 0x943 JUMP JUMPDEST PUSH1 0x0 DUP5 DUP5 ADD MSTORE POP POP POP POP JUMP JUMPDEST PUSH1 0x0 PUSH2 0x975 DUP3 PUSH2 0x92A JUMP JUMPDEST PUSH2 0x97F DUP2 DUP6 PUSH2 0x935 JUMP JUMPDEST SWAP4 POP PUSH2 0x98F DUP2 DUP6 PUSH1 0x20 DUP7 ADD PUSH2 0x940 JUMP JUMPDEST DUP1 DUP5 ADD SWAP2 POP POP SWAP3 SWAP2 POP POP JUMP JUMPDEST PUSH1 0x0 PUSH2 0x9A7 DUP3 DUP5 PUSH2 0x96A JUMP JUMPDEST SWAP2 POP DUP2 SWAP1 POP SWAP3 SWAP2 POP POP JUMP JUMPDEST PUSH1 0x0 DUP3 DUP3 MSTORE PUSH1 0x20 DUP3 ADD SWAP1 POP SWAP3 SWAP2 POP POP JUMP JUMPDEST PUSH1 0x0 PUSH2 0x9CE DUP3 PUSH2 0x92A JUMP JUMPDEST PUSH2 0x9D8 DUP2 DUP6 PUSH2 0x9B2 JUMP JUMPDEST SWAP4 POP PUSH2 0x9E8 DUP2 DUP6 PUSH1 0x20 DUP7 ADD PUSH2 0x940 JUMP JUMPDEST PUSH2 0x9F1 DUP2 PUSH2 0x57E JUMP JUMPDEST DUP5 ADD SWAP2 POP POP SWAP3 SWAP2 POP POP JUMP JUMPDEST PUSH1 0x0 PUSH1 0x20 DUP3 ADD SWAP1 POP DUP2 DUP2 SUB PUSH1 0x0 DUP4 ADD MSTORE PUSH2 0xA16 DUP2 DUP5 PUSH2 0x9C3 JUMP JUMPDEST SWAP1 POP SWAP3 SWAP2 POP POP JUMP JUMPDEST PUSH1 0x0 DUP2 ISZERO ISZERO SWAP1 POP SWAP2 SWAP1 POP JUMP JUMPDEST PUSH2 0xA33 DUP2 PUSH2 0xA1E JUMP JUMPDEST DUP2 EQ PUSH2 0xA3E JUMPI PUSH1 0x0 DUP1 REVERT JUMPDEST POP JUMP JUMPDEST PUSH1 0x0 DUP2 MLOAD SWAP1 POP PUSH2 0xA50 DUP2 PUSH2 0xA2A JUMP JUMPDEST SWAP3 SWAP2 POP POP JUMP JUMPDEST PUSH1 0x0 PUSH1 0x20 DUP3 DUP5 SUB SLT ISZERO PUSH2 0xA6C JUMPI PUSH2 0xA6B PUSH2 0x56A JUMP JUMPDEST JUMPDEST PUSH1 0x0 PUSH2 0xA7A DUP5 DUP3 DUP6 ADD PUSH2 0xA41 JUMP JUMPDEST SWAP2 POP POP SWAP3 SWAP2 POP POP JUMP JUMPDEST PUSH32 0x56656869636C6520000000000000000000000000000000000000000000000000 PUSH1 0x0 DUP3 ADD MSTORE POP JUMP JUMPDEST PUSH1 0x0 PUSH2 0xAB9 PUSH1 0x8 DUP4 PUSH2 0x935 JUMP JUMPDEST SWAP2 POP PUSH2 0xAC4 DUP3 PUSH2 0xA83 JUMP JUMPDEST PUSH1 0x8 DUP3 ADD SWAP1 POP SWAP2 SWAP1 POP JUMP JUMPDEST PUSH32 0x206E6F7420666F756E6421000000000000000000000000000000000000000000 PUSH1 0x0 DUP3 ADD MSTORE POP JUMP JUMPDEST PUSH1 0x0 PUSH2 0xB05 PUSH1 0xB DUP4 PUSH2 0x935 JUMP JUMPDEST SWAP2 POP PUSH2 0xB10 DUP3 PUSH2 0xACF JUMP JUMPDEST PUSH1 0xB DUP3 ADD SWAP1 POP SWAP2 SWAP1 POP JUMP JUMPDEST PUSH1 0x0 PUSH2 0xB26 DUP3 PUSH2 0xAAC JUMP JUMPDEST SWAP2 POP PUSH2 0xB32 DUP3 DUP5 PUSH2 0x96A JUMP JUMPDEST SWAP2 POP PUSH2 0xB3D DUP3 PUSH2 0xAF8 JUMP JUMPDEST SWAP2 POP DUP2 SWAP1 POP SWAP3 SWAP2 POP POP JUMP JUMPDEST PUSH32 0x5600000000000000000000000000000000000000000000000000000000000000 PUSH1 0x0 DUP3 ADD MSTORE POP JUMP JUMPDEST PUSH1 0x0 PUSH2 0xB7E PUSH1 0x1 DUP4 PUSH2 0x935 JUMP JUMPDEST SWAP2 POP PUSH2 0xB89 DUP3 PUSH2 0xB48 JUMP JUMPDEST PUSH1 0x1 DUP3 ADD SWAP1 POP SWAP2 SWAP1 POP JUMP JUMPDEST PUSH1 0x0 PUSH2 0xB9F DUP3 PUSH2 0xB71 JUMP JUMPDEST SWAP2 POP DUP2 SWAP1 POP SWAP2 SWAP1 POP JUMP JUMPDEST PUSH32 0x4900000000000000000000000000000000000000000000000000000000000000 PUSH1 0x0 DUP3 ADD MSTORE POP JUMP JUMPDEST PUSH1 0x0 PUSH2 0xBDF PUSH1 0x1 DUP4 PUSH2 0x935 JUMP JUMPDEST SWAP2 POP PUSH2 0xBEA DUP3 PUSH2 0xBA9 JUMP JUMPDEST PUSH1 0x1 DUP3 ADD SWAP1 POP SWAP2 SWAP1 POP JUMP JUMPDEST PUSH1 0x0 PUSH2 0xC00 DUP3 PUSH2 0xBD2 JUMP JUMPDEST SWAP2 POP DUP2 SWAP1 POP SWAP2 SWAP1 POP JUMP JUMPDEST PUSH32 0x526567697374726174696F6E2063657274696669636174652073746174757320 PUSH1 0x0 DUP3 ADD MSTORE PUSH32 0x73686F756C642062652056202856616C696429206F7220492028496E76616C69 PUSH1 0x20 DUP3 ADD MSTORE PUSH32 0x6429210000000000000000000000000000000000000000000000000000000000 PUSH1 0x40 DUP3 ADD MSTORE POP JUMP JUMPDEST PUSH1 0x0 PUSH2 0xC8C PUSH1 0x43 DUP4 PUSH2 0x9B2 JUMP JUMPDEST SWAP2 POP PUSH2 0xC97 DUP3 PUSH2 0xC0A JUMP JUMPDEST PUSH1 0x60 DUP3 ADD SWAP1 POP SWAP2 SWAP1 POP JUMP JUMPDEST PUSH1 0x0 PUSH1 0x20 DUP3 ADD SWAP1 POP DUP2 DUP2 SUB PUSH1 0x0 DUP4 ADD MSTORE PUSH2 0xCBB DUP2 PUSH2 0xC7F JUMP JUMPDEST SWAP1 POP SWAP2 SWAP1 POP JUMP JUMPDEST PUSH32 0x4E487B7100000000000000000000000000000000000000000000000000000000 PUSH1 0x0 MSTORE PUSH1 0x22 PUSH1 0x4 MSTORE PUSH1 0x24 PUSH1 0x0 REVERT JUMPDEST PUSH1 0x0 PUSH1 0x2 DUP3 DIV SWAP1 POP PUSH1 0x1 DUP3 AND DUP1 PUSH2 0xD09 JUMPI PUSH1 0x7F DUP3 AND SWAP2 POP JUMPDEST PUSH1 0x20 DUP3 LT DUP2 SUB PUSH2 0xD1C JUMPI PUSH2 0xD1B PUSH2 0xCC2 JUMP JUMPDEST JUMPDEST POP SWAP2 SWAP1 POP JUMP JUMPDEST PUSH1 0x0 DUP2 SWAP1 POP DUP2 PUSH1 0x0 MSTORE PUSH1 0x20 PUSH1 0x0 KECCAK256 SWAP1 POP SWAP2 SWAP1 POP JUMP JUMPDEST PUSH1 0x0 PUSH1 0x20 PUSH1 0x1F DUP4 ADD DIV SWAP1 POP SWAP2 SWAP1 POP JUMP JUMPDEST PUSH1 0x0 DUP3 DUP3 SHL SWAP1 POP SWAP3 SWAP2 POP POP JUMP JUMPDEST PUSH1 0x0 PUSH1 0x8 DUP4 MUL PUSH2 0xD84 PUSH32 0xFFFFFFFFFFFFFFFFFFFFFFFFFFFFFFFFFFFFFFFFFFFFFFFFFFFFFFFFFFFFFFFF DUP3 PUSH2 0xD47 JUMP JUMPDEST PUSH2 0xD8E DUP7 DUP4 PUSH2 0xD47 JUMP JUMPDEST SWAP6 POP DUP1 NOT DUP5 AND SWAP4 POP DUP1 DUP7 AND DUP5 OR SWAP3 POP POP POP SWAP4 SWAP3 POP POP POP JUMP JUMPDEST PUSH1 0x0 DUP2 SWAP1 POP SWAP2 SWAP1 POP JUMP JUMPDEST PUSH1 0x0 PUSH2 0xDCB PUSH2 0xDC6 PUSH2 0xDC1 DUP5 PUSH2 0x72F JUMP JUMPDEST PUSH2 0xDA6 JUMP JUMPDEST PUSH2 0x72F JUMP JUMPDEST SWAP1 POP SWAP2 SWAP1 POP JUMP JUMPDEST PUSH1 0x0 DUP2 SWAP1 POP SWAP2 SWAP1 POP JUMP JUMPDEST PUSH2 0xDE5 DUP4 PUSH2 0xDB0 JUMP JUMPDEST PUSH2 0xDF9 PUSH2 0xDF1 DUP3 PUSH2 0xDD2 JUMP JUMPDEST DUP5 DUP5 SLOAD PUSH2 0xD54 JUMP JUMPDEST DUP3 SSTORE POP POP POP POP JUMP JUMPDEST PUSH1 0x0 SWAP1 JUMP JUMPDEST PUSH2 0xE0E PUSH2 0xE01 JUMP JUMPDEST PUSH2 0xE19 DUP2 DUP5 DUP5 PUSH2 0xDDC JUMP JUMPDEST POP POP POP JUMP JUMPDEST JUMPDEST DUP2 DUP2 LT ISZERO PUSH2 0xE3D JUMPI PUSH2 0xE32 PUSH1 0x0 DUP3 PUSH2 0xE06 JUMP JUMPDEST PUSH1 0x1 DUP2 ADD SWAP1 POP PUSH2 0xE1F JUMP JUMPDEST POP POP JUMP JUMPDEST PUSH1 0x1F DUP3 GT ISZERO PUSH2 0xE82 JUMPI PUSH2 0xE53 DUP2 PUSH2 0xD22 JUMP JUMPDEST PUSH2 0xE5C DUP5 PUSH2 0xD37 JUMP JUMPDEST DUP2 ADD PUSH1 0x20 DUP6 LT ISZERO PUSH2 0xE6B JUMPI DUP2 SWAP1 POP JUMPDEST PUSH2 0xE7F PUSH2 0xE77 DUP6 PUSH2 0xD37 JUMP JUMPDEST DUP4 ADD DUP3 PUSH2 0xE1E JUMP JUMPDEST POP POP JUMPDEST POP POP POP JUMP JUMPDEST PUSH1 0x0 DUP3 DUP3 SHR SWAP1 POP SWAP3 SWAP2 POP POP JUMP JUMPDEST PUSH1 0x0 PUSH2 0xEA5 PUSH1 0x0 NOT DUP5 PUSH1 0x8 MUL PUSH2 0xE87 JUMP JUMPDEST NOT DUP1 DUP4 AND SWAP2 POP POP SWAP3 SWAP2 POP POP JUMP JUMPDEST PUSH1 0x0 PUSH2 0xEBE DUP4 DUP4 PUSH2 0xE94 JUMP JUMPDEST SWAP2 POP DUP3 PUSH1 0x2 MUL DUP3 OR SWAP1 POP SWAP3 SWAP2 POP POP JUMP JUMPDEST PUSH2 0xED7 DUP3 PUSH2 0x92A JUMP JUMPDEST PUSH8 0xFFFFFFFFFFFFFFFF DUP2 GT ISZERO PUSH2 0xEF0 JUMPI PUSH2 0xEEF PUSH2 0x58F JUMP JUMPDEST JUMPDEST PUSH2 0xEFA DUP3 SLOAD PUSH2 0xCF1 JUMP JUMPDEST PUSH2 0xF05 DUP3 DUP3 DUP6 PUSH2 0xE41 JUMP JUMPDEST PUSH1 0x0 PUSH1 0x20 SWAP1 POP PUSH1 0x1F DUP4 GT PUSH1 0x1 DUP2 EQ PUSH2 0xF38 JUMPI PUSH1 0x0 DUP5 ISZERO PUSH2 0xF26 JUMPI DUP3 DUP8 ADD MLOAD SWAP1 POP JUMPDEST PUSH2 0xF30 DUP6 DUP3 PUSH2 0xEB2 JUMP JUMPDEST DUP7 SSTORE POP PUSH2 0xF98 JUMP JUMPDEST PUSH1 0x1F NOT DUP5 AND PUSH2 0xF46 DUP7 PUSH2 0xD22 JUMP JUMPDEST PUSH1 0x0 JUMPDEST DUP3 DUP2 LT ISZERO PUSH2 0xF6E JUMPI DUP5 DUP10 ADD MLOAD DUP3 SSTORE PUSH1 0x1 DUP3 ADD SWAP2 POP PUSH1 0x20 DUP6 ADD SWAP5 POP PUSH1 0x20 DUP2 ADD SWAP1 POP PUSH2 0xF49 JUMP JUMPDEST DUP7 DUP4 LT ISZERO PUSH2 0xF8B JUMPI DUP5 DUP10 ADD MLOAD PUSH2 0xF87 PUSH1 0x1F DUP10 AND DUP3 PUSH2 0xE94 JUMP JUMPDEST DUP4 SSTORE POP JUMPDEST PUSH1 0x1 PUSH1 0x2 DUP9 MUL ADD DUP9 SSTORE POP POP POP JUMPDEST POP POP POP POP POP POP JUMP JUMPDEST PUSH1 0x0 PUSH1 0x40 DUP3 ADD SWAP1 POP DUP2 DUP2 SUB PUSH1 0x0 DUP4 ADD MSTORE PUSH2 0xFBA DUP2 DUP6 PUSH2 0x9C3 JUMP JUMPDEST SWAP1 POP DUP2 DUP2 SUB PUSH1 0x20 DUP4 ADD MSTORE PUSH2 0xFCE DUP2 DUP5 PUSH2 0x9C3 JUMP JUMPDEST SWAP1 POP SWAP4 SWAP3 POP POP POP JUMP JUMPDEST PUSH2 0xFE0 DUP2 PUSH2 0x72F JUMP JUMPDEST DUP3 MSTORE POP POP JUMP JUMPDEST PUSH2 0xFEF DUP2 PUSH2 0x839 JUMP JUMPDEST DUP3 MSTORE POP POP JUMP JUMPDEST PUSH1 0x0 PUSH1 0x60 DUP3 ADD SWAP1 POP DUP2 DUP2 SUB PUSH1 0x0 DUP4 ADD MSTORE PUSH2 0x100F DUP2 DUP7 PUSH2 0x9C3 JUMP JUMPDEST SWAP1 POP PUSH2 0x101E PUSH1 0x20 DUP4 ADD DUP6 PUSH2 0xFD7 JUMP JUMPDEST PUSH2 0x102B PUSH1 0x40 DUP4 ADD DUP5 PUSH2 0xFE6 JUMP JUMPDEST SWAP5 SWAP4 POP POP POP POP JUMP INVALID LOG2 PUSH5 0x6970667358 0x22 SLT KECCAK256 0x4F 0x2E 0xC0 0xC0 0x5E PUSH21 0x64686F9D4D6083C64F3139AAE80DE85235DEEBA9BB 0xB7 0x21 BALANCE ADD PUSH22 0x64736F6C634300081100330000000000000000000000 "},"methodIdentifiers":{"getBlocksNums(string)":"09631822","regControl(string,string,uint256,address,address)":"8a1468e6"}}}}}