{"blockchain/contracts/Inspections.sol":{"Inspections":{"abi":[{"anonymous":false,"inputs":[{"indexed":false,"internalType":"string","name":"vin","type":"string"},{"indexed":false,"internalType":"string","name":"insResult","type":"string"}],"name":"InspectionDone","type":"event"},{"inputs":[{"internalType":"string","name":"_vin","type":"string"}],"name":"getBlocksNums","outputs":[{"internalType":"uint256[]","name":"_blocksNums","type":"uint256[]"}],"stateMutability":"view","type":"function"},{"inputs":[{"internalType":"string","name":"_vin","type":"string"}],"name":"getInspectionInfo","outputs":[{"internalType":"string","name":"_insResult","type":"string"},{"internalType":"uint256","name":"_validity","type":"uint256"}],"stateMutability":"view","type":"function"},{"inputs":[{"internalType":"string","name":"_vin","type":"string"},{"internalType":"string","name":"_insResult","type":"string"},{"internalType":"uint256","name":"_mileage","type":"uint256"},{"internalType":"address","name":"_vehiclesContract","type":"address"},{"internalType":"address","name":"_mileagesContract","type":"address"}],"name":"regInspection","outputs":[],"stateMutability":"nonpayable","type":"function"}],"evm":{"bytecode":{"linkReferences":{},"object":"608060405234801561001057600080fd5b506114df806100206000396000f3fe608060405234801561001057600080fd5b50600436106100415760003560e01c806309631822146100465780634a2e630b14610076578063779bdb7314610092575b600080fd5b610060600480360381019061005b91906109c1565b6100c3565b60405161006d9190610ad2565b60405180910390f35b610090600480360381019061008b9190610b7e565b61013c565b005b6100ac60048036038101906100a791906109c1565b610633565b6040516100ba929190610cbf565b60405180910390f35b60606000826040516100d59190610d2b565b908152602001604051809103902060030180548060200260200160405190810160405280929190818152602001828054801561013057602002820191906000526020600020905b81548152602001906001019080831161011c575b50505050509050919050565b6000829050600115158173ffffffffffffffffffffffffffffffffffffffff166330f2c560886040518263ffffffff1660e01b815260040161017e9190610d42565b602060405180830381865afa15801561019b573d6000803e3d6000fd5b505050506040513d601f19601f820116820180604052508101906101bf9190610d9c565b151514866040516020016101d39190610e61565b60405160208183030381529060405290610223576040517f08c379a000000000000000000000000000000000000000000000000000000000815260040161021a9190610d42565b60405180910390fd5b5060405160200161023390610eda565b604051602081830303815290604052805190602001208560405160200161025a9190610d2b565b6040516020818303038152906040528051906020012014806102c5575060405160200161028690610f3b565b60405160208183030381529060405280519060200120856040516020016102ad9190610d2b565b60405160208183030381529060405280519060200120145b610304576040517f08c379a00000000000000000000000000000000000000000000000000000000081526004016102fb90610fc2565b60405180910390fd5b6000806000886040516103179190610d2b565b908152602001604051809103902060030190508043908060018154018082558091505060019003906000526020600020016000909190919091505560405160200161036190610eda565b60405160208183030381529060405280519060200120876040516020016103889190610d2b565b6040516020818303038152906040528051906020012003610425576301e13380426103b39190611011565b91508273ffffffffffffffffffffffffffffffffffffffff16633b731479896040518263ffffffff1660e01b81526004016103ee9190611091565b600060405180830381600087803b15801561040857600080fd5b505af115801561041c573d6000803e3d6000fd5b50505050610491565b8273ffffffffffffffffffffffffffffffffffffffff16633b731479896040518263ffffffff1660e01b815260040161045e9190611112565b600060405180830381600087803b15801561047857600080fd5b505af115801561048c573d6000803e3d6000fd5b505050505b600060405180608001604052808a8152602001898152602001848152602001838054806020026020016040519081016040528092919081815260200182805480156104fb57602002820191906000526020600020905b8154815260200190600101908083116104e7575b505050505081525090508060008a6040516105169190610d2b565b908152602001604051809103902060008201518160000190816105399190611353565b50602082015181600101908161054f9190611353565b506040820151816002015560608201518160030190805190602001906105769291906107fd565b5090505060008590508073ffffffffffffffffffffffffffffffffffffffff1663e85a74ba8b8a8a6040518463ffffffff1660e01b81526004016105bc93929190611434565b600060405180830381600087803b1580156105d657600080fd5b505af11580156105ea573d6000803e3d6000fd5b505050507fb9ad030c97d8bb0fbca6c3a09442800d3f02af4c46eb7d34419da533a2aa697f8a8a60405161061f929190611472565b60405180910390a150505050505050505050565b60606000806000846040516106489190610d2b565b908152602001604051809103902060405180608001604052908160008201805461067190611176565b80601f016020809104026020016040519081016040528092919081815260200182805461069d90611176565b80156106ea5780601f106106bf576101008083540402835291602001916106ea565b820191906000526020600020905b8154815290600101906020018083116106cd57829003601f168201915b5050505050815260200160018201805461070390611176565b80601f016020809104026020016040519081016040528092919081815260200182805461072f90611176565b801561077c5780601f106107515761010080835404028352916020019161077c565b820191906000526020600020905b81548152906001019060200180831161075f57829003601f168201915b5050505050815260200160028201548152602001600382018054806020026020016040519081016040528092919081815260200182805480156107de57602002820191906000526020600020905b8154815260200190600101908083116107ca575b5050505050815250509050806020015181604001519250925050915091565b828054828255906000526020600020908101928215610839579160200282015b8281111561083857825182559160200191906001019061081d565b5b509050610846919061084a565b5090565b5b8082111561086357600081600090555060010161084b565b5090565b6000604051905090565b600080fd5b600080fd5b600080fd5b600080fd5b6000601f19601f8301169050919050565b7f4e487b7100000000000000000000000000000000000000000000000000000000600052604160045260246000fd5b6108ce82610885565b810181811067ffffffffffffffff821117156108ed576108ec610896565b5b80604052505050565b6000610900610867565b905061090c82826108c5565b919050565b600067ffffffffffffffff82111561092c5761092b610896565b5b61093582610885565b9050602081019050919050565b82818337600083830152505050565b600061096461095f84610911565b6108f6565b9050828152602081018484840111156109805761097f610880565b5b61098b848285610942565b509392505050565b600082601f8301126109a8576109a761087b565b5b81356109b8848260208601610951565b91505092915050565b6000602082840312156109d7576109d6610871565b5b600082013567ffffffffffffffff8111156109f5576109f4610876565b5b610a0184828501610993565b91505092915050565b600081519050919050565b600082825260208201905092915050565b6000819050602082019050919050565b6000819050919050565b610a4981610a36565b82525050565b6000610a5b8383610a40565b60208301905092915050565b6000602082019050919050565b6000610a7f82610a0a565b610a898185610a15565b9350610a9483610a26565b8060005b83811015610ac5578151610aac8882610a4f565b9750610ab783610a67565b925050600181019050610a98565b5085935050505092915050565b60006020820190508181036000830152610aec8184610a74565b905092915050565b610afd81610a36565b8114610b0857600080fd5b50565b600081359050610b1a81610af4565b92915050565b600073ffffffffffffffffffffffffffffffffffffffff82169050919050565b6000610b4b82610b20565b9050919050565b610b5b81610b40565b8114610b6657600080fd5b50565b600081359050610b7881610b52565b92915050565b600080600080600060a08688031215610b9a57610b99610871565b5b600086013567ffffffffffffffff811115610bb857610bb7610876565b5b610bc488828901610993565b955050602086013567ffffffffffffffff811115610be557610be4610876565b5b610bf188828901610993565b9450506040610c0288828901610b0b565b9350506060610c1388828901610b69565b9250506080610c2488828901610b69565b9150509295509295909350565b600081519050919050565b600082825260208201905092915050565b60005b83811015610c6b578082015181840152602081019050610c50565b60008484015250505050565b6000610c8282610c31565b610c8c8185610c3c565b9350610c9c818560208601610c4d565b610ca581610885565b840191505092915050565b610cb981610a36565b82525050565b60006040820190508181036000830152610cd98185610c77565b9050610ce86020830184610cb0565b9392505050565b600081905092915050565b6000610d0582610c31565b610d0f8185610cef565b9350610d1f818560208601610c4d565b80840191505092915050565b6000610d378284610cfa565b915081905092915050565b60006020820190508181036000830152610d5c8184610c77565b905092915050565b60008115159050919050565b610d7981610d64565b8114610d8457600080fd5b50565b600081519050610d9681610d70565b92915050565b600060208284031215610db257610db1610871565b5b6000610dc084828501610d87565b91505092915050565b7f56656869636c6520000000000000000000000000000000000000000000000000600082015250565b6000610dff600883610cef565b9150610e0a82610dc9565b600882019050919050565b7f206e6f7420666f756e6421000000000000000000000000000000000000000000600082015250565b6000610e4b600b83610cef565b9150610e5682610e15565b600b82019050919050565b6000610e6c82610df2565b9150610e788284610cfa565b9150610e8382610e3e565b915081905092915050565b7f5000000000000000000000000000000000000000000000000000000000000000600082015250565b6000610ec4600183610cef565b9150610ecf82610e8e565b600182019050919050565b6000610ee582610eb7565b9150819050919050565b7f4e00000000000000000000000000000000000000000000000000000000000000600082015250565b6000610f25600183610cef565b9150610f3082610eef565b600182019050919050565b6000610f4682610f18565b9150819050919050565b7f496e7370656374696f6e20726573756c742073686f756c64206265205020285060008201527f6f73697469766529206f72204e20284e65676174697665292100000000000000602082015250565b6000610fac603983610c3c565b9150610fb782610f50565b604082019050919050565b60006020820190508181036000830152610fdb81610f9f565b9050919050565b7f4e487b7100000000000000000000000000000000000000000000000000000000600052601160045260246000fd5b600061101c82610a36565b915061102783610a36565b925082820190508082111561103f5761103e610fe2565b5b92915050565b7f5600000000000000000000000000000000000000000000000000000000000000600082015250565b600061107b600183610c3c565b915061108682611045565b602082019050919050565b600060408201905081810360008301526110ab8184610c77565b905081810360208301526110be8161106e565b905092915050565b7f4900000000000000000000000000000000000000000000000000000000000000600082015250565b60006110fc600183610c3c565b9150611107826110c6565b602082019050919050565b6000604082019050818103600083015261112c8184610c77565b9050818103602083015261113f816110ef565b905092915050565b7f4e487b7100000000000000000000000000000000000000000000000000000000600052602260045260246000fd5b6000600282049050600182168061118e57607f821691505b6020821081036111a1576111a0611147565b5b50919050565b60008190508160005260206000209050919050565b60006020601f8301049050919050565b600082821b905092915050565b6000600883026112097fffffffffffffffffffffffffffffffffffffffffffffffffffffffffffffffff826111cc565b61121386836111cc565b95508019841693508086168417925050509392505050565b6000819050919050565b600061125061124b61124684610a36565b61122b565b610a36565b9050919050565b6000819050919050565b61126a83611235565b61127e61127682611257565b8484546111d9565b825550505050565b600090565b611293611286565b61129e818484611261565b505050565b5b818110156112c2576112b760008261128b565b6001810190506112a4565b5050565b601f821115611307576112d8816111a7565b6112e1846111bc565b810160208510156112f0578190505b6113046112fc856111bc565b8301826112a3565b50505b505050565b600082821c905092915050565b600061132a6000198460080261130c565b1980831691505092915050565b60006113438383611319565b9150826002028217905092915050565b61135c82610c31565b67ffffffffffffffff81111561137557611374610896565b5b61137f8254611176565b61138a8282856112c6565b600060209050601f8311600181146113bd57600084156113ab578287015190505b6113b58582611337565b86555061141d565b601f1984166113cb866111a7565b60005b828110156113f3578489015182556001820191506020850194506020810190506113ce565b86831015611410578489015161140c601f891682611319565b8355505b6001600288020188555050505b505050505050565b61142e81610b40565b82525050565b6000606082019050818103600083015261144e8186610c77565b905061145d6020830185610cb0565b61146a6040830184611425565b949350505050565b6000604082019050818103600083015261148c8185610c77565b905081810360208301526114a08184610c77565b9050939250505056fea26469706673582212209ab3f1f5b30dbb812ed0b9c78ae13bda0a106f95b8c707ddc88c055a0a03565d64736f6c63430008110033","opcodes":"PUSH1 0x80 PUSH1 0x40 MSTORE CALLVALUE DUP1 ISZERO PUSH2 0x10 JUMPI PUSH1 0x0 DUP1 REVERT JUMPDEST POP PUSH2 0x14DF DUP1 PUSH2 0x20 PUSH1 0x0 CODECOPY PUSH1 0x0 RETURN INVALID PUSH1 0x80 PUSH1 0x40 MSTORE CALLVALUE DUP1 ISZERO PUSH2 0x10 JUMPI PUSH1 0x0 DUP1 REVERT JUMPDEST POP PUSH1 0x4 CALLDATASIZE LT PUSH2 0x41 JUMPI PUSH1 0x0 CALLDATALOAD PUSH1 0xE0 SHR DUP1 PUSH4 0x9631822 EQ PUSH2 0x46 JUMPI DUP1 PUSH4 0x4A2E630B EQ PUSH2 0x76 JUMPI DUP1 PUSH4 0x779BDB73 EQ PUSH2 0x92 JUMPI JUMPDEST PUSH1 0x0 DUP1 REVERT JUMPDEST PUSH2 0x60 PUSH1 0x4 DUP1 CALLDATASIZE SUB DUP2 ADD SWAP1 PUSH2 0x5B SWAP2 SWAP1 PUSH2 0x9C1 JUMP JUMPDEST PUSH2 0xC3 JUMP JUMPDEST PUSH1 0x40 MLOAD PUSH2 0x6D SWAP2 SWAP1 PUSH2 0xAD2 JUMP JUMPDEST PUSH1 0x40 MLOAD DUP1 SWAP2 SUB SWAP1 RETURN JUMPDEST PUSH2 0x90 PUSH1 0x4 DUP1 CALLDATASIZE SUB DUP2 ADD SWAP1 PUSH2 0x8B SWAP2 SWAP1 PUSH2 0xB7E JUMP JUMPDEST PUSH2 0x13C JUMP JUMPDEST STOP JUMPDEST PUSH2 0xAC PUSH1 0x4 DUP1 CALLDATASIZE SUB DUP2 ADD SWAP1 PUSH2 0xA7 SWAP2 SWAP1 PUSH2 0x9C1 JUMP JUMPDEST PUSH2 0x633 JUMP JUMPDEST PUSH1 0x40 MLOAD PUSH2 0xBA SWAP3 SWAP2 SWAP1 PUSH2 0xCBF JUMP JUMPDEST PUSH1 0x40 MLOAD DUP1 SWAP2 SUB SWAP1 RETURN JUMPDEST PUSH1 0x60 PUSH1 0x0 DUP3 PUSH1 0x40 MLOAD PUSH2 0xD5 SWAP2 SWAP1 PUSH2 0xD2B JUMP JUMPDEST SWAP1 DUP2 MSTORE PUSH1 0x20 ADD PUSH1 0x40 MLOAD DUP1 SWAP2 SUB SWAP1 KECCAK256 PUSH1 0x3 ADD DUP1 SLOAD DUP1 PUSH1 0x20 MUL PUSH1 0x20 ADD PUSH1 0x40 MLOAD SWAP1 DUP2 ADD PUSH1 0x40 MSTORE DUP1 SWAP3 SWAP2 SWAP1 DUP2 DUP2 MSTORE PUSH1 0x20 ADD DUP3 DUP1 SLOAD DUP1 ISZERO PUSH2 0x130 JUMPI PUSH1 0x20 MUL DUP3 ADD SWAP2 SWAP1 PUSH1 0x0 MSTORE PUSH1 0x20 PUSH1 0x0 KECCAK256 SWAP1 JUMPDEST DUP2 SLOAD DUP2 MSTORE PUSH1 0x20 ADD SWAP1 PUSH1 0x1 ADD SWAP1 DUP1 DUP4 GT PUSH2 0x11C JUMPI JUMPDEST POP POP POP POP POP SWAP1 POP SWAP2 SWAP1 POP JUMP JUMPDEST PUSH1 0x0 DUP3 SWAP1 POP PUSH1 0x1 ISZERO ISZERO DUP2 PUSH20 0xFFFFFFFFFFFFFFFFFFFFFFFFFFFFFFFFFFFFFFFF AND PUSH4 0x30F2C560 DUP9 PUSH1 0x40 MLOAD DUP3 PUSH4 0xFFFFFFFF AND PUSH1 0xE0 SHL DUP2 MSTORE PUSH1 0x4 ADD PUSH2 0x17E SWAP2 SWAP1 PUSH2 0xD42 JUMP JUMPDEST PUSH1 0x20 PUSH1 0x40 MLOAD DUP1 DUP4 SUB DUP2 DUP7 GAS STATICCALL ISZERO DUP1 ISZERO PUSH2 0x19B JUMPI RETURNDATASIZE PUSH1 0x0 DUP1 RETURNDATACOPY RETURNDATASIZE PUSH1 0x0 REVERT JUMPDEST POP POP POP POP PUSH1 0x40 MLOAD RETURNDATASIZE PUSH1 0x1F NOT PUSH1 0x1F DUP3 ADD AND DUP3 ADD DUP1 PUSH1 0x40 MSTORE POP DUP2 ADD SWAP1 PUSH2 0x1BF SWAP2 SWAP1 PUSH2 0xD9C JUMP JUMPDEST ISZERO ISZERO EQ DUP7 PUSH1 0x40 MLOAD PUSH1 0x20 ADD PUSH2 0x1D3 SWAP2 SWAP1 PUSH2 0xE61 JUMP JUMPDEST PUSH1 0x40 MLOAD PUSH1 0x20 DUP2 DUP4 SUB SUB DUP2 MSTORE SWAP1 PUSH1 0x40 MSTORE SWAP1 PUSH2 0x223 JUMPI PUSH1 0x40 MLOAD PUSH32 0x8C379A000000000000000000000000000000000000000000000000000000000 DUP2 MSTORE PUSH1 0x4 ADD PUSH2 0x21A SWAP2 SWAP1 PUSH2 0xD42 JUMP JUMPDEST PUSH1 0x40 MLOAD DUP1 SWAP2 SUB SWAP1 REVERT JUMPDEST POP PUSH1 0x40 MLOAD PUSH1 0x20 ADD PUSH2 0x233 SWAP1 PUSH2 0xEDA JUMP JUMPDEST PUSH1 0x40 MLOAD PUSH1 0x20 DUP2 DUP4 SUB SUB DUP2 MSTORE SWAP1 PUSH1 0x40 MSTORE DUP1 MLOAD SWAP1 PUSH1 0x20 ADD KECCAK256 DUP6 PUSH1 0x40 MLOAD PUSH1 0x20 ADD PUSH2 0x25A SWAP2 SWAP1 PUSH2 0xD2B JUMP JUMPDEST PUSH1 0x40 MLOAD PUSH1 0x20 DUP2 DUP4 SUB SUB DUP2 MSTORE SWAP1 PUSH1 0x40 MSTORE DUP1 MLOAD SWAP1 PUSH1 0x20 ADD KECCAK256 EQ DUP1 PUSH2 0x2C5 JUMPI POP PUSH1 0x40 MLOAD PUSH1 0x20 ADD PUSH2 0x286 SWAP1 PUSH2 0xF3B JUMP JUMPDEST PUSH1 0x40 MLOAD PUSH1 0x20 DUP2 DUP4 SUB SUB DUP2 MSTORE SWAP1 PUSH1 0x40 MSTORE DUP1 MLOAD SWAP1 PUSH1 0x20 ADD KECCAK256 DUP6 PUSH1 0x40 MLOAD PUSH1 0x20 ADD PUSH2 0x2AD SWAP2 SWAP1 PUSH2 0xD2B JUMP JUMPDEST PUSH1 0x40 MLOAD PUSH1 0x20 DUP2 DUP4 SUB SUB DUP2 MSTORE SWAP1 PUSH1 0x40 MSTORE DUP1 MLOAD SWAP1 PUSH1 0x20 ADD KECCAK256 EQ JUMPDEST PUSH2 0x304 JUMPI PUSH1 0x40 MLOAD PUSH32 0x8C379A000000000000000000000000000000000000000000000000000000000 DUP2 MSTORE PUSH1 0x4 ADD PUSH2 0x2FB SWAP1 PUSH2 0xFC2 JUMP JUMPDEST PUSH1 0x40 MLOAD DUP1 SWAP2 SUB SWAP1 REVERT JUMPDEST PUSH1 0x0 DUP1 PUSH1 0x0 DUP9 PUSH1 0x40 MLOAD PUSH2 0x317 SWAP2 SWAP1 PUSH2 0xD2B JUMP JUMPDEST SWAP1 DUP2 MSTORE PUSH1 0x20 ADD PUSH1 0x40 MLOAD DUP1 SWAP2 SUB SWAP1 KECCAK256 PUSH1 0x3 ADD SWAP1 POP DUP1 NUMBER SWAP1 DUP1 PUSH1 0x1 DUP2 SLOAD ADD DUP1 DUP3 SSTORE DUP1 SWAP2 POP POP PUSH1 0x1 SWAP1 SUB SWAP1 PUSH1 0x0 MSTORE PUSH1 0x20 PUSH1 0x0 KECCAK256 ADD PUSH1 0x0 SWAP1 SWAP2 SWAP1 SWAP2 SWAP1 SWAP2 POP SSTORE PUSH1 0x40 MLOAD PUSH1 0x20 ADD PUSH2 0x361 SWAP1 PUSH2 0xEDA JUMP JUMPDEST PUSH1 0x40 MLOAD PUSH1 0x20 DUP2 DUP4 SUB SUB DUP2 MSTORE SWAP1 PUSH1 0x40 MSTORE DUP1 MLOAD SWAP1 PUSH1 0x20 ADD KECCAK256 DUP8 PUSH1 0x40 MLOAD PUSH1 0x20 ADD PUSH2 0x388 SWAP2 SWAP1 PUSH2 0xD2B JUMP JUMPDEST PUSH1 0x40 MLOAD PUSH1 0x20 DUP2 DUP4 SUB SUB DUP2 MSTORE SWAP1 PUSH1 0x40 MSTORE DUP1 MLOAD SWAP1 PUSH1 0x20 ADD KECCAK256 SUB PUSH2 0x425 JUMPI PUSH4 0x1E13380 TIMESTAMP PUSH2 0x3B3 SWAP2 SWAP1 PUSH2 0x1011 JUMP JUMPDEST SWAP2 POP DUP3 PUSH20 0xFFFFFFFFFFFFFFFFFFFFFFFFFFFFFFFFFFFFFFFF AND PUSH4 0x3B731479 DUP10 PUSH1 0x40 MLOAD DUP3 PUSH4 0xFFFFFFFF AND PUSH1 0xE0 SHL DUP2 MSTORE PUSH1 0x4 ADD PUSH2 0x3EE SWAP2 SWAP1 PUSH2 0x1091 JUMP JUMPDEST PUSH1 0x0 PUSH1 0x40 MLOAD DUP1 DUP4 SUB DUP2 PUSH1 0x0 DUP8 DUP1 EXTCODESIZE ISZERO DUP1 ISZERO PUSH2 0x408 JUMPI PUSH1 0x0 DUP1 REVERT JUMPDEST POP GAS CALL ISZERO DUP1 ISZERO PUSH2 0x41C JUMPI RETURNDATASIZE PUSH1 0x0 DUP1 RETURNDATACOPY RETURNDATASIZE PUSH1 0x0 REVERT JUMPDEST POP POP POP POP PUSH2 0x491 JUMP JUMPDEST DUP3 PUSH20 0xFFFFFFFFFFFFFFFFFFFFFFFFFFFFFFFFFFFFFFFF AND PUSH4 0x3B731479 DUP10 PUSH1 0x40 MLOAD DUP3 PUSH4 0xFFFFFFFF AND PUSH1 0xE0 SHL DUP2 MSTORE PUSH1 0x4 ADD PUSH2 0x45E SWAP2 SWAP1 PUSH2 0x1112 JUMP JUMPDEST PUSH1 0x0 PUSH1 0x40 MLOAD DUP1 DUP4 SUB DUP2 PUSH1 0x0 DUP8 DUP1 EXTCODESIZE ISZERO DUP1 ISZERO PUSH2 0x478 JUMPI PUSH1 0x0 DUP1 REVERT JUMPDEST POP GAS CALL ISZERO DUP1 ISZERO PUSH2 0x48C JUMPI RETURNDATASIZE PUSH1 0x0 DUP1 RETURNDATACOPY RETURNDATASIZE PUSH1 0x0 REVERT JUMPDEST POP POP POP POP JUMPDEST PUSH1 0x0 PUSH1 0x40 MLOAD DUP1 PUSH1 0x80 ADD PUSH1 0x40 MSTORE DUP1 DUP11 DUP2 MSTORE PUSH1 0x20 ADD DUP10 DUP2 MSTORE PUSH1 0x20 ADD DUP5 DUP2 MSTORE PUSH1 0x20 ADD DUP4 DUP1 SLOAD DUP1 PUSH1 0x20 MUL PUSH1 0x20 ADD PUSH1 0x40 MLOAD SWAP1 DUP2 ADD PUSH1 0x40 MSTORE DUP1 SWAP3 SWAP2 SWAP1 DUP2 DUP2 MSTORE PUSH1 0x20 ADD DUP3 DUP1 SLOAD DUP1 ISZERO PUSH2 0x4FB JUMPI PUSH1 0x20 MUL DUP3 ADD SWAP2 SWAP1 PUSH1 0x0 MSTORE PUSH1 0x20 PUSH1 0x0 KECCAK256 SWAP1 JUMPDEST DUP2 SLOAD DUP2 MSTORE PUSH1 0x20 ADD SWAP1 PUSH1 0x1 ADD SWAP1 DUP1 DUP4 GT PUSH2 0x4E7 JUMPI JUMPDEST POP POP POP POP POP DUP2 MSTORE POP SWAP1 POP DUP1 PUSH1 0x0 DUP11 PUSH1 0x40 MLOAD PUSH2 0x516 SWAP2 SWAP1 PUSH2 0xD2B JUMP JUMPDEST SWAP1 DUP2 MSTORE PUSH1 0x20 ADD PUSH1 0x40 MLOAD DUP1 SWAP2 SUB SWAP1 KECCAK256 PUSH1 0x0 DUP3 ADD MLOAD DUP2 PUSH1 0x0 ADD SWAP1 DUP2 PUSH2 0x539 SWAP2 SWAP1 PUSH2 0x1353 JUMP JUMPDEST POP PUSH1 0x20 DUP3 ADD MLOAD DUP2 PUSH1 0x1 ADD SWAP1 DUP2 PUSH2 0x54F SWAP2 SWAP1 PUSH2 0x1353 JUMP JUMPDEST POP PUSH1 0x40 DUP3 ADD MLOAD DUP2 PUSH1 0x2 ADD SSTORE PUSH1 0x60 DUP3 ADD MLOAD DUP2 PUSH1 0x3 ADD SWAP1 DUP1 MLOAD SWAP1 PUSH1 0x20 ADD SWAP1 PUSH2 0x576 SWAP3 SWAP2 SWAP1 PUSH2 0x7FD JUMP JUMPDEST POP SWAP1 POP POP PUSH1 0x0 DUP6 SWAP1 POP DUP1 PUSH20 0xFFFFFFFFFFFFFFFFFFFFFFFFFFFFFFFFFFFFFFFF AND PUSH4 0xE85A74BA DUP12 DUP11 DUP11 PUSH1 0x40 MLOAD DUP5 PUSH4 0xFFFFFFFF AND PUSH1 0xE0 SHL DUP2 MSTORE PUSH1 0x4 ADD PUSH2 0x5BC SWAP4 SWAP3 SWAP2 SWAP1 PUSH2 0x1434 JUMP JUMPDEST PUSH1 0x0 PUSH1 0x40 MLOAD DUP1 DUP4 SUB DUP2 PUSH1 0x0 DUP8 DUP1 EXTCODESIZE ISZERO DUP1 ISZERO PUSH2 0x5D6 JUMPI PUSH1 0x0 DUP1 REVERT JUMPDEST POP GAS CALL ISZERO DUP1 ISZERO PUSH2 0x5EA JUMPI RETURNDATASIZE PUSH1 0x0 DUP1 RETURNDATACOPY RETURNDATASIZE PUSH1 0x0 REVERT JUMPDEST POP POP POP POP PUSH32 0xB9AD030C97D8BB0FBCA6C3A09442800D3F02AF4C46EB7D34419DA533A2AA697F DUP11 DUP11 PUSH1 0x40 MLOAD PUSH2 0x61F SWAP3 SWAP2 SWAP1 PUSH2 0x1472 JUMP JUMPDEST PUSH1 0x40 MLOAD DUP1 SWAP2 SUB SWAP1 LOG1 POP POP POP POP POP POP POP POP POP POP JUMP JUMPDEST PUSH1 0x60 PUSH1 0x0 DUP1 PUSH1 0x0 DUP5 PUSH1 0x40 MLOAD PUSH2 0x648 SWAP2 SWAP1 PUSH2 0xD2B JUMP JUMPDEST SWAP1 DUP2 MSTORE PUSH1 0x20 ADD PUSH1 0x40 MLOAD DUP1 SWAP2 SUB SWAP1 KECCAK256 PUSH1 0x40 MLOAD DUP1 PUSH1 0x80 ADD PUSH1 0x40 MSTORE SWAP1 DUP2 PUSH1 0x0 DUP3 ADD DUP1 SLOAD PUSH2 0x671 SWAP1 PUSH2 0x1176 JUMP JUMPDEST DUP1 PUSH1 0x1F ADD PUSH1 0x20 DUP1 SWAP2 DIV MUL PUSH1 0x20 ADD PUSH1 0x40 MLOAD SWAP1 DUP2 ADD PUSH1 0x40 MSTORE DUP1 SWAP3 SWAP2 SWAP1 DUP2 DUP2 MSTORE PUSH1 0x20 ADD DUP3 DUP1 SLOAD PUSH2 0x69D SWAP1 PUSH2 0x1176 JUMP JUMPDEST DUP1 ISZERO PUSH2 0x6EA JUMPI DUP1 PUSH1 0x1F LT PUSH2 0x6BF JUMPI PUSH2 0x100 DUP1 DUP4 SLOAD DIV MUL DUP4 MSTORE SWAP2 PUSH1 0x20 ADD SWAP2 PUSH2 0x6EA JUMP JUMPDEST DUP3 ADD SWAP2 SWAP1 PUSH1 0x0 MSTORE PUSH1 0x20 PUSH1 0x0 KECCAK256 SWAP1 JUMPDEST DUP2 SLOAD DUP2 MSTORE SWAP1 PUSH1 0x1 ADD SWAP1 PUSH1 0x20 ADD DUP1 DUP4 GT PUSH2 0x6CD JUMPI DUP3 SWAP1 SUB PUSH1 0x1F AND DUP3 ADD SWAP2 JUMPDEST POP POP POP POP POP DUP2 MSTORE PUSH1 0x20 ADD PUSH1 0x1 DUP3 ADD DUP1 SLOAD PUSH2 0x703 SWAP1 PUSH2 0x1176 JUMP JUMPDEST DUP1 PUSH1 0x1F ADD PUSH1 0x20 DUP1 SWAP2 DIV MUL PUSH1 0x20 ADD PUSH1 0x40 MLOAD SWAP1 DUP2 ADD PUSH1 0x40 MSTORE DUP1 SWAP3 SWAP2 SWAP1 DUP2 DUP2 MSTORE PUSH1 0x20 ADD DUP3 DUP1 SLOAD PUSH2 0x72F SWAP1 PUSH2 0x1176 JUMP JUMPDEST DUP1 ISZERO PUSH2 0x77C JUMPI DUP1 PUSH1 0x1F LT PUSH2 0x751 JUMPI PUSH2 0x100 DUP1 DUP4 SLOAD DIV MUL DUP4 MSTORE SWAP2 PUSH1 0x20 ADD SWAP2 PUSH2 0x77C JUMP JUMPDEST DUP3 ADD SWAP2 SWAP1 PUSH1 0x0 MSTORE PUSH1 0x20 PUSH1 0x0 KECCAK256 SWAP1 JUMPDEST DUP2 SLOAD DUP2 MSTORE SWAP1 PUSH1 0x1 ADD SWAP1 PUSH1 0x20 ADD DUP1 DUP4 GT PUSH2 0x75F JUMPI DUP3 SWAP1 SUB PUSH1 0x1F AND DUP3 ADD SWAP2 JUMPDEST POP POP POP POP POP DUP2 MSTORE PUSH1 0x20 ADD PUSH1 0x2 DUP3 ADD SLOAD DUP2 MSTORE PUSH1 0x20 ADD PUSH1 0x3 DUP3 ADD DUP1 SLOAD DUP1 PUSH1 0x20 MUL PUSH1 0x20 ADD PUSH1 0x40 MLOAD SWAP1 DUP2 ADD PUSH1 0x40 MSTORE DUP1 SWAP3 SWAP2 SWAP1 DUP2 DUP2 MSTORE PUSH1 0x20 ADD DUP3 DUP1 SLOAD DUP1 ISZERO PUSH2 0x7DE JUMPI PUSH1 0x20 MUL DUP3 ADD SWAP2 SWAP1 PUSH1 0x0 MSTORE PUSH1 0x20 PUSH1 0x0 KECCAK256 SWAP1 JUMPDEST DUP2 SLOAD DUP2 MSTORE PUSH1 0x20 ADD SWAP1 PUSH1 0x1 ADD SWAP1 DUP1 DUP4 GT PUSH2 0x7CA JUMPI JUMPDEST POP POP POP POP POP DUP2 MSTORE POP POP SWAP1 POP DUP1 PUSH1 0x20 ADD MLOAD DUP2 PUSH1 0x40 ADD MLOAD SWAP3 POP SWAP3 POP POP SWAP2 POP SWAP2 JUMP JUMPDEST DUP3 DUP1 SLOAD DUP3 DUP3 SSTORE SWAP1 PUSH1 0x0 MSTORE PUSH1 0x20 PUSH1 0x0 KECCAK256 SWAP1 DUP2 ADD SWAP3 DUP3 ISZERO PUSH2 0x839 JUMPI SWAP2 PUSH1 0x20 MUL DUP3 ADD JUMPDEST DUP3 DUP2 GT ISZERO PUSH2 0x838 JUMPI DUP3 MLOAD DUP3 SSTORE SWAP2 PUSH1 0x20 ADD SWAP2 SWAP1 PUSH1 0x1 ADD SWAP1 PUSH2 0x81D JUMP JUMPDEST JUMPDEST POP SWAP1 POP PUSH2 0x846 SWAP2 SWAP1 PUSH2 0x84A JUMP JUMPDEST POP SWAP1 JUMP JUMPDEST JUMPDEST DUP1 DUP3 GT ISZERO PUSH2 0x863 JUMPI PUSH1 0x0 DUP2 PUSH1 0x0 SWAP1 SSTORE POP PUSH1 0x1 ADD PUSH2 0x84B JUMP JUMPDEST POP SWAP1 JUMP JUMPDEST PUSH1 0x0 PUSH1 0x40 MLOAD SWAP1 POP SWAP1 JUMP JUMPDEST PUSH1 0x0 DUP1 REVERT JUMPDEST PUSH1 0x0 DUP1 REVERT JUMPDEST PUSH1 0x0 DUP1 REVERT JUMPDEST PUSH1 0x0 DUP1 REVERT JUMPDEST PUSH1 0x0 PUSH1 0x1F NOT PUSH1 0x1F DUP4 ADD AND SWAP1 POP SWAP2 SWAP1 POP JUMP JUMPDEST PUSH32 0x4E487B7100000000000000000000000000000000000000000000000000000000 PUSH1 0x0 MSTORE PUSH1 0x41 PUSH1 0x4 MSTORE PUSH1 0x24 PUSH1 0x0 REVERT JUMPDEST PUSH2 0x8CE DUP3 PUSH2 0x885 JUMP JUMPDEST DUP2 ADD DUP2 DUP2 LT PUSH8 0xFFFFFFFFFFFFFFFF DUP3 GT OR ISZERO PUSH2 0x8ED JUMPI PUSH2 0x8EC PUSH2 0x896 JUMP JUMPDEST JUMPDEST DUP1 PUSH1 0x40 MSTORE POP POP POP JUMP JUMPDEST PUSH1 0x0 PUSH2 0x900 PUSH2 0x867 JUMP JUMPDEST SWAP1 POP PUSH2 0x90C DUP3 DUP3 PUSH2 0x8C5 JUMP JUMPDEST SWAP2 SWAP1 POP JUMP JUMPDEST PUSH1 0x0 PUSH8 0xFFFFFFFFFFFFFFFF DUP3 GT ISZERO PUSH2 0x92C JUMPI PUSH2 0x92B PUSH2 0x896 JUMP JUMPDEST JUMPDEST PUSH2 0x935 DUP3 PUSH2 0x885 JUMP JUMPDEST SWAP1 POP PUSH1 0x20 DUP2 ADD SWAP1 POP SWAP2 SWAP1 POP JUMP JUMPDEST DUP3 DUP2 DUP4 CALLDATACOPY PUSH1 0x0 DUP4 DUP4 ADD MSTORE POP POP POP JUMP JUMPDEST PUSH1 0x0 PUSH2 0x964 PUSH2 0x95F DUP5 PUSH2 0x911 JUMP JUMPDEST PUSH2 0x8F6 JUMP JUMPDEST SWAP1 POP DUP3 DUP2 MSTORE PUSH1 0x20 DUP2 ADD DUP5 DUP5 DUP5 ADD GT ISZERO PUSH2 0x980 JUMPI PUSH2 0x97F PUSH2 0x880 JUMP JUMPDEST JUMPDEST PUSH2 0x98B DUP5 DUP3 DUP6 PUSH2 0x942 JUMP JUMPDEST POP SWAP4 SWAP3 POP POP POP JUMP JUMPDEST PUSH1 0x0 DUP3 PUSH1 0x1F DUP4 ADD SLT PUSH2 0x9A8 JUMPI PUSH2 0x9A7 PUSH2 0x87B JUMP JUMPDEST JUMPDEST DUP2 CALLDATALOAD PUSH2 0x9B8 DUP5 DUP3 PUSH1 0x20 DUP7 ADD PUSH2 0x951 JUMP JUMPDEST SWAP2 POP POP SWAP3 SWAP2 POP POP JUMP JUMPDEST PUSH1 0x0 PUSH1 0x20 DUP3 DUP5 SUB SLT ISZERO PUSH2 0x9D7 JUMPI PUSH2 0x9D6 PUSH2 0x871 JUMP JUMPDEST JUMPDEST PUSH1 0x0 DUP3 ADD CALLDATALOAD PUSH8 0xFFFFFFFFFFFFFFFF DUP2 GT ISZERO PUSH2 0x9F5 JUMPI PUSH2 0x9F4 PUSH2 0x876 JUMP JUMPDEST JUMPDEST PUSH2 0xA01 DUP5 DUP3 DUP6 ADD PUSH2 0x993 JUMP JUMPDEST SWAP2 POP POP SWAP3 SWAP2 POP POP JUMP JUMPDEST PUSH1 0x0 DUP2 MLOAD SWAP1 POP SWAP2 SWAP1 POP JUMP JUMPDEST PUSH1 0x0 DUP3 DUP3 MSTORE PUSH1 0x20 DUP3 ADD SWAP1 POP SWAP3 SWAP2 POP POP JUMP JUMPDEST PUSH1 0x0 DUP2 SWAP1 POP PUSH1 0x20 DUP3 ADD SWAP1 POP SWAP2 SWAP1 POP JUMP JUMPDEST PUSH1 0x0 DUP2 SWAP1 POP SWAP2 SWAP1 POP JUMP JUMPDEST PUSH2 0xA49 DUP2 PUSH2 0xA36 JUMP JUMPDEST DUP3 MSTORE POP POP JUMP JUMPDEST PUSH1 0x0 PUSH2 0xA5B DUP4 DUP4 PUSH2 0xA40 JUMP JUMPDEST PUSH1 0x20 DUP4 ADD SWAP1 POP SWAP3 SWAP2 POP POP JUMP JUMPDEST PUSH1 0x0 PUSH1 0x20 DUP3 ADD SWAP1 POP SWAP2 SWAP1 POP JUMP JUMPDEST PUSH1 0x0 PUSH2 0xA7F DUP3 PUSH2 0xA0A JUMP JUMPDEST PUSH2 0xA89 DUP2 DUP6 PUSH2 0xA15 JUMP JUMPDEST SWAP4 POP PUSH2 0xA94 DUP4 PUSH2 0xA26 JUMP JUMPDEST DUP1 PUSH1 0x0 JUMPDEST DUP4 DUP2 LT ISZERO PUSH2 0xAC5 JUMPI DUP2 MLOAD PUSH2 0xAAC DUP9 DUP3 PUSH2 0xA4F JUMP JUMPDEST SWAP8 POP PUSH2 0xAB7 DUP4 PUSH2 0xA67 JUMP JUMPDEST SWAP3 POP POP PUSH1 0x1 DUP2 ADD SWAP1 POP PUSH2 0xA98 JUMP JUMPDEST POP DUP6 SWAP4 POP POP POP POP SWAP3 SWAP2 POP POP JUMP JUMPDEST PUSH1 0x0 PUSH1 0x20 DUP3 ADD SWAP1 POP DUP2 DUP2 SUB PUSH1 0x0 DUP4 ADD MSTORE PUSH2 0xAEC DUP2 DUP5 PUSH2 0xA74 JUMP JUMPDEST SWAP1 POP SWAP3 SWAP2 POP POP JUMP JUMPDEST PUSH2 0xAFD DUP2 PUSH2 0xA36 JUMP JUMPDEST DUP2 EQ PUSH2 0xB08 JUMPI PUSH1 0x0 DUP1 REVERT JUMPDEST POP JUMP JUMPDEST PUSH1 0x0 DUP2 CALLDATALOAD SWAP1 POP PUSH2 0xB1A DUP2 PUSH2 0xAF4 JUMP JUMPDEST SWAP3 SWAP2 POP POP JUMP JUMPDEST PUSH1 0x0 PUSH20 0xFFFFFFFFFFFFFFFFFFFFFFFFFFFFFFFFFFFFFFFF DUP3 AND SWAP1 POP SWAP2 SWAP1 POP JUMP JUMPDEST PUSH1 0x0 PUSH2 0xB4B DUP3 PUSH2 0xB20 JUMP JUMPDEST SWAP1 POP SWAP2 SWAP1 POP JUMP JUMPDEST PUSH2 0xB5B DUP2 PUSH2 0xB40 JUMP JUMPDEST DUP2 EQ PUSH2 0xB66 JUMPI PUSH1 0x0 DUP1 REVERT JUMPDEST POP JUMP JUMPDEST PUSH1 0x0 DUP2 CALLDATALOAD SWAP1 POP PUSH2 0xB78 DUP2 PUSH2 0xB52 JUMP JUMPDEST SWAP3 SWAP2 POP POP JUMP JUMPDEST PUSH1 0x0 DUP1 PUSH1 0x0 DUP1 PUSH1 0x0 PUSH1 0xA0 DUP7 DUP9 SUB SLT ISZERO PUSH2 0xB9A JUMPI PUSH2 0xB99 PUSH2 0x871 JUMP JUMPDEST JUMPDEST PUSH1 0x0 DUP7 ADD CALLDATALOAD PUSH8 0xFFFFFFFFFFFFFFFF DUP2 GT ISZERO PUSH2 0xBB8 JUMPI PUSH2 0xBB7 PUSH2 0x876 JUMP JUMPDEST JUMPDEST PUSH2 0xBC4 DUP9 DUP3 DUP10 ADD PUSH2 0x993 JUMP JUMPDEST SWAP6 POP POP PUSH1 0x20 DUP7 ADD CALLDATALOAD PUSH8 0xFFFFFFFFFFFFFFFF DUP2 GT ISZERO PUSH2 0xBE5 JUMPI PUSH2 0xBE4 PUSH2 0x876 JUMP JUMPDEST JUMPDEST PUSH2 0xBF1 DUP9 DUP3 DUP10 ADD PUSH2 0x993 JUMP JUMPDEST SWAP5 POP POP PUSH1 0x40 PUSH2 0xC02 DUP9 DUP3 DUP10 ADD PUSH2 0xB0B JUMP JUMPDEST SWAP4 POP POP PUSH1 0x60 PUSH2 0xC13 DUP9 DUP3 DUP10 ADD PUSH2 0xB69 JUMP JUMPDEST SWAP3 POP POP PUSH1 0x80 PUSH2 0xC24 DUP9 DUP3 DUP10 ADD PUSH2 0xB69 JUMP JUMPDEST SWAP2 POP POP SWAP3 SWAP6 POP SWAP3 SWAP6 SWAP1 SWAP4 POP JUMP JUMPDEST PUSH1 0x0 DUP2 MLOAD SWAP1 POP SWAP2 SWAP1 POP JUMP JUMPDEST PUSH1 0x0 DUP3 DUP3 MSTORE PUSH1 0x20 DUP3 ADD SWAP1 POP SWAP3 SWAP2 POP POP JUMP JUMPDEST PUSH1 0x0 JUMPDEST DUP4 DUP2 LT ISZERO PUSH2 0xC6B JUMPI DUP1 DUP3 ADD MLOAD DUP2 DUP5 ADD MSTORE PUSH1 0x20 DUP2 ADD SWAP1 POP PUSH2 0xC50 JUMP JUMPDEST PUSH1 0x0 DUP5 DUP5 ADD MSTORE POP POP POP POP JUMP JUMPDEST PUSH1 0x0 PUSH2 0xC82 DUP3 PUSH2 0xC31 JUMP JUMPDEST PUSH2 0xC8C DUP2 DUP6 PUSH2 0xC3C JUMP JUMPDEST SWAP4 POP PUSH2 0xC9C DUP2 DUP6 PUSH1 0x20 DUP7 ADD PUSH2 0xC4D JUMP JUMPDEST PUSH2 0xCA5 DUP2 PUSH2 0x885 JUMP JUMPDEST DUP5 ADD SWAP2 POP POP SWAP3 SWAP2 POP POP JUMP JUMPDEST PUSH2 0xCB9 DUP2 PUSH2 0xA36 JUMP JUMPDEST DUP3 MSTORE POP POP JUMP JUMPDEST PUSH1 0x0 PUSH1 0x40 DUP3 ADD SWAP1 POP DUP2 DUP2 SUB PUSH1 0x0 DUP4 ADD MSTORE PUSH2 0xCD9 DUP2 DUP6 PUSH2 0xC77 JUMP JUMPDEST SWAP1 POP PUSH2 0xCE8 PUSH1 0x20 DUP4 ADD DUP5 PUSH2 0xCB0 JUMP JUMPDEST SWAP4 SWAP3 POP POP POP JUMP JUMPDEST PUSH1 0x0 DUP2 SWAP1 POP SWAP3 SWAP2 POP POP JUMP JUMPDEST PUSH1 0x0 PUSH2 0xD05 DUP3 PUSH2 0xC31 JUMP JUMPDEST PUSH2 0xD0F DUP2 DUP6 PUSH2 0xCEF JUMP JUMPDEST SWAP4 POP PUSH2 0xD1F DUP2 DUP6 PUSH1 0x20 DUP7 ADD PUSH2 0xC4D JUMP JUMPDEST DUP1 DUP5 ADD SWAP2 POP POP SWAP3 SWAP2 POP POP JUMP JUMPDEST PUSH1 0x0 PUSH2 0xD37 DUP3 DUP5 PUSH2 0xCFA JUMP JUMPDEST SWAP2 POP DUP2 SWAP1 POP SWAP3 SWAP2 POP POP JUMP JUMPDEST PUSH1 0x0 PUSH1 0x20 DUP3 ADD SWAP1 POP DUP2 DUP2 SUB PUSH1 0x0 DUP4 ADD MSTORE PUSH2 0xD5C DUP2 DUP5 PUSH2 0xC77 JUMP JUMPDEST SWAP1 POP SWAP3 SWAP2 POP POP JUMP JUMPDEST PUSH1 0x0 DUP2 ISZERO ISZERO SWAP1 POP SWAP2 SWAP1 POP JUMP JUMPDEST PUSH2 0xD79 DUP2 PUSH2 0xD64 JUMP JUMPDEST DUP2 EQ PUSH2 0xD84 JUMPI PUSH1 0x0 DUP1 REVERT JUMPDEST POP JUMP JUMPDEST PUSH1 0x0 DUP2 MLOAD SWAP1 POP PUSH2 0xD96 DUP2 PUSH2 0xD70 JUMP JUMPDEST SWAP3 SWAP2 POP POP JUMP JUMPDEST PUSH1 0x0 PUSH1 0x20 DUP3 DUP5 SUB SLT ISZERO PUSH2 0xDB2 JUMPI PUSH2 0xDB1 PUSH2 0x871 JUMP JUMPDEST JUMPDEST PUSH1 0x0 PUSH2 0xDC0 DUP5 DUP3 DUP6 ADD PUSH2 0xD87 JUMP JUMPDEST SWAP2 POP POP SWAP3 SWAP2 POP POP JUMP JUMPDEST PUSH32 0x56656869636C6520000000000000000000000000000000000000000000000000 PUSH1 0x0 DUP3 ADD MSTORE POP JUMP JUMPDEST PUSH1 0x0 PUSH2 0xDFF PUSH1 0x8 DUP4 PUSH2 0xCEF JUMP JUMPDEST SWAP2 POP PUSH2 0xE0A DUP3 PUSH2 0xDC9 JUMP JUMPDEST PUSH1 0x8 DUP3 ADD SWAP1 POP SWAP2 SWAP1 POP JUMP JUMPDEST PUSH32 0x206E6F7420666F756E6421000000000000000000000000000000000000000000 PUSH1 0x0 DUP3 ADD MSTORE POP JUMP JUMPDEST PUSH1 0x0 PUSH2 0xE4B PUSH1 0xB DUP4 PUSH2 0xCEF JUMP JUMPDEST SWAP2 POP PUSH2 0xE56 DUP3 PUSH2 0xE15 JUMP JUMPDEST PUSH1 0xB DUP3 ADD SWAP1 POP SWAP2 SWAP1 POP JUMP JUMPDEST PUSH1 0x0 PUSH2 0xE6C DUP3 PUSH2 0xDF2 JUMP JUMPDEST SWAP2 POP PUSH2 0xE78 DUP3 DUP5 PUSH2 0xCFA JUMP JUMPDEST SWAP2 POP PUSH2 0xE83 DUP3 PUSH2 0xE3E JUMP JUMPDEST SWAP2 POP DUP2 SWAP1 POP SWAP3 SWAP2 POP POP JUMP JUMPDEST PUSH32 0x5000000000000000000000000000000000000000000000000000000000000000 PUSH1 0x0 DUP3 ADD MSTORE POP JUMP JUMPDEST PUSH1 0x0 PUSH2 0xEC4 PUSH1 0x1 DUP4 PUSH2 0xCEF JUMP JUMPDEST SWAP2 POP PUSH2 0xECF DUP3 PUSH2 0xE8E JUMP JUMPDEST PUSH1 0x1 DUP3 ADD SWAP1 POP SWAP2 SWAP1 POP JUMP JUMPDEST PUSH1 0x0 PUSH2 0xEE5 DUP3 PUSH2 0xEB7 JUMP JUMPDEST SWAP2 POP DUP2 SWAP1 POP SWAP2 SWAP1 POP JUMP JUMPDEST PUSH32 0x4E00000000000000000000000000000000000000000000000000000000000000 PUSH1 0x0 DUP3 ADD MSTORE POP JUMP JUMPDEST PUSH1 0x0 PUSH2 0xF25 PUSH1 0x1 DUP4 PUSH2 0xCEF JUMP JUMPDEST SWAP2 POP PUSH2 0xF30 DUP3 PUSH2 0xEEF JUMP JUMPDEST PUSH1 0x1 DUP3 ADD SWAP1 POP SWAP2 SWAP1 POP JUMP JUMPDEST PUSH1 0x0 PUSH2 0xF46 DUP3 PUSH2 0xF18 JUMP JUMPDEST SWAP2 POP DUP2 SWAP1 POP SWAP2 SWAP1 POP JUMP JUMPDEST PUSH32 0x496E7370656374696F6E20726573756C742073686F756C642062652050202850 PUSH1 0x0 DUP3 ADD MSTORE PUSH32 0x6F73697469766529206F72204E20284E65676174697665292100000000000000 PUSH1 0x20 DUP3 ADD MSTORE POP JUMP JUMPDEST PUSH1 0x0 PUSH2 0xFAC PUSH1 0x39 DUP4 PUSH2 0xC3C JUMP JUMPDEST SWAP2 POP PUSH2 0xFB7 DUP3 PUSH2 0xF50 JUMP JUMPDEST PUSH1 0x40 DUP3 ADD SWAP1 POP SWAP2 SWAP1 POP JUMP JUMPDEST PUSH1 0x0 PUSH1 0x20 DUP3 ADD SWAP1 POP DUP2 DUP2 SUB PUSH1 0x0 DUP4 ADD MSTORE PUSH2 0xFDB DUP2 PUSH2 0xF9F JUMP JUMPDEST SWAP1 POP SWAP2 SWAP1 POP JUMP JUMPDEST PUSH32 0x4E487B7100000000000000000000000000000000000000000000000000000000 PUSH1 0x0 MSTORE PUSH1 0x11 PUSH1 0x4 MSTORE PUSH1 0x24 PUSH1 0x0 REVERT JUMPDEST PUSH1 0x0 PUSH2 0x101C DUP3 PUSH2 0xA36 JUMP JUMPDEST SWAP2 POP PUSH2 0x1027 DUP4 PUSH2 0xA36 JUMP JUMPDEST SWAP3 POP DUP3 DUP3 ADD SWAP1 POP DUP1 DUP3 GT ISZERO PUSH2 0x103F JUMPI PUSH2 0x103E PUSH2 0xFE2 JUMP JUMPDEST JUMPDEST SWAP3 SWAP2 POP POP JUMP JUMPDEST PUSH32 0x5600000000000000000000000000000000000000000000000000000000000000 PUSH1 0x0 DUP3 ADD MSTORE POP JUMP JUMPDEST PUSH1 0x0 PUSH2 0x107B PUSH1 0x1 DUP4 PUSH2 0xC3C JUMP JUMPDEST SWAP2 POP PUSH2 0x1086 DUP3 PUSH2 0x1045 JUMP JUMPDEST PUSH1 0x20 DUP3 ADD SWAP1 POP SWAP2 SWAP1 POP JUMP JUMPDEST PUSH1 0x0 PUSH1 0x40 DUP3 ADD SWAP1 POP DUP2 DUP2 SUB PUSH1 0x0 DUP4 ADD MSTORE PUSH2 0x10AB DUP2 DUP5 PUSH2 0xC77 JUMP JUMPDEST SWAP1 POP DUP2 DUP2 SUB PUSH1 0x20 DUP4 ADD MSTORE PUSH2 0x10BE DUP2 PUSH2 0x106E JUMP JUMPDEST SWAP1 POP SWAP3 SWAP2 POP POP JUMP JUMPDEST PUSH32 0x4900000000000000000000000000000000000000000000000000000000000000 PUSH1 0x0 DUP3 ADD MSTORE POP JUMP JUMPDEST PUSH1 0x0 PUSH2 0x10FC PUSH1 0x1 DUP4 PUSH2 0xC3C JUMP JUMPDEST SWAP2 POP PUSH2 0x1107 DUP3 PUSH2 0x10C6 JUMP JUMPDEST PUSH1 0x20 DUP3 ADD SWAP1 POP SWAP2 SWAP1 POP JUMP JUMPDEST PUSH1 0x0 PUSH1 0x40 DUP3 ADD SWAP1 POP DUP2 DUP2 SUB PUSH1 0x0 DUP4 ADD MSTORE PUSH2 0x112C DUP2 DUP5 PUSH2 0xC77 JUMP JUMPDEST SWAP1 POP DUP2 DUP2 SUB PUSH1 0x20 DUP4 ADD MSTORE PUSH2 0x113F DUP2 PUSH2 0x10EF JUMP JUMPDEST SWAP1 POP SWAP3 SWAP2 POP POP JUMP JUMPDEST PUSH32 0x4E487B7100000000000000000000000000000000000000000000000000000000 PUSH1 0x0 MSTORE PUSH1 0x22 PUSH1 0x4 MSTORE PUSH1 0x24 PUSH1 0x0 REVERT JUMPDEST PUSH1 0x0 PUSH1 0x2 DUP3 DIV SWAP1 POP PUSH1 0x1 DUP3 AND DUP1 PUSH2 0x118E JUMPI PUSH1 0x7F DUP3 AND SWAP2 POP JUMPDEST PUSH1 0x20 DUP3 LT DUP2 SUB PUSH2 0x11A1 JUMPI PUSH2 0x11A0 PUSH2 0x1147 JUMP JUMPDEST JUMPDEST POP SWAP2 SWAP1 POP JUMP JUMPDEST PUSH1 0x0 DUP2 SWAP1 POP DUP2 PUSH1 0x0 MSTORE PUSH1 0x20 PUSH1 0x0 KECCAK256 SWAP1 POP SWAP2 SWAP1 POP JUMP JUMPDEST PUSH1 0x0 PUSH1 0x20 PUSH1 0x1F DUP4 ADD DIV SWAP1 POP SWAP2 SWAP1 POP JUMP JUMPDEST PUSH1 0x0 DUP3 DUP3 SHL SWAP1 POP SWAP3 SWAP2 POP POP JUMP JUMPDEST PUSH1 0x0 PUSH1 0x8 DUP4 MUL PUSH2 0x1209 PUSH32 0xFFFFFFFFFFFFFFFFFFFFFFFFFFFFFFFFFFFFFFFFFFFFFFFFFFFFFFFFFFFFFFFF DUP3 PUSH2 0x11CC JUMP JUMPDEST PUSH2 0x1213 DUP7 DUP4 PUSH2 0x11CC JUMP JUMPDEST SWAP6 POP DUP1 NOT DUP5 AND SWAP4 POP DUP1 DUP7 AND DUP5 OR SWAP3 POP POP POP SWAP4 SWAP3 POP POP POP JUMP JUMPDEST PUSH1 0x0 DUP2 SWAP1 POP SWAP2 SWAP1 POP JUMP JUMPDEST PUSH1 0x0 PUSH2 0x1250 PUSH2 0x124B PUSH2 0x1246 DUP5 PUSH2 0xA36 JUMP JUMPDEST PUSH2 0x122B JUMP JUMPDEST PUSH2 0xA36 JUMP JUMPDEST SWAP1 POP SWAP2 SWAP1 POP JUMP JUMPDEST PUSH1 0x0 DUP2 SWAP1 POP SWAP2 SWAP1 POP JUMP JUMPDEST PUSH2 0x126A DUP4 PUSH2 0x1235 JUMP JUMPDEST PUSH2 0x127E PUSH2 0x1276 DUP3 PUSH2 0x1257 JUMP JUMPDEST DUP5 DUP5 SLOAD PUSH2 0x11D9 JUMP JUMPDEST DUP3 SSTORE POP POP POP POP JUMP JUMPDEST PUSH1 0x0 SWAP1 JUMP JUMPDEST PUSH2 0x1293 PUSH2 0x1286 JUMP JUMPDEST PUSH2 0x129E DUP2 DUP5 DUP5 PUSH2 0x1261 JUMP JUMPDEST POP POP POP JUMP JUMPDEST JUMPDEST DUP2 DUP2 LT ISZERO PUSH2 0x12C2 JUMPI PUSH2 0x12B7 PUSH1 0x0 DUP3 PUSH2 0x128B JUMP JUMPDEST PUSH1 0x1 DUP2 ADD SWAP1 POP PUSH2 0x12A4 JUMP JUMPDEST POP POP JUMP JUMPDEST PUSH1 0x1F DUP3 GT ISZERO PUSH2 0x1307 JUMPI PUSH2 0x12D8 DUP2 PUSH2 0x11A7 JUMP JUMPDEST PUSH2 0x12E1 DUP5 PUSH2 0x11BC JUMP JUMPDEST DUP2 ADD PUSH1 0x20 DUP6 LT ISZERO PUSH2 0x12F0 JUMPI DUP2 SWAP1 POP JUMPDEST PUSH2 0x1304 PUSH2 0x12FC DUP6 PUSH2 0x11BC JUMP JUMPDEST DUP4 ADD DUP3 PUSH2 0x12A3 JUMP JUMPDEST POP POP JUMPDEST POP POP POP JUMP JUMPDEST PUSH1 0x0 DUP3 DUP3 SHR SWAP1 POP SWAP3 SWAP2 POP POP JUMP JUMPDEST PUSH1 0x0 PUSH2 0x132A PUSH1 0x0 NOT DUP5 PUSH1 0x8 MUL PUSH2 0x130C JUMP JUMPDEST NOT DUP1 DUP4 AND SWAP2 POP POP SWAP3 SWAP2 POP POP JUMP JUMPDEST PUSH1 0x0 PUSH2 0x1343 DUP4 DUP4 PUSH2 0x1319 JUMP JUMPDEST SWAP2 POP DUP3 PUSH1 0x2 MUL DUP3 OR SWAP1 POP SWAP3 SWAP2 POP POP JUMP JUMPDEST PUSH2 0x135C DUP3 PUSH2 0xC31 JUMP JUMPDEST PUSH8 0xFFFFFFFFFFFFFFFF DUP2 GT ISZERO PUSH2 0x1375 JUMPI PUSH2 0x1374 PUSH2 0x896 JUMP JUMPDEST JUMPDEST PUSH2 0x137F DUP3 SLOAD PUSH2 0x1176 JUMP JUMPDEST PUSH2 0x138A DUP3 DUP3 DUP6 PUSH2 0x12C6 JUMP JUMPDEST PUSH1 0x0 PUSH1 0x20 SWAP1 POP PUSH1 0x1F DUP4 GT PUSH1 0x1 DUP2 EQ PUSH2 0x13BD JUMPI PUSH1 0x0 DUP5 ISZERO PUSH2 0x13AB JUMPI DUP3 DUP8 ADD MLOAD SWAP1 POP JUMPDEST PUSH2 0x13B5 DUP6 DUP3 PUSH2 0x1337 JUMP JUMPDEST DUP7 SSTORE POP PUSH2 0x141D JUMP JUMPDEST PUSH1 0x1F NOT DUP5 AND PUSH2 0x13CB DUP7 PUSH2 0x11A7 JUMP JUMPDEST PUSH1 0x0 JUMPDEST DUP3 DUP2 LT ISZERO PUSH2 0x13F3 JUMPI DUP5 DUP10 ADD MLOAD DUP3 SSTORE PUSH1 0x1 DUP3 ADD SWAP2 POP PUSH1 0x20 DUP6 ADD SWAP5 POP PUSH1 0x20 DUP2 ADD SWAP1 POP PUSH2 0x13CE JUMP JUMPDEST DUP7 DUP4 LT ISZERO PUSH2 0x1410 JUMPI DUP5 DUP10 ADD MLOAD PUSH2 0x140C PUSH1 0x1F DUP10 AND DUP3 PUSH2 0x1319 JUMP JUMPDEST DUP4 SSTORE POP JUMPDEST PUSH1 0x1 PUSH1 0x2 DUP9 MUL ADD DUP9 SSTORE POP POP POP JUMPDEST POP POP POP POP POP POP JUMP JUMPDEST PUSH2 0x142E DUP2 PUSH2 0xB40 JUMP JUMPDEST DUP3 MSTORE POP POP JUMP JUMPDEST PUSH1 0x0 PUSH1 0x60 DUP3 ADD SWAP1 POP DUP2 DUP2 SUB PUSH1 0x0 DUP4 ADD MSTORE PUSH2 0x144E DUP2 DUP7 PUSH2 0xC77 JUMP JUMPDEST SWAP1 POP PUSH2 0x145D PUSH1 0x20 DUP4 ADD DUP6 PUSH2 0xCB0 JUMP JUMPDEST PUSH2 0x146A PUSH1 0x40 DUP4 ADD DUP5 PUSH2 0x1425 JUMP JUMPDEST SWAP5 SWAP4 POP POP POP POP JUMP JUMPDEST PUSH1 0x0 PUSH1 0x40 DUP3 ADD SWAP1 POP DUP2 DUP2 SUB PUSH1 0x0 DUP4 ADD MSTORE PUSH2 0x148C DUP2 DUP6 PUSH2 0xC77 JUMP JUMPDEST SWAP1 POP DUP2 DUP2 SUB PUSH1 0x20 DUP4 ADD MSTORE PUSH2 0x14A0 DUP2 DUP5 PUSH2 0xC77 JUMP JUMPDEST SWAP1 POP SWAP4 SWAP3 POP POP POP JUMP INVALID LOG2 PUSH5 0x6970667358 0x22 SLT KECCAK256 SWAP11 0xB3 CALL CREATE2 0xB3 0xD 0xBB DUP2 0x2E 0xD0 0xB9 0xC7 DUP11 0xE1 EXTCODESIZE 0xDA EXP LT PUSH16 0x95B8C707DDC88C055A0A03565D64736F PUSH13 0x63430008110033000000000000 "},"methodIdentifiers":{"getBlocksNums(string)":"09631822","getInspectionInfo(string)":"779bdb73","regInspection(string,string,uint256,address,address)":"4a2e630b"}}}}}