{"blockchain/contracts/Stealings.sol":{"Stealings":{"abi":[{"anonymous":false,"inputs":[{"indexed":false,"internalType":"string","name":"vin","type":"string"},{"indexed":false,"internalType":"string","name":"place","type":"string"},{"indexed":false,"internalType":"uint256","name":"date","type":"uint256"},{"indexed":false,"internalType":"string","name":"description","type":"string"}],"name":"StealingReported","type":"event"},{"inputs":[{"internalType":"string","name":"_vin","type":"string"}],"name":"getBlocksNums","outputs":[{"internalType":"uint256[]","name":"_blocksNums","type":"uint256[]"}],"stateMutability":"view","type":"function"},{"inputs":[{"internalType":"string","name":"_vin","type":"string"},{"internalType":"string","name":"_place","type":"string"},{"internalType":"uint256","name":"_date","type":"uint256"},{"internalType":"string","name":"_description","type":"string"},{"internalType":"address","name":"_vehiclesContract","type":"address"}],"name":"reportStealing","outputs":[],"stateMutability":"nonpayable","type":"function"}],"evm":{"bytecode":{"linkReferences":{},"object":"608060405234801561001057600080fd5b50610d6b806100206000396000f3fe608060405234801561001057600080fd5b50600436106100365760003560e01c8063096318221461003b5780632f4b2f041461006b575b600080fd5b61005560048036038101906100509190610544565b610087565b6040516100629190610655565b60405180910390f35b61008560048036038101906100809190610701565b610100565b005b60606000826040516100999190610841565b90815260200160405180910390206004018054806020026020016040519081016040528092919081815260200182805480156100f457602002820191906000526020600020905b8154815260200190600101908083116100e0575b50505050509050919050565b6000819050600115158173ffffffffffffffffffffffffffffffffffffffff166330f2c560886040518263ffffffff1660e01b815260040161014291906108a2565b602060405180830381865afa15801561015f573d6000803e3d6000fd5b505050506040513d601f19601f8201168201806040525081019061018391906108fc565b1515148660405160200161019791906109c1565b604051602081830303815290604052906101e7576040517f08c379a00000000000000000000000000000000000000000000000000000000081526004016101de91906108a2565b60405180910390fd5b50600080876040516101f99190610841565b908152602001604051809103902060040190508043908060018154018082558091505060019003906000526020600020016000909190919091505560006040518060a00160405280898152602001888152602001878152602001868152602001838054806020026020016040519081016040528092919081815260200182805480156102a457602002820191906000526020600020905b815481526020019060010190808311610290575b50505050508152509050806000896040516102bf9190610841565b908152602001604051809103902060008201518160000190816102e29190610bfa565b5060208201518160010190816102f89190610bfa565b506040820151816002015560608201518160030190816103189190610bfa565b506080820151816004019080519060200190610335929190610380565b509050507f46cdb528885121d577d7529588c7db5005988ec42a3c86bb94e34b11b0fe14898888888860405161036e9493929190610cdb565b60405180910390a15050505050505050565b8280548282559060005260206000209081019282156103bc579160200282015b828111156103bb5782518255916020019190600101906103a0565b5b5090506103c991906103cd565b5090565b5b808211156103e65760008160009055506001016103ce565b5090565b6000604051905090565b600080fd5b600080fd5b600080fd5b600080fd5b6000601f19601f8301169050919050565b7f4e487b7100000000000000000000000000000000000000000000000000000000600052604160045260246000fd5b61045182610408565b810181811067ffffffffffffffff821117156104705761046f610419565b5b80604052505050565b60006104836103ea565b905061048f8282610448565b919050565b600067ffffffffffffffff8211156104af576104ae610419565b5b6104b882610408565b9050602081019050919050565b82818337600083830152505050565b60006104e76104e284610494565b610479565b90508281526020810184848401111561050357610502610403565b5b61050e8482856104c5565b509392505050565b600082601f83011261052b5761052a6103fe565b5b813561053b8482602086016104d4565b91505092915050565b60006020828403121561055a576105596103f4565b5b600082013567ffffffffffffffff811115610578576105776103f9565b5b61058484828501610516565b91505092915050565b600081519050919050565b600082825260208201905092915050565b6000819050602082019050919050565b6000819050919050565b6105cc816105b9565b82525050565b60006105de83836105c3565b60208301905092915050565b6000602082019050919050565b60006106028261058d565b61060c8185610598565b9350610617836105a9565b8060005b8381101561064857815161062f88826105d2565b975061063a836105ea565b92505060018101905061061b565b5085935050505092915050565b6000602082019050818103600083015261066f81846105f7565b905092915050565b610680816105b9565b811461068b57600080fd5b50565b60008135905061069d81610677565b92915050565b600073ffffffffffffffffffffffffffffffffffffffff82169050919050565b60006106ce826106a3565b9050919050565b6106de816106c3565b81146106e957600080fd5b50565b6000813590506106fb816106d5565b92915050565b600080600080600060a0868803121561071d5761071c6103f4565b5b600086013567ffffffffffffffff81111561073b5761073a6103f9565b5b61074788828901610516565b955050602086013567ffffffffffffffff811115610768576107676103f9565b5b61077488828901610516565b94505060406107858882890161068e565b935050606086013567ffffffffffffffff8111156107a6576107a56103f9565b5b6107b288828901610516565b92505060806107c3888289016106ec565b9150509295509295909350565b600081519050919050565b600081905092915050565b60005b838110156108045780820151818401526020810190506107e9565b60008484015250505050565b600061081b826107d0565b61082581856107db565b93506108358185602086016107e6565b80840191505092915050565b600061084d8284610810565b915081905092915050565b600082825260208201905092915050565b6000610874826107d0565b61087e8185610858565b935061088e8185602086016107e6565b61089781610408565b840191505092915050565b600060208201905081810360008301526108bc8184610869565b905092915050565b60008115159050919050565b6108d9816108c4565b81146108e457600080fd5b50565b6000815190506108f6816108d0565b92915050565b600060208284031215610912576109116103f4565b5b6000610920848285016108e7565b91505092915050565b7f56656869636c6520000000000000000000000000000000000000000000000000600082015250565b600061095f6008836107db565b915061096a82610929565b600882019050919050565b7f206e6f7420666f756e6421000000000000000000000000000000000000000000600082015250565b60006109ab600b836107db565b91506109b682610975565b600b82019050919050565b60006109cc82610952565b91506109d88284610810565b91506109e38261099e565b915081905092915050565b7f4e487b7100000000000000000000000000000000000000000000000000000000600052602260045260246000fd5b60006002820490506001821680610a3557607f821691505b602082108103610a4857610a476109ee565b5b50919050565b60008190508160005260206000209050919050565b60006020601f8301049050919050565b600082821b905092915050565b600060088302610ab07fffffffffffffffffffffffffffffffffffffffffffffffffffffffffffffffff82610a73565b610aba8683610a73565b95508019841693508086168417925050509392505050565b6000819050919050565b6000610af7610af2610aed846105b9565b610ad2565b6105b9565b9050919050565b6000819050919050565b610b1183610adc565b610b25610b1d82610afe565b848454610a80565b825550505050565b600090565b610b3a610b2d565b610b45818484610b08565b505050565b5b81811015610b6957610b5e600082610b32565b600181019050610b4b565b5050565b601f821115610bae57610b7f81610a4e565b610b8884610a63565b81016020851015610b97578190505b610bab610ba385610a63565b830182610b4a565b50505b505050565b600082821c905092915050565b6000610bd160001984600802610bb3565b1980831691505092915050565b6000610bea8383610bc0565b9150826002028217905092915050565b610c03826107d0565b67ffffffffffffffff811115610c1c57610c1b610419565b5b610c268254610a1d565b610c31828285610b6d565b600060209050601f831160018114610c645760008415610c52578287015190505b610c5c8582610bde565b865550610cc4565b601f198416610c7286610a4e565b60005b82811015610c9a57848901518255600182019150602085019450602081019050610c75565b86831015610cb75784890151610cb3601f891682610bc0565b8355505b6001600288020188555050505b505050505050565b610cd5816105b9565b82525050565b60006080820190508181036000830152610cf58187610869565b90508181036020830152610d098186610869565b9050610d186040830185610ccc565b8181036060830152610d2a8184610869565b90509594505050505056fea26469706673582212202004827e5ba90e5db743c7a4a7a5bb53aa5add093721230a24b47281ae2a735664736f6c63430008110033","opcodes":"PUSH1 0x80 PUSH1 0x40 MSTORE CALLVALUE DUP1 ISZERO PUSH2 0x10 JUMPI PUSH1 0x0 DUP1 REVERT JUMPDEST POP PUSH2 0xD6B DUP1 PUSH2 0x20 PUSH1 0x0 CODECOPY PUSH1 0x0 RETURN INVALID PUSH1 0x80 PUSH1 0x40 MSTORE CALLVALUE DUP1 ISZERO PUSH2 0x10 JUMPI PUSH1 0x0 DUP1 REVERT JUMPDEST POP PUSH1 0x4 CALLDATASIZE LT PUSH2 0x36 JUMPI PUSH1 0x0 CALLDATALOAD PUSH1 0xE0 SHR DUP1 PUSH4 0x9631822 EQ PUSH2 0x3B JUMPI DUP1 PUSH4 0x2F4B2F04 EQ PUSH2 0x6B JUMPI JUMPDEST PUSH1 0x0 DUP1 REVERT JUMPDEST PUSH2 0x55 PUSH1 0x4 DUP1 CALLDATASIZE SUB DUP2 ADD SWAP1 PUSH2 0x50 SWAP2 SWAP1 PUSH2 0x544 JUMP JUMPDEST PUSH2 0x87 JUMP JUMPDEST PUSH1 0x40 MLOAD PUSH2 0x62 SWAP2 SWAP1 PUSH2 0x655 JUMP JUMPDEST PUSH1 0x40 MLOAD DUP1 SWAP2 SUB SWAP1 RETURN JUMPDEST PUSH2 0x85 PUSH1 0x4 DUP1 CALLDATASIZE SUB DUP2 ADD SWAP1 PUSH2 0x80 SWAP2 SWAP1 PUSH2 0x701 JUMP JUMPDEST PUSH2 0x100 JUMP JUMPDEST STOP JUMPDEST PUSH1 0x60 PUSH1 0x0 DUP3 PUSH1 0x40 MLOAD PUSH2 0x99 SWAP2 SWAP1 PUSH2 0x841 JUMP JUMPDEST SWAP1 DUP2 MSTORE PUSH1 0x20 ADD PUSH1 0x40 MLOAD DUP1 SWAP2 SUB SWAP1 KECCAK256 PUSH1 0x4 ADD DUP1 SLOAD DUP1 PUSH1 0x20 MUL PUSH1 0x20 ADD PUSH1 0x40 MLOAD SWAP1 DUP2 ADD PUSH1 0x40 MSTORE DUP1 SWAP3 SWAP2 SWAP1 DUP2 DUP2 MSTORE PUSH1 0x20 ADD DUP3 DUP1 SLOAD DUP1 ISZERO PUSH2 0xF4 JUMPI PUSH1 0x20 MUL DUP3 ADD SWAP2 SWAP1 PUSH1 0x0 MSTORE PUSH1 0x20 PUSH1 0x0 KECCAK256 SWAP1 JUMPDEST DUP2 SLOAD DUP2 MSTORE PUSH1 0x20 ADD SWAP1 PUSH1 0x1 ADD SWAP1 DUP1 DUP4 GT PUSH2 0xE0 JUMPI JUMPDEST POP POP POP POP POP SWAP1 POP SWAP2 SWAP1 POP JUMP JUMPDEST PUSH1 0x0 DUP2 SWAP1 POP PUSH1 0x1 ISZERO ISZERO DUP2 PUSH20 0xFFFFFFFFFFFFFFFFFFFFFFFFFFFFFFFFFFFFFFFF AND PUSH4 0x30F2C560 DUP9 PUSH1 0x40 MLOAD DUP3 PUSH4 0xFFFFFFFF AND PUSH1 0xE0 SHL DUP2 MSTORE PUSH1 0x4 ADD PUSH2 0x142 SWAP2 SWAP1 PUSH2 0x8A2 JUMP JUMPDEST PUSH1 0x20 PUSH1 0x40 MLOAD DUP1 DUP4 SUB DUP2 DUP7 GAS STATICCALL ISZERO DUP1 ISZERO PUSH2 0x15F JUMPI RETURNDATASIZE PUSH1 0x0 DUP1 RETURNDATACOPY RETURNDATASIZE PUSH1 0x0 REVERT JUMPDEST POP POP POP POP PUSH1 0x40 MLOAD RETURNDATASIZE PUSH1 0x1F NOT PUSH1 0x1F DUP3 ADD AND DUP3 ADD DUP1 PUSH1 0x40 MSTORE POP DUP2 ADD SWAP1 PUSH2 0x183 SWAP2 SWAP1 PUSH2 0x8FC JUMP JUMPDEST ISZERO ISZERO EQ DUP7 PUSH1 0x40 MLOAD PUSH1 0x20 ADD PUSH2 0x197 SWAP2 SWAP1 PUSH2 0x9C1 JUMP JUMPDEST PUSH1 0x40 MLOAD PUSH1 0x20 DUP2 DUP4 SUB SUB DUP2 MSTORE SWAP1 PUSH1 0x40 MSTORE SWAP1 PUSH2 0x1E7 JUMPI PUSH1 0x40 MLOAD PUSH32 0x8C379A000000000000000000000000000000000000000000000000000000000 DUP2 MSTORE PUSH1 0x4 ADD PUSH2 0x1DE SWAP2 SWAP1 PUSH2 0x8A2 JUMP JUMPDEST PUSH1 0x40 MLOAD DUP1 SWAP2 SUB SWAP1 REVERT JUMPDEST POP PUSH1 0x0 DUP1 DUP8 PUSH1 0x40 MLOAD PUSH2 0x1F9 SWAP2 SWAP1 PUSH2 0x841 JUMP JUMPDEST SWAP1 DUP2 MSTORE PUSH1 0x20 ADD PUSH1 0x40 MLOAD DUP1 SWAP2 SUB SWAP1 KECCAK256 PUSH1 0x4 ADD SWAP1 POP DUP1 NUMBER SWAP1 DUP1 PUSH1 0x1 DUP2 SLOAD ADD DUP1 DUP3 SSTORE DUP1 SWAP2 POP POP PUSH1 0x1 SWAP1 SUB SWAP1 PUSH1 0x0 MSTORE PUSH1 0x20 PUSH1 0x0 KECCAK256 ADD PUSH1 0x0 SWAP1 SWAP2 SWAP1 SWAP2 SWAP1 SWAP2 POP SSTORE PUSH1 0x0 PUSH1 0x40 MLOAD DUP1 PUSH1 0xA0 ADD PUSH1 0x40 MSTORE DUP1 DUP10 DUP2 MSTORE PUSH1 0x20 ADD DUP9 DUP2 MSTORE PUSH1 0x20 ADD DUP8 DUP2 MSTORE PUSH1 0x20 ADD DUP7 DUP2 MSTORE PUSH1 0x20 ADD DUP4 DUP1 SLOAD DUP1 PUSH1 0x20 MUL PUSH1 0x20 ADD PUSH1 0x40 MLOAD SWAP1 DUP2 ADD PUSH1 0x40 MSTORE DUP1 SWAP3 SWAP2 SWAP1 DUP2 DUP2 MSTORE PUSH1 0x20 ADD DUP3 DUP1 SLOAD DUP1 ISZERO PUSH2 0x2A4 JUMPI PUSH1 0x20 MUL DUP3 ADD SWAP2 SWAP1 PUSH1 0x0 MSTORE PUSH1 0x20 PUSH1 0x0 KECCAK256 SWAP1 JUMPDEST DUP2 SLOAD DUP2 MSTORE PUSH1 0x20 ADD SWAP1 PUSH1 0x1 ADD SWAP1 DUP1 DUP4 GT PUSH2 0x290 JUMPI JUMPDEST POP POP POP POP POP DUP2 MSTORE POP SWAP1 POP DUP1 PUSH1 0x0 DUP10 PUSH1 0x40 MLOAD PUSH2 0x2BF SWAP2 SWAP1 PUSH2 0x841 JUMP JUMPDEST SWAP1 DUP2 MSTORE PUSH1 0x20 ADD PUSH1 0x40 MLOAD DUP1 SWAP2 SUB SWAP1 KECCAK256 PUSH1 0x0 DUP3 ADD MLOAD DUP2 PUSH1 0x0 ADD SWAP1 DUP2 PUSH2 0x2E2 SWAP2 SWAP1 PUSH2 0xBFA JUMP JUMPDEST POP PUSH1 0x20 DUP3 ADD MLOAD DUP2 PUSH1 0x1 ADD SWAP1 DUP2 PUSH2 0x2F8 SWAP2 SWAP1 PUSH2 0xBFA JUMP JUMPDEST POP PUSH1 0x40 DUP3 ADD MLOAD DUP2 PUSH1 0x2 ADD SSTORE PUSH1 0x60 DUP3 ADD MLOAD DUP2 PUSH1 0x3 ADD SWAP1 DUP2 PUSH2 0x318 SWAP2 SWAP1 PUSH2 0xBFA JUMP JUMPDEST POP PUSH1 0x80 DUP3 ADD MLOAD DUP2 PUSH1 0x4 ADD SWAP1 DUP1 MLOAD SWAP1 PUSH1 0x20 ADD SWAP1 PUSH2 0x335 SWAP3 SWAP2 SWAP1 PUSH2 0x380 JUMP JUMPDEST POP SWAP1 POP POP PUSH32 0x46CDB528885121D577D7529588C7DB5005988EC42A3C86BB94E34B11B0FE1489 DUP9 DUP9 DUP9 DUP9 PUSH1 0x40 MLOAD PUSH2 0x36E SWAP5 SWAP4 SWAP3 SWAP2 SWAP1 PUSH2 0xCDB JUMP JUMPDEST PUSH1 0x40 MLOAD DUP1 SWAP2 SUB SWAP1 LOG1 POP POP POP POP POP POP POP POP JUMP JUMPDEST DUP3 DUP1 SLOAD DUP3 DUP3 SSTORE SWAP1 PUSH1 0x0 MSTORE PUSH1 0x20 PUSH1 0x0 KECCAK256 SWAP1 DUP2 ADD SWAP3 DUP3 ISZERO PUSH2 0x3BC JUMPI SWAP2 PUSH1 0x20 MUL DUP3 ADD JUMPDEST DUP3 DUP2 GT ISZERO PUSH2 0x3BB JUMPI DUP3 MLOAD DUP3 SSTORE SWAP2 PUSH1 0x20 ADD SWAP2 SWAP1 PUSH1 0x1 ADD SWAP1 PUSH2 0x3A0 JUMP JUMPDEST JUMPDEST POP SWAP1 POP PUSH2 0x3C9 SWAP2 SWAP1 PUSH2 0x3CD JUMP JUMPDEST POP SWAP1 JUMP JUMPDEST JUMPDEST DUP1 DUP3 GT ISZERO PUSH2 0x3E6 JUMPI PUSH1 0x0 DUP2 PUSH1 0x0 SWAP1 SSTORE POP PUSH1 0x1 ADD PUSH2 0x3CE JUMP JUMPDEST POP SWAP1 JUMP JUMPDEST PUSH1 0x0 PUSH1 0x40 MLOAD SWAP1 POP SWAP1 JUMP JUMPDEST PUSH1 0x0 DUP1 REVERT JUMPDEST PUSH1 0x0 DUP1 REVERT JUMPDEST PUSH1 0x0 DUP1 REVERT JUMPDEST PUSH1 0x0 DUP1 REVERT JUMPDEST PUSH1 0x0 PUSH1 0x1F NOT PUSH1 0x1F DUP4 ADD AND SWAP1 POP SWAP2 SWAP1 POP JUMP JUMPDEST PUSH32 0x4E487B7100000000000000000000000000000000000000000000000000000000 PUSH1 0x0 MSTORE PUSH1 0x41 PUSH1 0x4 MSTORE PUSH1 0x24 PUSH1 0x0 REVERT JUMPDEST PUSH2 0x451 DUP3 PUSH2 0x408 JUMP JUMPDEST DUP2 ADD DUP2 DUP2 LT PUSH8 0xFFFFFFFFFFFFFFFF DUP3 GT OR ISZERO PUSH2 0x470 JUMPI PUSH2 0x46F PUSH2 0x419 JUMP JUMPDEST JUMPDEST DUP1 PUSH1 0x40 MSTORE POP POP POP JUMP JUMPDEST PUSH1 0x0 PUSH2 0x483 PUSH2 0x3EA JUMP JUMPDEST SWAP1 POP PUSH2 0x48F DUP3 DUP3 PUSH2 0x448 JUMP JUMPDEST SWAP2 SWAP1 POP JUMP JUMPDEST PUSH1 0x0 PUSH8 0xFFFFFFFFFFFFFFFF DUP3 GT ISZERO PUSH2 0x4AF JUMPI PUSH2 0x4AE PUSH2 0x419 JUMP JUMPDEST JUMPDEST PUSH2 0x4B8 DUP3 PUSH2 0x408 JUMP JUMPDEST SWAP1 POP PUSH1 0x20 DUP2 ADD SWAP1 POP SWAP2 SWAP1 POP JUMP JUMPDEST DUP3 DUP2 DUP4 CALLDATACOPY PUSH1 0x0 DUP4 DUP4 ADD MSTORE POP POP POP JUMP JUMPDEST PUSH1 0x0 PUSH2 0x4E7 PUSH2 0x4E2 DUP5 PUSH2 0x494 JUMP JUMPDEST PUSH2 0x479 JUMP JUMPDEST SWAP1 POP DUP3 DUP2 MSTORE PUSH1 0x20 DUP2 ADD DUP5 DUP5 DUP5 ADD GT ISZERO PUSH2 0x503 JUMPI PUSH2 0x502 PUSH2 0x403 JUMP JUMPDEST JUMPDEST PUSH2 0x50E DUP5 DUP3 DUP6 PUSH2 0x4C5 JUMP JUMPDEST POP SWAP4 SWAP3 POP POP POP JUMP JUMPDEST PUSH1 0x0 DUP3 PUSH1 0x1F DUP4 ADD SLT PUSH2 0x52B JUMPI PUSH2 0x52A PUSH2 0x3FE JUMP JUMPDEST JUMPDEST DUP2 CALLDATALOAD PUSH2 0x53B DUP5 DUP3 PUSH1 0x20 DUP7 ADD PUSH2 0x4D4 JUMP JUMPDEST SWAP2 POP POP SWAP3 SWAP2 POP POP JUMP JUMPDEST PUSH1 0x0 PUSH1 0x20 DUP3 DUP5 SUB SLT ISZERO PUSH2 0x55A JUMPI PUSH2 0x559 PUSH2 0x3F4 JUMP JUMPDEST JUMPDEST PUSH1 0x0 DUP3 ADD CALLDATALOAD PUSH8 0xFFFFFFFFFFFFFFFF DUP2 GT ISZERO PUSH2 0x578 JUMPI PUSH2 0x577 PUSH2 0x3F9 JUMP JUMPDEST JUMPDEST PUSH2 0x584 DUP5 DUP3 DUP6 ADD PUSH2 0x516 JUMP JUMPDEST SWAP2 POP POP SWAP3 SWAP2 POP POP JUMP JUMPDEST PUSH1 0x0 DUP2 MLOAD SWAP1 POP SWAP2 SWAP1 POP JUMP JUMPDEST PUSH1 0x0 DUP3 DUP3 MSTORE PUSH1 0x20 DUP3 ADD SWAP1 POP SWAP3 SWAP2 POP POP JUMP JUMPDEST PUSH1 0x0 DUP2 SWAP1 POP PUSH1 0x20 DUP3 ADD SWAP1 POP SWAP2 SWAP1 POP JUMP JUMPDEST PUSH1 0x0 DUP2 SWAP1 POP SWAP2 SWAP1 POP JUMP JUMPDEST PUSH2 0x5CC DUP2 PUSH2 0x5B9 JUMP JUMPDEST DUP3 MSTORE POP POP JUMP JUMPDEST PUSH1 0x0 PUSH2 0x5DE DUP4 DUP4 PUSH2 0x5C3 JUMP JUMPDEST PUSH1 0x20 DUP4 ADD SWAP1 POP SWAP3 SWAP2 POP POP JUMP JUMPDEST PUSH1 0x0 PUSH1 0x20 DUP3 ADD SWAP1 POP SWAP2 SWAP1 POP JUMP JUMPDEST PUSH1 0x0 PUSH2 0x602 DUP3 PUSH2 0x58D JUMP JUMPDEST PUSH2 0x60C DUP2 DUP6 PUSH2 0x598 JUMP JUMPDEST SWAP4 POP PUSH2 0x617 DUP4 PUSH2 0x5A9 JUMP JUMPDEST DUP1 PUSH1 0x0 JUMPDEST DUP4 DUP2 LT ISZERO PUSH2 0x648 JUMPI DUP2 MLOAD PUSH2 0x62F DUP9 DUP3 PUSH2 0x5D2 JUMP JUMPDEST SWAP8 POP PUSH2 0x63A DUP4 PUSH2 0x5EA JUMP JUMPDEST SWAP3 POP POP PUSH1 0x1 DUP2 ADD SWAP1 POP PUSH2 0x61B JUMP JUMPDEST POP DUP6 SWAP4 POP POP POP POP SWAP3 SWAP2 POP POP JUMP JUMPDEST PUSH1 0x0 PUSH1 0x20 DUP3 ADD SWAP1 POP DUP2 DUP2 SUB PUSH1 0x0 DUP4 ADD MSTORE PUSH2 0x66F DUP2 DUP5 PUSH2 0x5F7 JUMP JUMPDEST SWAP1 POP SWAP3 SWAP2 POP POP JUMP JUMPDEST PUSH2 0x680 DUP2 PUSH2 0x5B9 JUMP JUMPDEST DUP2 EQ PUSH2 0x68B JUMPI PUSH1 0x0 DUP1 REVERT JUMPDEST POP JUMP JUMPDEST PUSH1 0x0 DUP2 CALLDATALOAD SWAP1 POP PUSH2 0x69D DUP2 PUSH2 0x677 JUMP JUMPDEST SWAP3 SWAP2 POP POP JUMP JUMPDEST PUSH1 0x0 PUSH20 0xFFFFFFFFFFFFFFFFFFFFFFFFFFFFFFFFFFFFFFFF DUP3 AND SWAP1 POP SWAP2 SWAP1 POP JUMP JUMPDEST PUSH1 0x0 PUSH2 0x6CE DUP3 PUSH2 0x6A3 JUMP JUMPDEST SWAP1 POP SWAP2 SWAP1 POP JUMP JUMPDEST PUSH2 0x6DE DUP2 PUSH2 0x6C3 JUMP JUMPDEST DUP2 EQ PUSH2 0x6E9 JUMPI PUSH1 0x0 DUP1 REVERT JUMPDEST POP JUMP JUMPDEST PUSH1 0x0 DUP2 CALLDATALOAD SWAP1 POP PUSH2 0x6FB DUP2 PUSH2 0x6D5 JUMP JUMPDEST SWAP3 SWAP2 POP POP JUMP JUMPDEST PUSH1 0x0 DUP1 PUSH1 0x0 DUP1 PUSH1 0x0 PUSH1 0xA0 DUP7 DUP9 SUB SLT ISZERO PUSH2 0x71D JUMPI PUSH2 0x71C PUSH2 0x3F4 JUMP JUMPDEST JUMPDEST PUSH1 0x0 DUP7 ADD CALLDATALOAD PUSH8 0xFFFFFFFFFFFFFFFF DUP2 GT ISZERO PUSH2 0x73B JUMPI PUSH2 0x73A PUSH2 0x3F9 JUMP JUMPDEST JUMPDEST PUSH2 0x747 DUP9 DUP3 DUP10 ADD PUSH2 0x516 JUMP JUMPDEST SWAP6 POP POP PUSH1 0x20 DUP7 ADD CALLDATALOAD PUSH8 0xFFFFFFFFFFFFFFFF DUP2 GT ISZERO PUSH2 0x768 JUMPI PUSH2 0x767 PUSH2 0x3F9 JUMP JUMPDEST JUMPDEST PUSH2 0x774 DUP9 DUP3 DUP10 ADD PUSH2 0x516 JUMP JUMPDEST SWAP5 POP POP PUSH1 0x40 PUSH2 0x785 DUP9 DUP3 DUP10 ADD PUSH2 0x68E JUMP JUMPDEST SWAP4 POP POP PUSH1 0x60 DUP7 ADD CALLDATALOAD PUSH8 0xFFFFFFFFFFFFFFFF DUP2 GT ISZERO PUSH2 0x7A6 JUMPI PUSH2 0x7A5 PUSH2 0x3F9 JUMP JUMPDEST JUMPDEST PUSH2 0x7B2 DUP9 DUP3 DUP10 ADD PUSH2 0x516 JUMP JUMPDEST SWAP3 POP POP PUSH1 0x80 PUSH2 0x7C3 DUP9 DUP3 DUP10 ADD PUSH2 0x6EC JUMP JUMPDEST SWAP2 POP POP SWAP3 SWAP6 POP SWAP3 SWAP6 SWAP1 SWAP4 POP JUMP JUMPDEST PUSH1 0x0 DUP2 MLOAD SWAP1 POP SWAP2 SWAP1 POP JUMP JUMPDEST PUSH1 0x0 DUP2 SWAP1 POP SWAP3 SWAP2 POP POP JUMP JUMPDEST PUSH1 0x0 JUMPDEST DUP4 DUP2 LT ISZERO PUSH2 0x804 JUMPI DUP1 DUP3 ADD MLOAD DUP2 DUP5 ADD MSTORE PUSH1 0x20 DUP2 ADD SWAP1 POP PUSH2 0x7E9 JUMP JUMPDEST PUSH1 0x0 DUP5 DUP5 ADD MSTORE POP POP POP POP JUMP JUMPDEST PUSH1 0x0 PUSH2 0x81B DUP3 PUSH2 0x7D0 JUMP JUMPDEST PUSH2 0x825 DUP2 DUP6 PUSH2 0x7DB JUMP JUMPDEST SWAP4 POP PUSH2 0x835 DUP2 DUP6 PUSH1 0x20 DUP7 ADD PUSH2 0x7E6 JUMP JUMPDEST DUP1 DUP5 ADD SWAP2 POP POP SWAP3 SWAP2 POP POP JUMP JUMPDEST PUSH1 0x0 PUSH2 0x84D DUP3 DUP5 PUSH2 0x810 JUMP JUMPDEST SWAP2 POP DUP2 SWAP1 POP SWAP3 SWAP2 POP POP JUMP JUMPDEST PUSH1 0x0 DUP3 DUP3 MSTORE PUSH1 0x20 DUP3 ADD SWAP1 POP SWAP3 SWAP2 POP POP JUMP JUMPDEST PUSH1 0x0 PUSH2 0x874 DUP3 PUSH2 0x7D0 JUMP JUMPDEST PUSH2 0x87E DUP2 DUP6 PUSH2 0x858 JUMP JUMPDEST SWAP4 POP PUSH2 0x88E DUP2 DUP6 PUSH1 0x20 DUP7 ADD PUSH2 0x7E6 JUMP JUMPDEST PUSH2 0x897 DUP2 PUSH2 0x408 JUMP JUMPDEST DUP5 ADD SWAP2 POP POP SWAP3 SWAP2 POP POP JUMP JUMPDEST PUSH1 0x0 PUSH1 0x20 DUP3 ADD SWAP1 POP DUP2 DUP2 SUB PUSH1 0x0 DUP4 ADD MSTORE PUSH2 0x8BC DUP2 DUP5 PUSH2 0x869 JUMP JUMPDEST SWAP1 POP SWAP3 SWAP2 POP POP JUMP JUMPDEST PUSH1 0x0 DUP2 ISZERO ISZERO SWAP1 POP SWAP2 SWAP1 POP JUMP JUMPDEST PUSH2 0x8D9 DUP2 PUSH2 0x8C4 JUMP JUMPDEST DUP2 EQ PUSH2 0x8E4 JUMPI PUSH1 0x0 DUP1 REVERT JUMPDEST POP JUMP JUMPDEST PUSH1 0x0 DUP2 MLOAD SWAP1 POP PUSH2 0x8F6 DUP2 PUSH2 0x8D0 JUMP JUMPDEST SWAP3 SWAP2 POP POP JUMP JUMPDEST PUSH1 0x0 PUSH1 0x20 DUP3 DUP5 SUB SLT ISZERO PUSH2 0x912 JUMPI PUSH2 0x911 PUSH2 0x3F4 JUMP JUMPDEST JUMPDEST PUSH1 0x0 PUSH2 0x920 DUP5 DUP3 DUP6 ADD PUSH2 0x8E7 JUMP JUMPDEST SWAP2 POP POP SWAP3 SWAP2 POP POP JUMP JUMPDEST PUSH32 0x56656869636C6520000000000000000000000000000000000000000000000000 PUSH1 0x0 DUP3 ADD MSTORE POP JUMP JUMPDEST PUSH1 0x0 PUSH2 0x95F PUSH1 0x8 DUP4 PUSH2 0x7DB JUMP JUMPDEST SWAP2 POP PUSH2 0x96A DUP3 PUSH2 0x929 JUMP JUMPDEST PUSH1 0x8 DUP3 ADD SWAP1 POP SWAP2 SWAP1 POP JUMP JUMPDEST PUSH32 0x206E6F7420666F756E6421000000000000000000000000000000000000000000 PUSH1 0x0 DUP3 ADD MSTORE POP JUMP JUMPDEST PUSH1 0x0 PUSH2 0x9AB PUSH1 0xB DUP4 PUSH2 0x7DB JUMP JUMPDEST SWAP2 POP PUSH2 0x9B6 DUP3 PUSH2 0x975 JUMP JUMPDEST PUSH1 0xB DUP3 ADD SWAP1 POP SWAP2 SWAP1 POP JUMP JUMPDEST PUSH1 0x0 PUSH2 0x9CC DUP3 PUSH2 0x952 JUMP JUMPDEST SWAP2 POP PUSH2 0x9D8 DUP3 DUP5 PUSH2 0x810 JUMP JUMPDEST SWAP2 POP PUSH2 0x9E3 DUP3 PUSH2 0x99E JUMP JUMPDEST SWAP2 POP DUP2 SWAP1 POP SWAP3 SWAP2 POP POP JUMP JUMPDEST PUSH32 0x4E487B7100000000000000000000000000000000000000000000000000000000 PUSH1 0x0 MSTORE PUSH1 0x22 PUSH1 0x4 MSTORE PUSH1 0x24 PUSH1 0x0 REVERT JUMPDEST PUSH1 0x0 PUSH1 0x2 DUP3 DIV SWAP1 POP PUSH1 0x1 DUP3 AND DUP1 PUSH2 0xA35 JUMPI PUSH1 0x7F DUP3 AND SWAP2 POP JUMPDEST PUSH1 0x20 DUP3 LT DUP2 SUB PUSH2 0xA48 JUMPI PUSH2 0xA47 PUSH2 0x9EE JUMP JUMPDEST JUMPDEST POP SWAP2 SWAP1 POP JUMP JUMPDEST PUSH1 0x0 DUP2 SWAP1 POP DUP2 PUSH1 0x0 MSTORE PUSH1 0x20 PUSH1 0x0 KECCAK256 SWAP1 POP SWAP2 SWAP1 POP JUMP JUMPDEST PUSH1 0x0 PUSH1 0x20 PUSH1 0x1F DUP4 ADD DIV SWAP1 POP SWAP2 SWAP1 POP JUMP JUMPDEST PUSH1 0x0 DUP3 DUP3 SHL SWAP1 POP SWAP3 SWAP2 POP POP JUMP JUMPDEST PUSH1 0x0 PUSH1 0x8 DUP4 MUL PUSH2 0xAB0 PUSH32 0xFFFFFFFFFFFFFFFFFFFFFFFFFFFFFFFFFFFFFFFFFFFFFFFFFFFFFFFFFFFFFFFF DUP3 PUSH2 0xA73 JUMP JUMPDEST PUSH2 0xABA DUP7 DUP4 PUSH2 0xA73 JUMP JUMPDEST SWAP6 POP DUP1 NOT DUP5 AND SWAP4 POP DUP1 DUP7 AND DUP5 OR SWAP3 POP POP POP SWAP4 SWAP3 POP POP POP JUMP JUMPDEST PUSH1 0x0 DUP2 SWAP1 POP SWAP2 SWAP1 POP JUMP JUMPDEST PUSH1 0x0 PUSH2 0xAF7 PUSH2 0xAF2 PUSH2 0xAED DUP5 PUSH2 0x5B9 JUMP JUMPDEST PUSH2 0xAD2 JUMP JUMPDEST PUSH2 0x5B9 JUMP JUMPDEST SWAP1 POP SWAP2 SWAP1 POP JUMP JUMPDEST PUSH1 0x0 DUP2 SWAP1 POP SWAP2 SWAP1 POP JUMP JUMPDEST PUSH2 0xB11 DUP4 PUSH2 0xADC JUMP JUMPDEST PUSH2 0xB25 PUSH2 0xB1D DUP3 PUSH2 0xAFE JUMP JUMPDEST DUP5 DUP5 SLOAD PUSH2 0xA80 JUMP JUMPDEST DUP3 SSTORE POP POP POP POP JUMP JUMPDEST PUSH1 0x0 SWAP1 JUMP JUMPDEST PUSH2 0xB3A PUSH2 0xB2D JUMP JUMPDEST PUSH2 0xB45 DUP2 DUP5 DUP5 PUSH2 0xB08 JUMP JUMPDEST POP POP POP JUMP JUMPDEST JUMPDEST DUP2 DUP2 LT ISZERO PUSH2 0xB69 JUMPI PUSH2 0xB5E PUSH1 0x0 DUP3 PUSH2 0xB32 JUMP JUMPDEST PUSH1 0x1 DUP2 ADD SWAP1 POP PUSH2 0xB4B JUMP JUMPDEST POP POP JUMP JUMPDEST PUSH1 0x1F DUP3 GT ISZERO PUSH2 0xBAE JUMPI PUSH2 0xB7F DUP2 PUSH2 0xA4E JUMP JUMPDEST PUSH2 0xB88 DUP5 PUSH2 0xA63 JUMP JUMPDEST DUP2 ADD PUSH1 0x20 DUP6 LT ISZERO PUSH2 0xB97 JUMPI DUP2 SWAP1 POP JUMPDEST PUSH2 0xBAB PUSH2 0xBA3 DUP6 PUSH2 0xA63 JUMP JUMPDEST DUP4 ADD DUP3 PUSH2 0xB4A JUMP JUMPDEST POP POP JUMPDEST POP POP POP JUMP JUMPDEST PUSH1 0x0 DUP3 DUP3 SHR SWAP1 POP SWAP3 SWAP2 POP POP JUMP JUMPDEST PUSH1 0x0 PUSH2 0xBD1 PUSH1 0x0 NOT DUP5 PUSH1 0x8 MUL PUSH2 0xBB3 JUMP JUMPDEST NOT DUP1 DUP4 AND SWAP2 POP POP SWAP3 SWAP2 POP POP JUMP JUMPDEST PUSH1 0x0 PUSH2 0xBEA DUP4 DUP4 PUSH2 0xBC0 JUMP JUMPDEST SWAP2 POP DUP3 PUSH1 0x2 MUL DUP3 OR SWAP1 POP SWAP3 SWAP2 POP POP JUMP JUMPDEST PUSH2 0xC03 DUP3 PUSH2 0x7D0 JUMP JUMPDEST PUSH8 0xFFFFFFFFFFFFFFFF DUP2 GT ISZERO PUSH2 0xC1C JUMPI PUSH2 0xC1B PUSH2 0x419 JUMP JUMPDEST JUMPDEST PUSH2 0xC26 DUP3 SLOAD PUSH2 0xA1D JUMP JUMPDEST PUSH2 0xC31 DUP3 DUP3 DUP6 PUSH2 0xB6D JUMP JUMPDEST PUSH1 0x0 PUSH1 0x20 SWAP1 POP PUSH1 0x1F DUP4 GT PUSH1 0x1 DUP2 EQ PUSH2 0xC64 JUMPI PUSH1 0x0 DUP5 ISZERO PUSH2 0xC52 JUMPI DUP3 DUP8 ADD MLOAD SWAP1 POP JUMPDEST PUSH2 0xC5C DUP6 DUP3 PUSH2 0xBDE JUMP JUMPDEST DUP7 SSTORE POP PUSH2 0xCC4 JUMP JUMPDEST PUSH1 0x1F NOT DUP5 AND PUSH2 0xC72 DUP7 PUSH2 0xA4E JUMP JUMPDEST PUSH1 0x0 JUMPDEST DUP3 DUP2 LT ISZERO PUSH2 0xC9A JUMPI DUP5 DUP10 ADD MLOAD DUP3 SSTORE PUSH1 0x1 DUP3 ADD SWAP2 POP PUSH1 0x20 DUP6 ADD SWAP5 POP PUSH1 0x20 DUP2 ADD SWAP1 POP PUSH2 0xC75 JUMP JUMPDEST DUP7 DUP4 LT ISZERO PUSH2 0xCB7 JUMPI DUP5 DUP10 ADD MLOAD PUSH2 0xCB3 PUSH1 0x1F DUP10 AND DUP3 PUSH2 0xBC0 JUMP JUMPDEST DUP4 SSTORE POP JUMPDEST PUSH1 0x1 PUSH1 0x2 DUP9 MUL ADD DUP9 SSTORE POP POP POP JUMPDEST POP POP POP POP POP POP JUMP JUMPDEST PUSH2 0xCD5 DUP2 PUSH2 0x5B9 JUMP JUMPDEST DUP3 MSTORE POP POP JUMP JUMPDEST PUSH1 0x0 PUSH1 0x80 DUP3 ADD SWAP1 POP DUP2 DUP2 SUB PUSH1 0x0 DUP4 ADD MSTORE PUSH2 0xCF5 DUP2 DUP8 PUSH2 0x869 JUMP JUMPDEST SWAP1 POP DUP2 DUP2 SUB PUSH1 0x20 DUP4 ADD MSTORE PUSH2 0xD09 DUP2 DUP7 PUSH2 0x869 JUMP JUMPDEST SWAP1 POP PUSH2 0xD18 PUSH1 0x40 DUP4 ADD DUP6 PUSH2 0xCCC JUMP JUMPDEST DUP2 DUP2 SUB PUSH1 0x60 DUP4 ADD MSTORE PUSH2 0xD2A DUP2 DUP5 PUSH2 0x869 JUMP JUMPDEST SWAP1 POP SWAP6 SWAP5 POP POP POP POP POP JUMP INVALID LOG2 PUSH5 0x6970667358 0x22 SLT KECCAK256 KECCAK256 DIV DUP3 PUSH31 0x5BA90E5DB743C7A4A7A5BB53AA5ADD093721230A24B47281AE2A735664736F PUSH13 0x63430008110033000000000000 "},"methodIdentifiers":{"getBlocksNums(string)":"09631822","reportStealing(string,string,uint256,string,address)":"2f4b2f04"}}}}}