{"blockchain/contracts/Mileages.sol":{"Mileages":{"abi":[{"anonymous":false,"inputs":[{"indexed":false,"internalType":"string","name":"vin","type":"string"},{"indexed":false,"internalType":"uint256","name":"mileage","type":"uint256"}],"name":"MileageChanged","type":"event"},{"inputs":[{"internalType":"string","name":"_vin","type":"string"}],"name":"getBlocksNums","outputs":[{"internalType":"uint256[]","name":"_blocksNums","type":"uint256[]"}],"stateMutability":"view","type":"function"},{"inputs":[{"internalType":"string","name":"_vin","type":"string"}],"name":"getMileage","outputs":[{"internalType":"uint256","name":"_mileage","type":"uint256"}],"stateMutability":"view","type":"function"},{"inputs":[{"internalType":"string","name":"_vin","type":"string"},{"internalType":"uint256","name":"_mileage","type":"uint256"},{"internalType":"address","name":"_vehiclesContract","type":"address"}],"name":"regMileage","outputs":[],"stateMutability":"nonpayable","type":"function"}],"evm":{"bytecode":{"linkReferences":{},"object":"608060405234801561001057600080fd5b50610d23806100206000396000f3fe608060405234801561001057600080fd5b50600436106100415760003560e01c806309631822146100465780631da25c0e14610076578063e85a74ba146100a6575b600080fd5b610060600480360381019061005b919061056b565b6100c2565b60405161006d919061067c565b60405180910390f35b610090600480360381019061008b919061056b565b61013b565b60405161009d91906106ad565b60405180910390f35b6100c060048036038101906100bb9190610752565b610165565b005b60606000826040516100d49190610832565b908152602001604051809103902060020180548060200260200160405190810160405280929190818152602001828054801561012f57602002820191906000526020600020905b81548152602001906001019080831161011b575b50505050509050919050565b6000808260405161014c9190610832565b9081526020016040518091039020600101549050919050565b6000819050600115158173ffffffffffffffffffffffffffffffffffffffff166330f2c560866040518263ffffffff1660e01b81526004016101a79190610893565b602060405180830381865afa1580156101c4573d6000803e3d6000fd5b505050506040513d601f19601f820116820180604052508101906101e891906108ed565b151514846040516020016101fc91906109b2565b6040516020818303038152906040529061024c576040517f08c379a00000000000000000000000000000000000000000000000000000000081526004016102439190610893565b60405180910390fd5b506000808560405161025e9190610832565b908152602001604051809103902060020190508043908060018154018082558091505060019003906000526020600020016000909190919091505560006040518060600160405280878152602001868152602001838054806020026020016040519081016040528092919081815260200182805480156102fd57602002820191906000526020600020905b8154815260200190600101908083116102e9575b50505050508152509050806000876040516103189190610832565b9081526020016040518091039020600082015181600001908161033b9190610beb565b506020820151816001015560408201518160020190805190602001906103629291906103a7565b509050507fd704800da17d81516150738fae54f3824933ff0570a3570cf68f5ac9faa4498f8686604051610397929190610cbd565b60405180910390a1505050505050565b8280548282559060005260206000209081019282156103e3579160200282015b828111156103e25782518255916020019190600101906103c7565b5b5090506103f091906103f4565b5090565b5b8082111561040d5760008160009055506001016103f5565b5090565b6000604051905090565b600080fd5b600080fd5b600080fd5b600080fd5b6000601f19601f8301169050919050565b7f4e487b7100000000000000000000000000000000000000000000000000000000600052604160045260246000fd5b6104788261042f565b810181811067ffffffffffffffff8211171561049757610496610440565b5b80604052505050565b60006104aa610411565b90506104b6828261046f565b919050565b600067ffffffffffffffff8211156104d6576104d5610440565b5b6104df8261042f565b9050602081019050919050565b82818337600083830152505050565b600061050e610509846104bb565b6104a0565b90508281526020810184848401111561052a5761052961042a565b5b6105358482856104ec565b509392505050565b600082601f83011261055257610551610425565b5b81356105628482602086016104fb565b91505092915050565b6000602082840312156105815761058061041b565b5b600082013567ffffffffffffffff81111561059f5761059e610420565b5b6105ab8482850161053d565b91505092915050565b600081519050919050565b600082825260208201905092915050565b6000819050602082019050919050565b6000819050919050565b6105f3816105e0565b82525050565b600061060583836105ea565b60208301905092915050565b6000602082019050919050565b6000610629826105b4565b61063381856105bf565b935061063e836105d0565b8060005b8381101561066f57815161065688826105f9565b975061066183610611565b925050600181019050610642565b5085935050505092915050565b60006020820190508181036000830152610696818461061e565b905092915050565b6106a7816105e0565b82525050565b60006020820190506106c2600083018461069e565b92915050565b6106d1816105e0565b81146106dc57600080fd5b50565b6000813590506106ee816106c8565b92915050565b600073ffffffffffffffffffffffffffffffffffffffff82169050919050565b600061071f826106f4565b9050919050565b61072f81610714565b811461073a57600080fd5b50565b60008135905061074c81610726565b92915050565b60008060006060848603121561076b5761076a61041b565b5b600084013567ffffffffffffffff81111561078957610788610420565b5b6107958682870161053d565b93505060206107a6868287016106df565b92505060406107b78682870161073d565b9150509250925092565b600081519050919050565b600081905092915050565b60005b838110156107f55780820151818401526020810190506107da565b60008484015250505050565b600061080c826107c1565b61081681856107cc565b93506108268185602086016107d7565b80840191505092915050565b600061083e8284610801565b915081905092915050565b600082825260208201905092915050565b6000610865826107c1565b61086f8185610849565b935061087f8185602086016107d7565b6108888161042f565b840191505092915050565b600060208201905081810360008301526108ad818461085a565b905092915050565b60008115159050919050565b6108ca816108b5565b81146108d557600080fd5b50565b6000815190506108e7816108c1565b92915050565b6000602082840312156109035761090261041b565b5b6000610911848285016108d8565b91505092915050565b7f56656869636c6520000000000000000000000000000000000000000000000000600082015250565b60006109506008836107cc565b915061095b8261091a565b600882019050919050565b7f206e6f7420666f756e6421000000000000000000000000000000000000000000600082015250565b600061099c600b836107cc565b91506109a782610966565b600b82019050919050565b60006109bd82610943565b91506109c98284610801565b91506109d48261098f565b915081905092915050565b7f4e487b7100000000000000000000000000000000000000000000000000000000600052602260045260246000fd5b60006002820490506001821680610a2657607f821691505b602082108103610a3957610a386109df565b5b50919050565b60008190508160005260206000209050919050565b60006020601f8301049050919050565b600082821b905092915050565b600060088302610aa17fffffffffffffffffffffffffffffffffffffffffffffffffffffffffffffffff82610a64565b610aab8683610a64565b95508019841693508086168417925050509392505050565b6000819050919050565b6000610ae8610ae3610ade846105e0565b610ac3565b6105e0565b9050919050565b6000819050919050565b610b0283610acd565b610b16610b0e82610aef565b848454610a71565b825550505050565b600090565b610b2b610b1e565b610b36818484610af9565b505050565b5b81811015610b5a57610b4f600082610b23565b600181019050610b3c565b5050565b601f821115610b9f57610b7081610a3f565b610b7984610a54565b81016020851015610b88578190505b610b9c610b9485610a54565b830182610b3b565b50505b505050565b600082821c905092915050565b6000610bc260001984600802610ba4565b1980831691505092915050565b6000610bdb8383610bb1565b9150826002028217905092915050565b610bf4826107c1565b67ffffffffffffffff811115610c0d57610c0c610440565b5b610c178254610a0e565b610c22828285610b5e565b600060209050601f831160018114610c555760008415610c43578287015190505b610c4d8582610bcf565b865550610cb5565b601f198416610c6386610a3f565b60005b82811015610c8b57848901518255600182019150602085019450602081019050610c66565b86831015610ca85784890151610ca4601f891682610bb1565b8355505b6001600288020188555050505b505050505050565b60006040820190508181036000830152610cd7818561085a565b9050610ce6602083018461069e565b939250505056fea2646970667358221220e59092b49c38f2fef7dcd98fafeaea4c347303bba69446b70a5879c6481302cb64736f6c63430008110033","opcodes":"PUSH1 0x80 PUSH1 0x40 MSTORE CALLVALUE DUP1 ISZERO PUSH2 0x10 JUMPI PUSH1 0x0 DUP1 REVERT JUMPDEST POP PUSH2 0xD23 DUP1 PUSH2 0x20 PUSH1 0x0 CODECOPY PUSH1 0x0 RETURN INVALID PUSH1 0x80 PUSH1 0x40 MSTORE CALLVALUE DUP1 ISZERO PUSH2 0x10 JUMPI PUSH1 0x0 DUP1 REVERT JUMPDEST POP PUSH1 0x4 CALLDATASIZE LT PUSH2 0x41 JUMPI PUSH1 0x0 CALLDATALOAD PUSH1 0xE0 SHR DUP1 PUSH4 0x9631822 EQ PUSH2 0x46 JUMPI DUP1 PUSH4 0x1DA25C0E EQ PUSH2 0x76 JUMPI DUP1 PUSH4 0xE85A74BA EQ PUSH2 0xA6 JUMPI JUMPDEST PUSH1 0x0 DUP1 REVERT JUMPDEST PUSH2 0x60 PUSH1 0x4 DUP1 CALLDATASIZE SUB DUP2 ADD SWAP1 PUSH2 0x5B SWAP2 SWAP1 PUSH2 0x56B JUMP JUMPDEST PUSH2 0xC2 JUMP JUMPDEST PUSH1 0x40 MLOAD PUSH2 0x6D SWAP2 SWAP1 PUSH2 0x67C JUMP JUMPDEST PUSH1 0x40 MLOAD DUP1 SWAP2 SUB SWAP1 RETURN JUMPDEST PUSH2 0x90 PUSH1 0x4 DUP1 CALLDATASIZE SUB DUP2 ADD SWAP1 PUSH2 0x8B SWAP2 SWAP1 PUSH2 0x56B JUMP JUMPDEST PUSH2 0x13B JUMP JUMPDEST PUSH1 0x40 MLOAD PUSH2 0x9D SWAP2 SWAP1 PUSH2 0x6AD JUMP JUMPDEST PUSH1 0x40 MLOAD DUP1 SWAP2 SUB SWAP1 RETURN JUMPDEST PUSH2 0xC0 PUSH1 0x4 DUP1 CALLDATASIZE SUB DUP2 ADD SWAP1 PUSH2 0xBB SWAP2 SWAP1 PUSH2 0x752 JUMP JUMPDEST PUSH2 0x165 JUMP JUMPDEST STOP JUMPDEST PUSH1 0x60 PUSH1 0x0 DUP3 PUSH1 0x40 MLOAD PUSH2 0xD4 SWAP2 SWAP1 PUSH2 0x832 JUMP JUMPDEST SWAP1 DUP2 MSTORE PUSH1 0x20 ADD PUSH1 0x40 MLOAD DUP1 SWAP2 SUB SWAP1 KECCAK256 PUSH1 0x2 ADD DUP1 SLOAD DUP1 PUSH1 0x20 MUL PUSH1 0x20 ADD PUSH1 0x40 MLOAD SWAP1 DUP2 ADD PUSH1 0x40 MSTORE DUP1 SWAP3 SWAP2 SWAP1 DUP2 DUP2 MSTORE PUSH1 0x20 ADD DUP3 DUP1 SLOAD DUP1 ISZERO PUSH2 0x12F JUMPI PUSH1 0x20 MUL DUP3 ADD SWAP2 SWAP1 PUSH1 0x0 MSTORE PUSH1 0x20 PUSH1 0x0 KECCAK256 SWAP1 JUMPDEST DUP2 SLOAD DUP2 MSTORE PUSH1 0x20 ADD SWAP1 PUSH1 0x1 ADD SWAP1 DUP1 DUP4 GT PUSH2 0x11B JUMPI JUMPDEST POP POP POP POP POP SWAP1 POP SWAP2 SWAP1 POP JUMP JUMPDEST PUSH1 0x0 DUP1 DUP3 PUSH1 0x40 MLOAD PUSH2 0x14C SWAP2 SWAP1 PUSH2 0x832 JUMP JUMPDEST SWAP1 DUP2 MSTORE PUSH1 0x20 ADD PUSH1 0x40 MLOAD DUP1 SWAP2 SUB SWAP1 KECCAK256 PUSH1 0x1 ADD SLOAD SWAP1 POP SWAP2 SWAP1 POP JUMP JUMPDEST PUSH1 0x0 DUP2 SWAP1 POP PUSH1 0x1 ISZERO ISZERO DUP2 PUSH20 0xFFFFFFFFFFFFFFFFFFFFFFFFFFFFFFFFFFFFFFFF AND PUSH4 0x30F2C560 DUP7 PUSH1 0x40 MLOAD DUP3 PUSH4 0xFFFFFFFF AND PUSH1 0xE0 SHL DUP2 MSTORE PUSH1 0x4 ADD PUSH2 0x1A7 SWAP2 SWAP1 PUSH2 0x893 JUMP JUMPDEST PUSH1 0x20 PUSH1 0x40 MLOAD DUP1 DUP4 SUB DUP2 DUP7 GAS STATICCALL ISZERO DUP1 ISZERO PUSH2 0x1C4 JUMPI RETURNDATASIZE PUSH1 0x0 DUP1 RETURNDATACOPY RETURNDATASIZE PUSH1 0x0 REVERT JUMPDEST POP POP POP POP PUSH1 0x40 MLOAD RETURNDATASIZE PUSH1 0x1F NOT PUSH1 0x1F DUP3 ADD AND DUP3 ADD DUP1 PUSH1 0x40 MSTORE POP DUP2 ADD SWAP1 PUSH2 0x1E8 SWAP2 SWAP1 PUSH2 0x8ED JUMP JUMPDEST ISZERO ISZERO EQ DUP5 PUSH1 0x40 MLOAD PUSH1 0x20 ADD PUSH2 0x1FC SWAP2 SWAP1 PUSH2 0x9B2 JUMP JUMPDEST PUSH1 0x40 MLOAD PUSH1 0x20 DUP2 DUP4 SUB SUB DUP2 MSTORE SWAP1 PUSH1 0x40 MSTORE SWAP1 PUSH2 0x24C JUMPI PUSH1 0x40 MLOAD PUSH32 0x8C379A000000000000000000000000000000000000000000000000000000000 DUP2 MSTORE PUSH1 0x4 ADD PUSH2 0x243 SWAP2 SWAP1 PUSH2 0x893 JUMP JUMPDEST PUSH1 0x40 MLOAD DUP1 SWAP2 SUB SWAP1 REVERT JUMPDEST POP PUSH1 0x0 DUP1 DUP6 PUSH1 0x40 MLOAD PUSH2 0x25E SWAP2 SWAP1 PUSH2 0x832 JUMP JUMPDEST SWAP1 DUP2 MSTORE PUSH1 0x20 ADD PUSH1 0x40 MLOAD DUP1 SWAP2 SUB SWAP1 KECCAK256 PUSH1 0x2 ADD SWAP1 POP DUP1 NUMBER SWAP1 DUP1 PUSH1 0x1 DUP2 SLOAD ADD DUP1 DUP3 SSTORE DUP1 SWAP2 POP POP PUSH1 0x1 SWAP1 SUB SWAP1 PUSH1 0x0 MSTORE PUSH1 0x20 PUSH1 0x0 KECCAK256 ADD PUSH1 0x0 SWAP1 SWAP2 SWAP1 SWAP2 SWAP1 SWAP2 POP SSTORE PUSH1 0x0 PUSH1 0x40 MLOAD DUP1 PUSH1 0x60 ADD PUSH1 0x40 MSTORE DUP1 DUP8 DUP2 MSTORE PUSH1 0x20 ADD DUP7 DUP2 MSTORE PUSH1 0x20 ADD DUP4 DUP1 SLOAD DUP1 PUSH1 0x20 MUL PUSH1 0x20 ADD PUSH1 0x40 MLOAD SWAP1 DUP2 ADD PUSH1 0x40 MSTORE DUP1 SWAP3 SWAP2 SWAP1 DUP2 DUP2 MSTORE PUSH1 0x20 ADD DUP3 DUP1 SLOAD DUP1 ISZERO PUSH2 0x2FD JUMPI PUSH1 0x20 MUL DUP3 ADD SWAP2 SWAP1 PUSH1 0x0 MSTORE PUSH1 0x20 PUSH1 0x0 KECCAK256 SWAP1 JUMPDEST DUP2 SLOAD DUP2 MSTORE PUSH1 0x20 ADD SWAP1 PUSH1 0x1 ADD SWAP1 DUP1 DUP4 GT PUSH2 0x2E9 JUMPI JUMPDEST POP POP POP POP POP DUP2 MSTORE POP SWAP1 POP DUP1 PUSH1 0x0 DUP8 PUSH1 0x40 MLOAD PUSH2 0x318 SWAP2 SWAP1 PUSH2 0x832 JUMP JUMPDEST SWAP1 DUP2 MSTORE PUSH1 0x20 ADD PUSH1 0x40 MLOAD DUP1 SWAP2 SUB SWAP1 KECCAK256 PUSH1 0x0 DUP3 ADD MLOAD DUP2 PUSH1 0x0 ADD SWAP1 DUP2 PUSH2 0x33B SWAP2 SWAP1 PUSH2 0xBEB JUMP JUMPDEST POP PUSH1 0x20 DUP3 ADD MLOAD DUP2 PUSH1 0x1 ADD SSTORE PUSH1 0x40 DUP3 ADD MLOAD DUP2 PUSH1 0x2 ADD SWAP1 DUP1 MLOAD SWAP1 PUSH1 0x20 ADD SWAP1 PUSH2 0x362 SWAP3 SWAP2 SWAP1 PUSH2 0x3A7 JUMP JUMPDEST POP SWAP1 POP POP PUSH32 0xD704800DA17D81516150738FAE54F3824933FF0570A3570CF68F5AC9FAA4498F DUP7 DUP7 PUSH1 0x40 MLOAD PUSH2 0x397 SWAP3 SWAP2 SWAP1 PUSH2 0xCBD JUMP JUMPDEST PUSH1 0x40 MLOAD DUP1 SWAP2 SUB SWAP1 LOG1 POP POP POP POP POP POP JUMP JUMPDEST DUP3 DUP1 SLOAD DUP3 DUP3 SSTORE SWAP1 PUSH1 0x0 MSTORE PUSH1 0x20 PUSH1 0x0 KECCAK256 SWAP1 DUP2 ADD SWAP3 DUP3 ISZERO PUSH2 0x3E3 JUMPI SWAP2 PUSH1 0x20 MUL DUP3 ADD JUMPDEST DUP3 DUP2 GT ISZERO PUSH2 0x3E2 JUMPI DUP3 MLOAD DUP3 SSTORE SWAP2 PUSH1 0x20 ADD SWAP2 SWAP1 PUSH1 0x1 ADD SWAP1 PUSH2 0x3C7 JUMP JUMPDEST JUMPDEST POP SWAP1 POP PUSH2 0x3F0 SWAP2 SWAP1 PUSH2 0x3F4 JUMP JUMPDEST POP SWAP1 JUMP JUMPDEST JUMPDEST DUP1 DUP3 GT ISZERO PUSH2 0x40D JUMPI PUSH1 0x0 DUP2 PUSH1 0x0 SWAP1 SSTORE POP PUSH1 0x1 ADD PUSH2 0x3F5 JUMP JUMPDEST POP SWAP1 JUMP JUMPDEST PUSH1 0x0 PUSH1 0x40 MLOAD SWAP1 POP SWAP1 JUMP JUMPDEST PUSH1 0x0 DUP1 REVERT JUMPDEST PUSH1 0x0 DUP1 REVERT JUMPDEST PUSH1 0x0 DUP1 REVERT JUMPDEST PUSH1 0x0 DUP1 REVERT JUMPDEST PUSH1 0x0 PUSH1 0x1F NOT PUSH1 0x1F DUP4 ADD AND SWAP1 POP SWAP2 SWAP1 POP JUMP JUMPDEST PUSH32 0x4E487B7100000000000000000000000000000000000000000000000000000000 PUSH1 0x0 MSTORE PUSH1 0x41 PUSH1 0x4 MSTORE PUSH1 0x24 PUSH1 0x0 REVERT JUMPDEST PUSH2 0x478 DUP3 PUSH2 0x42F JUMP JUMPDEST DUP2 ADD DUP2 DUP2 LT PUSH8 0xFFFFFFFFFFFFFFFF DUP3 GT OR ISZERO PUSH2 0x497 JUMPI PUSH2 0x496 PUSH2 0x440 JUMP JUMPDEST JUMPDEST DUP1 PUSH1 0x40 MSTORE POP POP POP JUMP JUMPDEST PUSH1 0x0 PUSH2 0x4AA PUSH2 0x411 JUMP JUMPDEST SWAP1 POP PUSH2 0x4B6 DUP3 DUP3 PUSH2 0x46F JUMP JUMPDEST SWAP2 SWAP1 POP JUMP JUMPDEST PUSH1 0x0 PUSH8 0xFFFFFFFFFFFFFFFF DUP3 GT ISZERO PUSH2 0x4D6 JUMPI PUSH2 0x4D5 PUSH2 0x440 JUMP JUMPDEST JUMPDEST PUSH2 0x4DF DUP3 PUSH2 0x42F JUMP JUMPDEST SWAP1 POP PUSH1 0x20 DUP2 ADD SWAP1 POP SWAP2 SWAP1 POP JUMP JUMPDEST DUP3 DUP2 DUP4 CALLDATACOPY PUSH1 0x0 DUP4 DUP4 ADD MSTORE POP POP POP JUMP JUMPDEST PUSH1 0x0 PUSH2 0x50E PUSH2 0x509 DUP5 PUSH2 0x4BB JUMP JUMPDEST PUSH2 0x4A0 JUMP JUMPDEST SWAP1 POP DUP3 DUP2 MSTORE PUSH1 0x20 DUP2 ADD DUP5 DUP5 DUP5 ADD GT ISZERO PUSH2 0x52A JUMPI PUSH2 0x529 PUSH2 0x42A JUMP JUMPDEST JUMPDEST PUSH2 0x535 DUP5 DUP3 DUP6 PUSH2 0x4EC JUMP JUMPDEST POP SWAP4 SWAP3 POP POP POP JUMP JUMPDEST PUSH1 0x0 DUP3 PUSH1 0x1F DUP4 ADD SLT PUSH2 0x552 JUMPI PUSH2 0x551 PUSH2 0x425 JUMP JUMPDEST JUMPDEST DUP2 CALLDATALOAD PUSH2 0x562 DUP5 DUP3 PUSH1 0x20 DUP7 ADD PUSH2 0x4FB JUMP JUMPDEST SWAP2 POP POP SWAP3 SWAP2 POP POP JUMP JUMPDEST PUSH1 0x0 PUSH1 0x20 DUP3 DUP5 SUB SLT ISZERO PUSH2 0x581 JUMPI PUSH2 0x580 PUSH2 0x41B JUMP JUMPDEST JUMPDEST PUSH1 0x0 DUP3 ADD CALLDATALOAD PUSH8 0xFFFFFFFFFFFFFFFF DUP2 GT ISZERO PUSH2 0x59F JUMPI PUSH2 0x59E PUSH2 0x420 JUMP JUMPDEST JUMPDEST PUSH2 0x5AB DUP5 DUP3 DUP6 ADD PUSH2 0x53D JUMP JUMPDEST SWAP2 POP POP SWAP3 SWAP2 POP POP JUMP JUMPDEST PUSH1 0x0 DUP2 MLOAD SWAP1 POP SWAP2 SWAP1 POP JUMP JUMPDEST PUSH1 0x0 DUP3 DUP3 MSTORE PUSH1 0x20 DUP3 ADD SWAP1 POP SWAP3 SWAP2 POP POP JUMP JUMPDEST PUSH1 0x0 DUP2 SWAP1 POP PUSH1 0x20 DUP3 ADD SWAP1 POP SWAP2 SWAP1 POP JUMP JUMPDEST PUSH1 0x0 DUP2 SWAP1 POP SWAP2 SWAP1 POP JUMP JUMPDEST PUSH2 0x5F3 DUP2 PUSH2 0x5E0 JUMP JUMPDEST DUP3 MSTORE POP POP JUMP JUMPDEST PUSH1 0x0 PUSH2 0x605 DUP4 DUP4 PUSH2 0x5EA JUMP JUMPDEST PUSH1 0x20 DUP4 ADD SWAP1 POP SWAP3 SWAP2 POP POP JUMP JUMPDEST PUSH1 0x0 PUSH1 0x20 DUP3 ADD SWAP1 POP SWAP2 SWAP1 POP JUMP JUMPDEST PUSH1 0x0 PUSH2 0x629 DUP3 PUSH2 0x5B4 JUMP JUMPDEST PUSH2 0x633 DUP2 DUP6 PUSH2 0x5BF JUMP JUMPDEST SWAP4 POP PUSH2 0x63E DUP4 PUSH2 0x5D0 JUMP JUMPDEST DUP1 PUSH1 0x0 JUMPDEST DUP4 DUP2 LT ISZERO PUSH2 0x66F JUMPI DUP2 MLOAD PUSH2 0x656 DUP9 DUP3 PUSH2 0x5F9 JUMP JUMPDEST SWAP8 POP PUSH2 0x661 DUP4 PUSH2 0x611 JUMP JUMPDEST SWAP3 POP POP PUSH1 0x1 DUP2 ADD SWAP1 POP PUSH2 0x642 JUMP JUMPDEST POP DUP6 SWAP4 POP POP POP POP SWAP3 SWAP2 POP POP JUMP JUMPDEST PUSH1 0x0 PUSH1 0x20 DUP3 ADD SWAP1 POP DUP2 DUP2 SUB PUSH1 0x0 DUP4 ADD MSTORE PUSH2 0x696 DUP2 DUP5 PUSH2 0x61E JUMP JUMPDEST SWAP1 POP SWAP3 SWAP2 POP POP JUMP JUMPDEST PUSH2 0x6A7 DUP2 PUSH2 0x5E0 JUMP JUMPDEST DUP3 MSTORE POP POP JUMP JUMPDEST PUSH1 0x0 PUSH1 0x20 DUP3 ADD SWAP1 POP PUSH2 0x6C2 PUSH1 0x0 DUP4 ADD DUP5 PUSH2 0x69E JUMP JUMPDEST SWAP3 SWAP2 POP POP JUMP JUMPDEST PUSH2 0x6D1 DUP2 PUSH2 0x5E0 JUMP JUMPDEST DUP2 EQ PUSH2 0x6DC JUMPI PUSH1 0x0 DUP1 REVERT JUMPDEST POP JUMP JUMPDEST PUSH1 0x0 DUP2 CALLDATALOAD SWAP1 POP PUSH2 0x6EE DUP2 PUSH2 0x6C8 JUMP JUMPDEST SWAP3 SWAP2 POP POP JUMP JUMPDEST PUSH1 0x0 PUSH20 0xFFFFFFFFFFFFFFFFFFFFFFFFFFFFFFFFFFFFFFFF DUP3 AND SWAP1 POP SWAP2 SWAP1 POP JUMP JUMPDEST PUSH1 0x0 PUSH2 0x71F DUP3 PUSH2 0x6F4 JUMP JUMPDEST SWAP1 POP SWAP2 SWAP1 POP JUMP JUMPDEST PUSH2 0x72F DUP2 PUSH2 0x714 JUMP JUMPDEST DUP2 EQ PUSH2 0x73A JUMPI PUSH1 0x0 DUP1 REVERT JUMPDEST POP JUMP JUMPDEST PUSH1 0x0 DUP2 CALLDATALOAD SWAP1 POP PUSH2 0x74C DUP2 PUSH2 0x726 JUMP JUMPDEST SWAP3 SWAP2 POP POP JUMP JUMPDEST PUSH1 0x0 DUP1 PUSH1 0x0 PUSH1 0x60 DUP5 DUP7 SUB SLT ISZERO PUSH2 0x76B JUMPI PUSH2 0x76A PUSH2 0x41B JUMP JUMPDEST JUMPDEST PUSH1 0x0 DUP5 ADD CALLDATALOAD PUSH8 0xFFFFFFFFFFFFFFFF DUP2 GT ISZERO PUSH2 0x789 JUMPI PUSH2 0x788 PUSH2 0x420 JUMP JUMPDEST JUMPDEST PUSH2 0x795 DUP7 DUP3 DUP8 ADD PUSH2 0x53D JUMP JUMPDEST SWAP4 POP POP PUSH1 0x20 PUSH2 0x7A6 DUP7 DUP3 DUP8 ADD PUSH2 0x6DF JUMP JUMPDEST SWAP3 POP POP PUSH1 0x40 PUSH2 0x7B7 DUP7 DUP3 DUP8 ADD PUSH2 0x73D JUMP JUMPDEST SWAP2 POP POP SWAP3 POP SWAP3 POP SWAP3 JUMP JUMPDEST PUSH1 0x0 DUP2 MLOAD SWAP1 POP SWAP2 SWAP1 POP JUMP JUMPDEST PUSH1 0x0 DUP2 SWAP1 POP SWAP3 SWAP2 POP POP JUMP JUMPDEST PUSH1 0x0 JUMPDEST DUP4 DUP2 LT ISZERO PUSH2 0x7F5 JUMPI DUP1 DUP3 ADD MLOAD DUP2 DUP5 ADD MSTORE PUSH1 0x20 DUP2 ADD SWAP1 POP PUSH2 0x7DA JUMP JUMPDEST PUSH1 0x0 DUP5 DUP5 ADD MSTORE POP POP POP POP JUMP JUMPDEST PUSH1 0x0 PUSH2 0x80C DUP3 PUSH2 0x7C1 JUMP JUMPDEST PUSH2 0x816 DUP2 DUP6 PUSH2 0x7CC JUMP JUMPDEST SWAP4 POP PUSH2 0x826 DUP2 DUP6 PUSH1 0x20 DUP7 ADD PUSH2 0x7D7 JUMP JUMPDEST DUP1 DUP5 ADD SWAP2 POP POP SWAP3 SWAP2 POP POP JUMP JUMPDEST PUSH1 0x0 PUSH2 0x83E DUP3 DUP5 PUSH2 0x801 JUMP JUMPDEST SWAP2 POP DUP2 SWAP1 POP SWAP3 SWAP2 POP POP JUMP JUMPDEST PUSH1 0x0 DUP3 DUP3 MSTORE PUSH1 0x20 DUP3 ADD SWAP1 POP SWAP3 SWAP2 POP POP JUMP JUMPDEST PUSH1 0x0 PUSH2 0x865 DUP3 PUSH2 0x7C1 JUMP JUMPDEST PUSH2 0x86F DUP2 DUP6 PUSH2 0x849 JUMP JUMPDEST SWAP4 POP PUSH2 0x87F DUP2 DUP6 PUSH1 0x20 DUP7 ADD PUSH2 0x7D7 JUMP JUMPDEST PUSH2 0x888 DUP2 PUSH2 0x42F JUMP JUMPDEST DUP5 ADD SWAP2 POP POP SWAP3 SWAP2 POP POP JUMP JUMPDEST PUSH1 0x0 PUSH1 0x20 DUP3 ADD SWAP1 POP DUP2 DUP2 SUB PUSH1 0x0 DUP4 ADD MSTORE PUSH2 0x8AD DUP2 DUP5 PUSH2 0x85A JUMP JUMPDEST SWAP1 POP SWAP3 SWAP2 POP POP JUMP JUMPDEST PUSH1 0x0 DUP2 ISZERO ISZERO SWAP1 POP SWAP2 SWAP1 POP JUMP JUMPDEST PUSH2 0x8CA DUP2 PUSH2 0x8B5 JUMP JUMPDEST DUP2 EQ PUSH2 0x8D5 JUMPI PUSH1 0x0 DUP1 REVERT JUMPDEST POP JUMP JUMPDEST PUSH1 0x0 DUP2 MLOAD SWAP1 POP PUSH2 0x8E7 DUP2 PUSH2 0x8C1 JUMP JUMPDEST SWAP3 SWAP2 POP POP JUMP JUMPDEST PUSH1 0x0 PUSH1 0x20 DUP3 DUP5 SUB SLT ISZERO PUSH2 0x903 JUMPI PUSH2 0x902 PUSH2 0x41B JUMP JUMPDEST JUMPDEST PUSH1 0x0 PUSH2 0x911 DUP5 DUP3 DUP6 ADD PUSH2 0x8D8 JUMP JUMPDEST SWAP2 POP POP SWAP3 SWAP2 POP POP JUMP JUMPDEST PUSH32 0x56656869636C6520000000000000000000000000000000000000000000000000 PUSH1 0x0 DUP3 ADD MSTORE POP JUMP JUMPDEST PUSH1 0x0 PUSH2 0x950 PUSH1 0x8 DUP4 PUSH2 0x7CC JUMP JUMPDEST SWAP2 POP PUSH2 0x95B DUP3 PUSH2 0x91A JUMP JUMPDEST PUSH1 0x8 DUP3 ADD SWAP1 POP SWAP2 SWAP1 POP JUMP JUMPDEST PUSH32 0x206E6F7420666F756E6421000000000000000000000000000000000000000000 PUSH1 0x0 DUP3 ADD MSTORE POP JUMP JUMPDEST PUSH1 0x0 PUSH2 0x99C PUSH1 0xB DUP4 PUSH2 0x7CC JUMP JUMPDEST SWAP2 POP PUSH2 0x9A7 DUP3 PUSH2 0x966 JUMP JUMPDEST PUSH1 0xB DUP3 ADD SWAP1 POP SWAP2 SWAP1 POP JUMP JUMPDEST PUSH1 0x0 PUSH2 0x9BD DUP3 PUSH2 0x943 JUMP JUMPDEST SWAP2 POP PUSH2 0x9C9 DUP3 DUP5 PUSH2 0x801 JUMP JUMPDEST SWAP2 POP PUSH2 0x9D4 DUP3 PUSH2 0x98F JUMP JUMPDEST SWAP2 POP DUP2 SWAP1 POP SWAP3 SWAP2 POP POP JUMP JUMPDEST PUSH32 0x4E487B7100000000000000000000000000000000000000000000000000000000 PUSH1 0x0 MSTORE PUSH1 0x22 PUSH1 0x4 MSTORE PUSH1 0x24 PUSH1 0x0 REVERT JUMPDEST PUSH1 0x0 PUSH1 0x2 DUP3 DIV SWAP1 POP PUSH1 0x1 DUP3 AND DUP1 PUSH2 0xA26 JUMPI PUSH1 0x7F DUP3 AND SWAP2 POP JUMPDEST PUSH1 0x20 DUP3 LT DUP2 SUB PUSH2 0xA39 JUMPI PUSH2 0xA38 PUSH2 0x9DF JUMP JUMPDEST JUMPDEST POP SWAP2 SWAP1 POP JUMP JUMPDEST PUSH1 0x0 DUP2 SWAP1 POP DUP2 PUSH1 0x0 MSTORE PUSH1 0x20 PUSH1 0x0 KECCAK256 SWAP1 POP SWAP2 SWAP1 POP JUMP JUMPDEST PUSH1 0x0 PUSH1 0x20 PUSH1 0x1F DUP4 ADD DIV SWAP1 POP SWAP2 SWAP1 POP JUMP JUMPDEST PUSH1 0x0 DUP3 DUP3 SHL SWAP1 POP SWAP3 SWAP2 POP POP JUMP JUMPDEST PUSH1 0x0 PUSH1 0x8 DUP4 MUL PUSH2 0xAA1 PUSH32 0xFFFFFFFFFFFFFFFFFFFFFFFFFFFFFFFFFFFFFFFFFFFFFFFFFFFFFFFFFFFFFFFF DUP3 PUSH2 0xA64 JUMP JUMPDEST PUSH2 0xAAB DUP7 DUP4 PUSH2 0xA64 JUMP JUMPDEST SWAP6 POP DUP1 NOT DUP5 AND SWAP4 POP DUP1 DUP7 AND DUP5 OR SWAP3 POP POP POP SWAP4 SWAP3 POP POP POP JUMP JUMPDEST PUSH1 0x0 DUP2 SWAP1 POP SWAP2 SWAP1 POP JUMP JUMPDEST PUSH1 0x0 PUSH2 0xAE8 PUSH2 0xAE3 PUSH2 0xADE DUP5 PUSH2 0x5E0 JUMP JUMPDEST PUSH2 0xAC3 JUMP JUMPDEST PUSH2 0x5E0 JUMP JUMPDEST SWAP1 POP SWAP2 SWAP1 POP JUMP JUMPDEST PUSH1 0x0 DUP2 SWAP1 POP SWAP2 SWAP1 POP JUMP JUMPDEST PUSH2 0xB02 DUP4 PUSH2 0xACD JUMP JUMPDEST PUSH2 0xB16 PUSH2 0xB0E DUP3 PUSH2 0xAEF JUMP JUMPDEST DUP5 DUP5 SLOAD PUSH2 0xA71 JUMP JUMPDEST DUP3 SSTORE POP POP POP POP JUMP JUMPDEST PUSH1 0x0 SWAP1 JUMP JUMPDEST PUSH2 0xB2B PUSH2 0xB1E JUMP JUMPDEST PUSH2 0xB36 DUP2 DUP5 DUP5 PUSH2 0xAF9 JUMP JUMPDEST POP POP POP JUMP JUMPDEST JUMPDEST DUP2 DUP2 LT ISZERO PUSH2 0xB5A JUMPI PUSH2 0xB4F PUSH1 0x0 DUP3 PUSH2 0xB23 JUMP JUMPDEST PUSH1 0x1 DUP2 ADD SWAP1 POP PUSH2 0xB3C JUMP JUMPDEST POP POP JUMP JUMPDEST PUSH1 0x1F DUP3 GT ISZERO PUSH2 0xB9F JUMPI PUSH2 0xB70 DUP2 PUSH2 0xA3F JUMP JUMPDEST PUSH2 0xB79 DUP5 PUSH2 0xA54 JUMP JUMPDEST DUP2 ADD PUSH1 0x20 DUP6 LT ISZERO PUSH2 0xB88 JUMPI DUP2 SWAP1 POP JUMPDEST PUSH2 0xB9C PUSH2 0xB94 DUP6 PUSH2 0xA54 JUMP JUMPDEST DUP4 ADD DUP3 PUSH2 0xB3B JUMP JUMPDEST POP POP JUMPDEST POP POP POP JUMP JUMPDEST PUSH1 0x0 DUP3 DUP3 SHR SWAP1 POP SWAP3 SWAP2 POP POP JUMP JUMPDEST PUSH1 0x0 PUSH2 0xBC2 PUSH1 0x0 NOT DUP5 PUSH1 0x8 MUL PUSH2 0xBA4 JUMP JUMPDEST NOT DUP1 DUP4 AND SWAP2 POP POP SWAP3 SWAP2 POP POP JUMP JUMPDEST PUSH1 0x0 PUSH2 0xBDB DUP4 DUP4 PUSH2 0xBB1 JUMP JUMPDEST SWAP2 POP DUP3 PUSH1 0x2 MUL DUP3 OR SWAP1 POP SWAP3 SWAP2 POP POP JUMP JUMPDEST PUSH2 0xBF4 DUP3 PUSH2 0x7C1 JUMP JUMPDEST PUSH8 0xFFFFFFFFFFFFFFFF DUP2 GT ISZERO PUSH2 0xC0D JUMPI PUSH2 0xC0C PUSH2 0x440 JUMP JUMPDEST JUMPDEST PUSH2 0xC17 DUP3 SLOAD PUSH2 0xA0E JUMP JUMPDEST PUSH2 0xC22 DUP3 DUP3 DUP6 PUSH2 0xB5E JUMP JUMPDEST PUSH1 0x0 PUSH1 0x20 SWAP1 POP PUSH1 0x1F DUP4 GT PUSH1 0x1 DUP2 EQ PUSH2 0xC55 JUMPI PUSH1 0x0 DUP5 ISZERO PUSH2 0xC43 JUMPI DUP3 DUP8 ADD MLOAD SWAP1 POP JUMPDEST PUSH2 0xC4D DUP6 DUP3 PUSH2 0xBCF JUMP JUMPDEST DUP7 SSTORE POP PUSH2 0xCB5 JUMP JUMPDEST PUSH1 0x1F NOT DUP5 AND PUSH2 0xC63 DUP7 PUSH2 0xA3F JUMP JUMPDEST PUSH1 0x0 JUMPDEST DUP3 DUP2 LT ISZERO PUSH2 0xC8B JUMPI DUP5 DUP10 ADD MLOAD DUP3 SSTORE PUSH1 0x1 DUP3 ADD SWAP2 POP PUSH1 0x20 DUP6 ADD SWAP5 POP PUSH1 0x20 DUP2 ADD SWAP1 POP PUSH2 0xC66 JUMP JUMPDEST DUP7 DUP4 LT ISZERO PUSH2 0xCA8 JUMPI DUP5 DUP10 ADD MLOAD PUSH2 0xCA4 PUSH1 0x1F DUP10 AND DUP3 PUSH2 0xBB1 JUMP JUMPDEST DUP4 SSTORE POP JUMPDEST PUSH1 0x1 PUSH1 0x2 DUP9 MUL ADD DUP9 SSTORE POP POP POP JUMPDEST POP POP POP POP POP POP JUMP JUMPDEST PUSH1 0x0 PUSH1 0x40 DUP3 ADD SWAP1 POP DUP2 DUP2 SUB PUSH1 0x0 DUP4 ADD MSTORE PUSH2 0xCD7 DUP2 DUP6 PUSH2 0x85A JUMP JUMPDEST SWAP1 POP PUSH2 0xCE6 PUSH1 0x20 DUP4 ADD DUP5 PUSH2 0x69E JUMP JUMPDEST SWAP4 SWAP3 POP POP POP JUMP INVALID LOG2 PUSH5 0x6970667358 0x22 SLT KECCAK256 0xE5 SWAP1 SWAP3 0xB4 SWAP13 CODESIZE CALLCODE INVALID 0xF7 0xDC 0xD9 DUP16 0xAF 0xEA 0xEA 0x4C CALLVALUE PUSH20 0x3BBA69446B70A5879C6481302CB64736F6C6343 STOP ADDMOD GT STOP CALLER "},"methodIdentifiers":{"getBlocksNums(string)":"09631822","getMileage(string)":"1da25c0e","regMileage(string,uint256,address)":"e85a74ba"}}}}}