{"blockchain/contracts/Damages.sol":{"Damages":{"abi":[{"anonymous":false,"inputs":[{"indexed":false,"internalType":"string","name":"vin","type":"string"},{"indexed":false,"internalType":"uint256","name":"date","type":"uint256"},{"indexed":false,"internalType":"string","name":"place","type":"string"},{"indexed":false,"internalType":"string","name":"desc","type":"string"},{"indexed":false,"internalType":"uint256","name":"damageVal","type":"uint256"},{"indexed":false,"internalType":"uint256","name":"mileage","type":"uint256"},{"indexed":false,"internalType":"string[]","name":"photosHashes","type":"string[]"}],"name":"DamageRegistered","type":"event"},{"inputs":[{"internalType":"string","name":"_vin","type":"string"}],"name":"getBlocksNums","outputs":[{"internalType":"uint256[]","name":"_blocksNums","type":"uint256[]"}],"stateMutability":"view","type":"function"},{"inputs":[{"internalType":"string","name":"_vin","type":"string"}],"name":"getPhotosHashes","outputs":[{"internalType":"string[]","name":"_blocksNums","type":"string[]"}],"stateMutability":"view","type":"function"},{"inputs":[{"internalType":"string","name":"_vin","type":"string"},{"internalType":"uint256","name":"_date","type":"uint256"},{"internalType":"string","name":"_place","type":"string"},{"internalType":"string","name":"_desc","type":"string"},{"internalType":"uint256","name":"_damageVal","type":"uint256"},{"internalType":"uint256","name":"_mileage","type":"uint256"},{"internalType":"string[]","name":"_photosHashes","type":"string[]"},{"internalType":"address","name":"_vehiclesContract","type":"address"},{"internalType":"address","name":"_mileagesContract","type":"address"}],"name":"regDamage","outputs":[],"stateMutability":"nonpayable","type":"function"}],"evm":{"bytecode":{"linkReferences":{},"object":"608060405234801561001057600080fd5b50611515806100206000396000f3fe608060405234801561001057600080fd5b50600436106100415760003560e01c806309631822146100465780638581ee3914610076578063f33402c814610092575b600080fd5b610060600480360381019061005b919061094b565b6100c2565b60405161006d9190610a5c565b60405180910390f35b610090600480360381019061008b9190610bee565b61013b565b005b6100ac60048036038101906100a7919061094b565b6105d0565b6040516100b99190610e69565b60405180910390f35b60606000826040516100d49190610ec7565b908152602001604051809103902060060180548060200260200160405190810160405280929190818152602001828054801561012f57602002820191906000526020600020905b81548152602001906001019080831161011b575b50505050509050919050565b6000829050600115158173ffffffffffffffffffffffffffffffffffffffff166330f2c5608c6040518263ffffffff1660e01b815260040161017d9190610f28565b602060405180830381865afa15801561019a573d6000803e3d6000fd5b505050506040513d601f19601f820116820180604052508101906101be9190610f82565b1515148a6040516020016101d29190611047565b60405160208183030381529060405290610222576040517f08c379a00000000000000000000000000000000000000000000000000000000081526004016102199190610f28565b60405180910390fd5b506000808b6040516102349190610ec7565b9081526020016040518091039020600501905060005b85518110156102b4578186828151811061026757610266611074565b5b60200260200101519080600181540180825580915050600190039060005260206000200160009091909190915090816102a091906112af565b5080806102ac906113b0565b91505061024a565b506000808c6040516102c69190610ec7565b908152602001604051809103902060060190508043908060018154018082558091505060019003906000526020600020016000909190919091505560006040518060e001604052808e81526020018d81526020018c81526020018b81526020018a815260200184805480602002602001604051908101604052809291908181526020016000905b828210156103f957838290600052602060002001805461036c906110d2565b80601f0160208091040260200160405190810160405280929190818152602001828054610398906110d2565b80156103e55780601f106103ba576101008083540402835291602001916103e5565b820191906000526020600020905b8154815290600101906020018083116103c857829003601f168201915b50505050508152602001906001019061034d565b5050505081526020018380548060200260200160405190810160405280929190818152602001828054801561044d57602002820191906000526020600020905b815481526020019060010190808311610439575b505050505081525090508060008e6040516104689190610ec7565b9081526020016040518091039020600082015181600001908161048b91906112af565b506020820151816001015560408201518160020190816104ab91906112af565b5060608201518160030190816104c191906112af565b506080820151816004015560a08201518160050190805190602001906104e89291906106ca565b5060c0820151816006019080519060200190610505929190610723565b5090505060008590508073ffffffffffffffffffffffffffffffffffffffff1663e85a74ba8f8b8a6040518463ffffffff1660e01b815260040161054b93929190611416565b600060405180830381600087803b15801561056557600080fd5b505af1158015610579573d6000803e3d6000fd5b505050507f57b74023e87935cf5c3f19385ef2fdb9a0fb5c9a95ad01afb116cb7dd9ab9ab88e8e8e8e8e8e8e6040516105b89796959493929190611454565b60405180910390a15050505050505050505050505050565b60606000826040516105e29190610ec7565b9081526020016040518091039020600501805480602002602001604051908101604052809291908181526020016000905b828210156106bf578382906000526020600020018054610632906110d2565b80601f016020809104026020016040519081016040528092919081815260200182805461065e906110d2565b80156106ab5780601f10610680576101008083540402835291602001916106ab565b820191906000526020600020905b81548152906001019060200180831161068e57829003601f168201915b505050505081526020019060010190610613565b505050509050919050565b828054828255906000526020600020908101928215610712579160200282015b8281111561071157825182908161070191906112af565b50916020019190600101906106ea565b5b50905061071f9190610770565b5090565b82805482825590600052602060002090810192821561075f579160200282015b8281111561075e578251825591602001919060010190610743565b5b50905061076c9190610794565b5090565b5b80821115610790576000818161078791906107b1565b50600101610771565b5090565b5b808211156107ad576000816000905550600101610795565b5090565b5080546107bd906110d2565b6000825580601f106107cf57506107ee565b601f0160209004906000526020600020908101906107ed9190610794565b5b50565b6000604051905090565b600080fd5b600080fd5b600080fd5b600080fd5b6000601f19601f8301169050919050565b7f4e487b7100000000000000000000000000000000000000000000000000000000600052604160045260246000fd5b6108588261080f565b810181811067ffffffffffffffff8211171561087757610876610820565b5b80604052505050565b600061088a6107f1565b9050610896828261084f565b919050565b600067ffffffffffffffff8211156108b6576108b5610820565b5b6108bf8261080f565b9050602081019050919050565b82818337600083830152505050565b60006108ee6108e98461089b565b610880565b90508281526020810184848401111561090a5761090961080a565b5b6109158482856108cc565b509392505050565b600082601f83011261093257610931610805565b5b81356109428482602086016108db565b91505092915050565b600060208284031215610961576109606107fb565b5b600082013567ffffffffffffffff81111561097f5761097e610800565b5b61098b8482850161091d565b91505092915050565b600081519050919050565b600082825260208201905092915050565b6000819050602082019050919050565b6000819050919050565b6109d3816109c0565b82525050565b60006109e583836109ca565b60208301905092915050565b6000602082019050919050565b6000610a0982610994565b610a13818561099f565b9350610a1e836109b0565b8060005b83811015610a4f578151610a3688826109d9565b9750610a41836109f1565b925050600181019050610a22565b5085935050505092915050565b60006020820190508181036000830152610a7681846109fe565b905092915050565b610a87816109c0565b8114610a9257600080fd5b50565b600081359050610aa481610a7e565b92915050565b600067ffffffffffffffff821115610ac557610ac4610820565b5b602082029050602081019050919050565b600080fd5b6000610aee610ae984610aaa565b610880565b90508083825260208201905060208402830185811115610b1157610b10610ad6565b5b835b81811015610b5857803567ffffffffffffffff811115610b3657610b35610805565b5b808601610b43898261091d565b85526020850194505050602081019050610b13565b5050509392505050565b600082601f830112610b7757610b76610805565b5b8135610b87848260208601610adb565b91505092915050565b600073ffffffffffffffffffffffffffffffffffffffff82169050919050565b6000610bbb82610b90565b9050919050565b610bcb81610bb0565b8114610bd657600080fd5b50565b600081359050610be881610bc2565b92915050565b60008060008060008060008060006101208a8c031215610c1157610c106107fb565b5b60008a013567ffffffffffffffff811115610c2f57610c2e610800565b5b610c3b8c828d0161091d565b9950506020610c4c8c828d01610a95565b98505060408a013567ffffffffffffffff811115610c6d57610c6c610800565b5b610c798c828d0161091d565b97505060608a013567ffffffffffffffff811115610c9a57610c99610800565b5b610ca68c828d0161091d565b9650506080610cb78c828d01610a95565b95505060a0610cc88c828d01610a95565b94505060c08a013567ffffffffffffffff811115610ce957610ce8610800565b5b610cf58c828d01610b62565b93505060e0610d068c828d01610bd9565b925050610100610d188c828d01610bd9565b9150509295985092959850929598565b600081519050919050565b600082825260208201905092915050565b6000819050602082019050919050565b600081519050919050565b600082825260208201905092915050565b60005b83811015610d8e578082015181840152602081019050610d73565b60008484015250505050565b6000610da582610d54565b610daf8185610d5f565b9350610dbf818560208601610d70565b610dc88161080f565b840191505092915050565b6000610ddf8383610d9a565b905092915050565b6000602082019050919050565b6000610dff82610d28565b610e098185610d33565b935083602082028501610e1b85610d44565b8060005b85811015610e575784840389528151610e388582610dd3565b9450610e4383610de7565b925060208a01995050600181019050610e1f565b50829750879550505050505092915050565b60006020820190508181036000830152610e838184610df4565b905092915050565b600081905092915050565b6000610ea182610d54565b610eab8185610e8b565b9350610ebb818560208601610d70565b80840191505092915050565b6000610ed38284610e96565b915081905092915050565b600082825260208201905092915050565b6000610efa82610d54565b610f048185610ede565b9350610f14818560208601610d70565b610f1d8161080f565b840191505092915050565b60006020820190508181036000830152610f428184610eef565b905092915050565b60008115159050919050565b610f5f81610f4a565b8114610f6a57600080fd5b50565b600081519050610f7c81610f56565b92915050565b600060208284031215610f9857610f976107fb565b5b6000610fa684828501610f6d565b91505092915050565b7f56656869636c6520000000000000000000000000000000000000000000000000600082015250565b6000610fe5600883610e8b565b9150610ff082610faf565b600882019050919050565b7f206e6f7420666f756e6421000000000000000000000000000000000000000000600082015250565b6000611031600b83610e8b565b915061103c82610ffb565b600b82019050919050565b600061105282610fd8565b915061105e8284610e96565b915061106982611024565b915081905092915050565b7f4e487b7100000000000000000000000000000000000000000000000000000000600052603260045260246000fd5b7f4e487b7100000000000000000000000000000000000000000000000000000000600052602260045260246000fd5b600060028204905060018216806110ea57607f821691505b6020821081036110fd576110fc6110a3565b5b50919050565b60008190508160005260206000209050919050565b60006020601f8301049050919050565b600082821b905092915050565b6000600883026111657fffffffffffffffffffffffffffffffffffffffffffffffffffffffffffffffff82611128565b61116f8683611128565b95508019841693508086168417925050509392505050565b6000819050919050565b60006111ac6111a76111a2846109c0565b611187565b6109c0565b9050919050565b6000819050919050565b6111c683611191565b6111da6111d2826111b3565b848454611135565b825550505050565b600090565b6111ef6111e2565b6111fa8184846111bd565b505050565b5b8181101561121e576112136000826111e7565b600181019050611200565b5050565b601f8211156112635761123481611103565b61123d84611118565b8101602085101561124c578190505b61126061125885611118565b8301826111ff565b50505b505050565b600082821c905092915050565b600061128660001984600802611268565b1980831691505092915050565b600061129f8383611275565b9150826002028217905092915050565b6112b882610d54565b67ffffffffffffffff8111156112d1576112d0610820565b5b6112db82546110d2565b6112e6828285611222565b600060209050601f8311600181146113195760008415611307578287015190505b6113118582611293565b865550611379565b601f19841661132786611103565b60005b8281101561134f5784890151825560018201915060208501945060208101905061132a565b8683101561136c5784890151611368601f891682611275565b8355505b6001600288020188555050505b505050505050565b7f4e487b7100000000000000000000000000000000000000000000000000000000600052601160045260246000fd5b60006113bb826109c0565b91507fffffffffffffffffffffffffffffffffffffffffffffffffffffffffffffffff82036113ed576113ec611381565b5b600182019050919050565b611401816109c0565b82525050565b61141081610bb0565b82525050565b600060608201905081810360008301526114308186610eef565b905061143f60208301856113f8565b61144c6040830184611407565b949350505050565b600060e082019050818103600083015261146e818a610eef565b905061147d60208301896113f8565b818103604083015261148f8188610eef565b905081810360608301526114a38187610eef565b90506114b260808301866113f8565b6114bf60a08301856113f8565b81810360c08301526114d18184610df4565b90509897505050505050505056fea26469706673582212208e90d0e1bbd004f6f61d2fc2754b34df69757fc798b61d6634ab162a391a5abf64736f6c63430008110033","opcodes":"PUSH1 0x80 PUSH1 0x40 MSTORE CALLVALUE DUP1 ISZERO PUSH2 0x10 JUMPI PUSH1 0x0 DUP1 REVERT JUMPDEST POP PUSH2 0x1515 DUP1 PUSH2 0x20 PUSH1 0x0 CODECOPY PUSH1 0x0 RETURN INVALID PUSH1 0x80 PUSH1 0x40 MSTORE CALLVALUE DUP1 ISZERO PUSH2 0x10 JUMPI PUSH1 0x0 DUP1 REVERT JUMPDEST POP PUSH1 0x4 CALLDATASIZE LT PUSH2 0x41 JUMPI PUSH1 0x0 CALLDATALOAD PUSH1 0xE0 SHR DUP1 PUSH4 0x9631822 EQ PUSH2 0x46 JUMPI DUP1 PUSH4 0x8581EE39 EQ PUSH2 0x76 JUMPI DUP1 PUSH4 0xF33402C8 EQ PUSH2 0x92 JUMPI JUMPDEST PUSH1 0x0 DUP1 REVERT JUMPDEST PUSH2 0x60 PUSH1 0x4 DUP1 CALLDATASIZE SUB DUP2 ADD SWAP1 PUSH2 0x5B SWAP2 SWAP1 PUSH2 0x94B JUMP JUMPDEST PUSH2 0xC2 JUMP JUMPDEST PUSH1 0x40 MLOAD PUSH2 0x6D SWAP2 SWAP1 PUSH2 0xA5C JUMP JUMPDEST PUSH1 0x40 MLOAD DUP1 SWAP2 SUB SWAP1 RETURN JUMPDEST PUSH2 0x90 PUSH1 0x4 DUP1 CALLDATASIZE SUB DUP2 ADD SWAP1 PUSH2 0x8B SWAP2 SWAP1 PUSH2 0xBEE JUMP JUMPDEST PUSH2 0x13B JUMP JUMPDEST STOP JUMPDEST PUSH2 0xAC PUSH1 0x4 DUP1 CALLDATASIZE SUB DUP2 ADD SWAP1 PUSH2 0xA7 SWAP2 SWAP1 PUSH2 0x94B JUMP JUMPDEST PUSH2 0x5D0 JUMP JUMPDEST PUSH1 0x40 MLOAD PUSH2 0xB9 SWAP2 SWAP1 PUSH2 0xE69 JUMP JUMPDEST PUSH1 0x40 MLOAD DUP1 SWAP2 SUB SWAP1 RETURN JUMPDEST PUSH1 0x60 PUSH1 0x0 DUP3 PUSH1 0x40 MLOAD PUSH2 0xD4 SWAP2 SWAP1 PUSH2 0xEC7 JUMP JUMPDEST SWAP1 DUP2 MSTORE PUSH1 0x20 ADD PUSH1 0x40 MLOAD DUP1 SWAP2 SUB SWAP1 KECCAK256 PUSH1 0x6 ADD DUP1 SLOAD DUP1 PUSH1 0x20 MUL PUSH1 0x20 ADD PUSH1 0x40 MLOAD SWAP1 DUP2 ADD PUSH1 0x40 MSTORE DUP1 SWAP3 SWAP2 SWAP1 DUP2 DUP2 MSTORE PUSH1 0x20 ADD DUP3 DUP1 SLOAD DUP1 ISZERO PUSH2 0x12F JUMPI PUSH1 0x20 MUL DUP3 ADD SWAP2 SWAP1 PUSH1 0x0 MSTORE PUSH1 0x20 PUSH1 0x0 KECCAK256 SWAP1 JUMPDEST DUP2 SLOAD DUP2 MSTORE PUSH1 0x20 ADD SWAP1 PUSH1 0x1 ADD SWAP1 DUP1 DUP4 GT PUSH2 0x11B JUMPI JUMPDEST POP POP POP POP POP SWAP1 POP SWAP2 SWAP1 POP JUMP JUMPDEST PUSH1 0x0 DUP3 SWAP1 POP PUSH1 0x1 ISZERO ISZERO DUP2 PUSH20 0xFFFFFFFFFFFFFFFFFFFFFFFFFFFFFFFFFFFFFFFF AND PUSH4 0x30F2C560 DUP13 PUSH1 0x40 MLOAD DUP3 PUSH4 0xFFFFFFFF AND PUSH1 0xE0 SHL DUP2 MSTORE PUSH1 0x4 ADD PUSH2 0x17D SWAP2 SWAP1 PUSH2 0xF28 JUMP JUMPDEST PUSH1 0x20 PUSH1 0x40 MLOAD DUP1 DUP4 SUB DUP2 DUP7 GAS STATICCALL ISZERO DUP1 ISZERO PUSH2 0x19A JUMPI RETURNDATASIZE PUSH1 0x0 DUP1 RETURNDATACOPY RETURNDATASIZE PUSH1 0x0 REVERT JUMPDEST POP POP POP POP PUSH1 0x40 MLOAD RETURNDATASIZE PUSH1 0x1F NOT PUSH1 0x1F DUP3 ADD AND DUP3 ADD DUP1 PUSH1 0x40 MSTORE POP DUP2 ADD SWAP1 PUSH2 0x1BE SWAP2 SWAP1 PUSH2 0xF82 JUMP JUMPDEST ISZERO ISZERO EQ DUP11 PUSH1 0x40 MLOAD PUSH1 0x20 ADD PUSH2 0x1D2 SWAP2 SWAP1 PUSH2 0x1047 JUMP JUMPDEST PUSH1 0x40 MLOAD PUSH1 0x20 DUP2 DUP4 SUB SUB DUP2 MSTORE SWAP1 PUSH1 0x40 MSTORE SWAP1 PUSH2 0x222 JUMPI PUSH1 0x40 MLOAD PUSH32 0x8C379A000000000000000000000000000000000000000000000000000000000 DUP2 MSTORE PUSH1 0x4 ADD PUSH2 0x219 SWAP2 SWAP1 PUSH2 0xF28 JUMP JUMPDEST PUSH1 0x40 MLOAD DUP1 SWAP2 SUB SWAP1 REVERT JUMPDEST POP PUSH1 0x0 DUP1 DUP12 PUSH1 0x40 MLOAD PUSH2 0x234 SWAP2 SWAP1 PUSH2 0xEC7 JUMP JUMPDEST SWAP1 DUP2 MSTORE PUSH1 0x20 ADD PUSH1 0x40 MLOAD DUP1 SWAP2 SUB SWAP1 KECCAK256 PUSH1 0x5 ADD SWAP1 POP PUSH1 0x0 JUMPDEST DUP6 MLOAD DUP2 LT ISZERO PUSH2 0x2B4 JUMPI DUP2 DUP7 DUP3 DUP2 MLOAD DUP2 LT PUSH2 0x267 JUMPI PUSH2 0x266 PUSH2 0x1074 JUMP JUMPDEST JUMPDEST PUSH1 0x20 MUL PUSH1 0x20 ADD ADD MLOAD SWAP1 DUP1 PUSH1 0x1 DUP2 SLOAD ADD DUP1 DUP3 SSTORE DUP1 SWAP2 POP POP PUSH1 0x1 SWAP1 SUB SWAP1 PUSH1 0x0 MSTORE PUSH1 0x20 PUSH1 0x0 KECCAK256 ADD PUSH1 0x0 SWAP1 SWAP2 SWAP1 SWAP2 SWAP1 SWAP2 POP SWAP1 DUP2 PUSH2 0x2A0 SWAP2 SWAP1 PUSH2 0x12AF JUMP JUMPDEST POP DUP1 DUP1 PUSH2 0x2AC SWAP1 PUSH2 0x13B0 JUMP JUMPDEST SWAP2 POP POP PUSH2 0x24A JUMP JUMPDEST POP PUSH1 0x0 DUP1 DUP13 PUSH1 0x40 MLOAD PUSH2 0x2C6 SWAP2 SWAP1 PUSH2 0xEC7 JUMP JUMPDEST SWAP1 DUP2 MSTORE PUSH1 0x20 ADD PUSH1 0x40 MLOAD DUP1 SWAP2 SUB SWAP1 KECCAK256 PUSH1 0x6 ADD SWAP1 POP DUP1 NUMBER SWAP1 DUP1 PUSH1 0x1 DUP2 SLOAD ADD DUP1 DUP3 SSTORE DUP1 SWAP2 POP POP PUSH1 0x1 SWAP1 SUB SWAP1 PUSH1 0x0 MSTORE PUSH1 0x20 PUSH1 0x0 KECCAK256 ADD PUSH1 0x0 SWAP1 SWAP2 SWAP1 SWAP2 SWAP1 SWAP2 POP SSTORE PUSH1 0x0 PUSH1 0x40 MLOAD DUP1 PUSH1 0xE0 ADD PUSH1 0x40 MSTORE DUP1 DUP15 DUP2 MSTORE PUSH1 0x20 ADD DUP14 DUP2 MSTORE PUSH1 0x20 ADD DUP13 DUP2 MSTORE PUSH1 0x20 ADD DUP12 DUP2 MSTORE PUSH1 0x20 ADD DUP11 DUP2 MSTORE PUSH1 0x20 ADD DUP5 DUP1 SLOAD DUP1 PUSH1 0x20 MUL PUSH1 0x20 ADD PUSH1 0x40 MLOAD SWAP1 DUP2 ADD PUSH1 0x40 MSTORE DUP1 SWAP3 SWAP2 SWAP1 DUP2 DUP2 MSTORE PUSH1 0x20 ADD PUSH1 0x0 SWAP1 JUMPDEST DUP3 DUP3 LT ISZERO PUSH2 0x3F9 JUMPI DUP4 DUP3 SWAP1 PUSH1 0x0 MSTORE PUSH1 0x20 PUSH1 0x0 KECCAK256 ADD DUP1 SLOAD PUSH2 0x36C SWAP1 PUSH2 0x10D2 JUMP JUMPDEST DUP1 PUSH1 0x1F ADD PUSH1 0x20 DUP1 SWAP2 DIV MUL PUSH1 0x20 ADD PUSH1 0x40 MLOAD SWAP1 DUP2 ADD PUSH1 0x40 MSTORE DUP1 SWAP3 SWAP2 SWAP1 DUP2 DUP2 MSTORE PUSH1 0x20 ADD DUP3 DUP1 SLOAD PUSH2 0x398 SWAP1 PUSH2 0x10D2 JUMP JUMPDEST DUP1 ISZERO PUSH2 0x3E5 JUMPI DUP1 PUSH1 0x1F LT PUSH2 0x3BA JUMPI PUSH2 0x100 DUP1 DUP4 SLOAD DIV MUL DUP4 MSTORE SWAP2 PUSH1 0x20 ADD SWAP2 PUSH2 0x3E5 JUMP JUMPDEST DUP3 ADD SWAP2 SWAP1 PUSH1 0x0 MSTORE PUSH1 0x20 PUSH1 0x0 KECCAK256 SWAP1 JUMPDEST DUP2 SLOAD DUP2 MSTORE SWAP1 PUSH1 0x1 ADD SWAP1 PUSH1 0x20 ADD DUP1 DUP4 GT PUSH2 0x3C8 JUMPI DUP3 SWAP1 SUB PUSH1 0x1F AND DUP3 ADD SWAP2 JUMPDEST POP POP POP POP POP DUP2 MSTORE PUSH1 0x20 ADD SWAP1 PUSH1 0x1 ADD SWAP1 PUSH2 0x34D JUMP JUMPDEST POP POP POP POP DUP2 MSTORE PUSH1 0x20 ADD DUP4 DUP1 SLOAD DUP1 PUSH1 0x20 MUL PUSH1 0x20 ADD PUSH1 0x40 MLOAD SWAP1 DUP2 ADD PUSH1 0x40 MSTORE DUP1 SWAP3 SWAP2 SWAP1 DUP2 DUP2 MSTORE PUSH1 0x20 ADD DUP3 DUP1 SLOAD DUP1 ISZERO PUSH2 0x44D JUMPI PUSH1 0x20 MUL DUP3 ADD SWAP2 SWAP1 PUSH1 0x0 MSTORE PUSH1 0x20 PUSH1 0x0 KECCAK256 SWAP1 JUMPDEST DUP2 SLOAD DUP2 MSTORE PUSH1 0x20 ADD SWAP1 PUSH1 0x1 ADD SWAP1 DUP1 DUP4 GT PUSH2 0x439 JUMPI JUMPDEST POP POP POP POP POP DUP2 MSTORE POP SWAP1 POP DUP1 PUSH1 0x0 DUP15 PUSH1 0x40 MLOAD PUSH2 0x468 SWAP2 SWAP1 PUSH2 0xEC7 JUMP JUMPDEST SWAP1 DUP2 MSTORE PUSH1 0x20 ADD PUSH1 0x40 MLOAD DUP1 SWAP2 SUB SWAP1 KECCAK256 PUSH1 0x0 DUP3 ADD MLOAD DUP2 PUSH1 0x0 ADD SWAP1 DUP2 PUSH2 0x48B SWAP2 SWAP1 PUSH2 0x12AF JUMP JUMPDEST POP PUSH1 0x20 DUP3 ADD MLOAD DUP2 PUSH1 0x1 ADD SSTORE PUSH1 0x40 DUP3 ADD MLOAD DUP2 PUSH1 0x2 ADD SWAP1 DUP2 PUSH2 0x4AB SWAP2 SWAP1 PUSH2 0x12AF JUMP JUMPDEST POP PUSH1 0x60 DUP3 ADD MLOAD DUP2 PUSH1 0x3 ADD SWAP1 DUP2 PUSH2 0x4C1 SWAP2 SWAP1 PUSH2 0x12AF JUMP JUMPDEST POP PUSH1 0x80 DUP3 ADD MLOAD DUP2 PUSH1 0x4 ADD SSTORE PUSH1 0xA0 DUP3 ADD MLOAD DUP2 PUSH1 0x5 ADD SWAP1 DUP1 MLOAD SWAP1 PUSH1 0x20 ADD SWAP1 PUSH2 0x4E8 SWAP3 SWAP2 SWAP1 PUSH2 0x6CA JUMP JUMPDEST POP PUSH1 0xC0 DUP3 ADD MLOAD DUP2 PUSH1 0x6 ADD SWAP1 DUP1 MLOAD SWAP1 PUSH1 0x20 ADD SWAP1 PUSH2 0x505 SWAP3 SWAP2 SWAP1 PUSH2 0x723 JUMP JUMPDEST POP SWAP1 POP POP PUSH1 0x0 DUP6 SWAP1 POP DUP1 PUSH20 0xFFFFFFFFFFFFFFFFFFFFFFFFFFFFFFFFFFFFFFFF AND PUSH4 0xE85A74BA DUP16 DUP12 DUP11 PUSH1 0x40 MLOAD DUP5 PUSH4 0xFFFFFFFF AND PUSH1 0xE0 SHL DUP2 MSTORE PUSH1 0x4 ADD PUSH2 0x54B SWAP4 SWAP3 SWAP2 SWAP1 PUSH2 0x1416 JUMP JUMPDEST PUSH1 0x0 PUSH1 0x40 MLOAD DUP1 DUP4 SUB DUP2 PUSH1 0x0 DUP8 DUP1 EXTCODESIZE ISZERO DUP1 ISZERO PUSH2 0x565 JUMPI PUSH1 0x0 DUP1 REVERT JUMPDEST POP GAS CALL ISZERO DUP1 ISZERO PUSH2 0x579 JUMPI RETURNDATASIZE PUSH1 0x0 DUP1 RETURNDATACOPY RETURNDATASIZE PUSH1 0x0 REVERT JUMPDEST POP POP POP POP PUSH32 0x57B74023E87935CF5C3F19385EF2FDB9A0FB5C9A95AD01AFB116CB7DD9AB9AB8 DUP15 DUP15 DUP15 DUP15 DUP15 DUP15 DUP15 PUSH1 0x40 MLOAD PUSH2 0x5B8 SWAP8 SWAP7 SWAP6 SWAP5 SWAP4 SWAP3 SWAP2 SWAP1 PUSH2 0x1454 JUMP JUMPDEST PUSH1 0x40 MLOAD DUP1 SWAP2 SUB SWAP1 LOG1 POP POP POP POP POP POP POP POP POP POP POP POP POP POP JUMP JUMPDEST PUSH1 0x60 PUSH1 0x0 DUP3 PUSH1 0x40 MLOAD PUSH2 0x5E2 SWAP2 SWAP1 PUSH2 0xEC7 JUMP JUMPDEST SWAP1 DUP2 MSTORE PUSH1 0x20 ADD PUSH1 0x40 MLOAD DUP1 SWAP2 SUB SWAP1 KECCAK256 PUSH1 0x5 ADD DUP1 SLOAD DUP1 PUSH1 0x20 MUL PUSH1 0x20 ADD PUSH1 0x40 MLOAD SWAP1 DUP2 ADD PUSH1 0x40 MSTORE DUP1 SWAP3 SWAP2 SWAP1 DUP2 DUP2 MSTORE PUSH1 0x20 ADD PUSH1 0x0 SWAP1 JUMPDEST DUP3 DUP3 LT ISZERO PUSH2 0x6BF JUMPI DUP4 DUP3 SWAP1 PUSH1 0x0 MSTORE PUSH1 0x20 PUSH1 0x0 KECCAK256 ADD DUP1 SLOAD PUSH2 0x632 SWAP1 PUSH2 0x10D2 JUMP JUMPDEST DUP1 PUSH1 0x1F ADD PUSH1 0x20 DUP1 SWAP2 DIV MUL PUSH1 0x20 ADD PUSH1 0x40 MLOAD SWAP1 DUP2 ADD PUSH1 0x40 MSTORE DUP1 SWAP3 SWAP2 SWAP1 DUP2 DUP2 MSTORE PUSH1 0x20 ADD DUP3 DUP1 SLOAD PUSH2 0x65E SWAP1 PUSH2 0x10D2 JUMP JUMPDEST DUP1 ISZERO PUSH2 0x6AB JUMPI DUP1 PUSH1 0x1F LT PUSH2 0x680 JUMPI PUSH2 0x100 DUP1 DUP4 SLOAD DIV MUL DUP4 MSTORE SWAP2 PUSH1 0x20 ADD SWAP2 PUSH2 0x6AB JUMP JUMPDEST DUP3 ADD SWAP2 SWAP1 PUSH1 0x0 MSTORE PUSH1 0x20 PUSH1 0x0 KECCAK256 SWAP1 JUMPDEST DUP2 SLOAD DUP2 MSTORE SWAP1 PUSH1 0x1 ADD SWAP1 PUSH1 0x20 ADD DUP1 DUP4 GT PUSH2 0x68E JUMPI DUP3 SWAP1 SUB PUSH1 0x1F AND DUP3 ADD SWAP2 JUMPDEST POP POP POP POP POP DUP2 MSTORE PUSH1 0x20 ADD SWAP1 PUSH1 0x1 ADD SWAP1 PUSH2 0x613 JUMP JUMPDEST POP POP POP POP SWAP1 POP SWAP2 SWAP1 POP JUMP JUMPDEST DUP3 DUP1 SLOAD DUP3 DUP3 SSTORE SWAP1 PUSH1 0x0 MSTORE PUSH1 0x20 PUSH1 0x0 KECCAK256 SWAP1 DUP2 ADD SWAP3 DUP3 ISZERO PUSH2 0x712 JUMPI SWAP2 PUSH1 0x20 MUL DUP3 ADD JUMPDEST DUP3 DUP2 GT ISZERO PUSH2 0x711 JUMPI DUP3 MLOAD DUP3 SWAP1 DUP2 PUSH2 0x701 SWAP2 SWAP1 PUSH2 0x12AF JUMP JUMPDEST POP SWAP2 PUSH1 0x20 ADD SWAP2 SWAP1 PUSH1 0x1 ADD SWAP1 PUSH2 0x6EA JUMP JUMPDEST JUMPDEST POP SWAP1 POP PUSH2 0x71F SWAP2 SWAP1 PUSH2 0x770 JUMP JUMPDEST POP SWAP1 JUMP JUMPDEST DUP3 DUP1 SLOAD DUP3 DUP3 SSTORE SWAP1 PUSH1 0x0 MSTORE PUSH1 0x20 PUSH1 0x0 KECCAK256 SWAP1 DUP2 ADD SWAP3 DUP3 ISZERO PUSH2 0x75F JUMPI SWAP2 PUSH1 0x20 MUL DUP3 ADD JUMPDEST DUP3 DUP2 GT ISZERO PUSH2 0x75E JUMPI DUP3 MLOAD DUP3 SSTORE SWAP2 PUSH1 0x20 ADD SWAP2 SWAP1 PUSH1 0x1 ADD SWAP1 PUSH2 0x743 JUMP JUMPDEST JUMPDEST POP SWAP1 POP PUSH2 0x76C SWAP2 SWAP1 PUSH2 0x794 JUMP JUMPDEST POP SWAP1 JUMP JUMPDEST JUMPDEST DUP1 DUP3 GT ISZERO PUSH2 0x790 JUMPI PUSH1 0x0 DUP2 DUP2 PUSH2 0x787 SWAP2 SWAP1 PUSH2 0x7B1 JUMP JUMPDEST POP PUSH1 0x1 ADD PUSH2 0x771 JUMP JUMPDEST POP SWAP1 JUMP JUMPDEST JUMPDEST DUP1 DUP3 GT ISZERO PUSH2 0x7AD JUMPI PUSH1 0x0 DUP2 PUSH1 0x0 SWAP1 SSTORE POP PUSH1 0x1 ADD PUSH2 0x795 JUMP JUMPDEST POP SWAP1 JUMP JUMPDEST POP DUP1 SLOAD PUSH2 0x7BD SWAP1 PUSH2 0x10D2 JUMP JUMPDEST PUSH1 0x0 DUP3 SSTORE DUP1 PUSH1 0x1F LT PUSH2 0x7CF JUMPI POP PUSH2 0x7EE JUMP JUMPDEST PUSH1 0x1F ADD PUSH1 0x20 SWAP1 DIV SWAP1 PUSH1 0x0 MSTORE PUSH1 0x20 PUSH1 0x0 KECCAK256 SWAP1 DUP2 ADD SWAP1 PUSH2 0x7ED SWAP2 SWAP1 PUSH2 0x794 JUMP JUMPDEST JUMPDEST POP JUMP JUMPDEST PUSH1 0x0 PUSH1 0x40 MLOAD SWAP1 POP SWAP1 JUMP JUMPDEST PUSH1 0x0 DUP1 REVERT JUMPDEST PUSH1 0x0 DUP1 REVERT JUMPDEST PUSH1 0x0 DUP1 REVERT JUMPDEST PUSH1 0x0 DUP1 REVERT JUMPDEST PUSH1 0x0 PUSH1 0x1F NOT PUSH1 0x1F DUP4 ADD AND SWAP1 POP SWAP2 SWAP1 POP JUMP JUMPDEST PUSH32 0x4E487B7100000000000000000000000000000000000000000000000000000000 PUSH1 0x0 MSTORE PUSH1 0x41 PUSH1 0x4 MSTORE PUSH1 0x24 PUSH1 0x0 REVERT JUMPDEST PUSH2 0x858 DUP3 PUSH2 0x80F JUMP JUMPDEST DUP2 ADD DUP2 DUP2 LT PUSH8 0xFFFFFFFFFFFFFFFF DUP3 GT OR ISZERO PUSH2 0x877 JUMPI PUSH2 0x876 PUSH2 0x820 JUMP JUMPDEST JUMPDEST DUP1 PUSH1 0x40 MSTORE POP POP POP JUMP JUMPDEST PUSH1 0x0 PUSH2 0x88A PUSH2 0x7F1 JUMP JUMPDEST SWAP1 POP PUSH2 0x896 DUP3 DUP3 PUSH2 0x84F JUMP JUMPDEST SWAP2 SWAP1 POP JUMP JUMPDEST PUSH1 0x0 PUSH8 0xFFFFFFFFFFFFFFFF DUP3 GT ISZERO PUSH2 0x8B6 JUMPI PUSH2 0x8B5 PUSH2 0x820 JUMP JUMPDEST JUMPDEST PUSH2 0x8BF DUP3 PUSH2 0x80F JUMP JUMPDEST SWAP1 POP PUSH1 0x20 DUP2 ADD SWAP1 POP SWAP2 SWAP1 POP JUMP JUMPDEST DUP3 DUP2 DUP4 CALLDATACOPY PUSH1 0x0 DUP4 DUP4 ADD MSTORE POP POP POP JUMP JUMPDEST PUSH1 0x0 PUSH2 0x8EE PUSH2 0x8E9 DUP5 PUSH2 0x89B JUMP JUMPDEST PUSH2 0x880 JUMP JUMPDEST SWAP1 POP DUP3 DUP2 MSTORE PUSH1 0x20 DUP2 ADD DUP5 DUP5 DUP5 ADD GT ISZERO PUSH2 0x90A JUMPI PUSH2 0x909 PUSH2 0x80A JUMP JUMPDEST JUMPDEST PUSH2 0x915 DUP5 DUP3 DUP6 PUSH2 0x8CC JUMP JUMPDEST POP SWAP4 SWAP3 POP POP POP JUMP JUMPDEST PUSH1 0x0 DUP3 PUSH1 0x1F DUP4 ADD SLT PUSH2 0x932 JUMPI PUSH2 0x931 PUSH2 0x805 JUMP JUMPDEST JUMPDEST DUP2 CALLDATALOAD PUSH2 0x942 DUP5 DUP3 PUSH1 0x20 DUP7 ADD PUSH2 0x8DB JUMP JUMPDEST SWAP2 POP POP SWAP3 SWAP2 POP POP JUMP JUMPDEST PUSH1 0x0 PUSH1 0x20 DUP3 DUP5 SUB SLT ISZERO PUSH2 0x961 JUMPI PUSH2 0x960 PUSH2 0x7FB JUMP JUMPDEST JUMPDEST PUSH1 0x0 DUP3 ADD CALLDATALOAD PUSH8 0xFFFFFFFFFFFFFFFF DUP2 GT ISZERO PUSH2 0x97F JUMPI PUSH2 0x97E PUSH2 0x800 JUMP JUMPDEST JUMPDEST PUSH2 0x98B DUP5 DUP3 DUP6 ADD PUSH2 0x91D JUMP JUMPDEST SWAP2 POP POP SWAP3 SWAP2 POP POP JUMP JUMPDEST PUSH1 0x0 DUP2 MLOAD SWAP1 POP SWAP2 SWAP1 POP JUMP JUMPDEST PUSH1 0x0 DUP3 DUP3 MSTORE PUSH1 0x20 DUP3 ADD SWAP1 POP SWAP3 SWAP2 POP POP JUMP JUMPDEST PUSH1 0x0 DUP2 SWAP1 POP PUSH1 0x20 DUP3 ADD SWAP1 POP SWAP2 SWAP1 POP JUMP JUMPDEST PUSH1 0x0 DUP2 SWAP1 POP SWAP2 SWAP1 POP JUMP JUMPDEST PUSH2 0x9D3 DUP2 PUSH2 0x9C0 JUMP JUMPDEST DUP3 MSTORE POP POP JUMP JUMPDEST PUSH1 0x0 PUSH2 0x9E5 DUP4 DUP4 PUSH2 0x9CA JUMP JUMPDEST PUSH1 0x20 DUP4 ADD SWAP1 POP SWAP3 SWAP2 POP POP JUMP JUMPDEST PUSH1 0x0 PUSH1 0x20 DUP3 ADD SWAP1 POP SWAP2 SWAP1 POP JUMP JUMPDEST PUSH1 0x0 PUSH2 0xA09 DUP3 PUSH2 0x994 JUMP JUMPDEST PUSH2 0xA13 DUP2 DUP6 PUSH2 0x99F JUMP JUMPDEST SWAP4 POP PUSH2 0xA1E DUP4 PUSH2 0x9B0 JUMP JUMPDEST DUP1 PUSH1 0x0 JUMPDEST DUP4 DUP2 LT ISZERO PUSH2 0xA4F JUMPI DUP2 MLOAD PUSH2 0xA36 DUP9 DUP3 PUSH2 0x9D9 JUMP JUMPDEST SWAP8 POP PUSH2 0xA41 DUP4 PUSH2 0x9F1 JUMP JUMPDEST SWAP3 POP POP PUSH1 0x1 DUP2 ADD SWAP1 POP PUSH2 0xA22 JUMP JUMPDEST POP DUP6 SWAP4 POP POP POP POP SWAP3 SWAP2 POP POP JUMP JUMPDEST PUSH1 0x0 PUSH1 0x20 DUP3 ADD SWAP1 POP DUP2 DUP2 SUB PUSH1 0x0 DUP4 ADD MSTORE PUSH2 0xA76 DUP2 DUP5 PUSH2 0x9FE JUMP JUMPDEST SWAP1 POP SWAP3 SWAP2 POP POP JUMP JUMPDEST PUSH2 0xA87 DUP2 PUSH2 0x9C0 JUMP JUMPDEST DUP2 EQ PUSH2 0xA92 JUMPI PUSH1 0x0 DUP1 REVERT JUMPDEST POP JUMP JUMPDEST PUSH1 0x0 DUP2 CALLDATALOAD SWAP1 POP PUSH2 0xAA4 DUP2 PUSH2 0xA7E JUMP JUMPDEST SWAP3 SWAP2 POP POP JUMP JUMPDEST PUSH1 0x0 PUSH8 0xFFFFFFFFFFFFFFFF DUP3 GT ISZERO PUSH2 0xAC5 JUMPI PUSH2 0xAC4 PUSH2 0x820 JUMP JUMPDEST JUMPDEST PUSH1 0x20 DUP3 MUL SWAP1 POP PUSH1 0x20 DUP2 ADD SWAP1 POP SWAP2 SWAP1 POP JUMP JUMPDEST PUSH1 0x0 DUP1 REVERT JUMPDEST PUSH1 0x0 PUSH2 0xAEE PUSH2 0xAE9 DUP5 PUSH2 0xAAA JUMP JUMPDEST PUSH2 0x880 JUMP JUMPDEST SWAP1 POP DUP1 DUP4 DUP3 MSTORE PUSH1 0x20 DUP3 ADD SWAP1 POP PUSH1 0x20 DUP5 MUL DUP4 ADD DUP6 DUP2 GT ISZERO PUSH2 0xB11 JUMPI PUSH2 0xB10 PUSH2 0xAD6 JUMP JUMPDEST JUMPDEST DUP4 JUMPDEST DUP2 DUP2 LT ISZERO PUSH2 0xB58 JUMPI DUP1 CALLDATALOAD PUSH8 0xFFFFFFFFFFFFFFFF DUP2 GT ISZERO PUSH2 0xB36 JUMPI PUSH2 0xB35 PUSH2 0x805 JUMP JUMPDEST JUMPDEST DUP1 DUP7 ADD PUSH2 0xB43 DUP10 DUP3 PUSH2 0x91D JUMP JUMPDEST DUP6 MSTORE PUSH1 0x20 DUP6 ADD SWAP5 POP POP POP PUSH1 0x20 DUP2 ADD SWAP1 POP PUSH2 0xB13 JUMP JUMPDEST POP POP POP SWAP4 SWAP3 POP POP POP JUMP JUMPDEST PUSH1 0x0 DUP3 PUSH1 0x1F DUP4 ADD SLT PUSH2 0xB77 JUMPI PUSH2 0xB76 PUSH2 0x805 JUMP JUMPDEST JUMPDEST DUP2 CALLDATALOAD PUSH2 0xB87 DUP5 DUP3 PUSH1 0x20 DUP7 ADD PUSH2 0xADB JUMP JUMPDEST SWAP2 POP POP SWAP3 SWAP2 POP POP JUMP JUMPDEST PUSH1 0x0 PUSH20 0xFFFFFFFFFFFFFFFFFFFFFFFFFFFFFFFFFFFFFFFF DUP3 AND SWAP1 POP SWAP2 SWAP1 POP JUMP JUMPDEST PUSH1 0x0 PUSH2 0xBBB DUP3 PUSH2 0xB90 JUMP JUMPDEST SWAP1 POP SWAP2 SWAP1 POP JUMP JUMPDEST PUSH2 0xBCB DUP2 PUSH2 0xBB0 JUMP JUMPDEST DUP2 EQ PUSH2 0xBD6 JUMPI PUSH1 0x0 DUP1 REVERT JUMPDEST POP JUMP JUMPDEST PUSH1 0x0 DUP2 CALLDATALOAD SWAP1 POP PUSH2 0xBE8 DUP2 PUSH2 0xBC2 JUMP JUMPDEST SWAP3 SWAP2 POP POP JUMP JUMPDEST PUSH1 0x0 DUP1 PUSH1 0x0 DUP1 PUSH1 0x0 DUP1 PUSH1 0x0 DUP1 PUSH1 0x0 PUSH2 0x120 DUP11 DUP13 SUB SLT ISZERO PUSH2 0xC11 JUMPI PUSH2 0xC10 PUSH2 0x7FB JUMP JUMPDEST JUMPDEST PUSH1 0x0 DUP11 ADD CALLDATALOAD PUSH8 0xFFFFFFFFFFFFFFFF DUP2 GT ISZERO PUSH2 0xC2F JUMPI PUSH2 0xC2E PUSH2 0x800 JUMP JUMPDEST JUMPDEST PUSH2 0xC3B DUP13 DUP3 DUP14 ADD PUSH2 0x91D JUMP JUMPDEST SWAP10 POP POP PUSH1 0x20 PUSH2 0xC4C DUP13 DUP3 DUP14 ADD PUSH2 0xA95 JUMP JUMPDEST SWAP9 POP POP PUSH1 0x40 DUP11 ADD CALLDATALOAD PUSH8 0xFFFFFFFFFFFFFFFF DUP2 GT ISZERO PUSH2 0xC6D JUMPI PUSH2 0xC6C PUSH2 0x800 JUMP JUMPDEST JUMPDEST PUSH2 0xC79 DUP13 DUP3 DUP14 ADD PUSH2 0x91D JUMP JUMPDEST SWAP8 POP POP PUSH1 0x60 DUP11 ADD CALLDATALOAD PUSH8 0xFFFFFFFFFFFFFFFF DUP2 GT ISZERO PUSH2 0xC9A JUMPI PUSH2 0xC99 PUSH2 0x800 JUMP JUMPDEST JUMPDEST PUSH2 0xCA6 DUP13 DUP3 DUP14 ADD PUSH2 0x91D JUMP JUMPDEST SWAP7 POP POP PUSH1 0x80 PUSH2 0xCB7 DUP13 DUP3 DUP14 ADD PUSH2 0xA95 JUMP JUMPDEST SWAP6 POP POP PUSH1 0xA0 PUSH2 0xCC8 DUP13 DUP3 DUP14 ADD PUSH2 0xA95 JUMP JUMPDEST SWAP5 POP POP PUSH1 0xC0 DUP11 ADD CALLDATALOAD PUSH8 0xFFFFFFFFFFFFFFFF DUP2 GT ISZERO PUSH2 0xCE9 JUMPI PUSH2 0xCE8 PUSH2 0x800 JUMP JUMPDEST JUMPDEST PUSH2 0xCF5 DUP13 DUP3 DUP14 ADD PUSH2 0xB62 JUMP JUMPDEST SWAP4 POP POP PUSH1 0xE0 PUSH2 0xD06 DUP13 DUP3 DUP14 ADD PUSH2 0xBD9 JUMP JUMPDEST SWAP3 POP POP PUSH2 0x100 PUSH2 0xD18 DUP13 DUP3 DUP14 ADD PUSH2 0xBD9 JUMP JUMPDEST SWAP2 POP POP SWAP3 SWAP6 SWAP9 POP SWAP3 SWAP6 SWAP9 POP SWAP3 SWAP6 SWAP9 JUMP JUMPDEST PUSH1 0x0 DUP2 MLOAD SWAP1 POP SWAP2 SWAP1 POP JUMP JUMPDEST PUSH1 0x0 DUP3 DUP3 MSTORE PUSH1 0x20 DUP3 ADD SWAP1 POP SWAP3 SWAP2 POP POP JUMP JUMPDEST PUSH1 0x0 DUP2 SWAP1 POP PUSH1 0x20 DUP3 ADD SWAP1 POP SWAP2 SWAP1 POP JUMP JUMPDEST PUSH1 0x0 DUP2 MLOAD SWAP1 POP SWAP2 SWAP1 POP JUMP JUMPDEST PUSH1 0x0 DUP3 DUP3 MSTORE PUSH1 0x20 DUP3 ADD SWAP1 POP SWAP3 SWAP2 POP POP JUMP JUMPDEST PUSH1 0x0 JUMPDEST DUP4 DUP2 LT ISZERO PUSH2 0xD8E JUMPI DUP1 DUP3 ADD MLOAD DUP2 DUP5 ADD MSTORE PUSH1 0x20 DUP2 ADD SWAP1 POP PUSH2 0xD73 JUMP JUMPDEST PUSH1 0x0 DUP5 DUP5 ADD MSTORE POP POP POP POP JUMP JUMPDEST PUSH1 0x0 PUSH2 0xDA5 DUP3 PUSH2 0xD54 JUMP JUMPDEST PUSH2 0xDAF DUP2 DUP6 PUSH2 0xD5F JUMP JUMPDEST SWAP4 POP PUSH2 0xDBF DUP2 DUP6 PUSH1 0x20 DUP7 ADD PUSH2 0xD70 JUMP JUMPDEST PUSH2 0xDC8 DUP2 PUSH2 0x80F JUMP JUMPDEST DUP5 ADD SWAP2 POP POP SWAP3 SWAP2 POP POP JUMP JUMPDEST PUSH1 0x0 PUSH2 0xDDF DUP4 DUP4 PUSH2 0xD9A JUMP JUMPDEST SWAP1 POP SWAP3 SWAP2 POP POP JUMP JUMPDEST PUSH1 0x0 PUSH1 0x20 DUP3 ADD SWAP1 POP SWAP2 SWAP1 POP JUMP JUMPDEST PUSH1 0x0 PUSH2 0xDFF DUP3 PUSH2 0xD28 JUMP JUMPDEST PUSH2 0xE09 DUP2 DUP6 PUSH2 0xD33 JUMP JUMPDEST SWAP4 POP DUP4 PUSH1 0x20 DUP3 MUL DUP6 ADD PUSH2 0xE1B DUP6 PUSH2 0xD44 JUMP JUMPDEST DUP1 PUSH1 0x0 JUMPDEST DUP6 DUP2 LT ISZERO PUSH2 0xE57 JUMPI DUP5 DUP5 SUB DUP10 MSTORE DUP2 MLOAD PUSH2 0xE38 DUP6 DUP3 PUSH2 0xDD3 JUMP JUMPDEST SWAP5 POP PUSH2 0xE43 DUP4 PUSH2 0xDE7 JUMP JUMPDEST SWAP3 POP PUSH1 0x20 DUP11 ADD SWAP10 POP POP PUSH1 0x1 DUP2 ADD SWAP1 POP PUSH2 0xE1F JUMP JUMPDEST POP DUP3 SWAP8 POP DUP8 SWAP6 POP POP POP POP POP POP SWAP3 SWAP2 POP POP JUMP JUMPDEST PUSH1 0x0 PUSH1 0x20 DUP3 ADD SWAP1 POP DUP2 DUP2 SUB PUSH1 0x0 DUP4 ADD MSTORE PUSH2 0xE83 DUP2 DUP5 PUSH2 0xDF4 JUMP JUMPDEST SWAP1 POP SWAP3 SWAP2 POP POP JUMP JUMPDEST PUSH1 0x0 DUP2 SWAP1 POP SWAP3 SWAP2 POP POP JUMP JUMPDEST PUSH1 0x0 PUSH2 0xEA1 DUP3 PUSH2 0xD54 JUMP JUMPDEST PUSH2 0xEAB DUP2 DUP6 PUSH2 0xE8B JUMP JUMPDEST SWAP4 POP PUSH2 0xEBB DUP2 DUP6 PUSH1 0x20 DUP7 ADD PUSH2 0xD70 JUMP JUMPDEST DUP1 DUP5 ADD SWAP2 POP POP SWAP3 SWAP2 POP POP JUMP JUMPDEST PUSH1 0x0 PUSH2 0xED3 DUP3 DUP5 PUSH2 0xE96 JUMP JUMPDEST SWAP2 POP DUP2 SWAP1 POP SWAP3 SWAP2 POP POP JUMP JUMPDEST PUSH1 0x0 DUP3 DUP3 MSTORE PUSH1 0x20 DUP3 ADD SWAP1 POP SWAP3 SWAP2 POP POP JUMP JUMPDEST PUSH1 0x0 PUSH2 0xEFA DUP3 PUSH2 0xD54 JUMP JUMPDEST PUSH2 0xF04 DUP2 DUP6 PUSH2 0xEDE JUMP JUMPDEST SWAP4 POP PUSH2 0xF14 DUP2 DUP6 PUSH1 0x20 DUP7 ADD PUSH2 0xD70 JUMP JUMPDEST PUSH2 0xF1D DUP2 PUSH2 0x80F JUMP JUMPDEST DUP5 ADD SWAP2 POP POP SWAP3 SWAP2 POP POP JUMP JUMPDEST PUSH1 0x0 PUSH1 0x20 DUP3 ADD SWAP1 POP DUP2 DUP2 SUB PUSH1 0x0 DUP4 ADD MSTORE PUSH2 0xF42 DUP2 DUP5 PUSH2 0xEEF JUMP JUMPDEST SWAP1 POP SWAP3 SWAP2 POP POP JUMP JUMPDEST PUSH1 0x0 DUP2 ISZERO ISZERO SWAP1 POP SWAP2 SWAP1 POP JUMP JUMPDEST PUSH2 0xF5F DUP2 PUSH2 0xF4A JUMP JUMPDEST DUP2 EQ PUSH2 0xF6A JUMPI PUSH1 0x0 DUP1 REVERT JUMPDEST POP JUMP JUMPDEST PUSH1 0x0 DUP2 MLOAD SWAP1 POP PUSH2 0xF7C DUP2 PUSH2 0xF56 JUMP JUMPDEST SWAP3 SWAP2 POP POP JUMP JUMPDEST PUSH1 0x0 PUSH1 0x20 DUP3 DUP5 SUB SLT ISZERO PUSH2 0xF98 JUMPI PUSH2 0xF97 PUSH2 0x7FB JUMP JUMPDEST JUMPDEST PUSH1 0x0 PUSH2 0xFA6 DUP5 DUP3 DUP6 ADD PUSH2 0xF6D JUMP JUMPDEST SWAP2 POP POP SWAP3 SWAP2 POP POP JUMP JUMPDEST PUSH32 0x56656869636C6520000000000000000000000000000000000000000000000000 PUSH1 0x0 DUP3 ADD MSTORE POP JUMP JUMPDEST PUSH1 0x0 PUSH2 0xFE5 PUSH1 0x8 DUP4 PUSH2 0xE8B JUMP JUMPDEST SWAP2 POP PUSH2 0xFF0 DUP3 PUSH2 0xFAF JUMP JUMPDEST PUSH1 0x8 DUP3 ADD SWAP1 POP SWAP2 SWAP1 POP JUMP JUMPDEST PUSH32 0x206E6F7420666F756E6421000000000000000000000000000000000000000000 PUSH1 0x0 DUP3 ADD MSTORE POP JUMP JUMPDEST PUSH1 0x0 PUSH2 0x1031 PUSH1 0xB DUP4 PUSH2 0xE8B JUMP JUMPDEST SWAP2 POP PUSH2 0x103C DUP3 PUSH2 0xFFB JUMP JUMPDEST PUSH1 0xB DUP3 ADD SWAP1 POP SWAP2 SWAP1 POP JUMP JUMPDEST PUSH1 0x0 PUSH2 0x1052 DUP3 PUSH2 0xFD8 JUMP JUMPDEST SWAP2 POP PUSH2 0x105E DUP3 DUP5 PUSH2 0xE96 JUMP JUMPDEST SWAP2 POP PUSH2 0x1069 DUP3 PUSH2 0x1024 JUMP JUMPDEST SWAP2 POP DUP2 SWAP1 POP SWAP3 SWAP2 POP POP JUMP JUMPDEST PUSH32 0x4E487B7100000000000000000000000000000000000000000000000000000000 PUSH1 0x0 MSTORE PUSH1 0x32 PUSH1 0x4 MSTORE PUSH1 0x24 PUSH1 0x0 REVERT JUMPDEST PUSH32 0x4E487B7100000000000000000000000000000000000000000000000000000000 PUSH1 0x0 MSTORE PUSH1 0x22 PUSH1 0x4 MSTORE PUSH1 0x24 PUSH1 0x0 REVERT JUMPDEST PUSH1 0x0 PUSH1 0x2 DUP3 DIV SWAP1 POP PUSH1 0x1 DUP3 AND DUP1 PUSH2 0x10EA JUMPI PUSH1 0x7F DUP3 AND SWAP2 POP JUMPDEST PUSH1 0x20 DUP3 LT DUP2 SUB PUSH2 0x10FD JUMPI PUSH2 0x10FC PUSH2 0x10A3 JUMP JUMPDEST JUMPDEST POP SWAP2 SWAP1 POP JUMP JUMPDEST PUSH1 0x0 DUP2 SWAP1 POP DUP2 PUSH1 0x0 MSTORE PUSH1 0x20 PUSH1 0x0 KECCAK256 SWAP1 POP SWAP2 SWAP1 POP JUMP JUMPDEST PUSH1 0x0 PUSH1 0x20 PUSH1 0x1F DUP4 ADD DIV SWAP1 POP SWAP2 SWAP1 POP JUMP JUMPDEST PUSH1 0x0 DUP3 DUP3 SHL SWAP1 POP SWAP3 SWAP2 POP POP JUMP JUMPDEST PUSH1 0x0 PUSH1 0x8 DUP4 MUL PUSH2 0x1165 PUSH32 0xFFFFFFFFFFFFFFFFFFFFFFFFFFFFFFFFFFFFFFFFFFFFFFFFFFFFFFFFFFFFFFFF DUP3 PUSH2 0x1128 JUMP JUMPDEST PUSH2 0x116F DUP7 DUP4 PUSH2 0x1128 JUMP JUMPDEST SWAP6 POP DUP1 NOT DUP5 AND SWAP4 POP DUP1 DUP7 AND DUP5 OR SWAP3 POP POP POP SWAP4 SWAP3 POP POP POP JUMP JUMPDEST PUSH1 0x0 DUP2 SWAP1 POP SWAP2 SWAP1 POP JUMP JUMPDEST PUSH1 0x0 PUSH2 0x11AC PUSH2 0x11A7 PUSH2 0x11A2 DUP5 PUSH2 0x9C0 JUMP JUMPDEST PUSH2 0x1187 JUMP JUMPDEST PUSH2 0x9C0 JUMP JUMPDEST SWAP1 POP SWAP2 SWAP1 POP JUMP JUMPDEST PUSH1 0x0 DUP2 SWAP1 POP SWAP2 SWAP1 POP JUMP JUMPDEST PUSH2 0x11C6 DUP4 PUSH2 0x1191 JUMP JUMPDEST PUSH2 0x11DA PUSH2 0x11D2 DUP3 PUSH2 0x11B3 JUMP JUMPDEST DUP5 DUP5 SLOAD PUSH2 0x1135 JUMP JUMPDEST DUP3 SSTORE POP POP POP POP JUMP JUMPDEST PUSH1 0x0 SWAP1 JUMP JUMPDEST PUSH2 0x11EF PUSH2 0x11E2 JUMP JUMPDEST PUSH2 0x11FA DUP2 DUP5 DUP5 PUSH2 0x11BD JUMP JUMPDEST POP POP POP JUMP JUMPDEST JUMPDEST DUP2 DUP2 LT ISZERO PUSH2 0x121E JUMPI PUSH2 0x1213 PUSH1 0x0 DUP3 PUSH2 0x11E7 JUMP JUMPDEST PUSH1 0x1 DUP2 ADD SWAP1 POP PUSH2 0x1200 JUMP JUMPDEST POP POP JUMP JUMPDEST PUSH1 0x1F DUP3 GT ISZERO PUSH2 0x1263 JUMPI PUSH2 0x1234 DUP2 PUSH2 0x1103 JUMP JUMPDEST PUSH2 0x123D DUP5 PUSH2 0x1118 JUMP JUMPDEST DUP2 ADD PUSH1 0x20 DUP6 LT ISZERO PUSH2 0x124C JUMPI DUP2 SWAP1 POP JUMPDEST PUSH2 0x1260 PUSH2 0x1258 DUP6 PUSH2 0x1118 JUMP JUMPDEST DUP4 ADD DUP3 PUSH2 0x11FF JUMP JUMPDEST POP POP JUMPDEST POP POP POP JUMP JUMPDEST PUSH1 0x0 DUP3 DUP3 SHR SWAP1 POP SWAP3 SWAP2 POP POP JUMP JUMPDEST PUSH1 0x0 PUSH2 0x1286 PUSH1 0x0 NOT DUP5 PUSH1 0x8 MUL PUSH2 0x1268 JUMP JUMPDEST NOT DUP1 DUP4 AND SWAP2 POP POP SWAP3 SWAP2 POP POP JUMP JUMPDEST PUSH1 0x0 PUSH2 0x129F DUP4 DUP4 PUSH2 0x1275 JUMP JUMPDEST SWAP2 POP DUP3 PUSH1 0x2 MUL DUP3 OR SWAP1 POP SWAP3 SWAP2 POP POP JUMP JUMPDEST PUSH2 0x12B8 DUP3 PUSH2 0xD54 JUMP JUMPDEST PUSH8 0xFFFFFFFFFFFFFFFF DUP2 GT ISZERO PUSH2 0x12D1 JUMPI PUSH2 0x12D0 PUSH2 0x820 JUMP JUMPDEST JUMPDEST PUSH2 0x12DB DUP3 SLOAD PUSH2 0x10D2 JUMP JUMPDEST PUSH2 0x12E6 DUP3 DUP3 DUP6 PUSH2 0x1222 JUMP JUMPDEST PUSH1 0x0 PUSH1 0x20 SWAP1 POP PUSH1 0x1F DUP4 GT PUSH1 0x1 DUP2 EQ PUSH2 0x1319 JUMPI PUSH1 0x0 DUP5 ISZERO PUSH2 0x1307 JUMPI DUP3 DUP8 ADD MLOAD SWAP1 POP JUMPDEST PUSH2 0x1311 DUP6 DUP3 PUSH2 0x1293 JUMP JUMPDEST DUP7 SSTORE POP PUSH2 0x1379 JUMP JUMPDEST PUSH1 0x1F NOT DUP5 AND PUSH2 0x1327 DUP7 PUSH2 0x1103 JUMP JUMPDEST PUSH1 0x0 JUMPDEST DUP3 DUP2 LT ISZERO PUSH2 0x134F JUMPI DUP5 DUP10 ADD MLOAD DUP3 SSTORE PUSH1 0x1 DUP3 ADD SWAP2 POP PUSH1 0x20 DUP6 ADD SWAP5 POP PUSH1 0x20 DUP2 ADD SWAP1 POP PUSH2 0x132A JUMP JUMPDEST DUP7 DUP4 LT ISZERO PUSH2 0x136C JUMPI DUP5 DUP10 ADD MLOAD PUSH2 0x1368 PUSH1 0x1F DUP10 AND DUP3 PUSH2 0x1275 JUMP JUMPDEST DUP4 SSTORE POP JUMPDEST PUSH1 0x1 PUSH1 0x2 DUP9 MUL ADD DUP9 SSTORE POP POP POP JUMPDEST POP POP POP POP POP POP JUMP JUMPDEST PUSH32 0x4E487B7100000000000000000000000000000000000000000000000000000000 PUSH1 0x0 MSTORE PUSH1 0x11 PUSH1 0x4 MSTORE PUSH1 0x24 PUSH1 0x0 REVERT JUMPDEST PUSH1 0x0 PUSH2 0x13BB DUP3 PUSH2 0x9C0 JUMP JUMPDEST SWAP2 POP PUSH32 0xFFFFFFFFFFFFFFFFFFFFFFFFFFFFFFFFFFFFFFFFFFFFFFFFFFFFFFFFFFFFFFFF DUP3 SUB PUSH2 0x13ED JUMPI PUSH2 0x13EC PUSH2 0x1381 JUMP JUMPDEST JUMPDEST PUSH1 0x1 DUP3 ADD SWAP1 POP SWAP2 SWAP1 POP JUMP JUMPDEST PUSH2 0x1401 DUP2 PUSH2 0x9C0 JUMP JUMPDEST DUP3 MSTORE POP POP JUMP JUMPDEST PUSH2 0x1410 DUP2 PUSH2 0xBB0 JUMP JUMPDEST DUP3 MSTORE POP POP JUMP JUMPDEST PUSH1 0x0 PUSH1 0x60 DUP3 ADD SWAP1 POP DUP2 DUP2 SUB PUSH1 0x0 DUP4 ADD MSTORE PUSH2 0x1430 DUP2 DUP7 PUSH2 0xEEF JUMP JUMPDEST SWAP1 POP PUSH2 0x143F PUSH1 0x20 DUP4 ADD DUP6 PUSH2 0x13F8 JUMP JUMPDEST PUSH2 0x144C PUSH1 0x40 DUP4 ADD DUP5 PUSH2 0x1407 JUMP JUMPDEST SWAP5 SWAP4 POP POP POP POP JUMP JUMPDEST PUSH1 0x0 PUSH1 0xE0 DUP3 ADD SWAP1 POP DUP2 DUP2 SUB PUSH1 0x0 DUP4 ADD MSTORE PUSH2 0x146E DUP2 DUP11 PUSH2 0xEEF JUMP JUMPDEST SWAP1 POP PUSH2 0x147D PUSH1 0x20 DUP4 ADD DUP10 PUSH2 0x13F8 JUMP JUMPDEST DUP2 DUP2 SUB PUSH1 0x40 DUP4 ADD MSTORE PUSH2 0x148F DUP2 DUP9 PUSH2 0xEEF JUMP JUMPDEST SWAP1 POP DUP2 DUP2 SUB PUSH1 0x60 DUP4 ADD MSTORE PUSH2 0x14A3 DUP2 DUP8 PUSH2 0xEEF JUMP JUMPDEST SWAP1 POP PUSH2 0x14B2 PUSH1 0x80 DUP4 ADD DUP7 PUSH2 0x13F8 JUMP JUMPDEST PUSH2 0x14BF PUSH1 0xA0 DUP4 ADD DUP6 PUSH2 0x13F8 JUMP JUMPDEST DUP2 DUP2 SUB PUSH1 0xC0 DUP4 ADD MSTORE PUSH2 0x14D1 DUP2 DUP5 PUSH2 0xDF4 JUMP JUMPDEST SWAP1 POP SWAP9 SWAP8 POP POP POP POP POP POP POP POP JUMP INVALID LOG2 PUSH5 0x6970667358 0x22 SLT KECCAK256 DUP15 SWAP1 0xD0 0xE1 0xBB 0xD0 DIV 0xF6 0xF6 SAR 0x2F 0xC2 PUSH22 0x4B34DF69757FC798B61D6634AB162A391A5ABF64736F PUSH13 0x63430008110033000000000000 "},"methodIdentifiers":{"getBlocksNums(string)":"09631822","getPhotosHashes(string)":"f33402c8","regDamage(string,uint256,string,string,uint256,uint256,string[],address,address)":"8581ee39"}}}}}