{"blockchain/contracts/Owners.sol":{"Owners":{"abi":[{"anonymous":false,"inputs":[{"indexed":false,"internalType":"string","name":"vin","type":"string"},{"indexed":false,"internalType":"string","name":"regNum","type":"string"},{"indexed":false,"internalType":"string","name":"owner","type":"string"},{"indexed":false,"internalType":"string","name":"co_owner","type":"string"},{"indexed":false,"internalType":"string","name":"regProvince","type":"string"}],"name":"OwnerChanged","type":"event"},{"inputs":[{"internalType":"string","name":"_vin","type":"string"}],"name":"getBlocksNums","outputs":[{"internalType":"uint256[]","name":"_blocksNums","type":"uint256[]"}],"stateMutability":"view","type":"function"},{"inputs":[{"internalType":"string","name":"_vin","type":"string"}],"name":"getOwnerInfo","outputs":[{"internalType":"string","name":"_regNum","type":"string"},{"internalType":"string","name":"_owner","type":"string"},{"internalType":"string","name":"_co_owner","type":"string"},{"internalType":"string","name":"_regProvince","type":"string"}],"stateMutability":"view","type":"function"},{"inputs":[{"internalType":"string","name":"_vin","type":"string"},{"internalType":"string","name":"_regNum","type":"string"},{"internalType":"string","name":"_owner","type":"string"},{"internalType":"string","name":"_co_owner","type":"string"},{"internalType":"string","name":"_regProvince","type":"string"},{"internalType":"address","name":"_vehiclesContract","type":"address"}],"name":"setOwnerInfo","outputs":[],"stateMutability":"nonpayable","type":"function"}],"evm":{"bytecode":{"linkReferences":{},"object":"608060405234801561001057600080fd5b506111e8806100206000396000f3fe608060405234801561001057600080fd5b50600436106100415760003560e01c80630963182214610046578063c9fda37314610076578063ccea176714610092575b600080fd5b610060600480360381019061005b9190610935565b6100c5565b60405161006d9190610a46565b60405180910390f35b610090600480360381019061008b9190610ac6565b61013e565b005b6100ac60048036038101906100a79190610935565b6103e9565b6040516100bc9493929190610c5e565b60405180910390f35b60606000826040516100d79190610cfb565b908152602001604051809103902060050180548060200260200160405190810160405280929190818152602001828054801561013257602002820191906000526020600020905b81548152602001906001019080831161011e575b50505050509050919050565b6000819050600115158173ffffffffffffffffffffffffffffffffffffffff166330f2c560896040518263ffffffff1660e01b81526004016101809190610d12565b602060405180830381865afa15801561019d573d6000803e3d6000fd5b505050506040513d601f19601f820116820180604052508101906101c19190610d6c565b151514876040516020016101d59190610e31565b60405160208183030381529060405290610225576040517f08c379a000000000000000000000000000000000000000000000000000000000815260040161021c9190610d12565b60405180910390fd5b50600080886040516102379190610cfb565b908152602001604051809103902060050190508043908060018154018082558091505060019003906000526020600020016000909190919091505560006040518060c001604052808a8152602001898152602001888152602001878152602001868152602001838054806020026020016040519081016040528092919081815260200182805480156102e857602002820191906000526020600020905b8154815260200190600101908083116102d4575b505050505081525090508060008a6040516103039190610cfb565b90815260200160405180910390206000820151816000019081610326919061106a565b50602082015181600101908161033c919061106a565b506040820151816002019081610352919061106a565b506060820151816003019081610368919061106a565b50608082015181600401908161037e919061106a565b5060a082015181600501908051906020019061039b929190610771565b509050507f17807fdc5350d77824b5b363fc60d758a617d249e12cbe7e57f694c21a2fbf1b89898989896040516103d695949392919061113c565b60405180910390a1505050505050505050565b606080606080600080866040516104009190610cfb565b90815260200160405180910390206040518060c001604052908160008201805461042990610e8d565b80601f016020809104026020016040519081016040528092919081815260200182805461045590610e8d565b80156104a25780601f10610477576101008083540402835291602001916104a2565b820191906000526020600020905b81548152906001019060200180831161048557829003601f168201915b505050505081526020016001820180546104bb90610e8d565b80601f01602080910402602001604051908101604052809291908181526020018280546104e790610e8d565b80156105345780601f1061050957610100808354040283529160200191610534565b820191906000526020600020905b81548152906001019060200180831161051757829003601f168201915b5050505050815260200160028201805461054d90610e8d565b80601f016020809104026020016040519081016040528092919081815260200182805461057990610e8d565b80156105c65780601f1061059b576101008083540402835291602001916105c6565b820191906000526020600020905b8154815290600101906020018083116105a957829003601f168201915b505050505081526020016003820180546105df90610e8d565b80601f016020809104026020016040519081016040528092919081815260200182805461060b90610e8d565b80156106585780601f1061062d57610100808354040283529160200191610658565b820191906000526020600020905b81548152906001019060200180831161063b57829003601f168201915b5050505050815260200160048201805461067190610e8d565b80601f016020809104026020016040519081016040528092919081815260200182805461069d90610e8d565b80156106ea5780601f106106bf576101008083540402835291602001916106ea565b820191906000526020600020905b8154815290600101906020018083116106cd57829003601f168201915b505050505081526020016005820180548060200260200160405190810160405280929190818152602001828054801561074257602002820191906000526020600020905b81548152602001906001019080831161072e575b505050505081525050905080602001518160400151826060015183608001519450945094509450509193509193565b8280548282559060005260206000209081019282156107ad579160200282015b828111156107ac578251825591602001919060010190610791565b5b5090506107ba91906107be565b5090565b5b808211156107d75760008160009055506001016107bf565b5090565b6000604051905090565b600080fd5b600080fd5b600080fd5b600080fd5b6000601f19601f8301169050919050565b7f4e487b7100000000000000000000000000000000000000000000000000000000600052604160045260246000fd5b610842826107f9565b810181811067ffffffffffffffff821117156108615761086061080a565b5b80604052505050565b60006108746107db565b90506108808282610839565b919050565b600067ffffffffffffffff8211156108a05761089f61080a565b5b6108a9826107f9565b9050602081019050919050565b82818337600083830152505050565b60006108d86108d384610885565b61086a565b9050828152602081018484840111156108f4576108f36107f4565b5b6108ff8482856108b6565b509392505050565b600082601f83011261091c5761091b6107ef565b5b813561092c8482602086016108c5565b91505092915050565b60006020828403121561094b5761094a6107e5565b5b600082013567ffffffffffffffff811115610969576109686107ea565b5b61097584828501610907565b91505092915050565b600081519050919050565b600082825260208201905092915050565b6000819050602082019050919050565b6000819050919050565b6109bd816109aa565b82525050565b60006109cf83836109b4565b60208301905092915050565b6000602082019050919050565b60006109f38261097e565b6109fd8185610989565b9350610a088361099a565b8060005b83811015610a39578151610a2088826109c3565b9750610a2b836109db565b925050600181019050610a0c565b5085935050505092915050565b60006020820190508181036000830152610a6081846109e8565b905092915050565b600073ffffffffffffffffffffffffffffffffffffffff82169050919050565b6000610a9382610a68565b9050919050565b610aa381610a88565b8114610aae57600080fd5b50565b600081359050610ac081610a9a565b92915050565b60008060008060008060c08789031215610ae357610ae26107e5565b5b600087013567ffffffffffffffff811115610b0157610b006107ea565b5b610b0d89828a01610907565b965050602087013567ffffffffffffffff811115610b2e57610b2d6107ea565b5b610b3a89828a01610907565b955050604087013567ffffffffffffffff811115610b5b57610b5a6107ea565b5b610b6789828a01610907565b945050606087013567ffffffffffffffff811115610b8857610b876107ea565b5b610b9489828a01610907565b935050608087013567ffffffffffffffff811115610bb557610bb46107ea565b5b610bc189828a01610907565b92505060a0610bd289828a01610ab1565b9150509295509295509295565b600081519050919050565b600082825260208201905092915050565b60005b83811015610c19578082015181840152602081019050610bfe565b60008484015250505050565b6000610c3082610bdf565b610c3a8185610bea565b9350610c4a818560208601610bfb565b610c53816107f9565b840191505092915050565b60006080820190508181036000830152610c788187610c25565b90508181036020830152610c8c8186610c25565b90508181036040830152610ca08185610c25565b90508181036060830152610cb48184610c25565b905095945050505050565b600081905092915050565b6000610cd582610bdf565b610cdf8185610cbf565b9350610cef818560208601610bfb565b80840191505092915050565b6000610d078284610cca565b915081905092915050565b60006020820190508181036000830152610d2c8184610c25565b905092915050565b60008115159050919050565b610d4981610d34565b8114610d5457600080fd5b50565b600081519050610d6681610d40565b92915050565b600060208284031215610d8257610d816107e5565b5b6000610d9084828501610d57565b91505092915050565b7f56656869636c6520000000000000000000000000000000000000000000000000600082015250565b6000610dcf600883610cbf565b9150610dda82610d99565b600882019050919050565b7f206e6f7420666f756e6421000000000000000000000000000000000000000000600082015250565b6000610e1b600b83610cbf565b9150610e2682610de5565b600b82019050919050565b6000610e3c82610dc2565b9150610e488284610cca565b9150610e5382610e0e565b915081905092915050565b7f4e487b7100000000000000000000000000000000000000000000000000000000600052602260045260246000fd5b60006002820490506001821680610ea557607f821691505b602082108103610eb857610eb7610e5e565b5b50919050565b60008190508160005260206000209050919050565b60006020601f8301049050919050565b600082821b905092915050565b600060088302610f207fffffffffffffffffffffffffffffffffffffffffffffffffffffffffffffffff82610ee3565b610f2a8683610ee3565b95508019841693508086168417925050509392505050565b6000819050919050565b6000610f67610f62610f5d846109aa565b610f42565b6109aa565b9050919050565b6000819050919050565b610f8183610f4c565b610f95610f8d82610f6e565b848454610ef0565b825550505050565b600090565b610faa610f9d565b610fb5818484610f78565b505050565b5b81811015610fd957610fce600082610fa2565b600181019050610fbb565b5050565b601f82111561101e57610fef81610ebe565b610ff884610ed3565b81016020851015611007578190505b61101b61101385610ed3565b830182610fba565b50505b505050565b600082821c905092915050565b600061104160001984600802611023565b1980831691505092915050565b600061105a8383611030565b9150826002028217905092915050565b61107382610bdf565b67ffffffffffffffff81111561108c5761108b61080a565b5b6110968254610e8d565b6110a1828285610fdd565b600060209050601f8311600181146110d457600084156110c2578287015190505b6110cc858261104e565b865550611134565b601f1984166110e286610ebe565b60005b8281101561110a578489015182556001820191506020850194506020810190506110e5565b868310156111275784890151611123601f891682611030565b8355505b6001600288020188555050505b505050505050565b600060a08201905081810360008301526111568188610c25565b9050818103602083015261116a8187610c25565b9050818103604083015261117e8186610c25565b905081810360608301526111928185610c25565b905081810360808301526111a68184610c25565b9050969550505050505056fea26469706673582212206b0da151146f9cf8849c0fee01c5d19f50bef116e2439263733290ac7b275d5564736f6c63430008110033","opcodes":"PUSH1 0x80 PUSH1 0x40 MSTORE CALLVALUE DUP1 ISZERO PUSH2 0x10 JUMPI PUSH1 0x0 DUP1 REVERT JUMPDEST POP PUSH2 0x11E8 DUP1 PUSH2 0x20 PUSH1 0x0 CODECOPY PUSH1 0x0 RETURN INVALID PUSH1 0x80 PUSH1 0x40 MSTORE CALLVALUE DUP1 ISZERO PUSH2 0x10 JUMPI PUSH1 0x0 DUP1 REVERT JUMPDEST POP PUSH1 0x4 CALLDATASIZE LT PUSH2 0x41 JUMPI PUSH1 0x0 CALLDATALOAD PUSH1 0xE0 SHR DUP1 PUSH4 0x9631822 EQ PUSH2 0x46 JUMPI DUP1 PUSH4 0xC9FDA373 EQ PUSH2 0x76 JUMPI DUP1 PUSH4 0xCCEA1767 EQ PUSH2 0x92 JUMPI JUMPDEST PUSH1 0x0 DUP1 REVERT JUMPDEST PUSH2 0x60 PUSH1 0x4 DUP1 CALLDATASIZE SUB DUP2 ADD SWAP1 PUSH2 0x5B SWAP2 SWAP1 PUSH2 0x935 JUMP JUMPDEST PUSH2 0xC5 JUMP JUMPDEST PUSH1 0x40 MLOAD PUSH2 0x6D SWAP2 SWAP1 PUSH2 0xA46 JUMP JUMPDEST PUSH1 0x40 MLOAD DUP1 SWAP2 SUB SWAP1 RETURN JUMPDEST PUSH2 0x90 PUSH1 0x4 DUP1 CALLDATASIZE SUB DUP2 ADD SWAP1 PUSH2 0x8B SWAP2 SWAP1 PUSH2 0xAC6 JUMP JUMPDEST PUSH2 0x13E JUMP JUMPDEST STOP JUMPDEST PUSH2 0xAC PUSH1 0x4 DUP1 CALLDATASIZE SUB DUP2 ADD SWAP1 PUSH2 0xA7 SWAP2 SWAP1 PUSH2 0x935 JUMP JUMPDEST PUSH2 0x3E9 JUMP JUMPDEST PUSH1 0x40 MLOAD PUSH2 0xBC SWAP5 SWAP4 SWAP3 SWAP2 SWAP1 PUSH2 0xC5E JUMP JUMPDEST PUSH1 0x40 MLOAD DUP1 SWAP2 SUB SWAP1 RETURN JUMPDEST PUSH1 0x60 PUSH1 0x0 DUP3 PUSH1 0x40 MLOAD PUSH2 0xD7 SWAP2 SWAP1 PUSH2 0xCFB JUMP JUMPDEST SWAP1 DUP2 MSTORE PUSH1 0x20 ADD PUSH1 0x40 MLOAD DUP1 SWAP2 SUB SWAP1 KECCAK256 PUSH1 0x5 ADD DUP1 SLOAD DUP1 PUSH1 0x20 MUL PUSH1 0x20 ADD PUSH1 0x40 MLOAD SWAP1 DUP2 ADD PUSH1 0x40 MSTORE DUP1 SWAP3 SWAP2 SWAP1 DUP2 DUP2 MSTORE PUSH1 0x20 ADD DUP3 DUP1 SLOAD DUP1 ISZERO PUSH2 0x132 JUMPI PUSH1 0x20 MUL DUP3 ADD SWAP2 SWAP1 PUSH1 0x0 MSTORE PUSH1 0x20 PUSH1 0x0 KECCAK256 SWAP1 JUMPDEST DUP2 SLOAD DUP2 MSTORE PUSH1 0x20 ADD SWAP1 PUSH1 0x1 ADD SWAP1 DUP1 DUP4 GT PUSH2 0x11E JUMPI JUMPDEST POP POP POP POP POP SWAP1 POP SWAP2 SWAP1 POP JUMP JUMPDEST PUSH1 0x0 DUP2 SWAP1 POP PUSH1 0x1 ISZERO ISZERO DUP2 PUSH20 0xFFFFFFFFFFFFFFFFFFFFFFFFFFFFFFFFFFFFFFFF AND PUSH4 0x30F2C560 DUP10 PUSH1 0x40 MLOAD DUP3 PUSH4 0xFFFFFFFF AND PUSH1 0xE0 SHL DUP2 MSTORE PUSH1 0x4 ADD PUSH2 0x180 SWAP2 SWAP1 PUSH2 0xD12 JUMP JUMPDEST PUSH1 0x20 PUSH1 0x40 MLOAD DUP1 DUP4 SUB DUP2 DUP7 GAS STATICCALL ISZERO DUP1 ISZERO PUSH2 0x19D JUMPI RETURNDATASIZE PUSH1 0x0 DUP1 RETURNDATACOPY RETURNDATASIZE PUSH1 0x0 REVERT JUMPDEST POP POP POP POP PUSH1 0x40 MLOAD RETURNDATASIZE PUSH1 0x1F NOT PUSH1 0x1F DUP3 ADD AND DUP3 ADD DUP1 PUSH1 0x40 MSTORE POP DUP2 ADD SWAP1 PUSH2 0x1C1 SWAP2 SWAP1 PUSH2 0xD6C JUMP JUMPDEST ISZERO ISZERO EQ DUP8 PUSH1 0x40 MLOAD PUSH1 0x20 ADD PUSH2 0x1D5 SWAP2 SWAP1 PUSH2 0xE31 JUMP JUMPDEST PUSH1 0x40 MLOAD PUSH1 0x20 DUP2 DUP4 SUB SUB DUP2 MSTORE SWAP1 PUSH1 0x40 MSTORE SWAP1 PUSH2 0x225 JUMPI PUSH1 0x40 MLOAD PUSH32 0x8C379A000000000000000000000000000000000000000000000000000000000 DUP2 MSTORE PUSH1 0x4 ADD PUSH2 0x21C SWAP2 SWAP1 PUSH2 0xD12 JUMP JUMPDEST PUSH1 0x40 MLOAD DUP1 SWAP2 SUB SWAP1 REVERT JUMPDEST POP PUSH1 0x0 DUP1 DUP9 PUSH1 0x40 MLOAD PUSH2 0x237 SWAP2 SWAP1 PUSH2 0xCFB JUMP JUMPDEST SWAP1 DUP2 MSTORE PUSH1 0x20 ADD PUSH1 0x40 MLOAD DUP1 SWAP2 SUB SWAP1 KECCAK256 PUSH1 0x5 ADD SWAP1 POP DUP1 NUMBER SWAP1 DUP1 PUSH1 0x1 DUP2 SLOAD ADD DUP1 DUP3 SSTORE DUP1 SWAP2 POP POP PUSH1 0x1 SWAP1 SUB SWAP1 PUSH1 0x0 MSTORE PUSH1 0x20 PUSH1 0x0 KECCAK256 ADD PUSH1 0x0 SWAP1 SWAP2 SWAP1 SWAP2 SWAP1 SWAP2 POP SSTORE PUSH1 0x0 PUSH1 0x40 MLOAD DUP1 PUSH1 0xC0 ADD PUSH1 0x40 MSTORE DUP1 DUP11 DUP2 MSTORE PUSH1 0x20 ADD DUP10 DUP2 MSTORE PUSH1 0x20 ADD DUP9 DUP2 MSTORE PUSH1 0x20 ADD DUP8 DUP2 MSTORE PUSH1 0x20 ADD DUP7 DUP2 MSTORE PUSH1 0x20 ADD DUP4 DUP1 SLOAD DUP1 PUSH1 0x20 MUL PUSH1 0x20 ADD PUSH1 0x40 MLOAD SWAP1 DUP2 ADD PUSH1 0x40 MSTORE DUP1 SWAP3 SWAP2 SWAP1 DUP2 DUP2 MSTORE PUSH1 0x20 ADD DUP3 DUP1 SLOAD DUP1 ISZERO PUSH2 0x2E8 JUMPI PUSH1 0x20 MUL DUP3 ADD SWAP2 SWAP1 PUSH1 0x0 MSTORE PUSH1 0x20 PUSH1 0x0 KECCAK256 SWAP1 JUMPDEST DUP2 SLOAD DUP2 MSTORE PUSH1 0x20 ADD SWAP1 PUSH1 0x1 ADD SWAP1 DUP1 DUP4 GT PUSH2 0x2D4 JUMPI JUMPDEST POP POP POP POP POP DUP2 MSTORE POP SWAP1 POP DUP1 PUSH1 0x0 DUP11 PUSH1 0x40 MLOAD PUSH2 0x303 SWAP2 SWAP1 PUSH2 0xCFB JUMP JUMPDEST SWAP1 DUP2 MSTORE PUSH1 0x20 ADD PUSH1 0x40 MLOAD DUP1 SWAP2 SUB SWAP1 KECCAK256 PUSH1 0x0 DUP3 ADD MLOAD DUP2 PUSH1 0x0 ADD SWAP1 DUP2 PUSH2 0x326 SWAP2 SWAP1 PUSH2 0x106A JUMP JUMPDEST POP PUSH1 0x20 DUP3 ADD MLOAD DUP2 PUSH1 0x1 ADD SWAP1 DUP2 PUSH2 0x33C SWAP2 SWAP1 PUSH2 0x106A JUMP JUMPDEST POP PUSH1 0x40 DUP3 ADD MLOAD DUP2 PUSH1 0x2 ADD SWAP1 DUP2 PUSH2 0x352 SWAP2 SWAP1 PUSH2 0x106A JUMP JUMPDEST POP PUSH1 0x60 DUP3 ADD MLOAD DUP2 PUSH1 0x3 ADD SWAP1 DUP2 PUSH2 0x368 SWAP2 SWAP1 PUSH2 0x106A JUMP JUMPDEST POP PUSH1 0x80 DUP3 ADD MLOAD DUP2 PUSH1 0x4 ADD SWAP1 DUP2 PUSH2 0x37E SWAP2 SWAP1 PUSH2 0x106A JUMP JUMPDEST POP PUSH1 0xA0 DUP3 ADD MLOAD DUP2 PUSH1 0x5 ADD SWAP1 DUP1 MLOAD SWAP1 PUSH1 0x20 ADD SWAP1 PUSH2 0x39B SWAP3 SWAP2 SWAP1 PUSH2 0x771 JUMP JUMPDEST POP SWAP1 POP POP PUSH32 0x17807FDC5350D77824B5B363FC60D758A617D249E12CBE7E57F694C21A2FBF1B DUP10 DUP10 DUP10 DUP10 DUP10 PUSH1 0x40 MLOAD PUSH2 0x3D6 SWAP6 SWAP5 SWAP4 SWAP3 SWAP2 SWAP1 PUSH2 0x113C JUMP JUMPDEST PUSH1 0x40 MLOAD DUP1 SWAP2 SUB SWAP1 LOG1 POP POP POP POP POP POP POP POP POP JUMP JUMPDEST PUSH1 0x60 DUP1 PUSH1 0x60 DUP1 PUSH1 0x0 DUP1 DUP7 PUSH1 0x40 MLOAD PUSH2 0x400 SWAP2 SWAP1 PUSH2 0xCFB JUMP JUMPDEST SWAP1 DUP2 MSTORE PUSH1 0x20 ADD PUSH1 0x40 MLOAD DUP1 SWAP2 SUB SWAP1 KECCAK256 PUSH1 0x40 MLOAD DUP1 PUSH1 0xC0 ADD PUSH1 0x40 MSTORE SWAP1 DUP2 PUSH1 0x0 DUP3 ADD DUP1 SLOAD PUSH2 0x429 SWAP1 PUSH2 0xE8D JUMP JUMPDEST DUP1 PUSH1 0x1F ADD PUSH1 0x20 DUP1 SWAP2 DIV MUL PUSH1 0x20 ADD PUSH1 0x40 MLOAD SWAP1 DUP2 ADD PUSH1 0x40 MSTORE DUP1 SWAP3 SWAP2 SWAP1 DUP2 DUP2 MSTORE PUSH1 0x20 ADD DUP3 DUP1 SLOAD PUSH2 0x455 SWAP1 PUSH2 0xE8D JUMP JUMPDEST DUP1 ISZERO PUSH2 0x4A2 JUMPI DUP1 PUSH1 0x1F LT PUSH2 0x477 JUMPI PUSH2 0x100 DUP1 DUP4 SLOAD DIV MUL DUP4 MSTORE SWAP2 PUSH1 0x20 ADD SWAP2 PUSH2 0x4A2 JUMP JUMPDEST DUP3 ADD SWAP2 SWAP1 PUSH1 0x0 MSTORE PUSH1 0x20 PUSH1 0x0 KECCAK256 SWAP1 JUMPDEST DUP2 SLOAD DUP2 MSTORE SWAP1 PUSH1 0x1 ADD SWAP1 PUSH1 0x20 ADD DUP1 DUP4 GT PUSH2 0x485 JUMPI DUP3 SWAP1 SUB PUSH1 0x1F AND DUP3 ADD SWAP2 JUMPDEST POP POP POP POP POP DUP2 MSTORE PUSH1 0x20 ADD PUSH1 0x1 DUP3 ADD DUP1 SLOAD PUSH2 0x4BB SWAP1 PUSH2 0xE8D JUMP JUMPDEST DUP1 PUSH1 0x1F ADD PUSH1 0x20 DUP1 SWAP2 DIV MUL PUSH1 0x20 ADD PUSH1 0x40 MLOAD SWAP1 DUP2 ADD PUSH1 0x40 MSTORE DUP1 SWAP3 SWAP2 SWAP1 DUP2 DUP2 MSTORE PUSH1 0x20 ADD DUP3 DUP1 SLOAD PUSH2 0x4E7 SWAP1 PUSH2 0xE8D JUMP JUMPDEST DUP1 ISZERO PUSH2 0x534 JUMPI DUP1 PUSH1 0x1F LT PUSH2 0x509 JUMPI PUSH2 0x100 DUP1 DUP4 SLOAD DIV MUL DUP4 MSTORE SWAP2 PUSH1 0x20 ADD SWAP2 PUSH2 0x534 JUMP JUMPDEST DUP3 ADD SWAP2 SWAP1 PUSH1 0x0 MSTORE PUSH1 0x20 PUSH1 0x0 KECCAK256 SWAP1 JUMPDEST DUP2 SLOAD DUP2 MSTORE SWAP1 PUSH1 0x1 ADD SWAP1 PUSH1 0x20 ADD DUP1 DUP4 GT PUSH2 0x517 JUMPI DUP3 SWAP1 SUB PUSH1 0x1F AND DUP3 ADD SWAP2 JUMPDEST POP POP POP POP POP DUP2 MSTORE PUSH1 0x20 ADD PUSH1 0x2 DUP3 ADD DUP1 SLOAD PUSH2 0x54D SWAP1 PUSH2 0xE8D JUMP JUMPDEST DUP1 PUSH1 0x1F ADD PUSH1 0x20 DUP1 SWAP2 DIV MUL PUSH1 0x20 ADD PUSH1 0x40 MLOAD SWAP1 DUP2 ADD PUSH1 0x40 MSTORE DUP1 SWAP3 SWAP2 SWAP1 DUP2 DUP2 MSTORE PUSH1 0x20 ADD DUP3 DUP1 SLOAD PUSH2 0x579 SWAP1 PUSH2 0xE8D JUMP JUMPDEST DUP1 ISZERO PUSH2 0x5C6 JUMPI DUP1 PUSH1 0x1F LT PUSH2 0x59B JUMPI PUSH2 0x100 DUP1 DUP4 SLOAD DIV MUL DUP4 MSTORE SWAP2 PUSH1 0x20 ADD SWAP2 PUSH2 0x5C6 JUMP JUMPDEST DUP3 ADD SWAP2 SWAP1 PUSH1 0x0 MSTORE PUSH1 0x20 PUSH1 0x0 KECCAK256 SWAP1 JUMPDEST DUP2 SLOAD DUP2 MSTORE SWAP1 PUSH1 0x1 ADD SWAP1 PUSH1 0x20 ADD DUP1 DUP4 GT PUSH2 0x5A9 JUMPI DUP3 SWAP1 SUB PUSH1 0x1F AND DUP3 ADD SWAP2 JUMPDEST POP POP POP POP POP DUP2 MSTORE PUSH1 0x20 ADD PUSH1 0x3 DUP3 ADD DUP1 SLOAD PUSH2 0x5DF SWAP1 PUSH2 0xE8D JUMP JUMPDEST DUP1 PUSH1 0x1F ADD PUSH1 0x20 DUP1 SWAP2 DIV MUL PUSH1 0x20 ADD PUSH1 0x40 MLOAD SWAP1 DUP2 ADD PUSH1 0x40 MSTORE DUP1 SWAP3 SWAP2 SWAP1 DUP2 DUP2 MSTORE PUSH1 0x20 ADD DUP3 DUP1 SLOAD PUSH2 0x60B SWAP1 PUSH2 0xE8D JUMP JUMPDEST DUP1 ISZERO PUSH2 0x658 JUMPI DUP1 PUSH1 0x1F LT PUSH2 0x62D JUMPI PUSH2 0x100 DUP1 DUP4 SLOAD DIV MUL DUP4 MSTORE SWAP2 PUSH1 0x20 ADD SWAP2 PUSH2 0x658 JUMP JUMPDEST DUP3 ADD SWAP2 SWAP1 PUSH1 0x0 MSTORE PUSH1 0x20 PUSH1 0x0 KECCAK256 SWAP1 JUMPDEST DUP2 SLOAD DUP2 MSTORE SWAP1 PUSH1 0x1 ADD SWAP1 PUSH1 0x20 ADD DUP1 DUP4 GT PUSH2 0x63B JUMPI DUP3 SWAP1 SUB PUSH1 0x1F AND DUP3 ADD SWAP2 JUMPDEST POP POP POP POP POP DUP2 MSTORE PUSH1 0x20 ADD PUSH1 0x4 DUP3 ADD DUP1 SLOAD PUSH2 0x671 SWAP1 PUSH2 0xE8D JUMP JUMPDEST DUP1 PUSH1 0x1F ADD PUSH1 0x20 DUP1 SWAP2 DIV MUL PUSH1 0x20 ADD PUSH1 0x40 MLOAD SWAP1 DUP2 ADD PUSH1 0x40 MSTORE DUP1 SWAP3 SWAP2 SWAP1 DUP2 DUP2 MSTORE PUSH1 0x20 ADD DUP3 DUP1 SLOAD PUSH2 0x69D SWAP1 PUSH2 0xE8D JUMP JUMPDEST DUP1 ISZERO PUSH2 0x6EA JUMPI DUP1 PUSH1 0x1F LT PUSH2 0x6BF JUMPI PUSH2 0x100 DUP1 DUP4 SLOAD DIV MUL DUP4 MSTORE SWAP2 PUSH1 0x20 ADD SWAP2 PUSH2 0x6EA JUMP JUMPDEST DUP3 ADD SWAP2 SWAP1 PUSH1 0x0 MSTORE PUSH1 0x20 PUSH1 0x0 KECCAK256 SWAP1 JUMPDEST DUP2 SLOAD DUP2 MSTORE SWAP1 PUSH1 0x1 ADD SWAP1 PUSH1 0x20 ADD DUP1 DUP4 GT PUSH2 0x6CD JUMPI DUP3 SWAP1 SUB PUSH1 0x1F AND DUP3 ADD SWAP2 JUMPDEST POP POP POP POP POP DUP2 MSTORE PUSH1 0x20 ADD PUSH1 0x5 DUP3 ADD DUP1 SLOAD DUP1 PUSH1 0x20 MUL PUSH1 0x20 ADD PUSH1 0x40 MLOAD SWAP1 DUP2 ADD PUSH1 0x40 MSTORE DUP1 SWAP3 SWAP2 SWAP1 DUP2 DUP2 MSTORE PUSH1 0x20 ADD DUP3 DUP1 SLOAD DUP1 ISZERO PUSH2 0x742 JUMPI PUSH1 0x20 MUL DUP3 ADD SWAP2 SWAP1 PUSH1 0x0 MSTORE PUSH1 0x20 PUSH1 0x0 KECCAK256 SWAP1 JUMPDEST DUP2 SLOAD DUP2 MSTORE PUSH1 0x20 ADD SWAP1 PUSH1 0x1 ADD SWAP1 DUP1 DUP4 GT PUSH2 0x72E JUMPI JUMPDEST POP POP POP POP POP DUP2 MSTORE POP POP SWAP1 POP DUP1 PUSH1 0x20 ADD MLOAD DUP2 PUSH1 0x40 ADD MLOAD DUP3 PUSH1 0x60 ADD MLOAD DUP4 PUSH1 0x80 ADD MLOAD SWAP5 POP SWAP5 POP SWAP5 POP SWAP5 POP POP SWAP2 SWAP4 POP SWAP2 SWAP4 JUMP JUMPDEST DUP3 DUP1 SLOAD DUP3 DUP3 SSTORE SWAP1 PUSH1 0x0 MSTORE PUSH1 0x20 PUSH1 0x0 KECCAK256 SWAP1 DUP2 ADD SWAP3 DUP3 ISZERO PUSH2 0x7AD JUMPI SWAP2 PUSH1 0x20 MUL DUP3 ADD JUMPDEST DUP3 DUP2 GT ISZERO PUSH2 0x7AC JUMPI DUP3 MLOAD DUP3 SSTORE SWAP2 PUSH1 0x20 ADD SWAP2 SWAP1 PUSH1 0x1 ADD SWAP1 PUSH2 0x791 JUMP JUMPDEST JUMPDEST POP SWAP1 POP PUSH2 0x7BA SWAP2 SWAP1 PUSH2 0x7BE JUMP JUMPDEST POP SWAP1 JUMP JUMPDEST JUMPDEST DUP1 DUP3 GT ISZERO PUSH2 0x7D7 JUMPI PUSH1 0x0 DUP2 PUSH1 0x0 SWAP1 SSTORE POP PUSH1 0x1 ADD PUSH2 0x7BF JUMP JUMPDEST POP SWAP1 JUMP JUMPDEST PUSH1 0x0 PUSH1 0x40 MLOAD SWAP1 POP SWAP1 JUMP JUMPDEST PUSH1 0x0 DUP1 REVERT JUMPDEST PUSH1 0x0 DUP1 REVERT JUMPDEST PUSH1 0x0 DUP1 REVERT JUMPDEST PUSH1 0x0 DUP1 REVERT JUMPDEST PUSH1 0x0 PUSH1 0x1F NOT PUSH1 0x1F DUP4 ADD AND SWAP1 POP SWAP2 SWAP1 POP JUMP JUMPDEST PUSH32 0x4E487B7100000000000000000000000000000000000000000000000000000000 PUSH1 0x0 MSTORE PUSH1 0x41 PUSH1 0x4 MSTORE PUSH1 0x24 PUSH1 0x0 REVERT JUMPDEST PUSH2 0x842 DUP3 PUSH2 0x7F9 JUMP JUMPDEST DUP2 ADD DUP2 DUP2 LT PUSH8 0xFFFFFFFFFFFFFFFF DUP3 GT OR ISZERO PUSH2 0x861 JUMPI PUSH2 0x860 PUSH2 0x80A JUMP JUMPDEST JUMPDEST DUP1 PUSH1 0x40 MSTORE POP POP POP JUMP JUMPDEST PUSH1 0x0 PUSH2 0x874 PUSH2 0x7DB JUMP JUMPDEST SWAP1 POP PUSH2 0x880 DUP3 DUP3 PUSH2 0x839 JUMP JUMPDEST SWAP2 SWAP1 POP JUMP JUMPDEST PUSH1 0x0 PUSH8 0xFFFFFFFFFFFFFFFF DUP3 GT ISZERO PUSH2 0x8A0 JUMPI PUSH2 0x89F PUSH2 0x80A JUMP JUMPDEST JUMPDEST PUSH2 0x8A9 DUP3 PUSH2 0x7F9 JUMP JUMPDEST SWAP1 POP PUSH1 0x20 DUP2 ADD SWAP1 POP SWAP2 SWAP1 POP JUMP JUMPDEST DUP3 DUP2 DUP4 CALLDATACOPY PUSH1 0x0 DUP4 DUP4 ADD MSTORE POP POP POP JUMP JUMPDEST PUSH1 0x0 PUSH2 0x8D8 PUSH2 0x8D3 DUP5 PUSH2 0x885 JUMP JUMPDEST PUSH2 0x86A JUMP JUMPDEST SWAP1 POP DUP3 DUP2 MSTORE PUSH1 0x20 DUP2 ADD DUP5 DUP5 DUP5 ADD GT ISZERO PUSH2 0x8F4 JUMPI PUSH2 0x8F3 PUSH2 0x7F4 JUMP JUMPDEST JUMPDEST PUSH2 0x8FF DUP5 DUP3 DUP6 PUSH2 0x8B6 JUMP JUMPDEST POP SWAP4 SWAP3 POP POP POP JUMP JUMPDEST PUSH1 0x0 DUP3 PUSH1 0x1F DUP4 ADD SLT PUSH2 0x91C JUMPI PUSH2 0x91B PUSH2 0x7EF JUMP JUMPDEST JUMPDEST DUP2 CALLDATALOAD PUSH2 0x92C DUP5 DUP3 PUSH1 0x20 DUP7 ADD PUSH2 0x8C5 JUMP JUMPDEST SWAP2 POP POP SWAP3 SWAP2 POP POP JUMP JUMPDEST PUSH1 0x0 PUSH1 0x20 DUP3 DUP5 SUB SLT ISZERO PUSH2 0x94B JUMPI PUSH2 0x94A PUSH2 0x7E5 JUMP JUMPDEST JUMPDEST PUSH1 0x0 DUP3 ADD CALLDATALOAD PUSH8 0xFFFFFFFFFFFFFFFF DUP2 GT ISZERO PUSH2 0x969 JUMPI PUSH2 0x968 PUSH2 0x7EA JUMP JUMPDEST JUMPDEST PUSH2 0x975 DUP5 DUP3 DUP6 ADD PUSH2 0x907 JUMP JUMPDEST SWAP2 POP POP SWAP3 SWAP2 POP POP JUMP JUMPDEST PUSH1 0x0 DUP2 MLOAD SWAP1 POP SWAP2 SWAP1 POP JUMP JUMPDEST PUSH1 0x0 DUP3 DUP3 MSTORE PUSH1 0x20 DUP3 ADD SWAP1 POP SWAP3 SWAP2 POP POP JUMP JUMPDEST PUSH1 0x0 DUP2 SWAP1 POP PUSH1 0x20 DUP3 ADD SWAP1 POP SWAP2 SWAP1 POP JUMP JUMPDEST PUSH1 0x0 DUP2 SWAP1 POP SWAP2 SWAP1 POP JUMP JUMPDEST PUSH2 0x9BD DUP2 PUSH2 0x9AA JUMP JUMPDEST DUP3 MSTORE POP POP JUMP JUMPDEST PUSH1 0x0 PUSH2 0x9CF DUP4 DUP4 PUSH2 0x9B4 JUMP JUMPDEST PUSH1 0x20 DUP4 ADD SWAP1 POP SWAP3 SWAP2 POP POP JUMP JUMPDEST PUSH1 0x0 PUSH1 0x20 DUP3 ADD SWAP1 POP SWAP2 SWAP1 POP JUMP JUMPDEST PUSH1 0x0 PUSH2 0x9F3 DUP3 PUSH2 0x97E JUMP JUMPDEST PUSH2 0x9FD DUP2 DUP6 PUSH2 0x989 JUMP JUMPDEST SWAP4 POP PUSH2 0xA08 DUP4 PUSH2 0x99A JUMP JUMPDEST DUP1 PUSH1 0x0 JUMPDEST DUP4 DUP2 LT ISZERO PUSH2 0xA39 JUMPI DUP2 MLOAD PUSH2 0xA20 DUP9 DUP3 PUSH2 0x9C3 JUMP JUMPDEST SWAP8 POP PUSH2 0xA2B DUP4 PUSH2 0x9DB JUMP JUMPDEST SWAP3 POP POP PUSH1 0x1 DUP2 ADD SWAP1 POP PUSH2 0xA0C JUMP JUMPDEST POP DUP6 SWAP4 POP POP POP POP SWAP3 SWAP2 POP POP JUMP JUMPDEST PUSH1 0x0 PUSH1 0x20 DUP3 ADD SWAP1 POP DUP2 DUP2 SUB PUSH1 0x0 DUP4 ADD MSTORE PUSH2 0xA60 DUP2 DUP5 PUSH2 0x9E8 JUMP JUMPDEST SWAP1 POP SWAP3 SWAP2 POP POP JUMP JUMPDEST PUSH1 0x0 PUSH20 0xFFFFFFFFFFFFFFFFFFFFFFFFFFFFFFFFFFFFFFFF DUP3 AND SWAP1 POP SWAP2 SWAP1 POP JUMP JUMPDEST PUSH1 0x0 PUSH2 0xA93 DUP3 PUSH2 0xA68 JUMP JUMPDEST SWAP1 POP SWAP2 SWAP1 POP JUMP JUMPDEST PUSH2 0xAA3 DUP2 PUSH2 0xA88 JUMP JUMPDEST DUP2 EQ PUSH2 0xAAE JUMPI PUSH1 0x0 DUP1 REVERT JUMPDEST POP JUMP JUMPDEST PUSH1 0x0 DUP2 CALLDATALOAD SWAP1 POP PUSH2 0xAC0 DUP2 PUSH2 0xA9A JUMP JUMPDEST SWAP3 SWAP2 POP POP JUMP JUMPDEST PUSH1 0x0 DUP1 PUSH1 0x0 DUP1 PUSH1 0x0 DUP1 PUSH1 0xC0 DUP8 DUP10 SUB SLT ISZERO PUSH2 0xAE3 JUMPI PUSH2 0xAE2 PUSH2 0x7E5 JUMP JUMPDEST JUMPDEST PUSH1 0x0 DUP8 ADD CALLDATALOAD PUSH8 0xFFFFFFFFFFFFFFFF DUP2 GT ISZERO PUSH2 0xB01 JUMPI PUSH2 0xB00 PUSH2 0x7EA JUMP JUMPDEST JUMPDEST PUSH2 0xB0D DUP10 DUP3 DUP11 ADD PUSH2 0x907 JUMP JUMPDEST SWAP7 POP POP PUSH1 0x20 DUP8 ADD CALLDATALOAD PUSH8 0xFFFFFFFFFFFFFFFF DUP2 GT ISZERO PUSH2 0xB2E JUMPI PUSH2 0xB2D PUSH2 0x7EA JUMP JUMPDEST JUMPDEST PUSH2 0xB3A DUP10 DUP3 DUP11 ADD PUSH2 0x907 JUMP JUMPDEST SWAP6 POP POP PUSH1 0x40 DUP8 ADD CALLDATALOAD PUSH8 0xFFFFFFFFFFFFFFFF DUP2 GT ISZERO PUSH2 0xB5B JUMPI PUSH2 0xB5A PUSH2 0x7EA JUMP JUMPDEST JUMPDEST PUSH2 0xB67 DUP10 DUP3 DUP11 ADD PUSH2 0x907 JUMP JUMPDEST SWAP5 POP POP PUSH1 0x60 DUP8 ADD CALLDATALOAD PUSH8 0xFFFFFFFFFFFFFFFF DUP2 GT ISZERO PUSH2 0xB88 JUMPI PUSH2 0xB87 PUSH2 0x7EA JUMP JUMPDEST JUMPDEST PUSH2 0xB94 DUP10 DUP3 DUP11 ADD PUSH2 0x907 JUMP JUMPDEST SWAP4 POP POP PUSH1 0x80 DUP8 ADD CALLDATALOAD PUSH8 0xFFFFFFFFFFFFFFFF DUP2 GT ISZERO PUSH2 0xBB5 JUMPI PUSH2 0xBB4 PUSH2 0x7EA JUMP JUMPDEST JUMPDEST PUSH2 0xBC1 DUP10 DUP3 DUP11 ADD PUSH2 0x907 JUMP JUMPDEST SWAP3 POP POP PUSH1 0xA0 PUSH2 0xBD2 DUP10 DUP3 DUP11 ADD PUSH2 0xAB1 JUMP JUMPDEST SWAP2 POP POP SWAP3 SWAP6 POP SWAP3 SWAP6 POP SWAP3 SWAP6 JUMP JUMPDEST PUSH1 0x0 DUP2 MLOAD SWAP1 POP SWAP2 SWAP1 POP JUMP JUMPDEST PUSH1 0x0 DUP3 DUP3 MSTORE PUSH1 0x20 DUP3 ADD SWAP1 POP SWAP3 SWAP2 POP POP JUMP JUMPDEST PUSH1 0x0 JUMPDEST DUP4 DUP2 LT ISZERO PUSH2 0xC19 JUMPI DUP1 DUP3 ADD MLOAD DUP2 DUP5 ADD MSTORE PUSH1 0x20 DUP2 ADD SWAP1 POP PUSH2 0xBFE JUMP JUMPDEST PUSH1 0x0 DUP5 DUP5 ADD MSTORE POP POP POP POP JUMP JUMPDEST PUSH1 0x0 PUSH2 0xC30 DUP3 PUSH2 0xBDF JUMP JUMPDEST PUSH2 0xC3A DUP2 DUP6 PUSH2 0xBEA JUMP JUMPDEST SWAP4 POP PUSH2 0xC4A DUP2 DUP6 PUSH1 0x20 DUP7 ADD PUSH2 0xBFB JUMP JUMPDEST PUSH2 0xC53 DUP2 PUSH2 0x7F9 JUMP JUMPDEST DUP5 ADD SWAP2 POP POP SWAP3 SWAP2 POP POP JUMP JUMPDEST PUSH1 0x0 PUSH1 0x80 DUP3 ADD SWAP1 POP DUP2 DUP2 SUB PUSH1 0x0 DUP4 ADD MSTORE PUSH2 0xC78 DUP2 DUP8 PUSH2 0xC25 JUMP JUMPDEST SWAP1 POP DUP2 DUP2 SUB PUSH1 0x20 DUP4 ADD MSTORE PUSH2 0xC8C DUP2 DUP7 PUSH2 0xC25 JUMP JUMPDEST SWAP1 POP DUP2 DUP2 SUB PUSH1 0x40 DUP4 ADD MSTORE PUSH2 0xCA0 DUP2 DUP6 PUSH2 0xC25 JUMP JUMPDEST SWAP1 POP DUP2 DUP2 SUB PUSH1 0x60 DUP4 ADD MSTORE PUSH2 0xCB4 DUP2 DUP5 PUSH2 0xC25 JUMP JUMPDEST SWAP1 POP SWAP6 SWAP5 POP POP POP POP POP JUMP JUMPDEST PUSH1 0x0 DUP2 SWAP1 POP SWAP3 SWAP2 POP POP JUMP JUMPDEST PUSH1 0x0 PUSH2 0xCD5 DUP3 PUSH2 0xBDF JUMP JUMPDEST PUSH2 0xCDF DUP2 DUP6 PUSH2 0xCBF JUMP JUMPDEST SWAP4 POP PUSH2 0xCEF DUP2 DUP6 PUSH1 0x20 DUP7 ADD PUSH2 0xBFB JUMP JUMPDEST DUP1 DUP5 ADD SWAP2 POP POP SWAP3 SWAP2 POP POP JUMP JUMPDEST PUSH1 0x0 PUSH2 0xD07 DUP3 DUP5 PUSH2 0xCCA JUMP JUMPDEST SWAP2 POP DUP2 SWAP1 POP SWAP3 SWAP2 POP POP JUMP JUMPDEST PUSH1 0x0 PUSH1 0x20 DUP3 ADD SWAP1 POP DUP2 DUP2 SUB PUSH1 0x0 DUP4 ADD MSTORE PUSH2 0xD2C DUP2 DUP5 PUSH2 0xC25 JUMP JUMPDEST SWAP1 POP SWAP3 SWAP2 POP POP JUMP JUMPDEST PUSH1 0x0 DUP2 ISZERO ISZERO SWAP1 POP SWAP2 SWAP1 POP JUMP JUMPDEST PUSH2 0xD49 DUP2 PUSH2 0xD34 JUMP JUMPDEST DUP2 EQ PUSH2 0xD54 JUMPI PUSH1 0x0 DUP1 REVERT JUMPDEST POP JUMP JUMPDEST PUSH1 0x0 DUP2 MLOAD SWAP1 POP PUSH2 0xD66 DUP2 PUSH2 0xD40 JUMP JUMPDEST SWAP3 SWAP2 POP POP JUMP JUMPDEST PUSH1 0x0 PUSH1 0x20 DUP3 DUP5 SUB SLT ISZERO PUSH2 0xD82 JUMPI PUSH2 0xD81 PUSH2 0x7E5 JUMP JUMPDEST JUMPDEST PUSH1 0x0 PUSH2 0xD90 DUP5 DUP3 DUP6 ADD PUSH2 0xD57 JUMP JUMPDEST SWAP2 POP POP SWAP3 SWAP2 POP POP JUMP JUMPDEST PUSH32 0x56656869636C6520000000000000000000000000000000000000000000000000 PUSH1 0x0 DUP3 ADD MSTORE POP JUMP JUMPDEST PUSH1 0x0 PUSH2 0xDCF PUSH1 0x8 DUP4 PUSH2 0xCBF JUMP JUMPDEST SWAP2 POP PUSH2 0xDDA DUP3 PUSH2 0xD99 JUMP JUMPDEST PUSH1 0x8 DUP3 ADD SWAP1 POP SWAP2 SWAP1 POP JUMP JUMPDEST PUSH32 0x206E6F7420666F756E6421000000000000000000000000000000000000000000 PUSH1 0x0 DUP3 ADD MSTORE POP JUMP JUMPDEST PUSH1 0x0 PUSH2 0xE1B PUSH1 0xB DUP4 PUSH2 0xCBF JUMP JUMPDEST SWAP2 POP PUSH2 0xE26 DUP3 PUSH2 0xDE5 JUMP JUMPDEST PUSH1 0xB DUP3 ADD SWAP1 POP SWAP2 SWAP1 POP JUMP JUMPDEST PUSH1 0x0 PUSH2 0xE3C DUP3 PUSH2 0xDC2 JUMP JUMPDEST SWAP2 POP PUSH2 0xE48 DUP3 DUP5 PUSH2 0xCCA JUMP JUMPDEST SWAP2 POP PUSH2 0xE53 DUP3 PUSH2 0xE0E JUMP JUMPDEST SWAP2 POP DUP2 SWAP1 POP SWAP3 SWAP2 POP POP JUMP JUMPDEST PUSH32 0x4E487B7100000000000000000000000000000000000000000000000000000000 PUSH1 0x0 MSTORE PUSH1 0x22 PUSH1 0x4 MSTORE PUSH1 0x24 PUSH1 0x0 REVERT JUMPDEST PUSH1 0x0 PUSH1 0x2 DUP3 DIV SWAP1 POP PUSH1 0x1 DUP3 AND DUP1 PUSH2 0xEA5 JUMPI PUSH1 0x7F DUP3 AND SWAP2 POP JUMPDEST PUSH1 0x20 DUP3 LT DUP2 SUB PUSH2 0xEB8 JUMPI PUSH2 0xEB7 PUSH2 0xE5E JUMP JUMPDEST JUMPDEST POP SWAP2 SWAP1 POP JUMP JUMPDEST PUSH1 0x0 DUP2 SWAP1 POP DUP2 PUSH1 0x0 MSTORE PUSH1 0x20 PUSH1 0x0 KECCAK256 SWAP1 POP SWAP2 SWAP1 POP JUMP JUMPDEST PUSH1 0x0 PUSH1 0x20 PUSH1 0x1F DUP4 ADD DIV SWAP1 POP SWAP2 SWAP1 POP JUMP JUMPDEST PUSH1 0x0 DUP3 DUP3 SHL SWAP1 POP SWAP3 SWAP2 POP POP JUMP JUMPDEST PUSH1 0x0 PUSH1 0x8 DUP4 MUL PUSH2 0xF20 PUSH32 0xFFFFFFFFFFFFFFFFFFFFFFFFFFFFFFFFFFFFFFFFFFFFFFFFFFFFFFFFFFFFFFFF DUP3 PUSH2 0xEE3 JUMP JUMPDEST PUSH2 0xF2A DUP7 DUP4 PUSH2 0xEE3 JUMP JUMPDEST SWAP6 POP DUP1 NOT DUP5 AND SWAP4 POP DUP1 DUP7 AND DUP5 OR SWAP3 POP POP POP SWAP4 SWAP3 POP POP POP JUMP JUMPDEST PUSH1 0x0 DUP2 SWAP1 POP SWAP2 SWAP1 POP JUMP JUMPDEST PUSH1 0x0 PUSH2 0xF67 PUSH2 0xF62 PUSH2 0xF5D DUP5 PUSH2 0x9AA JUMP JUMPDEST PUSH2 0xF42 JUMP JUMPDEST PUSH2 0x9AA JUMP JUMPDEST SWAP1 POP SWAP2 SWAP1 POP JUMP JUMPDEST PUSH1 0x0 DUP2 SWAP1 POP SWAP2 SWAP1 POP JUMP JUMPDEST PUSH2 0xF81 DUP4 PUSH2 0xF4C JUMP JUMPDEST PUSH2 0xF95 PUSH2 0xF8D DUP3 PUSH2 0xF6E JUMP JUMPDEST DUP5 DUP5 SLOAD PUSH2 0xEF0 JUMP JUMPDEST DUP3 SSTORE POP POP POP POP JUMP JUMPDEST PUSH1 0x0 SWAP1 JUMP JUMPDEST PUSH2 0xFAA PUSH2 0xF9D JUMP JUMPDEST PUSH2 0xFB5 DUP2 DUP5 DUP5 PUSH2 0xF78 JUMP JUMPDEST POP POP POP JUMP JUMPDEST JUMPDEST DUP2 DUP2 LT ISZERO PUSH2 0xFD9 JUMPI PUSH2 0xFCE PUSH1 0x0 DUP3 PUSH2 0xFA2 JUMP JUMPDEST PUSH1 0x1 DUP2 ADD SWAP1 POP PUSH2 0xFBB JUMP JUMPDEST POP POP JUMP JUMPDEST PUSH1 0x1F DUP3 GT ISZERO PUSH2 0x101E JUMPI PUSH2 0xFEF DUP2 PUSH2 0xEBE JUMP JUMPDEST PUSH2 0xFF8 DUP5 PUSH2 0xED3 JUMP JUMPDEST DUP2 ADD PUSH1 0x20 DUP6 LT ISZERO PUSH2 0x1007 JUMPI DUP2 SWAP1 POP JUMPDEST PUSH2 0x101B PUSH2 0x1013 DUP6 PUSH2 0xED3 JUMP JUMPDEST DUP4 ADD DUP3 PUSH2 0xFBA JUMP JUMPDEST POP POP JUMPDEST POP POP POP JUMP JUMPDEST PUSH1 0x0 DUP3 DUP3 SHR SWAP1 POP SWAP3 SWAP2 POP POP JUMP JUMPDEST PUSH1 0x0 PUSH2 0x1041 PUSH1 0x0 NOT DUP5 PUSH1 0x8 MUL PUSH2 0x1023 JUMP JUMPDEST NOT DUP1 DUP4 AND SWAP2 POP POP SWAP3 SWAP2 POP POP JUMP JUMPDEST PUSH1 0x0 PUSH2 0x105A DUP4 DUP4 PUSH2 0x1030 JUMP JUMPDEST SWAP2 POP DUP3 PUSH1 0x2 MUL DUP3 OR SWAP1 POP SWAP3 SWAP2 POP POP JUMP JUMPDEST PUSH2 0x1073 DUP3 PUSH2 0xBDF JUMP JUMPDEST PUSH8 0xFFFFFFFFFFFFFFFF DUP2 GT ISZERO PUSH2 0x108C JUMPI PUSH2 0x108B PUSH2 0x80A JUMP JUMPDEST JUMPDEST PUSH2 0x1096 DUP3 SLOAD PUSH2 0xE8D JUMP JUMPDEST PUSH2 0x10A1 DUP3 DUP3 DUP6 PUSH2 0xFDD JUMP JUMPDEST PUSH1 0x0 PUSH1 0x20 SWAP1 POP PUSH1 0x1F DUP4 GT PUSH1 0x1 DUP2 EQ PUSH2 0x10D4 JUMPI PUSH1 0x0 DUP5 ISZERO PUSH2 0x10C2 JUMPI DUP3 DUP8 ADD MLOAD SWAP1 POP JUMPDEST PUSH2 0x10CC DUP6 DUP3 PUSH2 0x104E JUMP JUMPDEST DUP7 SSTORE POP PUSH2 0x1134 JUMP JUMPDEST PUSH1 0x1F NOT DUP5 AND PUSH2 0x10E2 DUP7 PUSH2 0xEBE JUMP JUMPDEST PUSH1 0x0 JUMPDEST DUP3 DUP2 LT ISZERO PUSH2 0x110A JUMPI DUP5 DUP10 ADD MLOAD DUP3 SSTORE PUSH1 0x1 DUP3 ADD SWAP2 POP PUSH1 0x20 DUP6 ADD SWAP5 POP PUSH1 0x20 DUP2 ADD SWAP1 POP PUSH2 0x10E5 JUMP JUMPDEST DUP7 DUP4 LT ISZERO PUSH2 0x1127 JUMPI DUP5 DUP10 ADD MLOAD PUSH2 0x1123 PUSH1 0x1F DUP10 AND DUP3 PUSH2 0x1030 JUMP JUMPDEST DUP4 SSTORE POP JUMPDEST PUSH1 0x1 PUSH1 0x2 DUP9 MUL ADD DUP9 SSTORE POP POP POP JUMPDEST POP POP POP POP POP POP JUMP JUMPDEST PUSH1 0x0 PUSH1 0xA0 DUP3 ADD SWAP1 POP DUP2 DUP2 SUB PUSH1 0x0 DUP4 ADD MSTORE PUSH2 0x1156 DUP2 DUP9 PUSH2 0xC25 JUMP JUMPDEST SWAP1 POP DUP2 DUP2 SUB PUSH1 0x20 DUP4 ADD MSTORE PUSH2 0x116A DUP2 DUP8 PUSH2 0xC25 JUMP JUMPDEST SWAP1 POP DUP2 DUP2 SUB PUSH1 0x40 DUP4 ADD MSTORE PUSH2 0x117E DUP2 DUP7 PUSH2 0xC25 JUMP JUMPDEST SWAP1 POP DUP2 DUP2 SUB PUSH1 0x60 DUP4 ADD MSTORE PUSH2 0x1192 DUP2 DUP6 PUSH2 0xC25 JUMP JUMPDEST SWAP1 POP DUP2 DUP2 SUB PUSH1 0x80 DUP4 ADD MSTORE PUSH2 0x11A6 DUP2 DUP5 PUSH2 0xC25 JUMP JUMPDEST SWAP1 POP SWAP7 SWAP6 POP POP POP POP POP POP JUMP INVALID LOG2 PUSH5 0x6970667358 0x22 SLT KECCAK256 PUSH12 0xDA151146F9CF8849C0FEE01 0xC5 0xD1 SWAP16 POP 0xBE CALL AND 0xE2 NUMBER SWAP3 PUSH4 0x733290AC PUSH28 0x275D5564736F6C634300081100330000000000000000000000000000 "},"methodIdentifiers":{"getBlocksNums(string)":"09631822","getOwnerInfo(string)":"ccea1767","setOwnerInfo(string,string,string,string,string,address)":"c9fda373"}}}}}