{
  "_format": "hh-sol-artifact-1",
  "contractName": "Mileages",
  "sourceName": "blockchain/contracts/Mileages.sol",
  "abi": [
    {
      "anonymous": false,
      "inputs": [
        {
          "indexed": false,
          "internalType": "string",
          "name": "vin",
          "type": "string"
        },
        {
          "indexed": false,
          "internalType": "uint256",
          "name": "mileage",
          "type": "uint256"
        }
      ],
      "name": "MileageChanged",
      "type": "event"
    },
    {
      "inputs": [
        {
          "internalType": "string",
          "name": "_vin",
          "type": "string"
        }
      ],
      "name": "getBlocksNums",
      "outputs": [
        {
          "internalType": "uint256[]",
          "name": "_blocksNums",
          "type": "uint256[]"
        }
      ],
      "stateMutability": "view",
      "type": "function"
    },
    {
      "inputs": [
        {
          "internalType": "string",
          "name": "_vin",
          "type": "string"
        }
      ],
      "name": "getMileage",
      "outputs": [
        {
          "internalType": "uint256",
          "name": "_mileage",
          "type": "uint256"
        }
      ],
      "stateMutability": "view",
      "type": "function"
    },
    {
      "inputs": [
        {
          "internalType": "string",
          "name": "_vin",
          "type": "string"
        },
        {
          "internalType": "uint256",
          "name": "_mileage",
          "type": "uint256"
        },
        {
          "internalType": "address",
          "name": "_vehiclesContract",
          "type": "address"
        }
      ],
      "name": "regMileage",
      "outputs": [],
      "stateMutability": "nonpayable",
      "type": "function"
    }
  ],
  "bytecode": "0x608060405234801561001057600080fd5b50610d23806100206000396000f3fe608060405234801561001057600080fd5b50600436106100415760003560e01c806309631822146100465780631da25c0e14610076578063e85a74ba146100a6575b600080fd5b610060600480360381019061005b919061056b565b6100c2565b60405161006d919061067c565b60405180910390f35b610090600480360381019061008b919061056b565b61013b565b60405161009d91906106ad565b60405180910390f35b6100c060048036038101906100bb9190610752565b610165565b005b60606000826040516100d49190610832565b908152602001604051809103902060020180548060200260200160405190810160405280929190818152602001828054801561012f57602002820191906000526020600020905b81548152602001906001019080831161011b575b50505050509050919050565b6000808260405161014c9190610832565b9081526020016040518091039020600101549050919050565b6000819050600115158173ffffffffffffffffffffffffffffffffffffffff166330f2c560866040518263ffffffff1660e01b81526004016101a79190610893565b602060405180830381865afa1580156101c4573d6000803e3d6000fd5b505050506040513d601f19601f820116820180604052508101906101e891906108ed565b151514846040516020016101fc91906109b2565b6040516020818303038152906040529061024c576040517f08c379a00000000000000000000000000000000000000000000000000000000081526004016102439190610893565b60405180910390fd5b506000808560405161025e9190610832565b908152602001604051809103902060020190508043908060018154018082558091505060019003906000526020600020016000909190919091505560006040518060600160405280878152602001868152602001838054806020026020016040519081016040528092919081815260200182805480156102fd57602002820191906000526020600020905b8154815260200190600101908083116102e9575b50505050508152509050806000876040516103189190610832565b9081526020016040518091039020600082015181600001908161033b9190610beb565b506020820151816001015560408201518160020190805190602001906103629291906103a7565b509050507fd704800da17d81516150738fae54f3824933ff0570a3570cf68f5ac9faa4498f8686604051610397929190610cbd565b60405180910390a1505050505050565b8280548282559060005260206000209081019282156103e3579160200282015b828111156103e25782518255916020019190600101906103c7565b5b5090506103f091906103f4565b5090565b5b8082111561040d5760008160009055506001016103f5565b5090565b6000604051905090565b600080fd5b600080fd5b600080fd5b600080fd5b6000601f19601f8301169050919050565b7f4e487b7100000000000000000000000000000000000000000000000000000000600052604160045260246000fd5b6104788261042f565b810181811067ffffffffffffffff8211171561049757610496610440565b5b80604052505050565b60006104aa610411565b90506104b6828261046f565b919050565b600067ffffffffffffffff8211156104d6576104d5610440565b5b6104df8261042f565b9050602081019050919050565b82818337600083830152505050565b600061050e610509846104bb565b6104a0565b90508281526020810184848401111561052a5761052961042a565b5b6105358482856104ec565b509392505050565b600082601f83011261055257610551610425565b5b81356105628482602086016104fb565b91505092915050565b6000602082840312156105815761058061041b565b5b600082013567ffffffffffffffff81111561059f5761059e610420565b5b6105ab8482850161053d565b91505092915050565b600081519050919050565b600082825260208201905092915050565b6000819050602082019050919050565b6000819050919050565b6105f3816105e0565b82525050565b600061060583836105ea565b60208301905092915050565b6000602082019050919050565b6000610629826105b4565b61063381856105bf565b935061063e836105d0565b8060005b8381101561066f57815161065688826105f9565b975061066183610611565b925050600181019050610642565b5085935050505092915050565b60006020820190508181036000830152610696818461061e565b905092915050565b6106a7816105e0565b82525050565b60006020820190506106c2600083018461069e565b92915050565b6106d1816105e0565b81146106dc57600080fd5b50565b6000813590506106ee816106c8565b92915050565b600073ffffffffffffffffffffffffffffffffffffffff82169050919050565b600061071f826106f4565b9050919050565b61072f81610714565b811461073a57600080fd5b50565b60008135905061074c81610726565b92915050565b60008060006060848603121561076b5761076a61041b565b5b600084013567ffffffffffffffff81111561078957610788610420565b5b6107958682870161053d565b93505060206107a6868287016106df565b92505060406107b78682870161073d565b9150509250925092565b600081519050919050565b600081905092915050565b60005b838110156107f55780820151818401526020810190506107da565b60008484015250505050565b600061080c826107c1565b61081681856107cc565b93506108268185602086016107d7565b80840191505092915050565b600061083e8284610801565b915081905092915050565b600082825260208201905092915050565b6000610865826107c1565b61086f8185610849565b935061087f8185602086016107d7565b6108888161042f565b840191505092915050565b600060208201905081810360008301526108ad818461085a565b905092915050565b60008115159050919050565b6108ca816108b5565b81146108d557600080fd5b50565b6000815190506108e7816108c1565b92915050565b6000602082840312156109035761090261041b565b5b6000610911848285016108d8565b91505092915050565b7f56656869636c6520000000000000000000000000000000000000000000000000600082015250565b60006109506008836107cc565b915061095b8261091a565b600882019050919050565b7f206e6f7420666f756e6421000000000000000000000000000000000000000000600082015250565b600061099c600b836107cc565b91506109a782610966565b600b82019050919050565b60006109bd82610943565b91506109c98284610801565b91506109d48261098f565b915081905092915050565b7f4e487b7100000000000000000000000000000000000000000000000000000000600052602260045260246000fd5b60006002820490506001821680610a2657607f821691505b602082108103610a3957610a386109df565b5b50919050565b60008190508160005260206000209050919050565b60006020601f8301049050919050565b600082821b905092915050565b600060088302610aa17fffffffffffffffffffffffffffffffffffffffffffffffffffffffffffffffff82610a64565b610aab8683610a64565b95508019841693508086168417925050509392505050565b6000819050919050565b6000610ae8610ae3610ade846105e0565b610ac3565b6105e0565b9050919050565b6000819050919050565b610b0283610acd565b610b16610b0e82610aef565b848454610a71565b825550505050565b600090565b610b2b610b1e565b610b36818484610af9565b505050565b5b81811015610b5a57610b4f600082610b23565b600181019050610b3c565b5050565b601f821115610b9f57610b7081610a3f565b610b7984610a54565b81016020851015610b88578190505b610b9c610b9485610a54565b830182610b3b565b50505b505050565b600082821c905092915050565b6000610bc260001984600802610ba4565b1980831691505092915050565b6000610bdb8383610bb1565b9150826002028217905092915050565b610bf4826107c1565b67ffffffffffffffff811115610c0d57610c0c610440565b5b610c178254610a0e565b610c22828285610b5e565b600060209050601f831160018114610c555760008415610c43578287015190505b610c4d8582610bcf565b865550610cb5565b601f198416610c6386610a3f565b60005b82811015610c8b57848901518255600182019150602085019450602081019050610c66565b86831015610ca85784890151610ca4601f891682610bb1565b8355505b6001600288020188555050505b505050505050565b60006040820190508181036000830152610cd7818561085a565b9050610ce6602083018461069e565b939250505056fea2646970667358221220e59092b49c38f2fef7dcd98fafeaea4c347303bba69446b70a5879c6481302cb64736f6c63430008110033",
  "linkReferences": {},
  "deployedLinkReferences": {}
}