{
  "_format": "hh-sol-artifact-1",
  "contractName": "Controls",
  "sourceName": "blockchain/contracts/Controls.sol",
  "abi": [
    {
      "anonymous": false,
      "inputs": [
        {
          "indexed": false,
          "internalType": "string",
          "name": "vin",
          "type": "string"
        },
        {
          "indexed": false,
          "internalType": "string",
          "name": "regCertStatus",
          "type": "string"
        }
      ],
      "name": "ControlDone",
      "type": "event"
    },
    {
      "inputs": [
        {
          "internalType": "string",
          "name": "_vin",
          "type": "string"
        }
      ],
      "name": "getBlocksNums",
      "outputs": [
        {
          "internalType": "uint256[]",
          "name": "_blocksNums",
          "type": "uint256[]"
        }
      ],
      "stateMutability": "view",
      "type": "function"
    },
    {
      "inputs": [
        {
          "internalType": "string",
          "name": "_vin",
          "type": "string"
        },
        {
          "internalType": "string",
          "name": "_regCertStatus",
          "type": "string"
        },
        {
          "internalType": "uint256",
          "name": "_mileage",
          "type": "uint256"
        },
        {
          "internalType": "address",
          "name": "_vehiclesContract",
          "type": "address"
        },
        {
          "internalType": "address",
          "name": "_mileagesContract",
          "type": "address"
        }
      ],
      "name": "regControl",
      "outputs": [],
      "stateMutability": "nonpayable",
      "type": "function"
    }
  ],
  "bytecode": "0x608060405234801561001057600080fd5b50611069806100206000396000f3fe608060405234801561001057600080fd5b50600436106100365760003560e01c8063096318221461003b5780638a1468e61461006b575b600080fd5b610055600480360381019061005091906106ba565b610087565b60405161006291906107cb565b60405180910390f35b61008560048036038101906100809190610877565b610100565b005b6060600082604051610099919061099b565b90815260200160405180910390206001018054806020026020016040519081016040528092919081815260200182805480156100f457602002820191906000526020600020905b8154815260200190600101908083116100e0575b50505050509050919050565b6000829050600115158173ffffffffffffffffffffffffffffffffffffffff166330f2c560886040518263ffffffff1660e01b815260040161014291906109fc565b602060405180830381865afa15801561015f573d6000803e3d6000fd5b505050506040513d601f19601f820116820180604052508101906101839190610a56565b151514866040516020016101979190610b1b565b604051602081830303815290604052906101e7576040517f08c379a00000000000000000000000000000000000000000000000000000000081526004016101de91906109fc565b60405180910390fd5b506040516020016101f790610b94565b604051602081830303815290604052805190602001208560405160200161021e919061099b565b604051602081830303815290604052805190602001201480610289575060405160200161024a90610bf5565b6040516020818303038152906040528051906020012085604051602001610271919061099b565b60405160208183030381529060405280519060200120145b6102c8576040517f08c379a00000000000000000000000000000000000000000000000000000000081526004016102bf90610ca2565b60405180910390fd5b600080876040516102d9919061099b565b9081526020016040518091039020600101905080439080600181540180825580915050600190039060005260206000200160009091909190915055600060405180604001604052808981526020018380548060200260200160405190810160405280929190818152602001828054801561037257602002820191906000526020600020905b81548152602001906001019080831161035e575b505050505081525090508060008960405161038d919061099b565b908152602001604051809103902060008201518160000190816103b09190610ece565b5060208201518160010190805190602001906103cd9291906104f6565b509050508273ffffffffffffffffffffffffffffffffffffffff16633b73147989896040518363ffffffff1660e01b815260040161040c929190610fa0565b600060405180830381600087803b15801561042657600080fd5b505af115801561043a573d6000803e3d6000fd5b5050505060008490508073ffffffffffffffffffffffffffffffffffffffff1663e85a74ba8a89896040518463ffffffff1660e01b815260040161048093929190610ff5565b600060405180830381600087803b15801561049a57600080fd5b505af11580156104ae573d6000803e3d6000fd5b505050507f71b265fdd2b2a11e11d15b92e3eb1f3d44fb281029cd4e5bce3cbb7ec487cb8689896040516104e3929190610fa0565b60405180910390a1505050505050505050565b828054828255906000526020600020908101928215610532579160200282015b82811115610531578251825591602001919060010190610516565b5b50905061053f9190610543565b5090565b5b8082111561055c576000816000905550600101610544565b5090565b6000604051905090565b600080fd5b600080fd5b600080fd5b600080fd5b6000601f19601f8301169050919050565b7f4e487b7100000000000000000000000000000000000000000000000000000000600052604160045260246000fd5b6105c78261057e565b810181811067ffffffffffffffff821117156105e6576105e561058f565b5b80604052505050565b60006105f9610560565b905061060582826105be565b919050565b600067ffffffffffffffff8211156106255761062461058f565b5b61062e8261057e565b9050602081019050919050565b82818337600083830152505050565b600061065d6106588461060a565b6105ef565b90508281526020810184848401111561067957610678610579565b5b61068484828561063b565b509392505050565b600082601f8301126106a1576106a0610574565b5b81356106b184826020860161064a565b91505092915050565b6000602082840312156106d0576106cf61056a565b5b600082013567ffffffffffffffff8111156106ee576106ed61056f565b5b6106fa8482850161068c565b91505092915050565b600081519050919050565b600082825260208201905092915050565b6000819050602082019050919050565b6000819050919050565b6107428161072f565b82525050565b60006107548383610739565b60208301905092915050565b6000602082019050919050565b600061077882610703565b610782818561070e565b935061078d8361071f565b8060005b838110156107be5781516107a58882610748565b97506107b083610760565b925050600181019050610791565b5085935050505092915050565b600060208201905081810360008301526107e5818461076d565b905092915050565b6107f68161072f565b811461080157600080fd5b50565b600081359050610813816107ed565b92915050565b600073ffffffffffffffffffffffffffffffffffffffff82169050919050565b600061084482610819565b9050919050565b61085481610839565b811461085f57600080fd5b50565b6000813590506108718161084b565b92915050565b600080600080600060a086880312156108935761089261056a565b5b600086013567ffffffffffffffff8111156108b1576108b061056f565b5b6108bd8882890161068c565b955050602086013567ffffffffffffffff8111156108de576108dd61056f565b5b6108ea8882890161068c565b94505060406108fb88828901610804565b935050606061090c88828901610862565b925050608061091d88828901610862565b9150509295509295909350565b600081519050919050565b600081905092915050565b60005b8381101561095e578082015181840152602081019050610943565b60008484015250505050565b60006109758261092a565b61097f8185610935565b935061098f818560208601610940565b80840191505092915050565b60006109a7828461096a565b915081905092915050565b600082825260208201905092915050565b60006109ce8261092a565b6109d881856109b2565b93506109e8818560208601610940565b6109f18161057e565b840191505092915050565b60006020820190508181036000830152610a1681846109c3565b905092915050565b60008115159050919050565b610a3381610a1e565b8114610a3e57600080fd5b50565b600081519050610a5081610a2a565b92915050565b600060208284031215610a6c57610a6b61056a565b5b6000610a7a84828501610a41565b91505092915050565b7f56656869636c6520000000000000000000000000000000000000000000000000600082015250565b6000610ab9600883610935565b9150610ac482610a83565b600882019050919050565b7f206e6f7420666f756e6421000000000000000000000000000000000000000000600082015250565b6000610b05600b83610935565b9150610b1082610acf565b600b82019050919050565b6000610b2682610aac565b9150610b32828461096a565b9150610b3d82610af8565b915081905092915050565b7f5600000000000000000000000000000000000000000000000000000000000000600082015250565b6000610b7e600183610935565b9150610b8982610b48565b600182019050919050565b6000610b9f82610b71565b9150819050919050565b7f4900000000000000000000000000000000000000000000000000000000000000600082015250565b6000610bdf600183610935565b9150610bea82610ba9565b600182019050919050565b6000610c0082610bd2565b9150819050919050565b7f526567697374726174696f6e206365727469666963617465207374617475732060008201527f73686f756c642062652056202856616c696429206f7220492028496e76616c6960208201527f6429210000000000000000000000000000000000000000000000000000000000604082015250565b6000610c8c6043836109b2565b9150610c9782610c0a565b606082019050919050565b60006020820190508181036000830152610cbb81610c7f565b9050919050565b7f4e487b7100000000000000000000000000000000000000000000000000000000600052602260045260246000fd5b60006002820490506001821680610d0957607f821691505b602082108103610d1c57610d1b610cc2565b5b50919050565b60008190508160005260206000209050919050565b60006020601f8301049050919050565b600082821b905092915050565b600060088302610d847fffffffffffffffffffffffffffffffffffffffffffffffffffffffffffffffff82610d47565b610d8e8683610d47565b95508019841693508086168417925050509392505050565b6000819050919050565b6000610dcb610dc6610dc18461072f565b610da6565b61072f565b9050919050565b6000819050919050565b610de583610db0565b610df9610df182610dd2565b848454610d54565b825550505050565b600090565b610e0e610e01565b610e19818484610ddc565b505050565b5b81811015610e3d57610e32600082610e06565b600181019050610e1f565b5050565b601f821115610e8257610e5381610d22565b610e5c84610d37565b81016020851015610e6b578190505b610e7f610e7785610d37565b830182610e1e565b50505b505050565b600082821c905092915050565b6000610ea560001984600802610e87565b1980831691505092915050565b6000610ebe8383610e94565b9150826002028217905092915050565b610ed78261092a565b67ffffffffffffffff811115610ef057610eef61058f565b5b610efa8254610cf1565b610f05828285610e41565b600060209050601f831160018114610f385760008415610f26578287015190505b610f308582610eb2565b865550610f98565b601f198416610f4686610d22565b60005b82811015610f6e57848901518255600182019150602085019450602081019050610f49565b86831015610f8b5784890151610f87601f891682610e94565b8355505b6001600288020188555050505b505050505050565b60006040820190508181036000830152610fba81856109c3565b90508181036020830152610fce81846109c3565b90509392505050565b610fe08161072f565b82525050565b610fef81610839565b82525050565b6000606082019050818103600083015261100f81866109c3565b905061101e6020830185610fd7565b61102b6040830184610fe6565b94935050505056fea26469706673582212204f2ec0c05e7464686f9d4d6083c64f3139aae80de85235deeba9bbb72131017564736f6c63430008110033",
  "linkReferences": {},
  "deployedLinkReferences": {}
}